{
  "contracts/SuccessNFT.sol": {
    "SuccessNFT": {
      "abi": [
        {
          "inputs": [],
          "stateMutability": "nonpayable",
          "type": "constructor"
        },
        {
          "anonymous": false,
          "inputs": [
            {
              "indexed": true,
              "internalType": "address",
              "name": "owner",
              "type": "address"
            },
            {
              "indexed": true,
              "internalType": "address",
              "name": "approved",
              "type": "address"
            },
            {
              "indexed": true,
              "internalType": "uint256",
              "name": "tokenId",
              "type": "uint256"
            }
          ],
          "name": "Approval",
          "type": "event"
        },
        {
          "anonymous": false,
          "inputs": [
            {
              "indexed": true,
              "internalType": "address",
              "name": "owner",
              "type": "address"
            },
            {
              "indexed": true,
              "internalType": "address",
              "name": "operator",
              "type": "address"
            },
            {
              "indexed": false,
              "internalType": "bool",
              "name": "approved",
              "type": "bool"
            }
          ],
          "name": "ApprovalForAll",
          "type": "event"
        },
        {
          "anonymous": false,
          "inputs": [
            {
              "indexed": false,
              "internalType": "uint256",
              "name": "tokenId",
              "type": "uint256"
            },
            {
              "indexed": false,
              "internalType": "uint256",
              "name": "price",
              "type": "uint256"
            }
          ],
          "name": "MarketOrder",
          "type": "event"
        },
        {
          "anonymous": false,
          "inputs": [
            {
              "indexed": true,
              "internalType": "address",
              "name": "from",
              "type": "address"
            },
            {
              "indexed": true,
              "internalType": "address",
              "name": "to",
              "type": "address"
            },
            {
              "indexed": true,
              "internalType": "uint256",
              "name": "tokenId",
              "type": "uint256"
            }
          ],
          "name": "Transfer",
          "type": "event"
        },
        {
          "inputs": [
            {
              "internalType": "address",
              "name": "to",
              "type": "address"
            },
            {
              "internalType": "uint256",
              "name": "tokenId",
              "type": "uint256"
            }
          ],
          "name": "approve",
          "outputs": [],
          "stateMutability": "nonpayable",
          "type": "function"
        },
        {
          "inputs": [
            {
              "internalType": "address",
              "name": "owner",
              "type": "address"
            }
          ],
          "name": "balanceOf",
          "outputs": [
            {
              "internalType": "uint256",
              "name": "",
              "type": "uint256"
            }
          ],
          "stateMutability": "view",
          "type": "function"
        },
        {
          "inputs": [],
          "name": "currentTokenId",
          "outputs": [
            {
              "internalType": "uint256",
              "name": "",
              "type": "uint256"
            }
          ],
          "stateMutability": "view",
          "type": "function"
        },
        {
          "inputs": [
            {
              "internalType": "uint256",
              "name": "tokenId",
              "type": "uint256"
            }
          ],
          "name": "getApproved",
          "outputs": [
            {
              "internalType": "address",
              "name": "",
              "type": "address"
            }
          ],
          "stateMutability": "view",
          "type": "function"
        },
        {
          "inputs": [
            {
              "internalType": "address",
              "name": "owner",
              "type": "address"
            },
            {
              "internalType": "address",
              "name": "operator",
              "type": "address"
            }
          ],
          "name": "isApprovedForAll",
          "outputs": [
            {
              "internalType": "bool",
              "name": "",
              "type": "bool"
            }
          ],
          "stateMutability": "view",
          "type": "function"
        },
        {
          "inputs": [
            {
              "internalType": "address",
              "name": "recipient",
              "type": "address"
            }
          ],
          "name": "mintTo",
          "outputs": [
            {
              "internalType": "uint256",
              "name": "",
              "type": "uint256"
            }
          ],
          "stateMutability": "nonpayable",
          "type": "function"
        },
        {
          "inputs": [],
          "name": "name",
          "outputs": [
            {
              "internalType": "string",
              "name": "",
              "type": "string"
            }
          ],
          "stateMutability": "view",
          "type": "function"
        },
        {
          "inputs": [
            {
              "internalType": "uint256",
              "name": "tokenId",
              "type": "uint256"
            }
          ],
          "name": "ownerOf",
          "outputs": [
            {
              "internalType": "address",
              "name": "",
              "type": "address"
            }
          ],
          "stateMutability": "view",
          "type": "function"
        },
        {
          "inputs": [
            {
              "internalType": "uint256",
              "name": "itemId",
              "type": "uint256"
            }
          ],
          "name": "purchaseHigher",
          "outputs": [
            {
              "internalType": "bool",
              "name": "success",
              "type": "bool"
            }
          ],
          "stateMutability": "payable",
          "type": "function"
        },
        {
          "inputs": [
            {
              "internalType": "address",
              "name": "from",
              "type": "address"
            },
            {
              "internalType": "address",
              "name": "to",
              "type": "address"
            },
            {
              "internalType": "uint256",
              "name": "tokenId",
              "type": "uint256"
            }
          ],
          "name": "safeTransferFrom",
          "outputs": [],
          "stateMutability": "nonpayable",
          "type": "function"
        },
        {
          "inputs": [
            {
              "internalType": "address",
              "name": "from",
              "type": "address"
            },
            {
              "internalType": "address",
              "name": "to",
              "type": "address"
            },
            {
              "internalType": "uint256",
              "name": "tokenId",
              "type": "uint256"
            },
            {
              "internalType": "bytes",
              "name": "_data",
              "type": "bytes"
            }
          ],
          "name": "safeTransferFrom",
          "outputs": [],
          "stateMutability": "nonpayable",
          "type": "function"
        },
        {
          "inputs": [
            {
              "internalType": "address",
              "name": "operator",
              "type": "address"
            },
            {
              "internalType": "bool",
              "name": "approved",
              "type": "bool"
            }
          ],
          "name": "setApprovalForAll",
          "outputs": [],
          "stateMutability": "nonpayable",
          "type": "function"
        },
        {
          "inputs": [
            {
              "internalType": "uint256",
              "name": "",
              "type": "uint256"
            }
          ],
          "name": "successHashOfToken",
          "outputs": [
            {
              "internalType": "bytes32",
              "name": "",
              "type": "bytes32"
            }
          ],
          "stateMutability": "view",
          "type": "function"
        },
        {
          "inputs": [
            {
              "internalType": "bytes4",
              "name": "interfaceId",
              "type": "bytes4"
            }
          ],
          "name": "supportsInterface",
          "outputs": [
            {
              "internalType": "bool",
              "name": "",
              "type": "bool"
            }
          ],
          "stateMutability": "view",
          "type": "function"
        },
        {
          "inputs": [],
          "name": "symbol",
          "outputs": [
            {
              "internalType": "string",
              "name": "",
              "type": "string"
            }
          ],
          "stateMutability": "view",
          "type": "function"
        },
        {
          "inputs": [
            {
              "internalType": "uint256",
              "name": "",
              "type": "uint256"
            }
          ],
          "name": "tokenPrice",
          "outputs": [
            {
              "internalType": "uint256",
              "name": "",
              "type": "uint256"
            }
          ],
          "stateMutability": "view",
          "type": "function"
        },
        {
          "inputs": [
            {
              "internalType": "uint256",
              "name": "id",
              "type": "uint256"
            }
          ],
          "name": "tokenURI",
          "outputs": [
            {
              "internalType": "string",
              "name": "",
              "type": "string"
            }
          ],
          "stateMutability": "view",
          "type": "function"
        },
        {
          "inputs": [
            {
              "internalType": "address",
              "name": "from",
              "type": "address"
            },
            {
              "internalType": "address",
              "name": "to",
              "type": "address"
            },
            {
              "internalType": "uint256",
              "name": "tokenId",
              "type": "uint256"
            }
          ],
          "name": "transferFrom",
          "outputs": [],
          "stateMutability": "nonpayable",
          "type": "function"
        }
      ],
      "evm": {
        "bytecode": {
          "object": "0c0000040004000000010000000000000000ffffffffffffffff0000000000000c000004000400000000ffffffffffffffffffffffffffffffff0000000000000e000000000200000001000000000000000000000000000000000000000000001a020004000800000002000000000000000000000000000000000000000000000c000010001000000001000000000000000001000000000000000000000000000c000010001000000000000000000000000000000000000000000000000000000c000020002000000001010000000000000000000000000000000000000000000c000020002000000000000000000000000000000000000000000000000000000c000004000400000001010000000000000000000000000000000000000000000c0000040004000000000000000000000000000000000000000000000000000004080010000000000000000000000000000000000000000000000000000000000a0000000000000000040e000c000000000000000000000000000000000000000c000004000400000001000000000000000000000000000000000000000000000c000004000400000000000000000000000000000000000000000000000000000c0000100010000000017c7ee91ae51bb0ed9b9e413333bf74f70000000000000c000010001000000000b75ee1170f6b7c3ce4583c65d82198c400000000000005100000004000000001000000000000000000000000000000000000000000000c000010001000000001010000000000000000000000000000000000000000000c0000100010000000000000000000000000000000000000000000000000000004400000000000000000000000000000000000000000000000000000000000000a000000000000000004170015000000000000000000000000000000000000000c000010001000000001000000000000000000000000000000000000000000000c0000100010000000000000000000000000000000000000000000000000000004400020000000000000000000000000000000000000000000000000000000000a00000000000000000419001f000000000000000000000000000000000000000c000020002000000001000000000000000000000000000000000000000000000c00002000200000000000000000000000000000000083bbcae30000000000000c000080008000000001000000000000000001000000000000000000000000000c0000800080000000000000000000000000000000000000000000000000000004080080000000000000000000000000000000000000000000000000000000000a00000000000000000433001f0000000000000000000000000000000000000004400000000000000000000000000000000000000000000000000000000000000a000000000000000004210027000000000000000000000000000000000000000c000020002000000001000000000000000000000000000000000000000000000c000020002000000000000000000000000000000000c9a6bc8e0000000000000c000008000800000001000000000000000001000000000000000000000000000c0000080008000000000000000000000000000000000000000000000000000004020008000000000000000000000000000000000000000000000000000000000a000000000000000002330027000000000000000000000000000000000000001a100004000200000002000000000000000000000000000000000000000000001a000002000200000002010000000000000000000000000000000000000000000c000004000400000001010000000000000000000000000000000000000000000c0000040004000000000000000000000000000000000000000000000000000004020004000000000000000000000000000000000000000000000000000000000a0000000000000000042d00300000000000000000000000000000000000000007000000000000000003380000000000000000000000000000000000000000000a00000000000000000232002f000000000000000000000000000000000000000700000000000000000000000000000000000000000000000000000000000000070000000000000000036a0100000000000000000000000000000000000000000a00000000000000000232002f0000000000000000000000000000000000000007000000000000000004000000000000000000000000000000000000000000000c000002000200000001040000000000000000000000000000000000000000000c000002000200000000000000000000000000000000000000000000000000000e000002000000000000000000000000000000000000000000000000000000000e0000200000000000000100000000000000000000000000000000000000000007000000000000000004000000000000000000000000000000000000000000000e0000000000000000e0020000000000000000000000000000000000000000000c000002000200000001c00000000000000000000000000000000000000000000c000002000200000000000000000000000000000000000000000000000000000e000002000000000020020000000000000000000000000000000000000000000c0000020002000000010b0000000000000000000000000000000000000000000c000002000200000000000000000000000000000000000000000000000000000e000002000000000020040000000000000000000000000000000000000000000c000002000200000001000000000000000000000000000000000000000000000c00000200020000000000000000007373656363755320616d550000000000000e000002000000000020050000000000000000000000000000000000000000000e000000000200000021020000000000000000000000000000000000000000000c000004000400000001bfffffffffffffffffffffffffffffff0000000000000c000004000400000000ffffffffffffffffffffffffffffffff00000000000004020004000000000000000000000000000000000000000000000000000000000a0000000000000000087a00470000000000000000000000000000000000000002000002000400000000400000000000000000000000000000000000000000000c000008000800000001ffffffffffffffff00000000000000000000000000000c0000080008000000000000000000000000000000000000000000000000000004040008000000000000000000000000000000000000000000000000000000000a0000000000000000087a004c000000000000000000000000000000000000000e000004000000000020020000000000000000000000000000000000000000000c000001000100000001040000000000000000000000000000000000000000000c000001000100000000000000000000000000000000000000000000000000000e0000020000000000600300000000000000000000000000000000000000000007000000000000000003a21300000000000000000000000000000000000000000e0000000002000000610300000000000000000000000000000000000000000002000002000200000000200000000000000000000000000000000000000000000c000001000100000001000000000000000000000000000000000000000000000c000001000100000000000000000000000000000000414d555300000000000007000000000000000003a21300000000000000000000000000000000000000000e000000000200000021040000000000000000000000000000000000000000000c000004000400000001ffffffffffffffff00000000000000000000000000000c0000040004000000000000000000000000000000000000000000000000000004020004000000000000000000000000000000000000000000000000000000000a000000000000000006a4005b000000000000000000000000000000000000000c000002000200000001000000000000000000000000000000000000000000000c000002000200000000000000000000000000000000717b484e0000000000000e000002000000000020000000000000000000000000000000000000000000000c000001000100000001410000000000000000000000000000000000000000000c000001000100000000000000000000000000000000000000000000000000000c000002000200000001040000000000000000000000000000000000000000000c0000020002000000000000000000000000000000000000000000000000000007000000000000000003a21300000000000000000000000000000000000000000c000002000200000001240000000000000000000000000000000000000000000c000002000200000000000000000000000000000000000000000000000000000e000002000000000000000000000000000000000000000000000000000000000c000004000400000001000000000000000000000000000000000000000000000c000004000400000000000000000000000000000000000000000000000000000c000002000200000001200000000000000000000000000000000000000000000c000002000200000000000000000000000000000000000000000000000000000a0000000000000000016e006e00000000000000000000000000000000000000020800000004000000000000000000000000000000000000000000000000000004100000000000000000000000000000000000000000000000000000000000000a00000000000000000a6e00de00000000000000000000000000000000000000180000040008000000000500000000000000000000000000000000000000000008080002000800000000000000000000000000000000000000000000000000000e080000001000000021000000000000000000000000000000000000000000000e0800100000000000000100000000000000000000000000000000000000000002000004000800000000010000000000000000000000000000000000000000000c000010001000000001010000000000000000000000000000000000000000000c0000100010000000000000000000000000000000000000000000000000000004080004000000000000000000000000000000000000000000000000000000000a0000000000000000026b0077000000000000000000000000000000000000000c000010001000000001000000000000000000000000000000000000000000000c000010001000000000000000000000000000000000000000000000000000000a0000000000000000016b006b000000000000000000000000000000000000000c000002000200000001000000000000000000000000000000000000000000000c000002000200000000000000000000000000000000717b484e0000000000000e000002000000000020000000000000000000000000000000000000000000000c000001000100000001410000000000000000000000000000000000000000000c000001000100000000000000000000000000000000000000000000000000000c000002000200000001040000000000000000000000000000000000000000000c0000020002000000000000000000000000000000000000000000000000000007000000000000000003a21300000000000000000000000000000000000000000c000002000200000001240000000000000000000000000000000000000000000c000002000200000000000000000000000000000000000000000000000000000e000002000000000000000000000000000000000000000000000000000000000c000004000400000001000000000000000000000000000000000000000000000c000004000400000000000000000000000000000000000000000000000000000c000002000200000001200000000000000000000000000000000000000000000c000002000200000000000000000000000000000000000000000000000000000a0000000000000000018d008d00000000000000000000000000000000000000020800000004000000000000000000000000000000000000000000000000000004100000000000000000000000000000000000000000000000000000000000000a00000000000000000a8d009900000000000000000000000000000000000000180000040008000000000500000000000000000000000000000000000000000008080002000800000000000000000000000000000000000000000000000000000e080000001000000021000000000000000000000000000000000000000000000e0800100000000000000100000000000000000000000000000000000000000002000004000800000000010000000000000000000000000000000000000000000c000010001000000001010000000000000000000000000000000000000000000c0000100010000000000000000000000000000000000000000000000000000004080004000000000000000000000000000000000000000000000000000000000a0000000000000000028a0096000000000000000000000000000000000000000c000010001000000001000000000000000000000000000000000000000000000c000010001000000000000000000000000000000000000000000000000000000a0000000000000000018a008a000000000000000000000000000000000000000c000002000200000001ffffffffffffffffffffffffffffffff0000000000000c000002000200000000ffffffffffffffffffffffff000000000000000000000e000000000400000001020000000000000000000000000000000000000000001a040002000200000002000000000000000000000000000000000000000000000c000004000400000001000000000000000000000000000000000000000000000c000004000400000000000000000000000000000000ffffffff0000000000000e000000000800000021010000000000000000000000000000000000000000001a080004000400000002000000000000000000000000000000000000000000001a040002000200000004000000000000000000000000000000000000000000000e000002000000000000020000000000000000000000000000000000000000000a000000000000000001180118010000000000000000000000000000000000000c000004000400000001000000000000000000000000000000000000000000000c0000040004000000000000000000000000000000000000000000000000000005040000000800000001000000000000000000000000000000000000000000001a0000080004000000020100000000000000000000000000000000000000000018000008000800000002010000000000000000000000000000000000000000001a0000080040000000027f00000000000000000000000000000000000000000004040000000000000000000000000000000000000000000000000000000000000a000000000000000004ad00ac0000000000000000000000000000000000000002080000004000000000000000000000000000000000000000000000000000000c0000200020000000011f0000000000000000000000000000000000000000000c000020002000000000000000000000000000000000000000000000000000000c000010001000000001010000000000000000000000000000000000000000000c000010001000000000000000000000000000000000000000000000000000000c000008000800000001010000000000000000000000000000000000000000000c0000080008000000000000000000000000000000000000000000000000000004400020000000000000000000000000000000000000000000000000000000000a000000000000000008b700b5000000000000000000000000000000000000000c000008000800000001000000000000000000000000000000000000000000000c0000080008000000000000000000000000000000000000000000000000000004040000000000000000000000000000000000000000000000000000000000000a00000000000000000abb00b9000000000000000000000000000000000000000c000010001000000001000000000000000000000000000000000000000000000c000010001000000000000000000000000000000000000000000000000000001a000010000400000002010000000000000000000000000000000000000000001a0000080008000000020100000000000000000000000000000000000000000004040008000000000000000000000000000000000000000000000000000000000a000000000000000004e900bf000000000000000000000000000000000000000c000002000200000001000000000000000000000000000000000000000000000c000002000200000000000000000000000000000000717b484e0000000000000e000002000000000020000000000000000000000000000000000000000000000c000001000100000001220000000000000000000000000000000000000000000c000001000100000000000000000000000000000000000000000000000000000c000002000200000001040000000000000000000000000000000000000000000c0000020002000000000000000000000000000000000000000000000000000007000000000000000003a21300000000000000000000000000000000000000000c000002000200000001240000000000000000000000000000000000000000000c000002000200000000000000000000000000000000000000000000000000000e000002000000000000000000000000000000000000000000000000000000000c000004000400000001000000000000000000000000000000000000000000000c000004000400000000000000000000000000000000000000000000000000000c000002000200000001200000000000000000000000000000000000000000000c000002000200000000000000000000000000000000000000000000000000000a000000000000000001d200d200000000000000000000000000000000000000020800000004000000000000000000000000000000000000000000000000000004100000000000000000000000000000000000000000000000000000000000000a00000000000000000ad2000e01000000000000000000000000000000000000180000040008000000000500000000000000000000000000000000000000000008080002000800000000000000000000000000000000000000000000000000000e080000001000000021000000000000000000000000000000000000000000000e0800100000000000000100000000000000000000000000000000000000000002000004000800000000010000000000000000000000000000000000000000000c000010001000000001010000000000000000000000000000000000000000000c0000100010000000000000000000000000000000000000000000000000000004080004000000000000000000000000000000000000000000000000000000000a000000000000000002cf00db000000000000000000000000000000000000000c000010001000000001000000000000000000000000000000000000000000000c000010001000000000000000000000000000000000000000000000000000000a000000000000000001cf00cf000000000000000000000000000000000000000c000002000200000001ffffffffffffffffffffffffffffffff0000000000000c000002000200000000ffffffffffffffffffffffff000000000000000000000e000000000400000001020000000000000000000000000000000000000000001a040002000200000002000000000000000000000000000000000000000000000c000004000400000001000000000000000000000000000000000000000000000c000004000400000000000000000000000000000000ffffffff0000000000000e000000000800000021010000000000000000000000000000000000000000001a080004000400000002000000000000000000000000000000000000000000001a040002000200000004000000000000000000000000000000000000000000000e000002000000000000020000000000000000000000000000000000000000000a0000000000000000011801180100000000000000000000000000000000000002400000000100000000000000000000000000000000000000000000000000000e0000020000000000600200000000000000000000000000000000000000000007000000000000000003090600000000000000000000000000000000000000000a000000000000000002ed00ee000000000000000000000000000000000000000a000000000000000001180118010000000000000000000000000000000000000c0000020002000000011f0000000000000000000000000000000000000000000c000002000200000000000000000000000000000000000000000000000000000e0000000020000000610200000000000000000000000000000000000000000004200002000000000000000000000000000000000000000000000000000000000a000000000000000008f30024010000000000000000000000000000000000000c000004000400000001000000000000000000000000000000000000000000000c000004000400000000000000000000000000000000000000000000000000000e0000040000000000200000000000000000000000000000000000000000000010000000000000000000000000000000000000000000000000000000000000000c000002000200000001200000000000000000000000000000000000000000000c000002000200000000000000000000000000000000000000000000000000000e000002000000000040000000000000000000000000000000000000000000000c000008000800000001e0ffffffffffffffffffffffffffffff0000000000000c000008000800000000ffffffffffffffffffffffffffffffff0000000000001a200008000800000002000000000000000000000000000000000000000000000e000008000000000060010000000000000000000000000000000000000000000a00000000000000000102010201000000000000000000000000000000000000020800000004000000000000000000000000000000000000000000000000000004100000000000000000000000000000000000000000000000000000000000000a00000000000000000a02013101000000000000000000000000000000000000180000040008000000000500000000000000000000000000000000000000000008080002000800000000000000000000000000000000000000000000000000000e080000001000000021000000000000000000000000000000000000000000000e0800100000000000400100000000000000000000000000000000000000000002000004000800000000010000000000000000000000000000000000000000000c000010001000000001010000000000000000000000000000000000000000000c0000100010000000000000000000000000000000000000000000000000000004080004000000000000000000000000000000000000000000000000000000000a000000000000000002ff000b010000000000000000000000000000000000000c000010001000000001000000000000000000000000000000000000000000000c000010001000000000000000000000000000000000000000000000000000000a000000000000000001ff00ff000000000000000000000000000000000000000c000002000200000001ffffffffffffffffffffffffffffffff0000000000000c000002000200000000ffffffffffffffffffffffff000000000000000000000e000000000400000001020000000000000000000000000000000000000000001a040002000200000002000000000000000000000000000000000000000000000c000004000400000001000000000000000000000000000000000000000000000c000004000400000000000000000000000000000000ffffffff0000000000000e000000000800000021010000000000000000000000000000000000000000001a080004000400000002000000000000000000000000000000000000000000001a040002000200000004000000000000000000000000000000000000000000000e000002000000000000020000000000000000000000000000000000000000000c000002000200000001010000000000000000000000000000000000000000000c000002000200000000000000000000000000000000000000000000000000000e000000000400000021ffff000000000000000000000000000000000000000004040002000000000000000000000000000000000000000000000000000000000a0000000000000000041d0168010000000000000000000000000000000000000c0000020002000000017c7ee91ae51bb0ed9b9e413333bf74f70000000000000c000002000200000000b75ee1170f6b7c3ce4583c65d82198c40000000000000c000004000400000001010000000000000000000000000000000000000000000c0000040004000000000000000000000000000000000000000000000000000005020004000000000000000000000000000000000000000000000000000000000e0000000000000000e10200000000000000000000000000000000000000000007000000000000000000000000000000000000000000000000000000000000000c000002000200000001000000000000000000000000000000000000000000000c0000020002000000000000000000000000000000000000000000000000000004200000000000000000000000000000000000000000000000000000000000000a000000000000000004290128010000000000000000000000000000000000000e0000000002000000210500000000000000000000000000000000000000000018000020000400000000030000000000000000000000000000000000000000000c000008000800000001ffffffffffffffffffffffffffffffff0000000000000c000008000800000000ffffffffffffffffffffffffffffffff00000000000018040008000400000002000000000000000000000000000000000000000000001a040008000400000008000000000000000000000000000000000000000000001a0200040004000000020000000000000000000000000000000000000000000018000020000200000000010000000000000000000000000000000000000000000a0000000000000000015c015c010000000000000000000000000000000000000c00000100010000000100000000ff03000000000000000000000000000000000c0000010001000000000000000000000000000000000000000000000000000007000000000000000003c11300000000000000000000000000000000000000000c000004000400000001200000000000000000000000000000000000000000000c000004000400000000000000000000000000000000000000000000000000000c000008000800000001000000000000000000000000000000000000000000000c000008000800000000000000000000000000000000000000000000000000000c000010001000000001a00000000000000000000000000000000000000000000c000010001000000000000000000000000000000000000000000000000000000e000000000200000041010000000000000000000000000000000000000000000c000020002000000001200000000000000000000000000000000000000000000c000020002000000000000000000000000000000000000000000000000000000e0000000040000000610100000000000000000000000000000000000000000004400000000000000000000000000000000000000000000000000000000000000a0000000000000000044a014001000000000000000000000000000000000000022000000010000000000000000000000000000000000000000000000000000008100004002000000000000000000000000000000000000000000000000000000e20000000200000002104000000000000000000000000000000000000000000050200200000000000000000000000000000000000000000000000000000000002000010002000000000200000000000000000000000000000000000000000000200000200020000000001000000000000000000000000000000000000000000020000080008000000002000000000000000000000000000000000000000000004080040000000000000000000000000000000000000000000000000000000000a0000000000000000024001490100000000000000000000000000000000000002000010001000000000a00000000000000000000000000000000000000000000e0000000020000000610200000000000000000000000000000000000000000004400020000000000000000000000000000000000000000000000000000000000a0000000000000000024d01590100000000000000000000000000000000000018000020000400000000030000000000000000000000000000000000000000001a000004000400000002f80000000000000000000000000000000000000000000c000008000800000001ffffffffffffffffffffffffffffffff0000000000000c000008000800000000ffffffffffffffffffffffffffffffff00000000000018040008000400000002000000000000000000000000000000000000000000001a040008000400000008000000000000000000000000000000000000000000000c000008000800000001200000000000000000000000000000000000000000000c0000080008000000000000000000000000000000000000000000000000000008100008000800000000000000000000000000000000000000000000000000000e080000000800000021000000000000000000000000000000000000000000001a0800040004000000020000000000000000000000000000000000000000000005020004000000000000000000000000000000000000000000000000000000000c000002000200000001010000000000000000000000000000000000000000000c0000020002000000000000000000000000000000000000000000000000000018000020000400000000010000000000000000000000000000000000000000001a040002000200000004000000000000000000000000000000000000000000000c000004000400000001000000000000000000000000000000000000000000000c0000040004000000000000000000000000000000000000000000000000000005040002000000000000000000000000000000000000000000000000000000000e0000000001000000610300000000000000000000000000000000000000000007000000000000000003810600000000000000000000000000000000000000000a000000000000000002630164010000000000000000000000000000000000000a000000000000000001180118010000000000000000000000000000000000000c000002000200000001000000000000000000000000000000000000000000000c000002000200000000000000000000000000000000000000000000000000000e000002000000000000000000000000000000000000000000000000000000000a0000000000000000011d011d010000000000000000000000000000000000000e0000000000000000e10200000000000000000000000000000000000000000007000000000000000004000000000000000000000000000000000000000000000e0000000000000000e0150000000000000000000000000000000000000000000c000002000200000001800000000000000000000000000000000000000000000c000002000200000000000000000000000000000000000000000000000000000e000002000000000020020000000000000000000000000000000000000000000e000000000200000001000000000000000000000000000000000000000000001a000002000400000002fcffffff00000000000000000000000000000000000004040000000000000000000000000000000000000000000000000000000000000a000000000000000004a90572010000000000000000000000000000000000000c000008000800000001000000000000000000000000000000000000000000000c000008000800000000000000000000000000000000ffffffff0000000000000e000000001000000001010000000000000000000000000000000000000000001a100008000800000002000000000000000000000000000000000000000000000c000010001000000001000000000000000000000000000000000000000000000c0000100010000000000000000000000000000000007b9b9a0000000000000004080010000000000000000000000000000000000000000000000000000000000a0000000000000000047a0193010000000000000000000000000000000000000c000002000200000001060000000000000000000000000000000000000000000c0000020002000000000000000000000000000000000000000000000000000005020000000200000001000000000000000000000000000000000000000000000e000002000000000020040000000000000000000000000000000000000000000c000002000200000001200000000000000000000000000000000000000000000c000002000200000000000000000000000000000000000000000000000000000e000002000000000000000000000000000000000000000000000000000000000c000004000400000001000000000000000000000000000000000000000000000c000004000400000000000000000000000000000000000000000000000000000a00000000000000000187018701000000000000000000000000000000000000020800000004000000000000000000000000000000000000000000000000000004100000000000000000000000000000000000000000000000000000000000000a00000000000000000a8701b105000000000000000000000000000000000000180000040008000000000500000000000000000000000000000000000000000008080002000800000000000000000000000000000000000000000000000000000e080000001000000021040000000000000000000000000000000000000000000e0800100000000000000100000000000000000000000000000000000000000002000004000800000000010000000000000000000000000000000000000000000c000010001000000001010000000000000000000000000000000000000000000c0000100010000000000000000000000000000000000000000000000000000004080004000000000000000000000000000000000000000000000000000000000a000000000000000002840190010000000000000000000000000000000000000c000010001000000001000000000000000000000000000000000000000000000c000010001000000000000000000000000000000000000000000000000000000a000000000000000001840184010000000000000000000000000000000000001a000002000200000002ffffffff0000000000000000000000000000000000000c000010001000000001000000000000000000000000000000000000000000000c000010001000000000000000000000000000000000a7c9ff0100000000000004080010000000000000000000000000000000000000000000000000000000000a0000000000000000049801d901000000000000000000000000000000000000020200000001000000000000000000000000000000000000000000000000000007000000000000000003670700000000000000000000000000000000000000000a0000000000000000029b019c010000000000000000000000000000000000000a000000000000000001e203e2030000000000000000000000000000000000000c000002000200000001000000000000000000000000000000000000000000000c000002000200000000000000000000000000000000ffffffff0000000000001a010002000800000002000000000000000000000000000000000000000000000c000010001000000001000000000000000000000000000000000000000000000c000010001000000000000000000000000000000000a7c9ff010000000000000c000004000400000001010000000000000000000000000000000000000000000c000004000400000000000000000000000000000000000000000000000000000c000002000200000001010000000000000000000000000000000000000000000c0000020002000000000000000000000000000000000000000000000000000004080010000000000000000000000000000000000000000000000000000000000a000000000000000004a901a7010000000000000000000000000000000000000c000002000200000001000000000000000000000000000000000000000000000c000002000200000000000000000000000000000000000000000000000000000c000020002000000001000000000000000000000000000000000000000000000c0000200020000000000000000000000000000000009f135e5b0000000000000c000010001000000001010000000000000000000000000000000000000000000c0000100010000000000000000000000000000000000000000000000000000004080020000000000000000000000000000000000000000000000000000000000a000000000000000004b101af010000000000000000000000000000000000000c000010001000000001000000000000000000000000000000000000000000000c000010001000000000000000000000000000000000000000000000000000000c000020002000000001000000000000000000000000000000000000000000000c000020002000000000000000000000000000000000cd58ac8000000000000004080020000000000000000000000000000000000000000000000000000000000a000000000000000004b701b5010000000000000000000000000000000000000c000004000400000001000000000000000000000000000000000000000000000c000004000400000000000000000000000000000000000000000000000000001a040010000400000004000000000000000000000000000000000000000000001a020004000200000004000000000000000000000000000000000000000000001a000002000100000002010000000000000000000000000000000000000000000e000000000200000021020000000000000000000000000000000000000000000e0000020000000000600400000000000000000000000000000000000000000007000000000000000003a21300000000000000000000000000000000000000000c000002000200000001200000000000000000000000000000000000000000000c000002000200000000000000000000000000000000000000000000000000000e000002000000000000000000000000000000000000000000000000000000000c000002000200000001000000000000000000000000000000000000000000000c000002000200000000000000000000000000000000000000000000000000000a000000000000000001c501c50100000000000000000000000000000000000004040000000000000000000000000000000000000000000000000000000000000a00000000000000000ac501b1050000000000000000000000000000000000000e0000020000000000600600000000000000000000000000000000000000000018000002000200000000050000000000000000000000000000000000000000000e000002000000000060050000000000000000000000000000000000000000000e000000000400000061040000000000000000000000000000000000000000000204000200010000000000000000000000000000000000000000000000000000070000000000000000037a1300000000000000000000000000000000000000000c000002000200000001200000000000000000000000000000000000000000000c000002000200000000000000000000000000000000000000000000000000000e0000000004000000610500000000000000000000000000000000000000000008040002000200000000000000000000000000000000000000000000000000000e020001000000000000010000000000000000000000000000000000000000000e0000000008000000610600000000000000000000000000000000000000000002000008000200000000010000000000000000000000000000000000000000000c000004000400000001010000000000000000000000000000000000000000000c0000040004000000000000000000000000000000000000000000000000000004020008000000000000000000000000000000000000000000000000000000000a000000000000000002c301d6010000000000000000000000000000000000000c000004000400000001000000000000000000000000000000000000000000000c000004000400000000000000000000000000000000000000000000000000000a000000000000000001c301c3010000000000000000000000000000000000000c000010001000000001000000000000000000000000000000000000000000000c00001000100000000000000000000000000000000003defd0600000000000004080010000000000000000000000000000000000000000000000000000000000a000000000000000004dd013402000000000000000000000000000000000000070000000000000000039e0a00000000000000000000000000000000000000000a000000000000000002df01e1010000000000000000000000000000000000000e000001000000000060020000000000000000000000000000000000000000000a000000000000000001e203e2030000000000000000000000000000000000000e000001000000000060020000000000000000000000000000000000000000000c000001000100000001200000000000000000000000000000000000000000000c000001000100000000000000000000000000000000000000000000000000000e000000000200000021020000000000000000000000000000000000000000000e0000020000000000600400000000000000000000000000000000000000000007000000000000000003a21300000000000000000000000000000000000000000e00000000010000006102000000000000000000000000000000000000000000070000000000000000037a1300000000000000000000000000000000000000000e000001000000000060030000000000000000000000000000000000000000000e00000000020000006104000000000000000000000000000000000000000000020000020002000000002000000000000000000000000000000000000000000007000000000000000003a21300000000000000000000000000000000000000000c000004000400000001000000000000000000000000000000000000000000000c000004000400000000000000000000000000000000000000000000000000000e0000000002000000610400000000000000000000000000000000000000000002000002000200000000400000000000000000000000000000000000000000000e000002000000000060010000000000000000000000000000000000000000000e0000000002000000610300000000000000000000000000000000000000000004020000000000000000000000000000000000000000000000000000000000000a0000000000000000040d02f5010000000000000000000000000000000000000e0000040000000000600500000000000000000000000000000000000000000002000004000800000000200000000000000000000000000000000000000000000e000008000000000060060000000000000000000000000000000000000000000e000000000200000061020000000000000000000000000000000000000000000208000200010000000000000000000000000000000000000000000000000000070000000000000000037a1300000000000000000000000000000000000000000e000000000200000061010000000000000000000000000000000000000000000e00000000040000006105000000000000000000000000000000000000000000020200040002000000000000000000000000000000000000000000000000000007000000000000000003a21300000000000000000000000000000000000000000e0000000008000000610600000000000000000000000000000000000000000002080000000400000000000000000000000000000000000000000000000000000e0000000002000000610300000000000000000000000000000000000000000004080002000000000000000000000000000000000000000000000000000000000a000000000000000002f50104020000000000000000000000000000000000000e0000000002000000610300000000000000000000000000000000000000000004080002000000000000000000000000000000000000000000000000000000000a0000000000000000060d0207020000000000000000000000000000000000000e000000000200000061030000000000000000000000000000000000000000000e0000000004000000610100000000000000000000000000000000000000000002040002000200000000000000000000000000000000000000000000000000000c000001000100000001000000000000000000000000000000000000000000000c0000010001000000000000000000000000000000000000000000000000000007000000000000000003a21300000000000000000000000000000000000000000e00000000020000006103000000000000000000000000000000000000000000020000020002000000005f0000000000000000000000000000000000000000000c000004000400000001e0ffffffffffffffffffffffffffffff0000000000000c000004000400000000ffffffffffffffffffffffffffffffff0000000000001a020004000200000002000000000000000000000000000000000000000000000e000002000000000000000000000000000000000000000000000000000000000e0000020000000000600200000000000000000000000000000000000000000018000002000200000002050000000000000000000000000000000000000000000c000008000800000001000000000000000000000000000000000000000000000c000008000800000000000000000000000000000000000000000000000000000e000000000400000061040000000000000000000000000000000000000000000e0000020000000000600300000000000000000000000000000000000000000004020000000000000000000000000000000000000000000000000000000000000a0000000000000000042b021b020000000000000000000000000000000000000e0000080000000000600600000000000000000000000000000000000000000018000008000400000000050000000000000000000000000000000000000000000e000004000000000060050000000000000000000000000000000000000000000e000000000200000061040000000000000000000000000000000000000000000202000400010000000000000000000000000000000000000000000000000000070000000000000000037a1300000000000000000000000000000000000000000e000000000800000061060000000000000000000000000000000000000000000c000002000200000001200000000000000000000000000000000000000000000c000002000200000000000000000000000000000000000000000000000000000e0000000004000000610500000000000000000000000000000000000000000008040002000200000000000000000000000000000000000000000000000000000e0200010000000000000100000000000000000000000000000000000000000002000008000800000000010000000000000000000000000000000000000000000e0000000002000000610300000000000000000000000000000000000000000004080002000000000000000000000000000000000000000000000000000000000a0000000000000000021b022b020000000000000000000000000000000000000e000000000200000061040000000000000000000000000000000000000000000c000004000400000001000000000000000000000000000000000000000000000c0000040004000000000000000000000000000000000000000000000000000004040000000000000000000000000000000000000000000000000000000000000a00000000000000000a3002b1050000000000000000000000000000000000000e000000000400000061020000000000000000000000000000000000000000000202000400010000000000000000000000000000000000000000000000000000070000000000000000037a1300000000000000000000000000000000000000000a000000000000000001b105b1050000000000000000000000000000000000000c000010001000000001000000000000000000000000000000000000000000000c000010001000000000000000000000000000000000fc12180800000000000004080010000000000000000000000000000000000000000000000000000000000a000000000000000004380240020000000000000000000000000000000000000c000002000200000001240000000000000000000000000000000000000000000c0000020002000000000000000000000000000000000000000000000000000004040002000000000000000000000000000000000000000000000000000000000a00000000000000000c5c023c020000000000000000000000000000000000000c000002000200000001000000000000000000000000000000000000000000000c000002000200000000000000000000000000000000000000000000000000000e000002000000000000000000000000000000000000000000000000000000000a000000000000000001e203e2030000000000000000000000000000000000000c000010001000000001000000000000000000000000000000000000000000000c000010001000000000000000000000000000000000b3a75e0900000000000004080010000000000000000000000000000000000000000000000000000000000a000000000000000004440284020000000000000000000000000000000000000c000004000400000001000000000000000000000000000000000000000000000c000004000400000000000000000000000000000000000000000000000000000e000004000000000060160000000000000000000000000000000000000000000e000004000000000060150000000000000000000000000000000000000000000c000000000400000001800200000000000000000000000000000000000000000e000004000000000060060000000000000000000000000000000000000000000204000000010000000000000000000000000000000000000000000000000000070000000000000000038d0700000000000000000000000000000000000000000a0000000000000000024d024e020000000000000000000000000000000000000a000000000000000001e203e2030000000000000000000000000000000000000e0000000002000000610600000000000000000000000000000000000000000002000002000200000000200000000000000000000000000000000000000000000c000004000400000001200000000000000000000000000000000000000000000c0000040004000000000000000000000000000000000000000000000000000008020004000200000000000000000000000000000000000000000000000000000e020000000200000061010000000000000000000000000000000000000000000e0000000001000000611500000000000000000000000000000000000000000007000000000000000003080c00000000000000000000000000000000000000000a000000000000000002570258020000000000000000000000000000000000000a000000000000000001e203e2030000000000000000000000000000000000000c000002000200000001000000000000000000000000000000000000000000000c000002000200000000000000000000000000000000000000000000000000000e000002000000000000000000000000000000000000000000000000000000000a000000000000000001b105b1050000000000000000000000000000000000000c000001000100000001240000000000000000000000000000000000000000000c00000100010000000000000000000000000000000000000000000000000000070000000000000000038e13000000000000000000000000000000000000000007000000000000000003a50c00000000000000000000000000000000000000000a000000000000000002610262020000000000000000000000000000000000000a000000000000000001e203e2030000000000000000000000000000000000000c000002000200000001ffffffffffffffffffffffffffffffff0000000000000c000002000200000000ffffffff0000000000000000000000000000000000001a010002000100000002000000000000000000000000000000000000000000000e000000000200000021020000000000000000000000000000000000000000000e0000020000000000600400000000000000000000000000000000000000000007000000000000000003a21300000000000000000000000000000000000000000c000002000200000001200000000000000000000000000000000000000000000c000002000200000000000000000000000000000000000000000000000000000e000002000000000000000000000000000000000000000000000000000000000c000002000200000001000000000000000000000000000000000000000000000c000002000200000000000000000000000000000000000000000000000000000a0000000000000000017002700200000000000000000000000000000000000004040000000000000000000000000000000000000000000000000000000000000a00000000000000000a7002b1050000000000000000000000000000000000000e0000020000000000600600000000000000000000000000000000000000000018000002000400000000050000000000000000000000000000000000000000000e000004000000000060050000000000000000000000000000000000000000000e000000000200000061040000000000000000000000000000000000000000000202000400010000000000000000000000000000000000000000000000000000070000000000000000037a1300000000000000000000000000000000000000000c000002000200000001200000000000000000000000000000000000000000000c000002000200000000000000000000000000000000000000000000000000000e0000000004000000610500000000000000000000000000000000000000000008040002000200000000000000000000000000000000000000000000000000000e020001000000000000010000000000000000000000000000000000000000000e0000000008000000610600000000000000000000000000000000000000000002000008000200000000010000000000000000000000000000000000000000000c000004000400000001010000000000000000000000000000000000000000000c0000040004000000000000000000000000000000000000000000000000000004020008000000000000000000000000000000000000000000000000000000000a0000000000000000026e0281020000000000000000000000000000000000000c000004000400000001000000000000000000000000000000000000000000000c000004000400000000000000000000000000000000000000000000000000000a0000000000000000016e026e020000000000000000000000000000000000000c000010001000000001000000000000000000000000000000000000000000000c0000100010000000000000000000000000000000007847990a00000000000004080010000000000000000000000000000000000000000000000000000000000a000000000000000004880290020000000000000000000000000000000000000c000002000200000001240000000000000000000000000000000000000000000c0000020002000000000000000000000000000000000000000000000000000004040002000000000000000000000000000000000000000000000000000000000a00000000000000000cbc028c020000000000000000000000000000000000000c000002000200000001000000000000000000000000000000000000000000000c000002000200000000000000000000000000000000000000000000000000000e000002000000000000000000000000000000000000000000000000000000000a000000000000000001e203e2030000000000000000000000000000000000000c000010001000000001000000000000000000000000000000000000000000000c000010001000000000000000000000000000000000dd72b82300000000000004080010000000000000000000000000000000000000000000000000000000000a0000000000000000049402f8020000000000000000000000000000000000000c000004000400000001000000000000000000000000000000000000000000000c000004000400000000000000000000000000000000000000000000000000000e000004000000000060140000000000000000000000000000000000000000000e000004000000000060130000000000000000000000000000000000000000000e000004000000000060120000000000000000000000000000000000000000000c000000000400000001200200000000000000000000000000000000000000000e00000400000000006006000000000000000000000000000000000000000000020400000001000000000000000000000000000000000000000000000000000007000000000000000003c40700000000000000000000000000000000000000000a0000000000000000029e029f020000000000000000000000000000000000000a000000000000000001e203e2030000000000000000000000000000000000000e00000000040000006106000000000000000000000000000000000000000000020000040002000000004000000000000000000000000000000000000000000002000004000400000000200000000000000000000000000000000000000000000c000008000800000001200000000000000000000000000000000000000000000c00000800080000000000000000000000000000000000000000000000000000080200080002000000000000000000000000000000000000000000000000000008040008000400000000000000000000000000000000000000000000000000000e040000000400000061010000000000000000000000000000000000000000000e000004000000000060060000000000000000000000000000000000000000000e020000000200000061010000000000000000000000000000000000000000000e000000000400000061120000000000000000000000000000000000000000000e0000040000000000600400000000000000000000000000000000000000000014000000000100000000000000000000000000000000000000000000000000000e0000020000000000600500000000000000000000000000000000000000000007000000000000000003150e00000000000000000000000000000000000000000a000000000000000002af02b0020000000000000000000000000000000000000a000000000000000001e203e20300000000000000000000000000000000000007000000000000000003d30d00000000000000000000000000000000000000000a000000000000000002e203b2020000000000000000000000000000000000000e000000000100000061040000000000000000000000000000000000000000000e000000000200000061060000000000000000000000000000000000000000000e00000000040000006105000000000000000000000000000000000000000000070000000000000000030b0f00000000000000000000000000000000000000000a000000000000000002b702b8020000000000000000000000000000000000000a000000000000000001e203e2030000000000000000000000000000000000000c000002000200000001000000000000000000000000000000000000000000000c000002000200000000000000000000000000000000000000000000000000000e000002000000000000000000000000000000000000000000000000000000000a000000000000000001b105b1050000000000000000000000000000000000000c000001000100000001240000000000000000000000000000000000000000000c00000100010000000000000000000000000000000000000000000000000000070000000000000000038e1300000000000000000000000000000000000000000e000001000000000020000000000000000000000000000000000000000000000c000002000200000001070000000000000000000000000000000000000000000c000002000200000000000000000000000000000000000000000000000000000e0000020000000000200100000000000000000000000000000000000000000010000000000000000000000000000000000000000000000000000000000000000c000002000200000001400000000000000000000000000000000000000000000c000002000200000000000000000000000000000000000000000000000000000e000002000000000040000000000000000000000000000000000000000000000c000002000200000001000000000000000000000000000000000000000000000c000002000200000000000000000000000000000000000000000000000000000c000004000400000001200000000000000000000000000000000000000000000c000004000400000000000000000000000000000000000000000000000000000c000008000800000001020000000000000000000000000000000000000000000c00000800080000000000000000000000000000000000000000000000000000180000020010000000000500000000000000000000000000000000000000000008100004001000000000000000000000000000000000000000000000000000000e100000002000000021000000000000000000000000000000000000000000000e10002000000000004001000000000000000000000000000000000000000000020000020002000000000100000000000000000000000000000000000000000004020008000000000000000000000000000000000000000000000000000000000a000000000000000002cd02d4020000000000000000000000000000000000000c00000100010000000100000000ff03000000000000000000000000000000000c0000010001000000000000000000000000000000000000000000000000000007000000000000000003c11300000000000000000000000000000000000000000e0000000002000000410100000000000000000000000000000000000000000005020000000100000001000000000000000000000000000000000000000000000e000000000200000021020000000000000000000000000000000000000000000e0000020000000000600400000000000000000000000000000000000000000007000000000000000003a21300000000000000000000000000000000000000000c000002000200000001200000000000000000000000000000000000000000000c000002000200000000000000000000000000000000000000000000000000000e000002000000000000000000000000000000000000000000000000000000000c000002000200000001000000000000000000000000000000000000000000000c000002000200000000000000000000000000000000000000000000000000000a000000000000000001e402e40200000000000000000000000000000000000004040000000000000000000000000000000000000000000000000000000000000a00000000000000000ae402b1050000000000000000000000000000000000000e0000020000000000600600000000000000000000000000000000000000000018000002000400000000050000000000000000000000000000000000000000000e000004000000000060050000000000000000000000000000000000000000000e000000000200000061040000000000000000000000000000000000000000000202000400010000000000000000000000000000000000000000000000000000070000000000000000037a1300000000000000000000000000000000000000000c000002000200000001200000000000000000000000000000000000000000000c000002000200000000000000000000000000000000000000000000000000000e0000000004000000610500000000000000000000000000000000000000000008040002000200000000000000000000000000000000000000000000000000000e020001000000000000010000000000000000000000000000000000000000000e0000000008000000610600000000000000000000000000000000000000000002000008000200000000010000000000000000000000000000000000000000000c000004000400000001010000000000000000000000000000000000000000000c0000040004000000000000000000000000000000000000000000000000000004020008000000000000000000000000000000000000000000000000000000000a000000000000000002e202f5020000000000000000000000000000000000000c000004000400000001000000000000000000000000000000000000000000000c000004000400000000000000000000000000000000000000000000000000000a000000000000000001e202e2020000000000000000000000000000000000000c000010001000000001000000000000000000000000000000000000000000000c0000100010000000000000000000000000000000000e2e844200000000000004080010000000000000000000000000000000000000000000000000000000000a000000000000000004fc0233030000000000000000000000000000000000000c000004000400000001000000000000000000000000000000000000000000000c000004000400000000000000000000000000000000000000000000000000000e000004000000000060110000000000000000000000000000000000000000000e000004000000000060100000000000000000000000000000000000000000000e0000040000000000600f0000000000000000000000000000000000000000000c000000000400000001c00100000000000000000000000000000000000000000e00000400000000006006000000000000000000000000000000000000000000020400000001000000000000000000000000000000000000000000000000000007000000000000000003c40700000000000000000000000000000000000000000a000000000000000002060307030000000000000000000000000000000000000a000000000000000001e203e2030000000000000000000000000000000000000c000020002000000001200000000000000000000000000000000000000000000c000020002000000000000000000000000000000000000000000000000000000e000000000200000021020000000000000000000000000000000000000000000c000004000400000001dfffffffffffffffffffffffffffffff0000000000000c000004000400000000ffffffffffffffffffffffffffffffff00000000000004020004000000000000000000000000000000000000000000000000000000000a00000000000000000868030e0300000000000000000000000000000000000002000002000400000000200000000000000000000000000000000000000000000c000008000800000001ffffffffffffffff00000000000000000000000000000c0000080008000000000000000000000000000000000000000000000000000004040008000000000000000000000000000000000000000000000000000000000a000000000000000008680313030000000000000000000000000000000000000e0000000010000000610600000000000000000000000000000000000000000002000010000800000000400000000000000000000000000000000000000000000200001000100000000020000000000000000000000000000000000000000000081000200010000000000000000000000000000000000000000000000000000008080020000800000000000000000000000000000000000000000000000000000e0000000020000000610f0000000000000000000000000000000000000000000e000020000000000060050000000000000000000000000000000000000000000e080000000800000061010000000000000000000000000000000000000000000e000008000000000060060000000000000000000000000000000000000000000e100000000800000061010000000000000000000000000000000000000000000e000008000000000060040000000000000000000000000000000000000000000e000004000000000020020000000000000000000000000000000000000000000c000001000100000001000000000000000000000000000000000000000000000c0000010001000000000000000000000000000000000000000000000000000007000000000000000003a213000000000000000000000000000000000000000014000000000100000000000000000000000000000000000000000000000000000e0000000002000000610600000000000000000000000000000000000000000007000000000000000003150e00000000000000000000000000000000000000000a000000000000000002260327030000000000000000000000000000000000000a000000000000000001e203e20300000000000000000000000000000000000007000000000000000003d30d00000000000000000000000000000000000000000a000000000000000002e20329030000000000000000000000000000000000000e000000000100000061050000000000000000000000000000000000000000000e000000000200000061040000000000000000000000000000000000000000000e00000000040000006106000000000000000000000000000000000000000000070000000000000000030b0f00000000000000000000000000000000000000000a0000000000000000022e032f030000000000000000000000000000000000000a000000000000000001e203e2030000000000000000000000000000000000000c000002000200000001000000000000000000000000000000000000000000000c000002000200000000000000000000000000000000000000000000000000000e000002000000000000000000000000000000000000000000000000000000000a000000000000000001b105b1050000000000000000000000000000000000000c000010001000000001000000000000000000000000000000000000000000000c0000100010000000000000000000000000000000001e21526300000000000004080010000000000000000000000000000000000000000000000000000000000a00000000000000000437033f030000000000000000000000000000000000000c000002000200000001240000000000000000000000000000000000000000000c0000020002000000000000000000000000000000000000000000000000000004040002000000000000000000000000000000000000000000000000000000000a00000000000000000c87033b030000000000000000000000000000000000000c000002000200000001000000000000000000000000000000000000000000000c000002000200000000000000000000000000000000000000000000000000000e000002000000000000000000000000000000000000000000000000000000000a000000000000000001e203e2030000000000000000000000000000000000000c000010001000000001000000000000000000000000000000000000000000000c0000100010000000000000000000000000000000003182a07000000000000004080010000000000000000000000000000000000000000000000000000000000a0000000000000000044303af03000000000000000000000000000000000000020200000001000000000000000000000000000000000000000000000000000007000000000000000003040800000000000000000000000000000000000000000a000000000000000002460347030000000000000000000000000000000000000a000000000000000001e203e20300000000000000000000000000000000000007000000000000000003e10900000000000000000000000000000000000000000a000000000000000002e20349030000000000000000000000000000000000000e000000000200000021020000000000000000000000000000000000000000000e0000020000000000600400000000000000000000000000000000000000000007000000000000000003a21300000000000000000000000000000000000000000c000002000200000001200000000000000000000000000000000000000000000c000002000200000000000000000000000000000000000000000000000000000e000002000000000000000000000000000000000000000000000000000000000c000002000200000001000000000000000000000000000000000000000000000c000002000200000000000000000000000000000000000000000000000000000a0000000000000000015403540300000000000000000000000000000000000004040000000000000000000000000000000000000000000000000000000000000a00000000000000000a5403b1050000000000000000000000000000000000000e0000020000000000600600000000000000000000000000000000000000000018000002000400000000050000000000000000000000000000000000000000000e000004000000000060050000000000000000000000000000000000000000000e000000000200000061040000000000000000000000000000000000000000000202000400010000000000000000000000000000000000000000000000000000070000000000000000037a1300000000000000000000000000000000000000000c000002000200000001200000000000000000000000000000000000000000000c000002000200000000000000000000000000000000000000000000000000000e0000000004000000610500000000000000000000000000000000000000000008040002000200000000000000000000000000000000000000000000000000000e020001000000000000010000000000000000000000000000000000000000000e0000000008000000610600000000000000000000000000000000000000000002000008000200000000010000000000000000000000000000000000000000000c000004000400000001010000000000000000000000000000000000000000000c0000040004000000000000000000000000000000000000000000000000000004020008000000000000000000000000000000000000000000000000000000000a000000000000000002520365030000000000000000000000000000000000000c000004000400000001000000000000000000000000000000000000000000000c000004000400000000000000000000000000000000000000000000000000000a000000000000000001520352030000000000000000000000000000000000000c000002000200000001000000000000000000000000000000000000000000000c000002000200000000000000000000000000000000717b484e0000000000000e000002000000000020000000000000000000000000000000000000000000000c000001000100000001410000000000000000000000000000000000000000000c000001000100000000000000000000000000000000000000000000000000000c000002000200000001040000000000000000000000000000000000000000000c0000020002000000000000000000000000000000000000000000000000000007000000000000000003a21300000000000000000000000000000000000000000c000010001000000001200000000000000000000000000000000000000000000c000010001000000000000000000000000000000000000000000000000000000c000002000200000001240000000000000000000000000000000000000000000c000002000200000000000000000000000000000000000000000000000000000e000002000000000000000000000000000000000000000000000000000000000c000002000200000001000000000000000000000000000000000000000000000c000002000200000000000000000000000000000000000000000000000000000a0000000000000000017b037b03000000000000000000000000000000000000020400000002000000000000000000000000000000000000000000000000000004080000000000000000000000000000000000000000000000000000000000000a00000000000000000a7b03d803000000000000000000000000000000000000180000020004000000000500000000000000000000000000000000000000000008040010000400000000000000000000000000000000000000000000000000000e040000000800000021000000000000000000000000000000000000000000000e0400080000000000000100000000000000000000000000000000000000000002000002000400000000010000000000000000000000000000000000000000000c000008000800000001010000000000000000000000000000000000000000000c0000080008000000000000000000000000000000000000000000000000000004040002000000000000000000000000000000000000000000000000000000000a000000000000000002780384030000000000000000000000000000000000000c000008000800000001000000000000000000000000000000000000000000000c000008000800000000000000000000000000000000000000000000000000000a000000000000000001780378030000000000000000000000000000000000000c000001000100000001240000000000000000000000000000000000000000000c00000100010000000000000000000000000000000000000000000000000000070000000000000000038e13000000000000000000000000000000000000000007000000000000000003400a00000000000000000000000000000000000000000a0000000000000000028c038d030000000000000000000000000000000000000a000000000000000001e203e2030000000000000000000000000000000000000c000002000200000001ffffffffffffffffffffffffffffffff0000000000000c000002000200000000ffffffff0000000000000000000000000000000000001a010002000100000002000000000000000000000000000000000000000000000e000000000200000021020000000000000000000000000000000000000000000e0000020000000000600400000000000000000000000000000000000000000007000000000000000003a21300000000000000000000000000000000000000000c000002000200000001200000000000000000000000000000000000000000000c000002000200000000000000000000000000000000000000000000000000000e000002000000000000000000000000000000000000000000000000000000000c000002000200000001000000000000000000000000000000000000000000000c000002000200000000000000000000000000000000000000000000000000000a0000000000000000019b039b0300000000000000000000000000000000000004040000000000000000000000000000000000000000000000000000000000000a00000000000000000a9b03b1050000000000000000000000000000000000000e0000020000000000600600000000000000000000000000000000000000000018000002000400000000050000000000000000000000000000000000000000000e000004000000000060050000000000000000000000000000000000000000000e000000000200000061040000000000000000000000000000000000000000000202000400010000000000000000000000000000000000000000000000000000070000000000000000037a1300000000000000000000000000000000000000000c000002000200000001200000000000000000000000000000000000000000000c000002000200000000000000000000000000000000000000000000000000000e0000000004000000610500000000000000000000000000000000000000000008040002000200000000000000000000000000000000000000000000000000000e020001000000000000010000000000000000000000000000000000000000000e0000000008000000610600000000000000000000000000000000000000000002000008000200000000010000000000000000000000000000000000000000000c000004000400000001010000000000000000000000000000000000000000000c0000040004000000000000000000000000000000000000000000000000000004020008000000000000000000000000000000000000000000000000000000000a0000000000000000029903ac030000000000000000000000000000000000000c000004000400000001000000000000000000000000000000000000000000000c000004000400000000000000000000000000000000000000000000000000000a000000000000000001990399030000000000000000000000000000000000000c000010001000000001000000000000000000000000000000000000000000000c00001000100000000000000000000000000000000017dd5e7500000000000004080010000000000000000000000000000000000000000000000000000000000a000000000000000004b303e903000000000000000000000000000000000000020200000001000000000000000000000000000000000000000000000000000007000000000000000003040800000000000000000000000000000000000000000a000000000000000002b603b7030000000000000000000000000000000000000a000000000000000001e203e203000000000000000000000000000000000000070000000000000000039f1000000000000000000000000000000000000000000a000000000000000002e203b9030000000000000000000000000000000000000e000000000200000021020000000000000000000000000000000000000000000e0000020000000000600400000000000000000000000000000000000000000007000000000000000003a21300000000000000000000000000000000000000000c000002000200000001200000000000000000000000000000000000000000000c000002000200000000000000000000000000000000000000000000000000000e000002000000000000000000000000000000000000000000000000000000000c000002000200000001000000000000000000000000000000000000000000000c000002000200000000000000000000000000000000000000000000000000000a000000000000000001c403c40300000000000000000000000000000000000004040000000000000000000000000000000000000000000000000000000000000a00000000000000000ac403b1050000000000000000000000000000000000000e0000020000000000600600000000000000000000000000000000000000000018000002000400000000050000000000000000000000000000000000000000000e000004000000000060050000000000000000000000000000000000000000000e000000000200000061040000000000000000000000000000000000000000000202000400010000000000000000000000000000000000000000000000000000070000000000000000037a1300000000000000000000000000000000000000000c000002000200000001200000000000000000000000000000000000000000000c000002000200000000000000000000000000000000000000000000000000000e0000000004000000610500000000000000000000000000000000000000000008040002000200000000000000000000000000000000000000000000000000000e020001000000000000010000000000000000000000000000000000000000000e0000000008000000610600000000000000000000000000000000000000000002000008000200000000010000000000000000000000000000000000000000000c000004000400000001010000000000000000000000000000000000000000000c0000040004000000000000000000000000000000000000000000000000000004020008000000000000000000000000000000000000000000000000000000000a000000000000000002c203d5030000000000000000000000000000000000000c000004000400000001000000000000000000000000000000000000000000000c000004000400000000000000000000000000000000000000000000000000000a000000000000000001c203c2030000000000000000000000000000000000000c000002000200000001ffffffffffffffffffffffffffffffff0000000000000c000002000200000000ffffffffffffffffffffffff000000000000000000000e000000000400000001020000000000000000000000000000000000000000001a040002000200000002000000000000000000000000000000000000000000000c000004000400000001000000000000000000000000000000000000000000000c000004000400000000000000000000000000000000ffffffff0000000000000e000000000800000021010000000000000000000000000000000000000000001a080004000400000002000000000000000000000000000000000000000000001a040002000200000004000000000000000000000000000000000000000000000e000002000000000000020000000000000000000000000000000000000000000c000002000200000001010000000000000000000000000000000000000000000c000002000200000000000000000000000000000000000000000000000000000e000000000400000021ffff000000000000000000000000000000000000000004040002000000000000000000000000000000000000000000000000000000000a000000000000000004b105e7030000000000000000000000000000000000000e0000000000000000e11500000000000000000000000000000000000000000007000000000000000004000000000000000000000000000000000000000000000c000010001000000001000000000000000000000000000000000000000000000c00001000100000000000000000000000000000000028f06a8a00000000000004080010000000000000000000000000000000000000000000000000000000000a000000000000000004ed03f5030000000000000000000000000000000000000c000002000200000001240000000000000000000000000000000000000000000c0000020002000000000000000000000000000000000000000000000000000004040002000000000000000000000000000000000000000000000000000000000a00000000000000000c5004f1030000000000000000000000000000000000000c000002000200000001000000000000000000000000000000000000000000000c000002000200000000000000000000000000000000000000000000000000000e000002000000000000000000000000000000000000000000000000000000000a000000000000000001e203e2030000000000000000000000000000000000000c000010001000000001000000000000000000000000000000000000000000000c000010001000000000000000000000000000000000419bd89500000000000004080010000000000000000000000000000000000000000000000000000000000a000000000000000004f9038c0400000000000000000000000000000000000007000000000000000003530b00000000000000000000000000000000000000000a000000000000000002fb03fd030000000000000000000000000000000000000e000001000000000060020000000000000000000000000000000000000000000a000000000000000001e203e2030000000000000000000000000000000000000e000001000000000060020000000000000000000000000000000000000000000c000001000100000001200000000000000000000000000000000000000000000c000001000100000000000000000000000000000000000000000000000000000e000000000200000021020000000000000000000000000000000000000000000e0000020000000000600400000000000000000000000000000000000000000007000000000000000003a21300000000000000000000000000000000000000000e00000000010000006102000000000000000000000000000000000000000000070000000000000000037a1300000000000000000000000000000000000000000e000001000000000060030000000000000000000000000000000000000000000e00000000020000006104000000000000000000000000000000000000000000020000020002000000002000000000000000000000000000000000000000000007000000000000000003a21300000000000000000000000000000000000000000c000004000400000001000000000000000000000000000000000000000000000c000004000400000000000000000000000000000000000000000000000000000e0000000002000000610400000000000000000000000000000000000000000002000002000200000000400000000000000000000000000000000000000000000e000002000000000060010000000000000000000000000000000000000000000e0000000002000000610300000000000000000000000000000000000000000004020000000000000000000000000000000000000000000000000000000000000a000000000000000004290411040000000000000000000000000000000000000e0000040000000000600500000000000000000000000000000000000000000002000004000800000000200000000000000000000000000000000000000000000e000008000000000060060000000000000000000000000000000000000000000e000000000200000061020000000000000000000000000000000000000000000208000200010000000000000000000000000000000000000000000000000000070000000000000000037a1300000000000000000000000000000000000000000e000000000200000061010000000000000000000000000000000000000000000e00000000040000006105000000000000000000000000000000000000000000020200040002000000000000000000000000000000000000000000000000000007000000000000000003a21300000000000000000000000000000000000000000e0000000008000000610600000000000000000000000000000000000000000002080000000400000000000000000000000000000000000000000000000000000e0000000002000000610300000000000000000000000000000000000000000004080002000000000000000000000000000000000000000000000000000000000a000000000000000002110420040000000000000000000000000000000000000e0000000002000000610300000000000000000000000000000000000000000004080002000000000000000000000000000000000000000000000000000000000a000000000000000006290423040000000000000000000000000000000000000e000000000200000061030000000000000000000000000000000000000000000e0000000004000000610100000000000000000000000000000000000000000002040002000200000000000000000000000000000000000000000000000000000c000001000100000001000000000000000000000000000000000000000000000c0000010001000000000000000000000000000000000000000000000000000007000000000000000003a21300000000000000000000000000000000000000000e00000000020000006103000000000000000000000000000000000000000000020000020002000000005f0000000000000000000000000000000000000000000c000004000400000001e0ffffffffffffffffffffffffffffff0000000000000c000004000400000000ffffffffffffffffffffffffffffffff0000000000001a020004000200000002000000000000000000000000000000000000000000000e000002000000000000000000000000000000000000000000000000000000000e0000020000000000600200000000000000000000000000000000000000000018000002000200000002050000000000000000000000000000000000000000000c000004000400000001000000000000000000000000000000000000000000000c000004000400000000000000000000000000000000000000000000000000000e000000000800000061040000000000000000000000000000000000000000000e0000020000000000600300000000000000000000000000000000000000000004020000000000000000000000000000000000000000000000000000000000000a000000000000000004470437040000000000000000000000000000000000000e0000040000000000600600000000000000000000000000000000000000000018000004000400000000050000000000000000000000000000000000000000000e000004000000000060050000000000000000000000000000000000000000000e000000000200000061040000000000000000000000000000000000000000000202000400010000000000000000000000000000000000000000000000000000070000000000000000037a1300000000000000000000000000000000000000000e000000000400000061060000000000000000000000000000000000000000000c000002000200000001200000000000000000000000000000000000000000000c000002000200000000000000000000000000000000000000000000000000000e0000000008000000610500000000000000000000000000000000000000000008080002000200000000000000000000000000000000000000000000000000000e0200010000000000000100000000000000000000000000000000000000000002000004000400000000010000000000000000000000000000000000000000000e0000000002000000610300000000000000000000000000000000000000000004040002000000000000000000000000000000000000000000000000000000000a000000000000000002370447040000000000000000000000000000000000000c000002000200000001000000000000000000000000000000000000000000000c0000020002000000000000000000000000000000000000000000000000000004020000000000000000000000000000000000000000000000000000000000000a00000000000000000a4b04b1050000000000000000000000000000000000000e000000000200000061040000000000000000000000000000000000000000000e000000000400000061020000000000000000000000000000000000000000000202000400010000000000000000000000000000000000000000000000000000070000000000000000037a1300000000000000000000000000000000000000000a000000000000000001b105b1050000000000000000000000000000000000000c000001000100000001240000000000000000000000000000000000000000000c00000100010000000000000000000000000000000000000000000000000000070000000000000000038e1300000000000000000000000000000000000000000e000001000000000020000000000000000000000000000000000000000000000c000002000200000001080000000000000000000000000000000000000000000c000002000200000000000000000000000000000000000000000000000000000e0000020000000000200100000000000000000000000000000000000000000010000000000000000000000000000000000000000000000000000000000000000c000002000200000001400000000000000000000000000000000000000000000c000002000200000000000000000000000000000000000000000000000000000e000002000000000040000000000000000000000000000000000000000000000c000002000200000001000000000000000000000000000000000000000000000c000002000200000000000000000000000000000000000000000000000000000c000004000400000001200000000000000000000000000000000000000000000c000004000400000000000000000000000000000000000000000000000000000c000008000800000001020000000000000000000000000000000000000000000c00000800080000000000000000000000000000000000000000000000000000180000020010000000000500000000000000000000000000000000000000000008100004001000000000000000000000000000000000000000000000000000000e100000002000000021000000000000000000000000000000000000000000000e10002000000000004001000000000000000000000000000000000000000000020000020002000000000100000000000000000000000000000000000000000004020008000000000000000000000000000000000000000000000000000000000a000000000000000002610468040000000000000000000000000000000000000c00000100010000000100000000ff03000000000000000000000000000000000c0000010001000000000000000000000000000000000000000000000000000007000000000000000003c11300000000000000000000000000000000000000000e000000000200000021020000000000000000000000000000000000000000000c000001000100000001000000000000000000000000000000000000000000000c000001000100000000000000000000000000000000000000000000000000000e0000020000000000600400000000000000000000000000000000000000000007000000000000000003a21300000000000000000000000000000000000000000c000002000200000001200000000000000000000000000000000000000000000c000002000200000000000000000000000000000000000000000000000000000e000002000000000000000000000000000000000000000000000000000000000c000002000200000001000000000000000000000000000000000000000000000c000002000200000000000000000000000000000000000000000000000000000a0000000000000000017804780400000000000000000000000000000000000004040000000000000000000000000000000000000000000000000000000000000a00000000000000000a7804b1050000000000000000000000000000000000000e0000020000000000600600000000000000000000000000000000000000000018000002000400000000050000000000000000000000000000000000000000000e000004000000000060050000000000000000000000000000000000000000000e000000000200000061040000000000000000000000000000000000000000000202000400010000000000000000000000000000000000000000000000000000070000000000000000037a1300000000000000000000000000000000000000000c000002000200000001200000000000000000000000000000000000000000000c000002000200000000000000000000000000000000000000000000000000000e0000000004000000610500000000000000000000000000000000000000000008040002000200000000000000000000000000000000000000000000000000000e020001000000000000010000000000000000000000000000000000000000000e0000000008000000610600000000000000000000000000000000000000000002000008000200000000010000000000000000000000000000000000000000000c000004000400000001010000000000000000000000000000000000000000000c0000040004000000000000000000000000000000000000000000000000000004020008000000000000000000000000000000000000000000000000000000000a000000000000000002760489040000000000000000000000000000000000000c000004000400000001000000000000000000000000000000000000000000000c000004000400000000000000000000000000000000000000000000000000000a000000000000000001760476040000000000000000000000000000000000000c000010001000000001000000000000000000000000000000000000000000000c00001000100000000000000000000000000000000065b42ca200000000000004080010000000000000000000000000000000000000000000000000000000000a0000000000000000049004a8040000000000000000000000000000000000000c000004000400000001000000000000000000000000000000000000000000000c000004000400000000000000000000000000000000000000000000000000000e0000040000000000600e0000000000000000000000000000000000000000000e0000040000000000600d0000000000000000000000000000000000000000000c000000000400000001800100000000000000000000000000000000000000000e00000400000000006006000000000000000000000000000000000000000000020400000001000000000000000000000000000000000000000000000000000007000000000000000003290800000000000000000000000000000000000000000a00000000000000000299049a040000000000000000000000000000000000000a000000000000000001e203e2030000000000000000000000000000000000000e0000000002000000610600000000000000000000000000000000000000000002000002000200000000200000000000000000000000000000000000000000000c000004000400000001200000000000000000000000000000000000000000000c0000040004000000000000000000000000000000000000000000000000000008020004000200000000000000000000000000000000000000000000000000000e020000000200000061010000000000000000000000000000000000000000000e0000000001000000610d00000000000000000000000000000000000000000007000000000000000003220d00000000000000000000000000000000000000000a000000000000000002a304a4040000000000000000000000000000000000000a000000000000000001e203e2030000000000000000000000000000000000000c000002000200000001000000000000000000000000000000000000000000000c000002000200000000000000000000000000000000000000000000000000000e000002000000000000000000000000000000000000000000000000000000000a000000000000000001b105b1050000000000000000000000000000000000000c000010001000000001000000000000000000000000000000000000000000000c000010001000000000000000000000000000000000de4f8db800000000000004080010000000000000000000000000000000000000000000000000000000000a000000000000000004ac04d5040000000000000000000000000000000000000c000004000400000001000000000000000000000000000000000000000000000c000004000400000000000000000000000000000000000000000000000000000e0000040000000000600c0000000000000000000000000000000000000000000e0000040000000000600b0000000000000000000000000000000000000000000e0000040000000000600a0000000000000000000000000000000000000000000e000004000000000060090000000000000000000000000000000000000000000c000000000400000001000100000000000000000000000000000000000000000e000004000000000060060000000000000000000000000000000000000000000204000000010000000000000000000000000000000000000000000000000000070000000000000000036a0800000000000000000000000000000000000000000a000000000000000002b704b8040000000000000000000000000000000000000a000000000000000001e203e2030000000000000000000000000000000000000e00000000040000006106000000000000000000000000000000000000000000020000040002000000004000000000000000000000000000000000000000000002000004000400000000200000000000000000000000000000000000000000000c000008000800000001200000000000000000000000000000000000000000000c00000800080000000000000000000000000000000000000000000000000000080200080002000000000000000000000000000000000000000000000000000008040008000400000000000000000000000000000000000000000000000000000e040000000400000061010000000000000000000000000000000000000000000e000004000000000060060000000000000000000000000000000000000000000e020000000200000061010000000000000000000000000000000000000000000e000000000400000061090000000000000000000000000000000000000000000e0000040000000000600400000000000000000000000000000000000000000014000000000100000000000000000000000000000000000000000000000000000e0000020000000000600500000000000000000000000000000000000000000007000000000000000003150e00000000000000000000000000000000000000000a000000000000000002c804c9040000000000000000000000000000000000000a000000000000000001e203e20300000000000000000000000000000000000007000000000000000003d30d00000000000000000000000000000000000000000a000000000000000002e203cb040000000000000000000000000000000000000e000000000100000061040000000000000000000000000000000000000000000e000000000200000061060000000000000000000000000000000000000000000e00000000040000006105000000000000000000000000000000000000000000070000000000000000030b0f00000000000000000000000000000000000000000a000000000000000002d004d1040000000000000000000000000000000000000a000000000000000001e203e2030000000000000000000000000000000000000c000002000200000001000000000000000000000000000000000000000000000c000002000200000000000000000000000000000000000000000000000000000e000002000000000000000000000000000000000000000000000000000000000a000000000000000001b105b1050000000000000000000000000000000000000c000010001000000001000000000000000000000000000000000000000000000c000010001000000000000000000000000000000000dd567bc800000000000004080010000000000000000000000000000000000000000000000000000000000a000000000000000004d904e1040000000000000000000000000000000000000c000002000200000001240000000000000000000000000000000000000000000c0000020002000000000000000000000000000000000000000000000000000004040002000000000000000000000000000000000000000000000000000000000a00000000000000000ced04dd040000000000000000000000000000000000000c000002000200000001000000000000000000000000000000000000000000000c000002000200000000000000000000000000000000000000000000000000000e000002000000000000000000000000000000000000000000000000000000000a000000000000000001e203e2030000000000000000000000000000000000000c000010001000000001000000000000000000000000000000000000000000000c0000100010000000000000000000000000000000008aceddd400000000000004080010000000000000000000000000000000000000000000000000000000000a000000000000000004e50448050000000000000000000000000000000000000c000002000200000001240000000000000000000000000000000000000000000c0000020002000000000000000000000000000000000000000000000000000004040002000000000000000000000000000000000000000000000000000000000a00000000000000000ccb05e9040000000000000000000000000000000000000c000002000200000001000000000000000000000000000000000000000000000c000002000200000000000000000000000000000000000000000000000000000e000002000000000000000000000000000000000000000000000000000000000a000000000000000001e203e2030000000000000000000000000000000000000c000001000100000001240000000000000000000000000000000000000000000c00000100010000000000000000000000000000000000000000000000000000070000000000000000038e13000000000000000000000000000000000000000007000000000000000003721200000000000000000000000000000000000000000a000000000000000002f204f4040000000000000000000000000000000000000e000001000000000060020000000000000000000000000000000000000000000a000000000000000001e203e2030000000000000000000000000000000000000e000001000000000060020000000000000000000000000000000000000000000c000001000100000001200000000000000000000000000000000000000000000c000001000100000000000000000000000000000000000000000000000000000e000000000200000021020000000000000000000000000000000000000000000e0000020000000000600300000000000000000000000000000000000000000007000000000000000003a21300000000000000000000000000000000000000000e00000000010000006102000000000000000000000000000000000000000000070000000000000000037a1300000000000000000000000000000000000000000e000001000000000060040000000000000000000000000000000000000000000e00000000020000006103000000000000000000000000000000000000000000020000020002000000002000000000000000000000000000000000000000000007000000000000000003a21300000000000000000000000000000000000000000c000004000400000001000000000000000000000000000000000000000000000c000004000400000000000000000000000000000000000000000000000000000e0000000002000000610300000000000000000000000000000000000000000002000002000200000000400000000000000000000000000000000000000000000e000002000000000060010000000000000000000000000000000000000000000e0000000002000000610400000000000000000000000000000000000000000004020000000000000000000000000000000000000000000000000000000000000a000000000000000004210508050000000000000000000000000000000000000e0000040000000000600500000000000000000000000000000000000000000002000004000400000000200000000000000000000000000000000000000000000e000004000000000060060000000000000000000000000000000000000000000e000000000200000061020000000000000000000000000000000000000000000204000200010000000000000000000000000000000000000000000000000000070000000000000000037a1300000000000000000000000000000000000000000e000000000200000061010000000000000000000000000000000000000000000e00000000040000006105000000000000000000000000000000000000000000020200040002000000000000000000000000000000000000000000000000000007000000000000000003a21300000000000000000000000000000000000000000e0000000010000000610600000000000000000000000000000000000000000002100000000400000000000000000000000000000000000000000000000000000e00000000020000006104000000000000000000000000000000000000000000021000000008000000000000000000000000000000000000000000000000000004100002000000000000000000000000000000000000000000000000000000000a000000000000000002080518050000000000000000000000000000000000000e0000000002000000610400000000000000000000000000000000000000000004080002000000000000000000000000000000000000000000000000000000000a00000000000000000621051b050000000000000000000000000000000000000e000000000200000061040000000000000000000000000000000000000000000e0000000004000000610100000000000000000000000000000000000000000002040002000200000000000000000000000000000000000000000000000000000c000001000100000001000000000000000000000000000000000000000000000c0000010001000000000000000000000000000000000000000000000000000007000000000000000003a21300000000000000000000000000000000000000000e00000000020000006104000000000000000000000000000000000000000000020000020002000000005f0000000000000000000000000000000000000000000c000004000400000001e0ffffffffffffffffffffffffffffff0000000000000c000004000400000000ffffffffffffffffffffffffffffffff0000000000001a020004000200000002000000000000000000000000000000000000000000000e000002000000000000000000000000000000000000000000000000000000000e0000020000000000600200000000000000000000000000000000000000000018000002000200000002050000000000000000000000000000000000000000000c000004000400000001000000000000000000000000000000000000000000000c000004000400000000000000000000000000000000000000000000000000000e0000020000000000600400000000000000000000000000000000000000000004020000000000000000000000000000000000000000000000000000000000000a0000000000000000043f052e050000000000000000000000000000000000000e0000040000000000600600000000000000000000000000000000000000000018000004000400000000050000000000000000000000000000000000000000000e000004000000000060050000000000000000000000000000000000000000000e000000000200000061030000000000000000000000000000000000000000000202000400010000000000000000000000000000000000000000000000000000070000000000000000037a1300000000000000000000000000000000000000000c000002000200000001200000000000000000000000000000000000000000000c000002000200000000000000000000000000000000000000000000000000000e0000000004000000610500000000000000000000000000000000000000000008040002000200000000000000000000000000000000000000000000000000000e020001000000000000010000000000000000000000000000000000000000000e0000000008000000610600000000000000000000000000000000000000000002000008000800000000010000000000000000000000000000000000000000000e00000000020000006104000000000000000000000000000000000000000000020800000004000000000000000000000000000000000000000000000000000004080002000000000000000000000000000000000000000000000000000000000a0000000000000000022e053f050000000000000000000000000000000000000c000002000200000001000000000000000000000000000000000000000000000c0000020002000000000000000000000000000000000000000000000000000004020000000000000000000000000000000000000000000000000000000000000a00000000000000000a4305b1050000000000000000000000000000000000000e000000000200000061030000000000000000000000000000000000000000000e000000000400000061020000000000000000000000000000000000000000000202000400010000000000000000000000000000000000000000000000000000070000000000000000037a1300000000000000000000000000000000000000000a000000000000000001b105b1050000000000000000000000000000000000000c000004000400000001000000000000000000000000000000000000000000000c000004000400000000000000000000000000000000c5e985e900000000000004080004000000000000000000000000000000000000000000000000000000000a0000000000000000044c05a9050000000000000000000000000000000000000c000008000800000001000000000000000000000000000000000000000000000c000008000800000000000000000000000000000000000000000000000000000e000008000000000060080000000000000000000000000000000000000000000c000004000400000001000000000000000000000000000000000000000000000c000004000400000000000000000000000000000000000000000000000000000e000004000000000060060000000000000000000000000000000000000000000e000008000000000060070000000000000000000000000000000000000000000c000000000400000001c00000000000000000000000000000000000000000000e00000400000000006005000000000000000000000000000000000000000000020400000001000000000000000000000000000000000000000000000000000007000000000000000003a60900000000000000000000000000000000000000000a000000000000000002580559050000000000000000000000000000000000000a000000000000000001e203e2030000000000000000000000000000000000000e0000000002000000610500000000000000000000000000000000000000000002000002000400000000200000000000000000000000000000000000000000000c000002000200000001ffffffffffffffffffffffffffffffff0000000000000c000002000200000000ffffffff0000000000000000000000000000000000000e000000000800000061070000000000000000000000000000000000000000001a080002000800000002000000000000000000000000000000000000000000000c000002000200000001200000000000000000000000000000000000000000000c0000020002000000000000000000000000000000000000000000000000000008040002000400000000000000000000000000000000000000000000000000000e040000000400000061010000000000000000000000000000000000000000000e000004000000000060050000000000000000000000000000000000000000000e000008000000000020000000000000000000000000000000000000000000000c000004000400000001050000000000000000000000000000000000000000000c000004000400000000000000000000000000000000000000000000000000000e0000040000000000200100000000000000000000000000000000000000000010000000000000000000000000000000000000000000000000000000000000000c000004000400000001400000000000000000000000000000000000000000000c000004000400000000000000000000000000000000000000000000000000000e000004000000000040000000000000000000000000000000000000000000000c000004000400000001020000000000000000000000000000000000000000000c000004000400000000000000000000000000000000000000000000000000000e00000000200000006106000000000000000000000000000000000000000000180000200008000000000500000000000000000000000000000000000000000008080002000800000000000000000000000000000000000000000000000000000e080000001000000021000000000000000000000000000000000000000000000e0800100000000000400100000000000000000000000000000000000000000002000020002000000000010000000000000000000000000000000000000000000e0000200000000000600600000000000000000000000000000000000000000004200004000000000000000000000000000000000000000000000000000000000a0000000000000000026e0577050000000000000000000000000000000000000c00000100010000000100000000ff03000000000000000000000000000000000c0000010001000000000000000000000000000000000000000000000000000007000000000000000003c11300000000000000000000000000000000000000000c000002000200000001ffffffffffffffffffffffffffffffff0000000000000c000002000200000000ffffffff0000000000000000000000000000000000000e000000000400000061050000000000000000000000000000000000000000001a040002000200000002000000000000000000000000000000000000000000000e000000000400000041010000000000000000000000000000000000000000000e000002000000000020000000000000000000000000000000000000000000000e0000040000000000200100000000000000000000000000000000000000000010000000000000000000000000000000000000000000000000000000000000000c000002000200000001400000000000000000000000000000000000000000000c000002000200000000000000000000000000000000000000000000000000000e000002000000000040000000000000000000000000000000000000000000000c000002000200000001000000000000000000000000000000000000000000000c000002000200000000000000000000000000000000000000000000000000000c000004000400000001200000000000000000000000000000000000000000000c000004000400000000000000000000000000000000000000000000000000000c000008000800000001020000000000000000000000000000000000000000000c00000800080000000000000000000000000000000000000000000000000000180000020010000000000500000000000000000000000000000000000000000008100004001000000000000000000000000000000000000000000000000000000e100000002000000021000000000000000000000000000000000000000000000e10002000000000004001000000000000000000000000000000000000000000020000020002000000000100000000000000000000000000000000000000000004020008000000000000000000000000000000000000000000000000000000000a0000000000000000028b0592050000000000000000000000000000000000000c00000100010000000100000000ff03000000000000000000000000000000000c0000010001000000000000000000000000000000000000000000000000000007000000000000000003c11300000000000000000000000000000000000000000e0000000002000000410100000000000000000000000000000000000000000005020000000200000001000000000000000000000000000000000000000000001a000002000400000002ff0000000000000000000000000000000000000000000c000002000200000001000000000000000000000000000000000000000000000c000002000200000000000000000000000000000000000000000000000000000e000002000000000060060000000000000000000000000000000000000000000c000002000200000001010000000000000000000000000000000000000000000c0000020002000000000000000000000000000000000000000000000000000004040000000000000000000000000000000000000000000000000000000000000a00000000000000000aa1059f050000000000000000000000000000000000000c000002000200000001000000000000000000000000000000000000000000000c000002000200000000000000000000000000000000000000000000000000001a000002000100000002010000000000000000000000000000000000000000000e000000000200000021020000000000000000000000000000000000000000000e0000020000000000600400000000000000000000000000000000000000000007000000000000000003a21300000000000000000000000000000000000000000c000002000200000001200000000000000000000000000000000000000000000c000002000200000000000000000000000000000000000000000000000000000e000002000000000000000000000000000000000000000000000000000000000a000000000000000001b605b6050000000000000000000000000000000000000c000002000200000001000000000000000000000000000000000000000000000c000002000200000000000000000000000000000000000000000000000000000e000002000000000000000000000000000000000000000000000000000000000c000002000200000001010000000000000000000000000000000000000000000c000002000200000000000000000000000000000000000000000000000000000e000000000400000021ffff000000000000000000000000000000000000000004040002000000000000000000000000000000000000000000000000000000000a000000000000000004b10507060000000000000000000000000000000000000e0000000000000000e11500000000000000000000000000000000000000000007000000000000000000000000000000000000000000000000000000000000000e0000020000000000600600000000000000000000000000000000000000000004040000000000000000000000000000000000000000000000000000000000000a00000000000000000ab605b1050000000000000000000000000000000000000e000000000200000061060000000000000000000000000000000000000000000e0000020000000000600600000000000000000000000000000000000000000018000002000400000000050000000000000000000000000000000000000000000e000004000000000060050000000000000000000000000000000000000000000e000000000200000061040000000000000000000000000000000000000000000202000400010000000000000000000000000000000000000000000000000000070000000000000000037a1300000000000000000000000000000000000000000c000002000200000001200000000000000000000000000000000000000000000c000002000200000000000000000000000000000000000000000000000000000e0000000004000000610500000000000000000000000000000000000000000008040002000200000000000000000000000000000000000000000000000000000e020001000000000000010000000000000000000000000000000000000000000e0000000008000000610600000000000000000000000000000000000000000002000008000200000000010000000000000000000000000000000000000000000c000004000400000001010000000000000000000000000000000000000000000c0000040004000000000000000000000000000000000000000000000000000004020008000000000000000000000000000000000000000000000000000000000a000000000000000002b305c8050000000000000000000000000000000000000c000004000400000001000000000000000000000000000000000000000000000c000004000400000000000000000000000000000000000000000000000000000a000000000000000001b305b3050000000000000000000000000000000000000c000001000100000001240000000000000000000000000000000000000000000c00000100010000000000000000000000000000000000000000000000000000070000000000000000038e1300000000000000000000000000000000000000000e000001000000000020000000000000000000000000000000000000000000000c000002000200000001080000000000000000000000000000000000000000000c000002000200000000000000000000000000000000000000000000000000000e0000020000000000200100000000000000000000000000000000000000000010000000000000000000000000000000000000000000000000000000000000000c000002000200000001400000000000000000000000000000000000000000000c000002000200000000000000000000000000000000000000000000000000000e000002000000000040000000000000000000000000000000000000000000000c000002000200000001000000000000000000000000000000000000000000000c000002000200000000000000000000000000000000000000000000000000000c000004000400000001200000000000000000000000000000000000000000000c000004000400000000000000000000000000000000000000000000000000000c000008000800000001020000000000000000000000000000000000000000000c00000800080000000000000000000000000000000000000000000000000000180000020010000000000500000000000000000000000000000000000000000008100004001000000000000000000000000000000000000000000000000000000e100000002000000021000000000000000000000000000000000000000000000e10002000000000004001000000000000000000000000000000000000000000020000020002000000000100000000000000000000000000000000000000000004020008000000000000000000000000000000000000000000000000000000000a000000000000000002dc05e3050000000000000000000000000000000000000c00000100010000000100000000ff03000000000000000000000000000000000c0000010001000000000000000000000000000000000000000000000000000007000000000000000003c11300000000000000000000000000000000000000000e0000000002000000410100000000000000000000000000000000000000000005020000000100000001000000000000000000000000000000000000000000000e000000000200000021020000000000000000000000000000000000000000000e0000020000000000600400000000000000000000000000000000000000000007000000000000000003a21300000000000000000000000000000000000000000c000002000200000001200000000000000000000000000000000000000000000c000002000200000000000000000000000000000000000000000000000000000e000002000000000000000000000000000000000000000000000000000000000c000002000200000001000000000000000000000000000000000000000000000c000002000200000000000000000000000000000000000000000000000000000a000000000000000001f305f30500000000000000000000000000000000000004040000000000000000000000000000000000000000000000000000000000000a00000000000000000af305b1050000000000000000000000000000000000000e0000020000000000600600000000000000000000000000000000000000000018000002000400000000050000000000000000000000000000000000000000000e000004000000000060050000000000000000000000000000000000000000000e000000000200000061040000000000000000000000000000000000000000000202000400010000000000000000000000000000000000000000000000000000070000000000000000037a1300000000000000000000000000000000000000000c000002000200000001200000000000000000000000000000000000000000000c000002000200000000000000000000000000000000000000000000000000000e0000000004000000610500000000000000000000000000000000000000000008040002000200000000000000000000000000000000000000000000000000000e020001000000000000010000000000000000000000000000000000000000000e0000000008000000610600000000000000000000000000000000000000000002000008000200000000010000000000000000000000000000000000000000000c000004000400000001010000000000000000000000000000000000000000000c0000040004000000000000000000000000000000000000000000000000000004020008000000000000000000000000000000000000000000000000000000000a000000000000000002f10504060000000000000000000000000000000000000c000004000400000001000000000000000000000000000000000000000000000c000004000400000000000000000000000000000000000000000000000000000a000000000000000001f105f1050000000000000000000000000000000000000e0000000000000000e11500000000000000000000000000000000000000000007000000000000000004000000000000000000000000000000000000000000000e0000000000000000e00100000000000000000000000000000000000000000002010000000800000000000000000000000000000000000000000000000000000c0000040004000000011f0000000000000000000000000000000000000000000c0000040004000000000000000000000000000000000000000000000000000004080004000000000000000000000000000000000000000000000000000000000a00000000000000000642060f060000000000000000000000000000000000000e000008000000000060020000000000000000000000000000000000000000000c000008000800000001000000000000000000000000000000000000000000000c000008000800000000000000000000000000000000000000000000000000000e0000080000000000200000000000000000000000000000000000000000000010000000000000000000000000000000000000000000000000000000000000000c000004000400000001200000000000000000000000000000000000000000000c000004000400000000000000000000000000000000000000000000000000000e000004000000000040000000000000000000000000000000000000000000000a0000000000000000011b061b06000000000000000000000000000000000000021000000008000000000000000000000000000000000000000000000000000004200000000000000000000000000000000000000000000000000000000000000a00000000000000000a1b062706000000000000000000000000000000000000180000080010000000000500000000000000000000000000000000000000000008100004001000000000000000000000000000000000000000000000000000000e100000002000000021000000000000000000000000000000000000000000000e1000200000000000400100000000000000000000000000000000000000000002000008001000000000010000000000000000000000000000000000000000000c000020002000000001010000000000000000000000000000000000000000000c0000200020000000000000000000000000000000000000000000000000000004100008000000000000000000000000000000000000000000000000000000000a000000000000000002180624060000000000000000000000000000000000000c000020002000000001000000000000000000000000000000000000000000000c000020002000000000000000000000000000000000000000000000000000000a000000000000000001180618060000000000000000000000000000000000000c000004000400000001200000000000000000000000000000000000000000000c000004000400000000000000000000000000000000000000000000000000000c000008000800000001000000000000000000000000000000000000000000000c0000080008000000000000000000000000000000000000000000000000000004020004000000000000000000000000000000000000000000000000000000000a0000000000000000022f062d06000000000000000000000000000000000000020000020002000000001f00000000000000000000000000000000000000000018000002000800000002050000000000000000000000000000000000000000000e000008000000000060010000000000000000000000000000000000000000000c00000100010000000100000000ff03000000000000000000000000000000000c0000010001000000000000000000000000000000000000000000000000000007000000000000000003c11300000000000000000000000000000000000000000e000000000400000041010000000000000000000000000000000000000000000e0000000002000000610100000000000000000000000000000000000000000002040002000200000000000000000000000000000000000000000000000000000e00000000080000006102000000000000000000000000000000000000000000020000080008000000001f0000000000000000000000000000000000000000001800000800080000000205000000000000000000000000000000000000000000020400080004000000000000000000000000000000000000000000000000000004020004000000000000000000000000000000000000000000000000000000000a0000000000000000023c0642060000000000000000000000000000000000000c000008000800000001000000000000000000000000000000000000000000000c000008000800000000000000000000000000000000000000000000000000000502000800000000000000000000000000000000000000000000000000000000020000020002000000000100000000000000000000000000000000000000000004020004000000000000000000000000000000000000000000000000000000000a0000000000000000023c0642060000000000000000000000000000000000000e0000000000000000e10100000000000000000000000000000000000000000007000000000000000000000000000000000000000000000000000000000000000e0000000000000000e00100000000000000000000000000000000000000000002010000000800000000000000000000000000000000000000000000000000000c0000040004000000011f0000000000000000000000000000000000000000000c0000040004000000000000000000000000000000000000000000000000000004080004000000000000000000000000000000000000000000000000000000000a0000000000000000067f064a060000000000000000000000000000000000000e000008000000000060020000000000000000000000000000000000000000000c000004000400000001010000000000000000000000000000000000000000000c000004000400000000000000000000000000000000000000000000000000000e0000040000000000200000000000000000000000000000000000000000000010000000000000000000000000000000000000000000000000000000000000000c000004000400000001200000000000000000000000000000000000000000000c000004000400000000000000000000000000000000000000000000000000000e000004000000000040000000000000000000000000000000000000000000000c000008000800000001000000000000000000000000000000000000000000000c000008000800000000000000000000000000000000000000000000000000000a00000000000000000158065806000000000000000000000000000000000000021000000008000000000000000000000000000000000000000000000000000004200000000000000000000000000000000000000000000000000000000000000a00000000000000000a58066406000000000000000000000000000000000000180000080010000000000500000000000000000000000000000000000000000008100004001000000000000000000000000000000000000000000000000000000e100000002000000021000000000000000000000000000000000000000000000e1000200000000000400100000000000000000000000000000000000000000002000008001000000000010000000000000000000000000000000000000000000c000020002000000001010000000000000000000000000000000000000000000c0000200020000000000000000000000000000000000000000000000000000004100008000000000000000000000000000000000000000000000000000000000a000000000000000002550661060000000000000000000000000000000000000c000020002000000001000000000000000000000000000000000000000000000c000020002000000000000000000000000000000000000000000000000000000a000000000000000001550655060000000000000000000000000000000000000c000004000400000001200000000000000000000000000000000000000000000c000004000400000000000000000000000000000000000000000000000000000c000008000800000001000000000000000000000000000000000000000000000c0000080008000000000000000000000000000000000000000000000000000004020004000000000000000000000000000000000000000000000000000000000a0000000000000000026c066a06000000000000000000000000000000000000020000020002000000001f00000000000000000000000000000000000000000018000002000800000002050000000000000000000000000000000000000000000e000008000000000060010000000000000000000000000000000000000000000c00000100010000000100000000ff03000000000000000000000000000000000c0000010001000000000000000000000000000000000000000000000000000007000000000000000003c11300000000000000000000000000000000000000000e000000000400000041010000000000000000000000000000000000000000000e0000000002000000610100000000000000000000000000000000000000000002040002000200000000000000000000000000000000000000000000000000000e00000000080000006102000000000000000000000000000000000000000000020000080008000000001f0000000000000000000000000000000000000000001800000800080000000205000000000000000000000000000000000000000000020400080004000000000000000000000000000000000000000000000000000004020004000000000000000000000000000000000000000000000000000000000a00000000000000000279067f060000000000000000000000000000000000000c000008000800000001000000000000000000000000000000000000000000000c000008000800000000000000000000000000000000000000000000000000000502000800000000000000000000000000000000000000000000000000000000020000020002000000000100000000000000000000000000000000000000000004020004000000000000000000000000000000000000000000000000000000000a00000000000000000279067f060000000000000000000000000000000000000e0000000000000000e10100000000000000000000000000000000000000000007000000000000000000000000000000000000000000000000000000000000000e0000000000000000e0050000000000000000000000000000000000000000000e00000100000000006003000000000000000000000000000000000000000000070000000000000000037a13000000000000000000000000000000000000000002010000000200000000000000000000000000000000000000000000000000000c000004000400000001ffffffffffffffff00000000000000000000000000000c0000040004000000000000000000000000000000000000000000000000000004020004000000000000000000000000000000000000000000000000000000000a000000000000000008120789060000000000000000000000000000000000000c000004000400000001010000000000000000000000000000000000000000000c0000040004000000000000000000000000000000000000000000000000000005040000001000000001000000000000000000000000000000000000000000001a0000100008000000020100000000000000000000000000000000000000000018000010001000000002010000000000000000000000000000000000000000001a0000100040000000027f00000000000000000000000000000000000000000004080000000000000000000000000000000000000000000000000000000000000a0000000000000000049206910600000000000000000000000000000000000002100000004000000000000000000000000000000000000000000000000000000c0000200020000000011f0000000000000000000000000000000000000000000c000020002000000000000000000000000000000000000000000000000000000c000010001000000001010000000000000000000000000000000000000000000c0000100010000000000000000000000000000000000000000000000000000004400020000000000000000000000000000000000000000000000000000000000a0000000000000000089a0698060000000000000000000000000000000000000c000010001000000001000000000000000000000000000000000000000000000c0000100010000000000000000000000000000000000000000000000000000004080000000000000000000000000000000000000000000000000000000000000a00000000000000000a9e069c060000000000000000000000000000000000000c000004000400000001000000000000000000000000000000000000000000000c000004000400000000000000000000000000000000000000000000000000001a000004000400000002010000000000000000000000000000000000000000001a0000100008000000020100000000000000000000000000000000000000000004040008000000000000000000000000000000000000000000000000000000000a000000000000000004a206310700000000000000000000000000000000000002400000000100000000000000000000000000000000000000000000000000000e0000020000000000600100000000000000000000000000000000000000000007000000000000000003440600000000000000000000000000000000000000000a000000000000000002a606a7060000000000000000000000000000000000000a000000000000000001650765070000000000000000000000000000000000000c0000020002000000011f0000000000000000000000000000000000000000000c000002000200000000000000000000000000000000000000000000000000000e0000000020000000610100000000000000000000000000000000000000000004200002000000000000000000000000000000000000000000000000000000000a000000000000000008ac06c9060000000000000000000000000000000000000c000002000200000001010000000000000000000000000000000000000000000c000002000200000000000000000000000000000000000000000000000000000e0000020000000000200000000000000000000000000000000000000000000010000000000000000000000000000000000000000000000000000000000000000c000002000200000001200000000000000000000000000000000000000000000c000002000200000000000000000000000000000000000000000000000000000e000002000000000040000000000000000000000000000000000000000000000c000004000400000001e0ffffffffffffffffffffffffffffff0000000000000c000004000400000000ffffffffffffffffffffffffffffffff0000000000001a200004000400000002000000000000000000000000000000000000000000000e000004000000000060020000000000000000000000000000000000000000000c000004000400000001000000000000000000000000000000000000000000000c000004000400000000000000000000000000000000000000000000000000000a000000000000000001bd06bd06000000000000000000000000000000000000020800000004000000000000000000000000000000000000000000000000000004100000000000000000000000000000000000000000000000000000000000000a00000000000000000abd06dc06000000000000000000000000000000000000180000040008000000000500000000000000000000000000000000000000000008080002000800000000000000000000000000000000000000000000000000000e080000001000000021000000000000000000000000000000000000000000000e0800100000000000400100000000000000000000000000000000000000000002000004000800000000010000000000000000000000000000000000000000000c000010001000000001010000000000000000000000000000000000000000000c0000100010000000000000000000000000000000000000000000000000000004080004000000000000000000000000000000000000000000000000000000000a000000000000000002ba06c6060000000000000000000000000000000000000c000010001000000001000000000000000000000000000000000000000000000c000010001000000000000000000000000000000000000000000000000000000a000000000000000001ba06ba060000000000000000000000000000000000000c000002000200000001000000000000000000000000000000000000000000000c000002000200000000000000000000000000000000000000000000000000000c000004000400000001000000000000000000000000000000000000000000000c000004000400000000000000000000000000000000000000000000000000000e0000000008000000610300000000000000000000000000000000000000000004200000000000000000000000000000000000000000000000000000000000000a000000000000000004d506d0060000000000000000000000000000000000000200000800010000000020000000000000000000000000000000000000000000070000000000000000037a1300000000000000000000000000000000000000000e00000000200000006101000000000000000000000000000000000000000000180000200002000000000300000000000000000000000000000000000000000002010000000400000000000000000000000000000000000000000000000000000c000008000800000001ffffffffffffffffffffffffffffffff0000000000000c000008000800000000ffffffffffffffffffffffffffffffff00000000000018020008000200000002000000000000000000000000000000000000000000001a020008000200000008000000000000000000000000000000000000000000001a0400020004000000020000000000000000000000000000000000000000000018000020000200000000010000000000000000000000000000000000000000000a0000000000000000010c070c070000000000000000000000000000000000000c00000100010000000100000000ff03000000000000000000000000000000000c0000010001000000000000000000000000000000000000000000000000000007000000000000000003c11300000000000000000000000000000000000000000c000008000800000001000000000000000000000000000000000000000000000c000008000800000000000000000000000000000000000000000000000000000c000010001000000001200000000000000000000000000000000000000000000c000010001000000000000000000000000000000000000000000000000000000e000000000400000041010000000000000000000000000000000000000000000e000000000200000061030000000000000000000000000000000000000000000e0000000002000000610200000000000000000000000000000000000000000004020000000000000000000000000000000000000000000000000000000000000a000000000000000004f806e8060000000000000000000000000000000000000e000008000000000060040000000000000000000000000000000000000000000e000010000000000060050000000000000000000000000000000000000000000e000004000000000060060000000000000000000000000000000000000000000e000000000200000061030000000000000000000000000000000000000000000210000200010000000000000000000000000000000000000000000000000000070000000000000000037a1300000000000000000000000000000000000000000e000000000800000061040000000000000000000000000000000000000000000e000000001000000061050000000000000000000000000000000000000000000e000000000400000061060000000000000000000000000000000000000000000e00000000020000006102000000000000000000000000000000000000000000050400010000000000000000000000000000000000000000000000000000000002000010001000000000200000000000000000000000000000000000000000000200000400040000000001000000000000000000000000000000000000000000020000080008000000002000000000000000000000000000000000000000000004080002000000000000000000000000000000000000000000000000000000000a000000000000000002e806f8060000000000000000000000000000000000000e0000000008000000610100000000000000000000000000000000000000000004020008000000000000000000000000000000000000000000000000000000000a00000000000000000c0907fb060000000000000000000000000000000000000e0000000002000000610300000000000000000000000000000000000000000002100002000100000000000000000000000000000000000000000000000000000e00000400000000006006000000000000000000000000000000000000000000070000000000000000037a1300000000000000000000000000000000000000000e0000000008000000610100000000000000000000000000000000000000000018000008000200000000030000000000000000000000000000000000000000001a000002000200000002f80000000000000000000000000000000000000000000c000004000400000001ffffffffffffffffffffffffffffffff0000000000000c000004000400000000ffffffffffffffffffffffffffffffff00000000000018020004000200000002000000000000000000000000000000000000000000001a020004000200000008000000000000000000000000000000000000000000001a010002000200000002000000000000000000000000000000000000000000000e0000000004000000610600000000000000000000000000000000000000000005040002000000000000000000000000000000000000000000000000000000000c000002000200000001010000000000000000000000000000000000000000000c0000020002000000000000000000000000000000000000000000000000000018000008000400000000010000000000000000000000000000000000000000001a040002000200000004000000000000000000000000000000000000000000000c000004000400000001010000000000000000000000000000000000000000000c0000040004000000000000000000000000000000000000000000000000000005040002000000000000000000000000000000000000000000000000000000000e0000000000000000e10500000000000000000000000000000000000000000007000000000000000000000000000000000000000000000000000000000000000c000002000200000001000000000000000000000000000000000000000000000c000002000200000000000000000000000000000000717b484e0000000000000e000002000000000020000000000000000000000000000000000000000000000c000001000100000001410000000000000000000000000000000000000000000c000001000100000000000000000000000000000000000000000000000000000c000002000200000001040000000000000000000000000000000000000000000c0000020002000000000000000000000000000000000000000000000000000007000000000000000003a21300000000000000000000000000000000000000000c000002000200000001240000000000000000000000000000000000000000000c000002000200000000000000000000000000000000000000000000000000000e000002000000000000000000000000000000000000000000000000000000000c000004000400000001000000000000000000000000000000000000000000000c000004000400000000000000000000000000000000000000000000000000000c000002000200000001200000000000000000000000000000000000000000000c000002000200000000000000000000000000000000000000000000000000000a00000000000000000125072507000000000000000000000000000000000000020800000004000000000000000000000000000000000000000000000000000004100000000000000000000000000000000000000000000000000000000000000a00000000000000000a25075007000000000000000000000000000000000000180000040008000000000500000000000000000000000000000000000000000008080002000800000000000000000000000000000000000000000000000000000e080000001000000021000000000000000000000000000000000000000000000e0800100000000000000100000000000000000000000000000000000000000002000004000800000000010000000000000000000000000000000000000000000c000010001000000001010000000000000000000000000000000000000000000c0000100010000000000000000000000000000000000000000000000000000004080004000000000000000000000000000000000000000000000000000000000a00000000000000000222072e070000000000000000000000000000000000000c000010001000000001000000000000000000000000000000000000000000000c000010001000000000000000000000000000000000000000000000000000000a000000000000000001220722070000000000000000000000000000000000000c000002000200000001000000000000000000000000000000000000000000000c000002000200000000000000000000000000000000717b484e0000000000000e000002000000000020000000000000000000000000000000000000000000000c000001000100000001220000000000000000000000000000000000000000000c000001000100000000000000000000000000000000000000000000000000000c000002000200000001040000000000000000000000000000000000000000000c0000020002000000000000000000000000000000000000000000000000000007000000000000000003a21300000000000000000000000000000000000000000c000002000200000001240000000000000000000000000000000000000000000c000002000200000000000000000000000000000000000000000000000000000e000002000000000000000000000000000000000000000000000000000000000c000004000400000001000000000000000000000000000000000000000000000c000004000400000000000000000000000000000000000000000000000000000c000002000200000001200000000000000000000000000000000000000000000c000002000200000000000000000000000000000000000000000000000000000a00000000000000000144074407000000000000000000000000000000000000020800000004000000000000000000000000000000000000000000000000000004100000000000000000000000000000000000000000000000000000000000000a00000000000000000a44075b07000000000000000000000000000000000000180000040008000000000500000000000000000000000000000000000000000008080002000800000000000000000000000000000000000000000000000000000e080000001000000021000000000000000000000000000000000000000000000e0800100000000000000100000000000000000000000000000000000000000002000004000800000000010000000000000000000000000000000000000000000c000010001000000001010000000000000000000000000000000000000000000c0000100010000000000000000000000000000000000000000000000000000004080004000000000000000000000000000000000000000000000000000000000a00000000000000000241074d070000000000000000000000000000000000000c000010001000000001000000000000000000000000000000000000000000000c000010001000000000000000000000000000000000000000000000000000000a000000000000000001410741070000000000000000000000000000000000000c000002000200000001ffffffffffffffffffffffffffffffff0000000000000c000002000200000000ffffffffffffffffffffffff000000000000000000000e000000000400000001020000000000000000000000000000000000000000001a040002000200000002000000000000000000000000000000000000000000000c000004000400000001000000000000000000000000000000000000000000000c000004000400000000000000000000000000000000ffffffff0000000000000e000000000800000021010000000000000000000000000000000000000000001a080004000400000002000000000000000000000000000000000000000000001a040002000200000004000000000000000000000000000000000000000000000e000002000000000000020000000000000000000000000000000000000000000a000000000000000001650765070000000000000000000000000000000000000c000002000200000001ffffffffffffffffffffffffffffffff0000000000000c000002000200000000ffffffffffffffffffffffff000000000000000000000e000000000400000001020000000000000000000000000000000000000000001a040002000200000002000000000000000000000000000000000000000000000c000004000400000001000000000000000000000000000000000000000000000c000004000400000000000000000000000000000000ffffffff0000000000000e000000000800000021010000000000000000000000000000000000000000001a080004000400000002000000000000000000000000000000000000000000001a040002000200000004000000000000000000000000000000000000000000000e000002000000000000020000000000000000000000000000000000000000000e0000000000000000e10500000000000000000000000000000000000000000007000000000000000004000000000000000000000000000000000000000000000c000002000200000001fcffffffffffffffffffffffffffffff0000000000000c000002000200000000ffffffffffffffffffffffffffffffff00000000000002010002000800000000000000000000000000000000000000000000000000000c000010001000000001200000000000000000000000000000000000000000000c000010001000000000000000000000000000000000000000000000000000000c000004000400000001000000000000000000000000000000000000000000000c000004000400000000000000000000000000000000000000800000000000000c000002000200000001000000000000000000000000000000000000000000000c0000020002000000000000000000000000000000000000008000000000000004080010000000000000000000000000000000000000000000000000000000000a00000000000000000c740772070000000000000000000000000000000000000c000002000200000001000000000000000000000000000000000000000000000c000002000200000000000000000000000000000000000000000000000000001a080004001000000002000000000000000000000000000000000000000000000c000008000800000001000000000000000000000000000000000000000000000c0000080008000000000000000000000000000000000000008000000000000004100000000000000000000000000000000000000000000000000000000000000a0000000000000000027b0779070000000000000000000000000000000000000c000008000800000001000000000000000000000000000000000000000000000c0000080008000000000000000000000000000000000000000000000000000004100004000000000000000000000000000000000000000000000000000000000a0000000000000000047e077d07000000000000000000000000000000000000020200000008000000000000000000000000000000000000000000000000000004080000000000000000000000000000000000000000000000000000000000000a00000000000000000a800789070000000000000000000000000000000000000c000001000100000001240000000000000000000000000000000000000000000c00000100010000000000000000000000000000000000000000000000000000070000000000000000038e1300000000000000000000000000000000000000000c000002000200000001000000000000000000000000000000000000000000000c000002000200000000000000000000000000000000ffffffff0000000000001a0100020002000000020000000000000000000000000000000000000000000004010002000000000000000000000000000000000000000000000000000000000a0000000000000000048807890700000000000000000000000000000000000007000000000000000000000000000000000000000000000000000000000000000c000002000200000001000000000000000000000000000000000000000000000c000002000200000000000000000000000000000000000000000000000000000e0000020000000000000000000000000000000000000000000000000000000007000000000000000004000000000000000000000000000000000000000000000e0000000000000000e0010000000000000000000000000000000000000000000c000004000400000001fcffffffffffffffffffffffffffffff0000000000000c000004000400000000ffffffffffffffffffffffffffffffff00000000000002020004000800000000000000000000000000000000000000000000000000000c000010001000000001400000000000000000000000000000000000000000000c000010001000000000000000000000000000000000000000000000000000000c000004000400000001000000000000000000000000000000000000000000000c000004000400000000000000000000000000000000000000800000000000000c000002000200000001000000000000000000000000000000000000000000000c0000020002000000000000000000000000000000000000008000000000000004080010000000000000000000000000000000000000000000000000000000000a00000000000000000c9b0799070000000000000000000000000000000000000c000002000200000001000000000000000000000000000000000000000000000c000002000200000000000000000000000000000000000000000000000000001a080004001000000002000000000000000000000000000000000000000000000c000008000800000001000000000000000000000000000000000000000000000c0000080008000000000000000000000000000000000000008000000000000004100000000000000000000000000000000000000000000000000000000000000a000000000000000002a207a0070000000000000000000000000000000000000c000008000800000001000000000000000000000000000000000000000000000c0000080008000000000000000000000000000000000000000000000000000004100004000000000000000000000000000000000000000000000000000000000a000000000000000004a507a407000000000000000000000000000000000000020200000008000000000000000000000000000000000000000000000000000002000001000200000000400000000000000000000000000000000000000000000e0000020000000000600200000000000000000000000000000000000000000004080000000000000000000000000000000000000000000000000000000000000a00000000000000000aa907bf070000000000000000000000000000000000000c000001000100000001240000000000000000000000000000000000000000000c00000100010000000000000000000000000000000000000000000000000000070000000000000000038e1300000000000000000000000000000000000000000c000002000200000001ffffffffffffffffffffffffffffffff0000000000000c000002000200000000ffffffff00000000000000000000000000000000000004010002000000000000000000000000000000000000000000000000000000000a000000000000000008bf07b0070000000000000000000000000000000000000c000002000200000001200000000000000000000000000000000000000000000c000002000200000000000000000000000000000000000000000000000000000e0000000004000000610200000000000000000000000000000000000000000008040002000200000000000000000000000000000000000000000000000000000e000002000000000060010000000000000000000000000000000000000000000e020001000000000060010000000000000000000000000000000000000000000c000001000100000001440000000000000000000000000000000000000000000c00000100010000000000000000000000000000000000000000000000000000070000000000000000038e1300000000000000000000000000000000000000000e000000000200000061010000000000000000000000000000000000000000000e020001000000000060020000000000000000000000000000000000000000000e0000000002000000610200000000000000000000000000000000000000000004000002000100000001400000000000000000000000000000000000000000000e0000000000000000e10100000000000000000000000000000000000000000007000000000000000000000000000000000000000000000000000000000000000c000002000200000001000000000000000000000000000000000000000000000c000002000200000000000000000000000000000000000000000000000000000e000002000000000000000000000000000000000000000000000000000000000e0000000000000000e10100000000000000000000000000000000000000000007000000000000000004000000000000000000000000000000000000000000000e0000000000000000e0010000000000000000000000000000000000000000000c000004000400000001fcffffffffffffffffffffffffffffff0000000000000c000004000400000000ffffffffffffffffffffffffffffffff00000000000002020004000800000000000000000000000000000000000000000000000000000c000010001000000001600000000000000000000000000000000000000000000c000010001000000000000000000000000000000000000000000000000000000c000004000400000001000000000000000000000000000000000000000000000c000004000400000000000000000000000000000000000000800000000000000c000002000200000001000000000000000000000000000000000000000000000c0000020002000000000000000000000000000000000000008000000000000004080010000000000000000000000000000000000000000000000000000000000a00000000000000000cd207d0070000000000000000000000000000000000000c000002000200000001000000000000000000000000000000000000000000000c000002000200000000000000000000000000000000000000000000000000001a080004001000000002000000000000000000000000000000000000000000000c000008000800000001000000000000000000000000000000000000000000000c0000080008000000000000000000000000000000000000008000000000000004100000000000000000000000000000000000000000000000000000000000000a000000000000000002d907d7070000000000000000000000000000000000000c000008000800000001000000000000000000000000000000000000000000000c0000080008000000000000000000000000000000000000000000000000000004100004000000000000000000000000000000000000000000000000000000000a000000000000000004dc07db07000000000000000000000000000000000000020200000008000000000000000000000000000000000000000000000000000002000001000200000000400000000000000000000000000000000000000000000e0000020000000000600200000000000000000000000000000000000000000004080000000000000000000000000000000000000000000000000000000000000a00000000000000000ae007ff070000000000000000000000000000000000000c000001000100000001240000000000000000000000000000000000000000000c00000100010000000000000000000000000000000000000000000000000000070000000000000000038e1300000000000000000000000000000000000000000c000002000200000001ffffffffffffffffffffffffffffffff0000000000000c000002000200000000ffffffff00000000000000000000000000000000000004010002000000000000000000000000000000000000000000000000000000000a000000000000000008ff07e7070000000000000000000000000000000000000c000002000200000001200000000000000000000000000000000000000000000c000002000200000000000000000000000000000000000000000000000000000e0000000004000000610200000000000000000000000000000000000000000008040002000200000000000000000000000000000000000000000000000000000e000002000000000060010000000000000000000000000000000000000000000e020001000000000060010000000000000000000000000000000000000000000c000001000100000001440000000000000000000000000000000000000000000c00000100010000000000000000000000000000000000000000000000000000070000000000000000038e1300000000000000000000000000000000000000000c000002000200000001000000000000000000000000000000000000000000000c0000020002000000000000000001000000000000000000000000000000000004010002000000000000000000000000000000000000000000000000000000000a00000000000000000cff07f4070000000000000000000000000000000000000e000000000200000061010000000000000000000000000000000000000000000e020001000000000060020000000000000000000000000000000000000000000c000001000100000001640000000000000000000000000000000000000000000c00000100010000000000000000000000000000000000000000000000000000070000000000000000038e1300000000000000000000000000000000000000000e000000000200000061010000000000000000000000000000000000000000000e020001000000000060030000000000000000000000000000000000000000000e0000000002000000610200000000000000000000000000000000000000000004000002000100000001400000000000000000000000000000000000000000000e0000000000000000e10100000000000000000000000000000000000000000007000000000000000000000000000000000000000000000000000000000000000c000002000200000001000000000000000000000000000000000000000000000c000002000200000000000000000000000000000000000000000000000000000e000002000000000000000000000000000000000000000000000000000000000e0000000000000000e10100000000000000000000000000000000000000000007000000000000000004000000000000000000000000000000000000000000000c000002000200000001fcffffffffffffffffffffffffffffff0000000000000c000002000200000000ffffffffffffffffffffffffffffffff00000000000002010002000800000000000000000000000000000000000000000000000000000c000010001000000001200000000000000000000000000000000000000000000c000010001000000000000000000000000000000000000000000000000000000c000004000400000001000000000000000000000000000000000000000000000c000004000400000000000000000000000000000000000000800000000000000c000002000200000001000000000000000000000000000000000000000000000c0000020002000000000000000000000000000000000000008000000000000004080010000000000000000000000000000000000000000000000000000000000a00000000000000000c11080f080000000000000000000000000000000000000c000002000200000001000000000000000000000000000000000000000000000c000002000200000000000000000000000000000000000000000000000000001a080004001000000002000000000000000000000000000000000000000000000c000008000800000001000000000000000000000000000000000000000000000c0000080008000000000000000000000000000000000000008000000000000004100000000000000000000000000000000000000000000000000000000000000a000000000000000002180816080000000000000000000000000000000000000c000008000800000001000000000000000000000000000000000000000000000c0000080008000000000000000000000000000000000000000000000000000004100004000000000000000000000000000000000000000000000000000000000a0000000000000000041b081a08000000000000000000000000000000000000020200000008000000000000000000000000000000000000000000000000000004080000000000000000000000000000000000000000000000000000000000000a00000000000000000a1d0825080000000000000000000000000000000000000c000001000100000001240000000000000000000000000000000000000000000c00000100010000000000000000000000000000000000000000000000000000070000000000000000038e1300000000000000000000000000000000000000000c000002000200000001ffffffffffffffffffffffffffffffff0000000000000c000002000200000000ffffffff00000000000000000000000000000000000004010002000000000000000000000000000000000000000000000000000000000a0000000000000000082508240800000000000000000000000000000000000007000000000000000000000000000000000000000000000000000000000000000c000002000200000001000000000000000000000000000000000000000000000c000002000200000000000000000000000000000000000000000000000000000e0000020000000000000000000000000000000000000000000000000000000007000000000000000004000000000000000000000000000000000000000000000e0000000000000000e0000000000000000000000000000000000000000000000c000004000400000001fcffffffffffffffffffffffffffffff0000000000000c000004000400000000ffffffffffffffffffffffffffffffff00000000000002020004000800000000000000000000000000000000000000000000000000000c000010001000000001400000000000000000000000000000000000000000000c000010001000000000000000000000000000000000000000000000000000000c000004000400000001000000000000000000000000000000000000000000000c000004000400000000000000000000000000000000000000800000000000000c000002000200000001000000000000000000000000000000000000000000000c0000020002000000000000000000000000000000000000008000000000000004080010000000000000000000000000000000000000000000000000000000000a00000000000000000c370835080000000000000000000000000000000000000c000002000200000001000000000000000000000000000000000000000000000c000002000200000000000000000000000000000000000000000000000000001a080004001000000002000000000000000000000000000000000000000000000c000008000800000001000000000000000000000000000000000000000000000c0000080008000000000000000000000000000000000000008000000000000004100000000000000000000000000000000000000000000000000000000000000a0000000000000000023e083c080000000000000000000000000000000000000c000008000800000001000000000000000000000000000000000000000000000c0000080008000000000000000000000000000000000000000000000000000004100004000000000000000000000000000000000000000000000000000000000a00000000000000000441084008000000000000000000000000000000000000020200000008000000000000000000000000000000000000000000000000000002000001000200000000200000000000000000000000000000000000000000000e0000020000000000600100000000000000000000000000000000000000000004080000000000000000000000000000000000000000000000000000000000000a00000000000000000a450865080000000000000000000000000000000000000c000001000100000001240000000000000000000000000000000000000000000c00000100010000000000000000000000000000000000000000000000000000070000000000000000038e1300000000000000000000000000000000000000000c000002000200000001ffffffffffffffffffffffffffffffff0000000000000c000002000200000000ffffffff00000000000000000000000000000000000004010002000000000000000000000000000000000000000000000000000000000a00000000000000000865084c080000000000000000000000000000000000000c000002000200000001200000000000000000000000000000000000000000000c000002000200000000000000000000000000000000000000000000000000000e0000000004000000610100000000000000000000000000000000000000000008040002000200000000000000000000000000000000000000000000000000000e020001000000000060010000000000000000000000000000000000000000000c000001000100000001440000000000000000000000000000000000000000000c00000100010000000000000000000000000000000000000000000000000000070000000000000000038e1300000000000000000000000000000000000000000c000002000200000001010000000000000000000000000000000000000000000c0000020002000000000000000000000000000000000000000000000000000004010000000000000000000000000000000000000000000000000000000000000a00000000000000000a5a0858080000000000000000000000000000000000000c000002000200000001000000000000000000000000000000000000000000000c000002000200000000000000000000000000000000000000000000000000001a0000020002000000020100000000000000000000000000000000000000000004010002000000000000000000000000000000000000000000000000000000000a0000000000000000045d0865080000000000000000000000000000000000000c000002000200000001200000000000000000000000000000000000000000000c000002000200000000000000000000000000000000000000000000000000000e0000000004000000610100000000000000000000000000000000000000000008040002000200000000000000000000000000000000000000000000000000000e0200010000000000600200000000000000000000000000000000000000000004000004000100000001200000000000000000000000000000000000000000000e0000000000000000e10000000000000000000000000000000000000000000007000000000000000000000000000000000000000000000000000000000000000c000002000200000001000000000000000000000000000000000000000000000c000002000200000000000000000000000000000000000000000000000000000e000002000000000000000000000000000000000000000000000000000000000e0000000000000000e10000000000000000000000000000000000000000000007000000000000000004000000000000000000000000000000000000000000000e0000000000000000e0080000000000000000000000000000000000000000000c000004000400000001fcffffffffffffffffffffffffffffff0000000000000c000004000400000000ffffffffffffffffffffffffffffffff0000000000000e0000020000000000600900000000000000000000000000000000000000000002020004000800000000000000000000000000000000000000000000000000000c000010001000000001800000000000000000000000000000000000000000000c000010001000000000000000000000000000000000000000000000000000000c000004000400000001000000000000000000000000000000000000000000000c000004000400000000000000000000000000000000000000800000000000000c000002000200000001000000000000000000000000000000000000000000000c0000020002000000000000000000000000000000000000008000000000000004080010000000000000000000000000000000000000000000000000000000000a00000000000000000c790877080000000000000000000000000000000000000c000002000200000001000000000000000000000000000000000000000000000c000002000200000000000000000000000000000000000000000000000000001a080004001000000002000000000000000000000000000000000000000000000c000008000800000001000000000000000000000000000000000000000000000c0000080008000000000000000000000000000000000000008000000000000004100000000000000000000000000000000000000000000000000000000000000a00000000000000000280087e080000000000000000000000000000000000000c000008000800000001000000000000000000000000000000000000000000000c0000080008000000000000000000000000000000000000000000000000000004100004000000000000000000000000000000000000000000000000000000000a00000000000000000483088208000000000000000000000000000000000000020200000008000000000000000000000000000000000000000000000000000002000001000200000000200100000000000000000000000000000000000000000e0000020000000000600400000000000000000000000000000000000000000004080000000000000000000000000000000000000000000000000000000000000a00000000000000000a870844090000000000000000000000000000000000000c000001000100000001240000000000000000000000000000000000000000000c00000100010000000000000000000000000000000000000000000000000000070000000000000000038e1300000000000000000000000000000000000000000c000002000200000001ffffffffffffffffffffffffffffffff0000000000000c000002000200000000ffffffff00000000000000000000000000000000000004010002000000000000000000000000000000000000000000000000000000000a0000000000000000068e0849090000000000000000000000000000000000000c000002000200000001200000000000000000000000000000000000000000000c000002000200000000000000000000000000000000000000000000000000000e0000000004000000610400000000000000000000000000000000000000000008040002000200000000000000000000000000000000000000000000000000000e020001000000000060010000000000000000000000000000000000000000000c000001000100000001440000000000000000000000000000000000000000000c00000100010000000000000000000000000000000000000000000000000000070000000000000000038e1300000000000000000000000000000000000000000c000002000200000001ffffffffffffffffffffffffffffffff0000000000000c000002000200000000ffffffff00000000000000000000000000000000000004010002000000000000000000000000000000000000000000000000000000000a0000000000000000069a084d090000000000000000000000000000000000000e0000000002000000610400000000000000000000000000000000000000000002000002000400000000400000000000000000000000000000000000000000000e0000040000000000600800000000000000000000000000000000000000000002000002000200000000200000000000000000000000000000000000000000000c000004000400000001200000000000000000000000000000000000000000000c0000040004000000000000000000000000000000000000000000000000000008020004000200000000000000000000000000000000000000000000000000000e020001000000000060010000000000000000000000000000000000000000000c000001000100000001640000000000000000000000000000000000000000000c00000100010000000000000000000000000000000000000000000000000000070000000000000000038e1300000000000000000000000000000000000000000e000000000200000061080000000000000000000000000000000000000000000c000004000400000001200000000000000000000000000000000000000000000c0000040004000000000000000000000000000000000000000000000000000008020004000200000000000000000000000000000000000000000000000000000e020001000000000060010000000000000000000000000000000000000000000c000001000100000001840000000000000000000000000000000000000000000c00000100010000000000000000000000000000000000000000000000000000070000000000000000038e13000000000000000000000000000000000000000002010000004000000000000000000000000000000000000000000000000000000c000002000200000001000000000000000001000000000000000000000000000c0000020002000000000000000000000000000000000000000000000000000004400002000000000000000000000000000000000000000000000000000000000a00000000000000000c4409b20800000000000000000000000000000000000002000040000800000000230000000000000000000000000000000000000000000c000004000400000001000000000000000000000000000000000000000000000c000004000400000000000000000000000000000000000000800000000000000c000002000200000001000000000000000000000000000000000000000000000c000002000200000000000000000000000000000000000000800000000000000e0000000010000000610900000000000000000000000000000000000000000004080010000000000000000000000000000000000000000000000000000000000a00000000000000000cbc08ba080000000000000000000000000000000000000c000002000200000001000000000000000000000000000000000000000000000c000002000200000000000000000000000000000000000000000000000000000e000000001000000061090000000000000000000000000000000000000000001a100004001000000002000000000000000000000000000000000000000000001a080004002000000002000000000000000000000000000000000000000000000c000008000800000001000000000000000000000000000000000000000000000c0000080008000000000000000000000000000000000000008000000000000004200010000000000000000000000000000000000000000000000000000000000a000000000000000002c508c3080000000000000000000000000000000000000c000008000800000001000000000000000000000000000000000000000000000c000008000800000000000000000000000000000000000000000000000000001a2000100010000000080000000000000000000000000000000000000000000004100004000000000000000000000000000000000000000000000000000000000a000000000000000004c908c808000000000000000000000000000000000000020200000008000000000000000000000000000000000000000000000000000004080000000000000000000000000000000000000000000000000000000000000a00000000000000000a4409cb080000000000000000000000000000000000000e0000400000000000600800000000000000000000000000000000000000000002000040000200000000240000000000000000000000000000000000000000000e000002000000000060070000000000000000000000000000000000000000000202000000010000000000000000000000000000000000000000000000000000070000000000000000038e13000000000000000000000000000000000000000002010000001000000000000000000000000000000000000000000000000000000c000002000200000001ffffffffffffffff00000000000000000000000000000c0000020002000000000000000000000000000000000000000000000000000004100002000000000000000000000000000000000000000000000000000000000a0000000000000000085109d508000000000000000000000000000000000000020000100002000000003f0000000000000000000000000000000000000000000c000004000400000001e0ffffffffffffffffffffffffffffff0000000000000c000004000400000000ffffffffffffffffffffffffffffffff0000000000001a020004000400000002000000000000000000000000000000000000000000000e0000000002000000210200000000000000000000000000000000000000000002020004002000000000000000000000000000000000000000000000000000000c000004000400000001010000000000000000000000000000000000000000000c0000040004000000000000000000000000000000000000000000000000000004200002000000000000000000000000000000000000000000000000000000000a000000000000000002e108df080000000000000000000000000000000000000c000004000400000001000000000000000000000000000000000000000000000c000004000400000000000000000000000000000000000000000000000000000c000008000800000001ffffffffffffffff00000000000000000000000000000c0000080008000000000000000000000000000000000000000000000000000004200008000000000000000000000000000000000000000000000000000000000a0000000000000000087b09e50800000000000000000000000000000000000004040000000000000000000000000000000000000000000000000000000000000a00000000000000000a7b09e7080000000000000000000000000000000000000e0000200000000000200200000000000000000000000000000000000000000002100000000100000000000000000000000000000000000000000000000000000e000010000000000060030000000000000000000000000000000000000000000e0000020000000000600200000000000000000000000000000000000000000007000000000000000003a21300000000000000000000000000000000000000000e000000000800000061030000000000000000000000000000000000000000000e0000000002000000610700000000000000000000000000000000000000000002020008000200000000000000000000000000000000000000000000000000000e000000000400000061090000000000000000000000000000000000000000000e0000000010000000610800000000000000000000000000000000000000000004020004000000000000000000000000000000000000000000000000000000000a0000000000000000084409f3080000000000000000000000000000000000000c000004000400000001000000000000000000000000000000000000000000000c000004000400000000000000000000000000000000000000000000000000001a0000080002000000021f0000000000000000000000000000000000000000000e0000020000000000600100000000000000000000000000000000000000000002000010001000000000440000000000000000000000000000000000000000000e0000000002000000610200000000000000000000000000000000000000000002000002000200000000200000000000000000000000000000000000000000000e0000020000000000600700000000000000000000000000000000000000000018000008000200000002050000000000000000000000000000000000000000000e000002000000000060050000000000000000000000000000000000000000000e0000100000000000600600000000000000000000000000000000000000000004020000000000000000000000000000000000000000000000000000000000000a0000000000000000040f0900090000000000000000000000000000000000000e0000040000000000600900000000000000000000000000000000000000000018000004000200000000050000000000000000000000000000000000000000000e000002000000000060080000000000000000000000000000000000000000000210000200010000000000000000000000000000000000000000000000000000070000000000000000038e1300000000000000000000000000000000000000000e000000000200000061070000000000000000000000000000000000000000000e00000000040000006108000000000000000000000000000000000000000000020200040002000000000000000000000000000000000000000000000000000007000000000000000003a21300000000000000000000000000000000000000000e000000000400000061090000000000000000000000000000000000000000000e0000000010000000610600000000000000000000000000000000000000000002000004000400000000010000000000000000000000000000000000000000000e0000000002000000610500000000000000000000000000000000000000000004040002000000000000000000000000000000000000000000000000000000000a00000000000000000200090f090000000000000000000000000000000000000e0000000002000000610400000000000000000000000000000000000000000002000002000200000000600000000000000000000000000000000000000000000e000002000000000060090000000000000000000000000000000000000000000e000000000400000061030000000000000000000000000000000000000000000e0000000002000000610100000000000000000000000000000000000000000004020000000000000000000000000000000000000000000000000000000000000a000000000000000004350916090000000000000000000000000000000000000c000002000200000001e0ffffffffffffffffffffffffffffff0000000000000c000002000200000000ffffffffffffffffffffffffffffffff0000000000001a040002000200000002000000000000000000000000000000000000000000000e000002000000000060080000000000000000000000000000000000000000000210000200010000000000000000000000000000000000000000000000000000070000000000000000038e1300000000000000000000000000000000000000000e0000000002000000610100000000000000000000000000000000000000000018000002000200000000030000000000000000000000000000000000000000000c000004000400000001000100000000000000000000000000000000000000000c0000040004000000000000000000000000000000000000000000000000000004040002000400000000000000000000000000000000000000000000000000000c000008000800000001ffffffffffffffffffffffffffffffff0000000000000c000008000800000000ffffffffffffffffffffffffffffffff00000000000018040008000400000000000000000000000000000000000000000000000000001a010004000400000002000000000000000000000000000000000000000000000e0000040000000000600600000000000000000000000000000000000000000018020008000200000002000000000000000000000000000000000000000000000e000002000000000060050000000000000000000000000000000000000000000e000000000200000061070000000000000000000000000000000000000000000e0000000004000000610800000000000000000000000000000000000000000002020004000200000000000000000000000000000000000000000000000000000e000002000000000060080000000000000000000000000000000000000000000202000000010000000000000000000000000000000000000000000000000000070000000000000000037a1300000000000000000000000000000000000000000e000000000200000061050000000000000000000000000000000000000000001a010002000200000002000000000000000000000000000000000000000000000e000000000400000061060000000000000000000000000000000000000000001a040002000100000004000000000000000000000000000000000000000000000e0000000002000000610800000000000000000000000000000000000000000007000000000000000003a21300000000000000000000000000000000000000000e000000000400000061030000000000000000000000000000000000000000000e0000000002000000610700000000000000000000000000000000000000000002020004000200000000000000000000000000000000000000000000000000000c000001000100000001000000000000000000000000000000000000000000000c0000010001000000000000000000000000000000000000000000000000000007000000000000000003a21300000000000000000000000000000000000000000c000002000200000001200000000000000000000000000000000000000000000c000002000200000000000000000000000000000000000000000000000000000e0000000004000000610900000000000000000000000000000000000000000008040002000200000000000000000000000000000000000000000000000000000e000000000400000061020000000000000000000000000000000000000000000e020004000000000060010000000000000000000000000000000000000000000e0000000002000000610400000000000000000000000000000000000000000004000002000100000001200100000000000000000000000000000000000000000e0000000000000000e10800000000000000000000000000000000000000000007000000000000000000000000000000000000000000000000000000000000000c000002000200000001000000000000000000000000000000000000000000000c000002000200000000000000000000000000000000000000000000000000000e000002000000000000000000000000000000000000000000000000000000000e0000000000000000e10800000000000000000000000000000000000000000007000000000000000004000000000000000000000000000000000000000000000c000002000200000001000000000000000000000000000000000000000000000c000002000200000000000000000000000000000000000000000000000000000e000002000000000000000000000000000000000000000000000000000000000a000000000000000001a409a4090000000000000000000000000000000000000c000002000200000001000000000000000000000000000000000000000000000c000002000200000000000000000000000000000000000000000000000000000e000002000000000000000000000000000000000000000000000000000000000a000000000000000001a409a4090000000000000000000000000000000000000c000002000200000001000000000000000000000000000000000000000000000c000002000200000000000000000000000000000000717b484e0000000000000e000002000000000020000000000000000000000000000000000000000000000c000001000100000001410000000000000000000000000000000000000000000c000001000100000000000000000000000000000000000000000000000000000c000002000200000001040000000000000000000000000000000000000000000c0000020002000000000000000000000000000000000000000000000000000007000000000000000003a21300000000000000000000000000000000000000000c000002000200000001240000000000000000000000000000000000000000000c000002000200000000000000000000000000000000000000000000000000000e000002000000000000000000000000000000000000000000000000000000000c000004000400000001000000000000000000000000000000000000000000000c000004000400000000000000000000000000000000000000000000000000000c000002000200000001200000000000000000000000000000000000000000000c000002000200000000000000000000000000000000000000000000000000000a00000000000000000164096409000000000000000000000000000000000000020800000004000000000000000000000000000000000000000000000000000004100000000000000000000000000000000000000000000000000000000000000a00000000000000000a64097009000000000000000000000000000000000000180000040008000000000500000000000000000000000000000000000000000008080002000800000000000000000000000000000000000000000000000000000e080000001000000021000000000000000000000000000000000000000000000e0800100000000000000100000000000000000000000000000000000000000002000004000800000000010000000000000000000000000000000000000000000c000010001000000001010000000000000000000000000000000000000000000c0000100010000000000000000000000000000000000000000000000000000004080004000000000000000000000000000000000000000000000000000000000a00000000000000000261096d090000000000000000000000000000000000000c000010001000000001000000000000000000000000000000000000000000000c000010001000000000000000000000000000000000000000000000000000000a000000000000000001610961090000000000000000000000000000000000000c000002000200000001ffffffffffffffffffffffffffffffff0000000000000c000002000200000000ffffffffffffffffffffffff000000000000000000000e000000000400000001020000000000000000000000000000000000000000001a040002000200000002000000000000000000000000000000000000000000000c000004000400000001000000000000000000000000000000000000000000000c000004000400000000000000000000000000000000ffffffff0000000000000e000000000800000021010000000000000000000000000000000000000000001a080004000400000002000000000000000000000000000000000000000000001a040002000200000004000000000000000000000000000000000000000000000e000002000000000000020000000000000000000000000000000000000000000a000000000000000001a409a4090000000000000000000000000000000000000c000002000200000001000000000000000000000000000000000000000000000c000002000200000000000000000000000000000000717b484e0000000000000e000002000000000020000000000000000000000000000000000000000000000c000001000100000001410000000000000000000000000000000000000000000c000001000100000000000000000000000000000000000000000000000000000c000002000200000001040000000000000000000000000000000000000000000c0000020002000000000000000000000000000000000000000000000000000007000000000000000003a21300000000000000000000000000000000000000000c000002000200000001240000000000000000000000000000000000000000000c000002000200000000000000000000000000000000000000000000000000000e000002000000000000000000000000000000000000000000000000000000000c000004000400000001000000000000000000000000000000000000000000000c000004000400000000000000000000000000000000000000000000000000000c000002000200000001200000000000000000000000000000000000000000000c000002000200000000000000000000000000000000000000000000000000000a0000000000000000018e098e09000000000000000000000000000000000000020800000004000000000000000000000000000000000000000000000000000004100000000000000000000000000000000000000000000000000000000000000a00000000000000000a8e099a09000000000000000000000000000000000000180000040008000000000500000000000000000000000000000000000000000008080002000800000000000000000000000000000000000000000000000000000e080000001000000021000000000000000000000000000000000000000000000e0800100000000000000100000000000000000000000000000000000000000002000004000800000000010000000000000000000000000000000000000000000c000010001000000001010000000000000000000000000000000000000000000c0000100010000000000000000000000000000000000000000000000000000004080004000000000000000000000000000000000000000000000000000000000a0000000000000000028b0997090000000000000000000000000000000000000c000010001000000001000000000000000000000000000000000000000000000c000010001000000000000000000000000000000000000000000000000000000a0000000000000000018b098b090000000000000000000000000000000000000c000002000200000001ffffffffffffffffffffffffffffffff0000000000000c000002000200000000ffffffffffffffffffffffff000000000000000000000e000000000400000001020000000000000000000000000000000000000000001a040002000200000002000000000000000000000000000000000000000000000c000004000400000001000000000000000000000000000000000000000000000c000004000400000000000000000000000000000000ffffffff0000000000000e000000000800000021010000000000000000000000000000000000000000001a080004000400000002000000000000000000000000000000000000000000001a040002000200000004000000000000000000000000000000000000000000000e000002000000000000020000000000000000000000000000000000000000000e0000000000000000e10800000000000000000000000000000000000000000007000000000000000004000000000000000000000000000000000000000000000e0000000000000000e0010000000000000000000000000000000000000000000c000004000400000001fcffffffffffffffffffffffffffffff0000000000000c000004000400000000ffffffffffffffffffffffffffffffff00000000000002020004000800000000000000000000000000000000000000000000000000000c000010001000000001400000000000000000000000000000000000000000000c000010001000000000000000000000000000000000000000000000000000000c000004000400000001000000000000000000000000000000000000000000000c000004000400000000000000000000000000000000000000800000000000000c000002000200000001000000000000000000000000000000000000000000000c0000020002000000000000000000000000000000000000008000000000000004080010000000000000000000000000000000000000000000000000000000000a00000000000000000cb409b2090000000000000000000000000000000000000c000002000200000001000000000000000000000000000000000000000000000c000002000200000000000000000000000000000000000000000000000000001a080004001000000002000000000000000000000000000000000000000000000c000008000800000001000000000000000000000000000000000000000000000c0000080008000000000000000000000000000000000000008000000000000004100000000000000000000000000000000000000000000000000000000000000a000000000000000002bb09b9090000000000000000000000000000000000000c000008000800000001000000000000000000000000000000000000000000000c0000080008000000000000000000000000000000000000000000000000000004100004000000000000000000000000000000000000000000000000000000000a000000000000000004be09bd09000000000000000000000000000000000000020200000008000000000000000000000000000000000000000000000000000002000001000200000000400000000000000000000000000000000000000000000e0000020000000000600200000000000000000000000000000000000000000004080000000000000000000000000000000000000000000000000000000000000a00000000000000000ac209dc090000000000000000000000000000000000000c000001000100000001240000000000000000000000000000000000000000000c00000100010000000000000000000000000000000000000000000000000000070000000000000000038e1300000000000000000000000000000000000000000c000002000200000001ffffffffffffffffffffffffffffffff0000000000000c000002000200000000ffffffff00000000000000000000000000000000000004010002000000000000000000000000000000000000000000000000000000000a000000000000000008dc09c9090000000000000000000000000000000000000c000002000200000001200000000000000000000000000000000000000000000c000002000200000000000000000000000000000000000000000000000000000e0000000004000000610200000000000000000000000000000000000000000008040002000200000000000000000000000000000000000000000000000000000e000002000000000060010000000000000000000000000000000000000000000e020001000000000060010000000000000000000000000000000000000000000c000001000100000001440000000000000000000000000000000000000000000c00000100010000000000000000000000000000000000000000000000000000070000000000000000038e1300000000000000000000000000000000000000000c000002000200000001000000000000000000000000000000000000000000000c0000020002000000000000000001000000000000000000000000000000000004010002000000000000000000000000000000000000000000000000000000000a00000000000000000cdc09d6090000000000000000000000000000000000000e000000000200000061010000000000000000000000000000000000000000000e020001000000000060020000000000000000000000000000000000000000000e0000000002000000610200000000000000000000000000000000000000000004000002000100000001400000000000000000000000000000000000000000000e0000000000000000e10100000000000000000000000000000000000000000007000000000000000000000000000000000000000000000000000000000000000c000002000200000001000000000000000000000000000000000000000000000c000002000200000000000000000000000000000000000000000000000000000e000002000000000000000000000000000000000000000000000000000000000e0000000000000000e10100000000000000000000000000000000000000000007000000000000000004000000000000000000000000000000000000000000000e0000000000000000e0020000000000000000000000000000000000000000000c000002000200000001ffffffffffffffffffffffffffffffff0000000000000c000002000200000000ffffffff0000000000000000000000000000000000001a0100020002000000020000000000000000000000000000000000000000000004020000000000000000000000000000000000000000000000000000000000000a000000000000000004030ae7090000000000000000000000000000000000000e000002000000000020000000000000000000000000000000000000000000000c000002000200000001030000000000000000000000000000000000000000000c000002000200000000000000000000000000000000000000000000000000000e0000020000000000200100000000000000000000000000000000000000000010000000000000000000000000000000000000000000000000000000000000000c000002000200000001400000000000000000000000000000000000000000000c000002000200000000000000000000000000000000000000000000000000000e000002000000000040000000000000000000000000000000000000000000000c000002000200000001000000000000000000000000000000000000000000000c000002000200000000000000000000000000000000000000000000000000000c000004000400000001200000000000000000000000000000000000000000000c000004000400000000000000000000000000000000000000000000000000000c000008000800000001020000000000000000000000000000000000000000000c00000800080000000000000000000000000000000000000000000000000000180000020010000000000500000000000000000000000000000000000000000008100004001000000000000000000000000000000000000000000000000000000e100000002000000021000000000000000000000000000000000000000000000e10002000000000004001000000000000000000000000000000000000000000020000020002000000000100000000000000000000000000000000000000000004020008000000000000000000000000000000000000000000000000000000000a000000000000000002f509fc090000000000000000000000000000000000000c00000100010000000100000000ff03000000000000000000000000000000000c0000010001000000000000000000000000000000000000000000000000000007000000000000000003c11300000000000000000000000000000000000000000e0000000002000000410100000000000000000000000000000000000000000005020000000100000001000000000000000000000000000000000000000000000e0000000000000000e10200000000000000000000000000000000000000000007000000000000000000000000000000000000000000000000000000000000000c000001000100000001000000000000000000000000000000000000000000000c000001000100000000000000000000000000000000a079c3080000000000000e000000000200000021020000000000000000000000000000000000000000000e0000020000000000600100000000000000000000000000000000000000000007000000000000000003a21300000000000000000000000000000000000000000e0000000002000000610100000000000000000000000000000000000000000002000002000200000000040000000000000000000000000000000000000000000c000001000100000001200000000000000000000000000000000000000000000c0000010001000000000000000000000000000000000000000000000000000007000000000000000003a21300000000000000000000000000000000000000000e0000000002000000610100000000000000000000000000000000000000000002000002000200000000240000000000000000000000000000000000000000000c0000010001000000012a0000000000000000000000000000000000000000000c0000010001000000000000000000000000000000000000000000000000000007000000000000000003a21300000000000000000000000000000000000000000e0000000002000000610100000000000000000000000000000000000000000002000002000200000000440000000000000000000000000000000000000000000c000001000100000001657a2065687420726f662079726575710000000000000c0000010001000000002065636e616c6162203a31323743524500000000000007000000000000000003a21300000000000000000000000000000000000000000e0000000002000000610100000000000000000000000000000000000000000002000002000200000000640000000000000000000000000000000000000000000c000001000100000001000000000000000000000000000000000000000000000c00000100010000000000000000000073736572646461206f7200000000000007000000000000000003a21300000000000000000000000000000000000000000c000002000200000001840000000000000000000000000000000000000000000c000002000200000000000000000000000000000000000000000000000000000e000002000000000000000000000000000000000000000000000000000000000c000002000200000001000000000000000000000000000000000000000000000c000002000200000000000000000000000000000000000000000000000000000e0000020000000000600300000000000000000000000000000000000000000018000002000400000000050000000000000000000000000000000000000000000e000004000000000060020000000000000000000000000000000000000000000e000000000200000061010000000000000000000000000000000000000000000202000400010000000000000000000000000000000000000000000000000000070000000000000000037a1300000000000000000000000000000000000000000c000002000200000001200000000000000000000000000000000000000000000c000002000200000000000000000000000000000000000000000000000000000e0000000004000000610200000000000000000000000000000000000000000008040002000200000000000000000000000000000000000000000000000000000e020001000000000000010000000000000000000000000000000000000000000e0000000002000000610300000000000000000000000000000000000000000002000002000200000000010000000000000000000000000000000000000000000c000004000400000001040000000000000000000000000000000000000000000c0000040004000000000000000000000000000000000000000000000000000004020004000000000000000000000000000000000000000000000000000000000a000000000000000002210a320a0000000000000000000000000000000000000e000000000200000061010000000000000000000000000000000000000000000200000200010000000080000000000000000000000000000000000000000000070000000000000000037a1300000000000000000000000000000000000000000c000002000200000001ffffffffffffffffffffffffffffffff0000000000000c000002000200000000ffffffffffffffffffffffff000000000000000000000e000000000400000001050000000000000000000000000000000000000000001a040002000200000002000000000000000000000000000000000000000000000c000004000400000001000000000000000000000000000000000000000000000c000004000400000000000000000000000000000000ffffffff0000000000001a010004000400000002000000000000000000000000000000000000000000001a040002000200000004000000000000000000000000000000000000000000000e000002000000000000050000000000000000000000000000000000000000000e0000000000000000e10200000000000000000000000000000000000000000007000000000000000004000000000000000000000000000000000000000000000e0000000000000000e0020000000000000000000000000000000000000000000e000001000000000020000000000000000000000000000000000000000000000c000002000200000001020000000000000000000000000000000000000000000c000002000200000000000000000000000000000000000000000000000000000e0000020000000000200100000000000000000000000000000000000000000010000000000000000000000000000000000000000000000000000000000000000c000004000400000001400000000000000000000000000000000000000000000c000004000400000000000000000000000000000000000000000000000000000e000004000000000040000000000000000000000000000000000000000000000c000004000400000001000000000000000000000000000000000000000000000c000004000400000000000000000000000000000000000000000000000000000c000008000800000001200000000000000000000000000000000000000000000c00000800080000000000000000000000000000000000000000000000000000180000040010000000000500000000000000000000000000000000000000000008100008001000000000000000000000000000000000000000000000000000000e100000002000000021000000000000000000000000000000000000000000000e10002000000000004001000000000000000000000000000000000000000000020000040004000000000100000000000000000000000000000000000000000004040002000000000000000000000000000000000000000000000000000000000a0000000000000000024d0a540a0000000000000000000000000000000000000c00000100010000000100000000ff03000000000000000000000000000000000c0000010001000000000000000000000000000000000000000000000000000007000000000000000003c11300000000000000000000000000000000000000000e0000000002000000410100000000000000000000000000000000000000000005020000000200000001000000000000000000000000000000000000000000000c000004000400000001ffffffffffffffffffffffffffffffff0000000000000c000004000400000000ffffffff0000000000000000000000000000000000001a0200040002000000020000000000000000000000000000000000000000000004020000000000000000000000000000000000000000000000000000000000000a000000000000000004610a5e0a00000000000000000000000000000000000002020000000100000000000000000000000000000000000000000000000000000e0000000000000000e10200000000000000000000000000000000000000000007000000000000000000000000000000000000000000000000000000000000000c000001000100000001000000000000000000000000000000000000000000000c000001000100000000000000000000000000000000a079c3080000000000000e000000000200000021020000000000000000000000000000000000000000000e0000020000000000600100000000000000000000000000000000000000000007000000000000000003a21300000000000000000000000000000000000000000e0000000002000000610100000000000000000000000000000000000000000002000002000200000000040000000000000000000000000000000000000000000c000001000100000001200000000000000000000000000000000000000000000c0000010001000000000000000000000000000000000000000000000000000007000000000000000003a21300000000000000000000000000000000000000000e0000000002000000610100000000000000000000000000000000000000000002000002000200000000240000000000000000000000000000000000000000000c000001000100000001290000000000000000000000000000000000000000000c0000010001000000000000000000000000000000000000000000000000000007000000000000000003a21300000000000000000000000000000000000000000e0000000002000000610100000000000000000000000000000000000000000002000002000200000000440000000000000000000000000000000000000000000c00000100010000000174736978656e6f6e20726f66207972650000000000000c00000100010000000075712072656e776f203a31323743524500000000000007000000000000000003a21300000000000000000000000000000000000000000e0000000002000000610100000000000000000000000000000000000000000002000002000200000000640000000000000000000000000000000000000000000c000001000100000001000000000000000000000000000000000000000000000c000001000100000000000000000000006e656b6f7420746e6500000000000007000000000000000003a21300000000000000000000000000000000000000000c000002000200000001840000000000000000000000000000000000000000000c000002000200000000000000000000000000000000000000000000000000000e000002000000000000000000000000000000000000000000000000000000000c000002000200000001000000000000000000000000000000000000000000000c000002000200000000000000000000000000000000000000000000000000000e0000020000000000600300000000000000000000000000000000000000000018000002000400000000050000000000000000000000000000000000000000000e000004000000000060020000000000000000000000000000000000000000000e000000000200000061010000000000000000000000000000000000000000000202000400010000000000000000000000000000000000000000000000000000070000000000000000037a1300000000000000000000000000000000000000000c000002000200000001200000000000000000000000000000000000000000000c000002000200000000000000000000000000000000000000000000000000000e0000000004000000610200000000000000000000000000000000000000000008040002000200000000000000000000000000000000000000000000000000000e020001000000000000010000000000000000000000000000000000000000000e0000000002000000610300000000000000000000000000000000000000000002000002000200000000010000000000000000000000000000000000000000000c000004000400000001040000000000000000000000000000000000000000000c0000040004000000000000000000000000000000000000000000000000000004020004000000000000000000000000000000000000000000000000000000000a0000000000000000027f0a900a0000000000000000000000000000000000000e000000000200000061010000000000000000000000000000000000000000000200000200010000000080000000000000000000000000000000000000000000070000000000000000037a1300000000000000000000000000000000000000000c000002000200000001ffffffffffffffffffffffffffffffff0000000000000c000002000200000000ffffffffffffffffffffffff000000000000000000000e000000000400000001050000000000000000000000000000000000000000001a040002000200000002000000000000000000000000000000000000000000000c000004000400000001000000000000000000000000000000000000000000000c000004000400000000000000000000000000000000ffffffff0000000000001a010004000400000002000000000000000000000000000000000000000000001a040002000200000004000000000000000000000000000000000000000000000e000002000000000000050000000000000000000000000000000000000000000e0000000000000000e10200000000000000000000000000000000000000000007000000000000000004000000000000000000000000000000000000000000000e0000000000000000e0040000000000000000000000000000000000000000000c000002000200000001000000000000000000000000000000000000000000000c0000020002000000000000000000000000000000000000000000000000000005020000000200000001000000000000000000000000000000000000000000001a000002002000000002010000000000000000000000000000000000000000000e0000020000000000600400000000000000000000000000000000000000000018000002000200000002010000000000000000000000000000000000000000001a0000020010000000027f00000000000000000000000000000000000000000004200000000000000000000000000000000000000000000000000000000000000a000000000000000004a90aa80a00000000000000000000000000000000000002020000001000000000000000000000000000000000000000000000000000000c0000080008000000011f0000000000000000000000000000000000000000000c000008000800000000000000000000000000000000000000000000000000000c000002000200000001010000000000000000000000000000000000000000000c000002000200000000000000000000000000000000000000000000000000000c000004000400000001010000000000000000000000000000000000000000000c0000040004000000000000000000000000000000000000000000000000000004100008000000000000000000000000000000000000000000000000000000000a000000000000000008b30ab10a0000000000000000000000000000000000000c000004000400000001000000000000000000000000000000000000000000000c0000040004000000000000000000000000000000000000000000000000000004200000000000000000000000000000000000000000000000000000000000000a00000000000000000ab70ab50a0000000000000000000000000000000000000c000002000200000001000000000000000000000000000000000000000000000c000002000200000000000000000000000000000000000000000000000000000e000020000000000060050000000000000000000000000000000000000000001a0200040002000000080000000000000000000000000000000000000000000004020000000000000000000000000000000000000000000000000000000000000a00000000000000000afd0abb0a0000000000000000000000000000000000000e000000000200000021020000000000000000000000000000000000000000000e0000020000000000600100000000000000000000000000000000000000000002100000000100000000000000000000000000000000000000000000000000000e0000100000000000600200000000000000000000000000000000000000000007000000000000000003a21300000000000000000000000000000000000000000e0000000002000000610100000000000000000000000000000000000000000002000002000200000000200000000000000000000000000000000000000000000e000002000000000060030000000000000000000000000000000000000000000e0000000002000000610500000000000000000000000000000000000000000004020000000000000000000000000000000000000000000000000000000000000a000000000000000004c60acf0a0000000000000000000000000000000000000c00000200020000000100ffffffffffffffffffffffffffffff0000000000000c000002000200000000ffffffffffffffffffffffffffffffff0000000000000e000000000400000061040000000000000000000000000000000000000000001a040002000100000002000000000000000000000000000000000000000000000e0000000002000000610300000000000000000000000000000000000000000007000000000000000003a21300000000000000000000000000000000000000000e0000000002000000610100000000000000000000000000000000000000000002000002000200000000400000000000000000000000000000000000000000000a000000000000000001e60ae60a0000000000000000000000000000000000000e000000000200000061010000000000000000000000000000000000000000000c00000800080000000163e5f30e16932f36f608404895bca64b0000000000000c000008000800000000c86f3888a94503d6a8628b54d9ec0d290000000000000c000010001000000001000000000000000000000000000000000000000000000c000010001000000000000000000000000000000000000000000000000000000e000010000000000020000000000000000000000000000000000000000000000e000000000200000061030000000000000000000000000000000000000000000e0000000004000000610200000000000000000000000000000000000000000004040000000000000000000000000000000000000000000000000000000000000a000000000000000004e60ad90a0000000000000000000000000000000000000e000010000000000060040000000000000000000000000000000000000000000e00000800000000006005000000000000000000000000000000000000000000050800000001000000010000000000000000000000000000000000000000000007000000000000000003a21300000000000000000000000000000000000000000e000000001000000061040000000000000000000000000000000000000000000e000000000800000061050000000000000000000000000000000000000000000e00000000040000006102000000000000000000000000000000000000000000020000080008000000000100000000000000000000000000000000000000000002000010001000000000200000000000000000000000000000000000000000000e00000000020000006103000000000000000000000000000000000000000000021000020002000000000000000000000000000000000000000000000000000004100004000000000000000000000000000000000000000000000000000000000a000000000000000002d90ae60a0000000000000000000000000000000000000e000000001000000061010000000000000000000000000000000000000000000402001000020000000000000000000000000000000000000000000000000000020000020002000000001f0000000000000000000000000000000000000000000c000004000400000001e0ffffffffffffffffffffffffffffff0000000000000c000004000400000000ffffffffffffffffffffffffffffffff0000000000001a0200040008000000020000000000000000000000000000000000000000000002080010000200000000000000000000000000000000000000000000000000000c000004000400000001010000000000000000000000000000000000000000000c0000040004000000000000000000000000000000000000000000000000000004020008000000000000000000000000000000000000000000000000000000000a000000000000000002f30af10a0000000000000000000000000000000000000c000004000400000001000000000000000000000000000000000000000000000c000004000400000000000000000000000000000000000000000000000000000c000008000800000001ffffffffffffffff00000000000000000000000000000c0000080008000000000000000000000000000000000000000000000000000004020008000000000000000000000000000000000000000000000000000000000a000000000000000008280bf70a00000000000000000000000000000000000004040000000000000000000000000000000000000000000000000000000000000a00000000000000000a280bf90a0000000000000000000000000000000000000e0000020000000000200200000000000000000000000000000000000000000002100000000100000000000000000000000000000000000000000000000000000e0000000000000000e10400000000000000000000000000000000000000000007000000000000000000000000000000000000000000000000000000000000000c000002000200000001000000000000000000000000000000000000000000000c000002000200000000000000000000000000000000717b484e0000000000000e000002000000000020000000000000000000000000000000000000000000000c000001000100000001220000000000000000000000000000000000000000000c000001000100000000000000000000000000000000000000000000000000000c000002000200000001040000000000000000000000000000000000000000000c0000020002000000000000000000000000000000000000000000000000000007000000000000000003a21300000000000000000000000000000000000000000c000002000200000001240000000000000000000000000000000000000000000c000002000200000000000000000000000000000000000000000000000000000e000002000000000000000000000000000000000000000000000000000000000c000004000400000001000000000000000000000000000000000000000000000c000004000400000000000000000000000000000000000000000000000000000c000002000200000001200000000000000000000000000000000000000000000c000002000200000000000000000000000000000000000000000000000000000a000000000000000001100b100b000000000000000000000000000000000000020800000004000000000000000000000000000000000000000000000000000004100000000000000000000000000000000000000000000000000000000000000a00000000000000000a100b1c0b000000000000000000000000000000000000180000040008000000000500000000000000000000000000000000000000000008080002000800000000000000000000000000000000000000000000000000000e080000001000000021000000000000000000000000000000000000000000000e0800100000000000000100000000000000000000000000000000000000000002000004000800000000010000000000000000000000000000000000000000000c000010001000000001010000000000000000000000000000000000000000000c0000100010000000000000000000000000000000000000000000000000000004080004000000000000000000000000000000000000000000000000000000000a0000000000000000020d0b190b0000000000000000000000000000000000000c000010001000000001000000000000000000000000000000000000000000000c000010001000000000000000000000000000000000000000000000000000000a0000000000000000010d0b0d0b0000000000000000000000000000000000000c000002000200000001ffffffffffffffffffffffffffffffff0000000000000c000002000200000000ffffffffffffffffffffffff000000000000000000000e000000000400000001020000000000000000000000000000000000000000001a040002000200000002000000000000000000000000000000000000000000000c000004000400000001000000000000000000000000000000000000000000000c000004000400000000000000000000000000000000ffffffff0000000000000e000000000800000021010000000000000000000000000000000000000000001a080004000400000002000000000000000000000000000000000000000000001a040002000200000004000000000000000000000000000000000000000000000e000002000000000000020000000000000000000000000000000000000000000e0000000000000000e10400000000000000000000000000000000000000000007000000000000000004000000000000000000000000000000000000000000000c000002000200000001000000000000000000000000000000000000000000000c000002000200000000000000000000000000000000717b484e0000000000000e000002000000000020000000000000000000000000000000000000000000000c000001000100000001410000000000000000000000000000000000000000000c000001000100000000000000000000000000000000000000000000000000000c000002000200000001040000000000000000000000000000000000000000000c0000020002000000000000000000000000000000000000000000000000000007000000000000000003a21300000000000000000000000000000000000000000c000002000200000001240000000000000000000000000000000000000000000c000002000200000000000000000000000000000000000000000000000000000e000002000000000000000000000000000000000000000000000000000000000c000004000400000001000000000000000000000000000000000000000000000c000004000400000000000000000000000000000000000000000000000000000c000002000200000001200000000000000000000000000000000000000000000c000002000200000000000000000000000000000000000000000000000000000a0000000000000000013b0b3b0b000000000000000000000000000000000000020800000004000000000000000000000000000000000000000000000000000004100000000000000000000000000000000000000000000000000000000000000a00000000000000000a3b0b470b000000000000000000000000000000000000180000040008000000000500000000000000000000000000000000000000000008080002000800000000000000000000000000000000000000000000000000000e080000001000000021000000000000000000000000000000000000000000000e0800100000000000000100000000000000000000000000000000000000000002000004000800000000010000000000000000000000000000000000000000000c000010001000000001010000000000000000000000000000000000000000000c0000100010000000000000000000000000000000000000000000000000000004080004000000000000000000000000000000000000000000000000000000000a000000000000000002380b440b0000000000000000000000000000000000000c000010001000000001000000000000000000000000000000000000000000000c000010001000000000000000000000000000000000000000000000000000000a000000000000000001380b380b0000000000000000000000000000000000000c000002000200000001ffffffffffffffffffffffffffffffff0000000000000c000002000200000000ffffffffffffffffffffffff000000000000000000000e000000000400000001020000000000000000000000000000000000000000001a040002000200000002000000000000000000000000000000000000000000000c000004000400000001000000000000000000000000000000000000000000000c000004000400000000000000000000000000000000ffffffff0000000000000e000000000800000021010000000000000000000000000000000000000000001a080004000400000002000000000000000000000000000000000000000000001a040002000200000004000000000000000000000000000000000000000000000e000002000000000000020000000000000000000000000000000000000000000e0000000000000000e10400000000000000000000000000000000000000000007000000000000000004000000000000000000000000000000000000000000000e0000000000000000e0040000000000000000000000000000000000000000000c000002000200000001010000000000000000000000000000000000000000000c0000020002000000000000000000000000000000000000000000000000000005020000000400000001000000000000000000000000000000000000000000001a000004002000000002010000000000000000000000000000000000000000000e0000040000000000600400000000000000000000000000000000000000000018000004000400000002010000000000000000000000000000000000000000001a0000040010000000027f00000000000000000000000000000000000000000004200000000000000000000000000000000000000000000000000000000000000a0000000000000000045e0b5d0b00000000000000000000000000000000000002040000001000000000000000000000000000000000000000000000000000000c0000080008000000011f0000000000000000000000000000000000000000000c000008000800000000000000000000000000000000000000000000000000000c000004000400000001010000000000000000000000000000000000000000000c0000040004000000000000000000000000000000000000000000000000000004100008000000000000000000000000000000000000000000000000000000000a000000000000000008660b640b0000000000000000000000000000000000000c000004000400000001000000000000000000000000000000000000000000000c0000040004000000000000000000000000000000000000000000000000000004200000000000000000000000000000000000000000000000000000000000000a00000000000000000a6a0b680b0000000000000000000000000000000000000c000002000200000001000000000000000000000000000000000000000000000c000002000200000000000000000000000000000000000000000000000000000e000020000000000060050000000000000000000000000000000000000000001a0200040002000000080000000000000000000000000000000000000000000004020000000000000000000000000000000000000000000000000000000000000a00000000000000000ab20b6e0b0000000000000000000000000000000000000e000000000200000021020000000000000000000000000000000000000000000e0000020000000000600100000000000000000000000000000000000000000002100000000100000000000000000000000000000000000000000000000000000e0000100000000000600200000000000000000000000000000000000000000007000000000000000003a21300000000000000000000000000000000000000000e0000000002000000610100000000000000000000000000000000000000000002000002000200000000200000000000000000000000000000000000000000000e000002000000000060030000000000000000000000000000000000000000000e0000000002000000610500000000000000000000000000000000000000000004020000000000000000000000000000000000000000000000000000000000000a000000000000000004790b820b0000000000000000000000000000000000000c00000200020000000100ffffffffffffffffffffffffffffff0000000000000c000002000200000000ffffffffffffffffffffffffffffffff0000000000000e000000000400000061040000000000000000000000000000000000000000001a040002000100000002000000000000000000000000000000000000000000000e0000000002000000610300000000000000000000000000000000000000000007000000000000000003a21300000000000000000000000000000000000000000e0000000002000000610100000000000000000000000000000000000000000002000002000200000000400000000000000000000000000000000000000000000a0000000000000000019b0b9b0b0000000000000000000000000000000000000e000000000200000061010000000000000000000000000000000000000000000c000002000200000001010000000000000000000000000000000000000000000c000002000200000000000000000000000000000000000000000000000000000e000002000000000020000000000000000000000000000000000000000000000c000008000800000001f60cfab7e2cb9f2d73b0c2fa4a4bf40c0000000000000c000008000800000000326a7e71fdcdee263b071276522d0eb10000000000000c000010001000000001000000000000000000000000000000000000000000000c000010001000000000000000000000000000000000000000000000000000000e000000000200000061030000000000000000000000000000000000000000000e0000000004000000610200000000000000000000000000000000000000000004040000000000000000000000000000000000000000000000000000000000000a0000000000000000049b0b8e0b0000000000000000000000000000000000000e000010000000000060040000000000000000000000000000000000000000000e00000800000000006005000000000000000000000000000000000000000000050800000001000000010000000000000000000000000000000000000000000007000000000000000003a21300000000000000000000000000000000000000000e000000001000000061040000000000000000000000000000000000000000000e000000000800000061050000000000000000000000000000000000000000000e00000000040000006102000000000000000000000000000000000000000000020000080008000000000100000000000000000000000000000000000000000002000010001000000000200000000000000000000000000000000000000000000e00000000020000006103000000000000000000000000000000000000000000021000020002000000000000000000000000000000000000000000000000000004100004000000000000000000000000000000000000000000000000000000000a0000000000000000028e0b9b0b0000000000000000000000000000000000000e000000001000000061010000000000000000000000000000000000000000000402001000020000000000000000000000000000000000000000000000000000020000020002000000001f0000000000000000000000000000000000000000000c000004000400000001e0ffffffffffffffffffffffffffffff0000000000000c000004000400000000ffffffffffffffffffffffffffffffff0000000000001a0200040008000000020000000000000000000000000000000000000000000002080010000200000000000000000000000000000000000000000000000000000c000004000400000001010000000000000000000000000000000000000000000c0000040004000000000000000000000000000000000000000000000000000004020008000000000000000000000000000000000000000000000000000000000a000000000000000002a80ba60b0000000000000000000000000000000000000c000004000400000001000000000000000000000000000000000000000000000c000004000400000000000000000000000000000000000000000000000000000c000008000800000001ffffffffffffffff00000000000000000000000000000c0000080008000000000000000000000000000000000000000000000000000004020008000000000000000000000000000000000000000000000000000000000a000000000000000008dd0bac0b00000000000000000000000000000000000004040000000000000000000000000000000000000000000000000000000000000a00000000000000000add0bae0b0000000000000000000000000000000000000e0000020000000000200200000000000000000000000000000000000000000002100000000100000000000000000000000000000000000000000000000000000e0000000000000000e10400000000000000000000000000000000000000000007000000000000000000000000000000000000000000000000000000000000000c000002000200000001000000000000000000000000000000000000000000000c000002000200000000000000000000000000000000717b484e0000000000000e000002000000000020000000000000000000000000000000000000000000000c000001000100000001220000000000000000000000000000000000000000000c000001000100000000000000000000000000000000000000000000000000000c000002000200000001040000000000000000000000000000000000000000000c0000020002000000000000000000000000000000000000000000000000000007000000000000000003a21300000000000000000000000000000000000000000c000002000200000001240000000000000000000000000000000000000000000c000002000200000000000000000000000000000000000000000000000000000e000002000000000000000000000000000000000000000000000000000000000c000004000400000001000000000000000000000000000000000000000000000c000004000400000000000000000000000000000000000000000000000000000c000002000200000001200000000000000000000000000000000000000000000c000002000200000000000000000000000000000000000000000000000000000a000000000000000001c50bc50b000000000000000000000000000000000000020800000004000000000000000000000000000000000000000000000000000004100000000000000000000000000000000000000000000000000000000000000a00000000000000000ac50bd10b000000000000000000000000000000000000180000040008000000000500000000000000000000000000000000000000000008080002000800000000000000000000000000000000000000000000000000000e080000001000000021000000000000000000000000000000000000000000000e0800100000000000000100000000000000000000000000000000000000000002000004000800000000010000000000000000000000000000000000000000000c000010001000000001010000000000000000000000000000000000000000000c0000100010000000000000000000000000000000000000000000000000000004080004000000000000000000000000000000000000000000000000000000000a000000000000000002c20bce0b0000000000000000000000000000000000000c000010001000000001000000000000000000000000000000000000000000000c000010001000000000000000000000000000000000000000000000000000000a000000000000000001c20bc20b0000000000000000000000000000000000000c000002000200000001ffffffffffffffffffffffffffffffff0000000000000c000002000200000000ffffffffffffffffffffffff000000000000000000000e000000000400000001020000000000000000000000000000000000000000001a040002000200000002000000000000000000000000000000000000000000000c000004000400000001000000000000000000000000000000000000000000000c000004000400000000000000000000000000000000ffffffff0000000000000e000000000800000021010000000000000000000000000000000000000000001a080004000400000002000000000000000000000000000000000000000000001a040002000200000004000000000000000000000000000000000000000000000e000002000000000000020000000000000000000000000000000000000000000e0000000000000000e10400000000000000000000000000000000000000000007000000000000000004000000000000000000000000000000000000000000000c000002000200000001000000000000000000000000000000000000000000000c000002000200000000000000000000000000000000717b484e0000000000000e000002000000000020000000000000000000000000000000000000000000000c000001000100000001410000000000000000000000000000000000000000000c000001000100000000000000000000000000000000000000000000000000000c000002000200000001040000000000000000000000000000000000000000000c0000020002000000000000000000000000000000000000000000000000000007000000000000000003a21300000000000000000000000000000000000000000c000002000200000001240000000000000000000000000000000000000000000c000002000200000000000000000000000000000000000000000000000000000e000002000000000000000000000000000000000000000000000000000000000c000004000400000001000000000000000000000000000000000000000000000c000004000400000000000000000000000000000000000000000000000000000c000002000200000001200000000000000000000000000000000000000000000c000002000200000000000000000000000000000000000000000000000000000a000000000000000001f00bf00b000000000000000000000000000000000000020800000004000000000000000000000000000000000000000000000000000004100000000000000000000000000000000000000000000000000000000000000a00000000000000000af00bfc0b000000000000000000000000000000000000180000040008000000000500000000000000000000000000000000000000000008080002000800000000000000000000000000000000000000000000000000000e080000001000000021000000000000000000000000000000000000000000000e0800100000000000000100000000000000000000000000000000000000000002000004000800000000010000000000000000000000000000000000000000000c000010001000000001010000000000000000000000000000000000000000000c0000100010000000000000000000000000000000000000000000000000000004080004000000000000000000000000000000000000000000000000000000000a000000000000000002ed0bf90b0000000000000000000000000000000000000c000010001000000001000000000000000000000000000000000000000000000c000010001000000000000000000000000000000000000000000000000000000a000000000000000001ed0bed0b0000000000000000000000000000000000000c000002000200000001ffffffffffffffffffffffffffffffff0000000000000c000002000200000000ffffffffffffffffffffffff000000000000000000000e000000000400000001020000000000000000000000000000000000000000001a040002000200000002000000000000000000000000000000000000000000000c000004000400000001000000000000000000000000000000000000000000000c000004000400000000000000000000000000000000ffffffff0000000000000e000000000800000021010000000000000000000000000000000000000000001a080004000400000002000000000000000000000000000000000000000000001a040002000200000004000000000000000000000000000000000000000000000e000002000000000000020000000000000000000000000000000000000000000e0000000000000000e10400000000000000000000000000000000000000000007000000000000000004000000000000000000000000000000000000000000000e0000000000000000e0030000000000000000000000000000000000000000000e000001000000000060040000000000000000000000000000000000000000000e00000200000000006003000000000000000000000000000000000000000000020200000001000000000000000000000000000000000000000000000000000007000000000000000003400a00000000000000000000000000000000000000000a0000000000000000020e0c0f0c0000000000000000000000000000000000000a000000000000000001660c660c0000000000000000000000000000000000000c000002000200000001ffffffffffffffffffffffffffffffff0000000000000c000002000200000000ffffffff0000000000000000000000000000000000000e000000000800000061040000000000000000000000000000000000000000001a080002000400000002000000000000000000000000000000000000000000001a010002000200000002000000000000000000000000000000000000000000000c000010001000000001000000000000000000000000000000000000000000000c000010001000000000000000000000000000000000000000720000000000000c000020002000000001656e776f20746e6572727563206f74200000000000000c0000200020000000006c61766f72707061203a3132374352450000000000000c000040004000000001210000000000000000000000000000000000000000000c0000400040000000000000000000000000000000000000000000000000000004040002000000000000000000000000000000000000000000000000000000000a000000000000000004680c1c0c000000000000000000000000000000000000140000000004000000000000000000000000000000000000000000000000000004040002000000000000000000000000000000000000000000000000000000000a0000000000000000045f0c1f0c0000000000000000000000000000000000000e000004000000000060020000000000000000000000000000000000000000000e000002000000000020000000000000000000000000000000000000000000000c000002000200000001050000000000000000000000000000000000000000000c000002000200000000000000000000000000000000000000000000000000000e0000020000000000200100000000000000000000000000000000000000000010000000000000000000000000000000000000000000000000000000000000000c000002000200000001400000000000000000000000000000000000000000000c000002000200000000000000000000000000000000000000000000000000000e000002000000000040000000000000000000000000000000000000000000000c000002000200000001000000000000000000000000000000000000000000000c000002000200000000000000000000000000000000000000000000000000000c000004000400000001200000000000000000000000000000000000000000000c000004000400000000000000000000000000000000000000000000000000000c000008000800000001020000000000000000000000000000000000000000000c00000800080000000000000000000000000000000000000000000000000000180000020010000000000500000000000000000000000000000000000000000008100004001000000000000000000000000000000000000000000000000000000e100000002000000021000000000000000000000000000000000000000000000e10002000000000004001000000000000000000000000000000000000000000020000020002000000000100000000000000000000000000000000000000000004020008000000000000000000000000000000000000000000000000000000000a0000000000000000022e0c350c0000000000000000000000000000000000000c00000100010000000100000000ff03000000000000000000000000000000000c0000010001000000000000000000000000000000000000000000000000000007000000000000000003c11300000000000000000000000000000000000000000c000002000200000001ffffffffffffffffffffffffffffffff0000000000000c000002000200000000ffffffff0000000000000000000000000000000000000e000000000400000061020000000000000000000000000000000000000000001a040002000200000002000000000000000000000000000000000000000000000e000000000400000041010000000000000000000000000000000000000000000e000002000000000020000000000000000000000000000000000000000000000e0000040000000000200100000000000000000000000000000000000000000010000000000000000000000000000000000000000000000000000000000000000c000002000200000001400000000000000000000000000000000000000000000c000002000200000000000000000000000000000000000000000000000000000e000002000000000040000000000000000000000000000000000000000000000c000002000200000001000000000000000000000000000000000000000000000c000002000200000000000000000000000000000000000000000000000000000c000004000400000001200000000000000000000000000000000000000000000c000004000400000000000000000000000000000000000000000000000000000c000008000800000001020000000000000000000000000000000000000000000c00000800080000000000000000000000000000000000000000000000000000180000020010000000000500000000000000000000000000000000000000000008100004001000000000000000000000000000000000000000000000000000000e100000002000000021000000000000000000000000000000000000000000000e10002000000000004001000000000000000000000000000000000000000000020000020002000000000100000000000000000000000000000000000000000004020008000000000000000000000000000000000000000000000000000000000a000000000000000002490c500c0000000000000000000000000000000000000c00000100010000000100000000ff03000000000000000000000000000000000c0000010001000000000000000000000000000000000000000000000000000007000000000000000003c11300000000000000000000000000000000000000000c00001000100000000100000000000000006c6c6120726f66200000000000000c0000100010000000006465766f7270706120726f6e2072656e0000000000000c000020002000000001776f20746f6e2073692072656c6c61630000000000000c0000200020000000002065766f72707061203a3132374352450000000000000c000040004000000001380000000000000000000000000000000000000000000c000040004000000000000000000000000000000000000000000000000000000e0000000002000000410100000000000000000000000000000000000000000005020000000200000001000000000000000000000000000000000000000000001a000002000200000002ff0000000000000000000000000000000000000000000e0000000008000000610400000000000000000000000000000000000000000004020000000000000000000000000000000000000000000000000000000000000a000000000000000004680c5f0c00000000000000000000000000000000000002080000000100000000000000000000000000000000000000000000000000000e0000000002000000610300000000000000000000000000000000000000000007000000000000000003621000000000000000000000000000000000000000000a000000000000000002630c640c0000000000000000000000000000000000000a000000000000000001660c660c0000000000000000000000000000000000000e0000000000000000e10300000000000000000000000000000000000000000007000000000000000000000000000000000000000000000000000000000000000e0000000000000000e10300000000000000000000000000000000000000000007000000000000000004000000000000000000000000000000000000000000000e000040000000000060010000000000000000000000000000000000000000000e000020000000000060030000000000000000000000000000000000000000000e000010000000000060040000000000000000000000000000000000000000000c000001000100000001000000000000000000000000000000000000000000000c000001000100000000000000000000000000000000a079c3080000000000000e000000000200000021020000000000000000000000000000000000000000000e0000020000000000600200000000000000000000000000000000000000000007000000000000000003a21300000000000000000000000000000000000000000e0000000002000000610200000000000000000000000000000000000000000002000002000200000000040000000000000000000000000000000000000000000c000001000100000001200000000000000000000000000000000000000000000c0000010001000000000000000000000000000000000000000000000000000007000000000000000003a21300000000000000000000000000000000000000000e0000000002000000610200000000000000000000000000000000000000000002000002000200000000240000000000000000000000000000000000000000000e0000000001000000610100000000000000000000000000000000000000000007000000000000000003a21300000000000000000000000000000000000000000e0000000002000000610200000000000000000000000000000000000000000002000002000200000000440000000000000000000000000000000000000000000e0000000001000000610300000000000000000000000000000000000000000007000000000000000003a21300000000000000000000000000000000000000000e0000000002000000610200000000000000000000000000000000000000000002000002000200000000640000000000000000000000000000000000000000000e0000000001000000610400000000000000000000000000000000000000000007000000000000000003a21300000000000000000000000000000000000000000c000002000200000001840000000000000000000000000000000000000000000c000002000200000000000000000000000000000000000000000000000000000e000002000000000000000000000000000000000000000000000000000000000c000002000200000001000000000000000000000000000000000000000000000c000002000200000000000000000000000000000000000000000000000000000e0000020000000000600400000000000000000000000000000000000000000018000002000400000000050000000000000000000000000000000000000000000e000004000000000060030000000000000000000000000000000000000000000e000000000200000061020000000000000000000000000000000000000000000202000400010000000000000000000000000000000000000000000000000000070000000000000000037a1300000000000000000000000000000000000000000c000002000200000001200000000000000000000000000000000000000000000c000002000200000000000000000000000000000000000000000000000000000e0000000004000000610300000000000000000000000000000000000000000008040002000200000000000000000000000000000000000000000000000000000e020001000000000000010000000000000000000000000000000000000000000e0000000002000000610400000000000000000000000000000000000000000002000002000200000000010000000000000000000000000000000000000000000c000004000400000001040000000000000000000000000000000000000000000c0000040004000000000000000000000000000000000000000000000000000004020004000000000000000000000000000000000000000000000000000000000a000000000000000002860c970c0000000000000000000000000000000000000e000000000200000061020000000000000000000000000000000000000000000200000200010000000080000000000000000000000000000000000000000000070000000000000000037a1300000000000000000000000000000000000000000c000002000200000001ffffffffffffffffffffffffffffffff0000000000000c000002000200000000ffffffffffffffffffffffff000000000000000000000e000000000400000001050000000000000000000000000000000000000000001a040002000200000002000000000000000000000000000000000000000000000c000004000400000001000000000000000000000000000000000000000000000c000004000400000000000000000000000000000000ffffffff0000000000001a010004000400000002000000000000000000000000000000000000000000001a040002000200000004000000000000000000000000000000000000000000000e000002000000000000050000000000000000000000000000000000000000000e0000000000000000e10300000000000000000000000000000000000000000007000000000000000004000000000000000000000000000000000000000000000e0000000000000000e00200000000000000000000000000000000000000000002010000000200000000000000000000000000000000000000000000000000000e000002000000000060030000000000000000000000000000000000000000000e000002000000000020000000000000000000000000000000000000000000000c000002000200000001020000000000000000000000000000000000000000000c000002000200000000000000000000000000000000000000000000000000000e0000020000000000200100000000000000000000000000000000000000000010000000000000000000000000000000000000000000000000000000000000000c000004000400000001400000000000000000000000000000000000000000000c000004000400000000000000000000000000000000000000000000000000000e000004000000000040000000000000000000000000000000000000000000000c000004000400000001000000000000000000000000000000000000000000000c000004000400000000000000000000000000000000000000000000000000000c000008000800000001200000000000000000000000000000000000000000000c00000800080000000000000000000000000000000000000000000000000000180000040010000000000500000000000000000000000000000000000000000008100008001000000000000000000000000000000000000000000000000000000e100000002000000021000000000000000000000000000000000000000000000e10002000000000004001000000000000000000000000000000000000000000020000040004000000000100000000000000000000000000000000000000000004040002000000000000000000000000000000000000000000000000000000000a000000000000000002b40cbb0c0000000000000000000000000000000000000c00000100010000000100000000ff03000000000000000000000000000000000c0000010001000000000000000000000000000000000000000000000000000007000000000000000003c11300000000000000000000000000000000000000000e0000000002000000410100000000000000000000000000000000000000000005020000000200000001000000000000000000000000000000000000000000000c000004000400000001ffffffffffffffffffffffffffffffff0000000000000c000004000400000000ffffffff0000000000000000000000000000000000001a0200040002000000020000000000000000000000000000000000000000000004020000000000000000000000000000000000000000000000000000000000000a000000000000000004e50cc50c0000000000000000000000000000000000000e000000000200000061030000000000000000000000000000000000000000000e000002000000000020000000000000000000000000000000000000000000000c000002000200000001040000000000000000000000000000000000000000000c000002000200000000000000000000000000000000000000000000000000000e0000020000000000200100000000000000000000000000000000000000000010000000000000000000000000000000000000000000000000000000000000000c000002000200000001400000000000000000000000000000000000000000000c000002000200000000000000000000000000000000000000000000000000000e000002000000000040000000000000000000000000000000000000000000000c000002000200000001000000000000000000000000000000000000000000000c000002000200000000000000000000000000000000000000000000000000000c000004000400000001200000000000000000000000000000000000000000000c000004000400000000000000000000000000000000000000000000000000000c000008000800000001020000000000000000000000000000000000000000000c00000800080000000000000000000000000000000000000000000000000000180000020010000000000500000000000000000000000000000000000000000008100004001000000000000000000000000000000000000000000000000000000e100000002000000021000000000000000000000000000000000000000000000e10002000000000004001000000000000000000000000000000000000000000020000020002000000000100000000000000000000000000000000000000000004020008000000000000000000000000000000000000000000000000000000000a000000000000000002d40cdb0c0000000000000000000000000000000000000c00000100010000000100000000ff03000000000000000000000000000000000c0000010001000000000000000000000000000000000000000000000000000007000000000000000003c11300000000000000000000000000000000000000000e0000000002000000410100000000000000000000000000000000000000000005020000000200000001000000000000000000000000000000000000000000000c000004000400000001ffffffffffffffffffffffffffffffff0000000000000c000004000400000000ffffffff0000000000000000000000000000000000001a020004000100000002000000000000000000000000000000000000000000000e0000000000000000e10200000000000000000000000000000000000000000007000000000000000000000000000000000000000000000000000000000000000c000001000100000001000000000000000000000000000000000000000000000c000001000100000000000000000000000000000000a079c3080000000000000e000000000200000021020000000000000000000000000000000000000000000e0000020000000000600100000000000000000000000000000000000000000007000000000000000003a21300000000000000000000000000000000000000000e0000000002000000610100000000000000000000000000000000000000000002000002000200000000040000000000000000000000000000000000000000000c000001000100000001200000000000000000000000000000000000000000000c0000010001000000000000000000000000000000000000000000000000000007000000000000000003a21300000000000000000000000000000000000000000e0000000002000000610100000000000000000000000000000000000000000002000002000200000000240000000000000000000000000000000000000000000c0000010001000000012c0000000000000000000000000000000000000000000c0000010001000000000000000000000000000000000000000000000000000007000000000000000003a21300000000000000000000000000000000000000000e0000000002000000610100000000000000000000000000000000000000000002000002000200000000440000000000000000000000000000000000000000000c00000100010000000178656e6f6e20726f66207972657571200000000000000c0000010001000000006465766f72707061203a31323743524500000000000007000000000000000003a21300000000000000000000000000000000000000000e0000000002000000610100000000000000000000000000000000000000000002000002000200000000640000000000000000000000000000000000000000000c000001000100000001000000000000000000000000000000000000000000000c000001000100000000000000006e656b6f7420746e6574736900000000000007000000000000000003a21300000000000000000000000000000000000000000c000002000200000001840000000000000000000000000000000000000000000c000002000200000000000000000000000000000000000000000000000000000e000002000000000000000000000000000000000000000000000000000000000c000002000200000001000000000000000000000000000000000000000000000c000002000200000000000000000000000000000000000000000000000000000e0000020000000000600300000000000000000000000000000000000000000018000002000400000000050000000000000000000000000000000000000000000e000004000000000060020000000000000000000000000000000000000000000e000000000200000061010000000000000000000000000000000000000000000202000400010000000000000000000000000000000000000000000000000000070000000000000000037a1300000000000000000000000000000000000000000c000002000200000001200000000000000000000000000000000000000000000c000002000200000000000000000000000000000000000000000000000000000e0000000004000000610200000000000000000000000000000000000000000008040002000200000000000000000000000000000000000000000000000000000e020001000000000000010000000000000000000000000000000000000000000e0000000002000000610300000000000000000000000000000000000000000002000002000200000000010000000000000000000000000000000000000000000c000004000400000001040000000000000000000000000000000000000000000c0000040004000000000000000000000000000000000000000000000000000004020004000000000000000000000000000000000000000000000000000000000a000000000000000002030d140d0000000000000000000000000000000000000e000000000200000061010000000000000000000000000000000000000000000200000200010000000080000000000000000000000000000000000000000000070000000000000000037a1300000000000000000000000000000000000000000c000002000200000001ffffffffffffffffffffffffffffffff0000000000000c000002000200000000ffffffffffffffffffffffff000000000000000000000e000000000400000001050000000000000000000000000000000000000000001a040002000200000002000000000000000000000000000000000000000000000c000004000400000001000000000000000000000000000000000000000000000c000004000400000000000000000000000000000000ffffffff0000000000001a010004000400000002000000000000000000000000000000000000000000001a040002000200000004000000000000000000000000000000000000000000000e000002000000000000050000000000000000000000000000000000000000000e0000000000000000e10200000000000000000000000000000000000000000007000000000000000004000000000000000000000000000000000000000000000e0000000000000000e0020000000000000000000000000000000000000000000c000004000400000001ffffffffffffffffffffffffffffffff0000000000000c000004000400000000ffffffff0000000000000000000000000000000000001a0100040008000000020000000000000000000000000000000000000000000014000000000400000000000000000000000000000000000000000000000000000e0000080000000000600200000000000000000000000000000000000000000004040008000000000000000000000000000000000000000000000000000000000a0000000000000000049b0d2a0d0000000000000000000000000000000000000e000002000000000060030000000000000000000000000000000000000000000e000004000000000060010000000000000000000000000000000000000000000e000004000000000020000000000000000000000000000000000000000000000c000002000200000001050000000000000000000000000000000000000000000c000002000200000000000000000000000000000000000000000000000000000e0000020000000000200100000000000000000000000000000000000000000010000000000000000000000000000000000000000000000000000000000000000c000002000200000001400000000000000000000000000000000000000000000c000002000200000000000000000000000000000000000000000000000000000e000002000000000040000000000000000000000000000000000000000000000c000002000200000001000000000000000000000000000000000000000000000c000002000200000000000000000000000000000000000000000000000000000c000004000400000001200000000000000000000000000000000000000000000c000004000400000000000000000000000000000000000000000000000000000c000008000800000001020000000000000000000000000000000000000000000c00000800080000000000000000000000000000000000000000000000000000180000020010000000000500000000000000000000000000000000000000000008100004001000000000000000000000000000000000000000000000000000000e100000002000000021000000000000000000000000000000000000000000000e10002000000000004001000000000000000000000000000000000000000000020000020002000000000100000000000000000000000000000000000000000004020008000000000000000000000000000000000000000000000000000000000a0000000000000000023a0d410d0000000000000000000000000000000000000c00000100010000000100000000ff03000000000000000000000000000000000c0000010001000000000000000000000000000000000000000000000000000007000000000000000003c11300000000000000000000000000000000000000000e000000000200000041010000000000000000000000000000000000000000000e000000000400000061020000000000000000000000000000000000000000000e000004000000000020000000000000000000000000000000000000000000000e0000020000000000200100000000000000000000000000000000000000000010000000000000000000000000000000000000000000000000000000000000000c000002000200000001400000000000000000000000000000000000000000000c000002000200000000000000000000000000000000000000000000000000000e000002000000000040000000000000000000000000000000000000000000000c000002000200000001000000000000000000000000000000000000000000000c000002000200000000000000000000000000000000000000000000000000000c000004000400000001200000000000000000000000000000000000000000000c000004000400000000000000000000000000000000000000000000000000000c000008000800000001020000000000000000000000000000000000000000000c00000800080000000000000000000000000000000000000000000000000000180000020010000000000500000000000000000000000000000000000000000008100004001000000000000000000000000000000000000000000000000000000e100000002000000021000000000000000000000000000000000000000000000e10002000000000004001000000000000000000000000000000000000000000020000020002000000000100000000000000000000000000000000000000000004020008000000000000000000000000000000000000000000000000000000000a000000000000000002520d590d0000000000000000000000000000000000000c000004000400000001010000000000000000000000000000000000000000000c000004000400000000000000000000000000000000000000000000000000000e0000000002000000610300000000000000000000000000000000000000000004020000000000000000000000000000000000000000000000000000000000000a00000000000000000a600d5e0d0000000000000000000000000000000000000c000004000400000001000000000000000000000000000000000000000000000c000004000400000000000000000000000000000000000000000000000000000e000004000000000060030000000000000000000000000000000000000000000c00000100010000000100000000ff03000000000000000000000000000000000c0000010001000000000000000000000000000000000000000000000000000007000000000000000003c11300000000000000000000000000000000000000000e0000000002000000410100000000000000000000000000000000000000000005020000000400000001000000000000000000000000000000000000000000000c00000800080000000100ffffffffffffffffffffffffffffff0000000000000c000008000800000000ffffffffffffffffffffffffffffffff0000000000001a040008000400000002000000000000000000000000000000000000000000000e000000000800000061030000000000000000000000000000000000000000001a000008000800000002010000000000000000000000000000000000000000001a0400080004000000040000000000000000000000000000000000000000000005020004000000000000000000000000000000000000000000000000000000000e000000000200000021020000000000000000000000000000000000000000000e00000200000000006003000000000000000000000000000000000000000000020800000001000000000000000000000000000000000000000000000000000007000000000000000003a21300000000000000000000000000000000000000000e000000000800000061030000000000000000000000000000000000000000000c000002000200000001316c6937592bca89049220f200f253960000000000000c000002000200000000bd593dad459889e80761ab39ab7e30170000000000000c000004000400000001030000002000000000000000000000000000000000000c000004000400000000000000000000000000000000000000000000000000000504000200000000000a000000000000000000000000000000000000000000000e000000000200000061020000000000000000000000000000000000000000000e00000000040000006101000000000000000000000000000000000000000000050400020000000000020000000000000000000000000000000000000000000002000008001000000000200000000000000000000000000000000000000000000c000002000200000001e0ffffffffffffffffffffffffffffff0000000000000c000002000200000000ffffffffffffffffffffffffffffffff0000000000000e0000100000000000600200000000000000000000000000000000000000000004080002000000000000000000000000000000000000000000000000000000000a00000000000000000c800d880d0000000000000000000000000000000000000e0000000000000000e10200000000000000000000000000000000000000000007000000000000000000000000000000000000000000000000000000000000000c000002000200000001000000000000000000000000000000000000000000000c000002000200000000000000000000000000000000000000000000000000000520000200000000000200000000000000000000000000000000000000000000020000080008000000004000000000000000000000000000000000000000000004100008000000000000000000000000000000000000000000000000000000000a000000000000000008880d800d0000000000000000000000000000000000000e000008000000000060030000000000000000000000000000000000000000000208000000010000000000000000000000000000000000000000000000000000070000000000000000037a1300000000000000000000000000000000000000000e000000001000000061020000000000000000000000000000000000000000000e00000000080000006103000000000000000000000000000000000000000000041000080002000000000000000000000000000000000000000000000000000002010000002000000000000000000000000000000000000000000000000000000c0000040004000000013f0000000000000000000000000000000000000000000c0000040004000000000000000000000000000000000000000000000000000004020004000000000000000000000000000000000000000000000000000000000a000000000000000008930d820d00000000000000000000000000000000000002000008000100000000200000000000000000000000000000000000000000000e00002000000000006001000000000000000000000000000000000000000000070000000000000000037a1300000000000000000000000000000000000000000e000000001000000061020000000000000000000000000000000000000000000e000000000800000061030000000000000000000000000000000000000000000e0000000002000000610100000000000000000000000000000000000000000005020001000000000002000000000000000000000000000000000000000000000a000000000000000001850d850d0000000000000000000000000000000000000c000001000100000001000000000000000000000000000000000000000000000c000001000100000000000000000000000000000000a079c3080000000000000e000000000200000021020000000000000000000000000000000000000000000e0000020000000000600100000000000000000000000000000000000000000007000000000000000003a21300000000000000000000000000000000000000000e0000000002000000610100000000000000000000000000000000000000000002000002000200000000040000000000000000000000000000000000000000000c000001000100000001200000000000000000000000000000000000000000000c0000010001000000000000000000000000000000000000000000000000000007000000000000000003a21300000000000000000000000000000000000000000e0000000002000000610100000000000000000000000000000000000000000002000002000200000000240000000000000000000000000000000000000000000c000001000100000001190000000000000000000000000000000000000000000c0000010001000000000000000000000000000000000000000000000000000007000000000000000003a21300000000000000000000000000000000000000000e0000000002000000610100000000000000000000000000000000000000000002000002000200000000440000000000000000000000000000000000000000000c0000010001000000010000000000000072656c6c6163206f740000000000000c0000010001000000002065766f72707061203a31323743524500000000000007000000000000000003a21300000000000000000000000000000000000000000c000002000200000001640000000000000000000000000000000000000000000c000002000200000000000000000000000000000000000000000000000000000e000002000000000000000000000000000000000000000000000000000000000c000002000200000001000000000000000000000000000000000000000000000c000002000200000000000000000000000000000000000000000000000000000e0000020000000000600300000000000000000000000000000000000000000018000002000400000000050000000000000000000000000000000000000000000e000004000000000060020000000000000000000000000000000000000000000e000000000200000061010000000000000000000000000000000000000000000202000400010000000000000000000000000000000000000000000000000000070000000000000000037a1300000000000000000000000000000000000000000c000002000200000001200000000000000000000000000000000000000000000c000002000200000000000000000000000000000000000000000000000000000e0000000004000000610200000000000000000000000000000000000000000008040002000200000000000000000000000000000000000000000000000000000e020001000000000000010000000000000000000000000000000000000000000e0000000002000000610300000000000000000000000000000000000000000002000002000200000000010000000000000000000000000000000000000000000c000004000400000001030000000000000000000000000000000000000000000c0000040004000000000000000000000000000000000000000000000000000004020004000000000000000000000000000000000000000000000000000000000a000000000000000002b40dc50d0000000000000000000000000000000000000e000000000200000061010000000000000000000000000000000000000000000200000200010000000060000000000000000000000000000000000000000000070000000000000000037a1300000000000000000000000000000000000000000c000002000200000001ffffffffffffffffffffffffffffffff0000000000000c000002000200000000ffffffffffffffffffffffff000000000000000000000e000000000400000001040000000000000000000000000000000000000000001a040002000200000002000000000000000000000000000000000000000000000c000004000400000001000000000000000000000000000000000000000000000c000004000400000000000000000000000000000000ffffffff0000000000001a010004000400000002000000000000000000000000000000000000000000001a040002000200000004000000000000000000000000000000000000000000000e000002000000000000040000000000000000000000000000000000000000000e0000000000000000e10200000000000000000000000000000000000000000007000000000000000004000000000000000000000000000000000000000000000e0000000000000000e00200000000000000000000000000000000000000000004010000000000000000000000000000000000000000000000000000000000000a000000000000000004d80dd60d0000000000000000000000000000000000000e0000000000000000e10200000000000000000000000000000000000000000007000000000000000000000000000000000000000000000000000000000000000c000001000100000001000000000000000000000000000000000000000000000c000001000100000000000000000000000000000000a079c3080000000000000e000000000200000021020000000000000000000000000000000000000000000e0000020000000000600100000000000000000000000000000000000000000007000000000000000003a21300000000000000000000000000000000000000000e0000000002000000610100000000000000000000000000000000000000000002000002000200000000040000000000000000000000000000000000000000000c000001000100000001200000000000000000000000000000000000000000000c0000010001000000000000000000000000000000000000000000000000000007000000000000000003a21300000000000000000000000000000000000000000e0000000002000000610100000000000000000000000000000000000000000002000002000200000000240000000000000000000000000000000000000000000c000001000100000001310000000000000000000000000000000000000000000c0000010001000000000000000000000000000000000000000000000000000007000000000000000003a21300000000000000000000000000000000000000000e0000000002000000610100000000000000000000000000000000000000000002000002000200000000440000000000000000000000000000000000000000000c0000010001000000016f20746f6e2073692072656c6c6163200000000000000c000001000100000000726566736e617274203a31323743524500000000000007000000000000000003a21300000000000000000000000000000000000000000e0000000002000000610100000000000000000000000000000000000000000002000002000200000000640000000000000000000000000000000000000000000c000001000100000001000000000000000000000000000000640000000000000c00000100010000000065766f7270706120726f6e2072656e7700000000000007000000000000000003a21300000000000000000000000000000000000000000c000002000200000001840000000000000000000000000000000000000000000c000002000200000000000000000000000000000000000000000000000000000e000002000000000000000000000000000000000000000000000000000000000c000002000200000001000000000000000000000000000000000000000000000c000002000200000000000000000000000000000000000000000000000000000e0000020000000000600300000000000000000000000000000000000000000018000002000400000000050000000000000000000000000000000000000000000e000004000000000060020000000000000000000000000000000000000000000e000000000200000061010000000000000000000000000000000000000000000202000400010000000000000000000000000000000000000000000000000000070000000000000000037a1300000000000000000000000000000000000000000c000002000200000001200000000000000000000000000000000000000000000c000002000200000000000000000000000000000000000000000000000000000e0000000004000000610200000000000000000000000000000000000000000008040002000200000000000000000000000000000000000000000000000000000e020001000000000000010000000000000000000000000000000000000000000e0000000002000000610300000000000000000000000000000000000000000002000002000200000000010000000000000000000000000000000000000000000c000004000400000001040000000000000000000000000000000000000000000c0000040004000000000000000000000000000000000000000000000000000004020004000000000000000000000000000000000000000000000000000000000a000000000000000002f60d070e0000000000000000000000000000000000000e000000000200000061010000000000000000000000000000000000000000000200000200010000000080000000000000000000000000000000000000000000070000000000000000037a1300000000000000000000000000000000000000000c000002000200000001ffffffffffffffffffffffffffffffff0000000000000c000002000200000000ffffffffffffffffffffffff000000000000000000000e000000000400000001050000000000000000000000000000000000000000001a040002000200000002000000000000000000000000000000000000000000000c000004000400000001000000000000000000000000000000000000000000000c000004000400000000000000000000000000000000ffffffff0000000000001a010004000400000002000000000000000000000000000000000000000000001a040002000200000004000000000000000000000000000000000000000000000e000002000000000000050000000000000000000000000000000000000000000e0000000000000000e10200000000000000000000000000000000000000000007000000000000000004000000000000000000000000000000000000000000000e0000000000000000e0020000000000000000000000000000000000000000000e000001000000000060020000000000000000000000000000000000000000000e000002000000000060030000000000000000000000000000000000000000000e000002000000000020000000000000000000000000000000000000000000000c000002000200000001020000000000000000000000000000000000000000000c000002000200000000000000000000000000000000000000000000000000000e0000020000000000200100000000000000000000000000000000000000000010000000000000000000000000000000000000000000000000000000000000000c000004000400000001400000000000000000000000000000000000000000000c000004000400000000000000000000000000000000000000000000000000000e000004000000000040000000000000000000000000000000000000000000000c000004000400000001000000000000000000000000000000000000000000000c000004000400000000000000000000000000000000000000000000000000000c000008000800000001200000000000000000000000000000000000000000000c00000800080000000000000000000000000000000000000000000000000000180000040010000000000500000000000000000000000000000000000000000008100008001000000000000000000000000000000000000000000000000000000e100000002000000021000000000000000000000000000000000000000000000e10002000000000004001000000000000000000000000000000000000000000020000040004000000000100000000000000000000000000000000000000000004040002000000000000000000000000000000000000000000000000000000000a000000000000000002240e2b0e0000000000000000000000000000000000000c00000100010000000100000000ff03000000000000000000000000000000000c0000010001000000000000000000000000000000000000000000000000000007000000000000000003c11300000000000000000000000000000000000000000e0000000002000000410100000000000000000000000000000000000000000005020000000200000001000000000000000000000000000000000000000000000c000004000400000001ffffffffffffffffffffffffffffffff0000000000000c000004000400000000ffffffff0000000000000000000000000000000000001a0200040002000000020000000000000000000000000000000000000000000004020000000000000000000000000000000000000000000000000000000000000a0000000000000000048c0e350e0000000000000000000000000000000000000e0000000001000000610300000000000000000000000000000000000000000007000000000000000003400a00000000000000000000000000000000000000000a000000000000000002380e390e0000000000000000000000000000000000000a0000000000000000018a0e8a0e0000000000000000000000000000000000000c000002000200000001ffffffffffffffffffffffffffffffff0000000000000c000002000200000000ffffffff0000000000000000000000000000000000001a010002000400000002000000000000000000000000000000000000000000000e000000000800000061020000000000000000000000000000000000000000001a080002000800000002000000000000000000000000000000000000000000000c000002000200000001010000000000000000000000000000000000000000000c000002000200000000000000000000000000000000000000000000000000000e0000080000000000600200000000000000000000000000000000000000000004080004000000000000000000000000000000000000000000000000000000000a000000000000000004870e430e0000000000000000000000000000000000000e000004000000000020000000000000000000000000000000000000000000000c000002000200000001050000000000000000000000000000000000000000000c000002000200000000000000000000000000000000000000000000000000000e0000020000000000200100000000000000000000000000000000000000000010000000000000000000000000000000000000000000000000000000000000000c000002000200000001400000000000000000000000000000000000000000000c000002000200000000000000000000000000000000000000000000000000000e000002000000000040000000000000000000000000000000000000000000000c000002000200000001000000000000000000000000000000000000000000000c000002000200000000000000000000000000000000000000000000000000000c000004000400000001200000000000000000000000000000000000000000000c000004000400000000000000000000000000000000000000000000000000000c000008000800000001020000000000000000000000000000000000000000000c00000800080000000000000000000000000000000000000000000000000000180000020010000000000500000000000000000000000000000000000000000008100004001000000000000000000000000000000000000000000000000000000e100000002000000021000000000000000000000000000000000000000000000e10002000000000004001000000000000000000000000000000000000000000020000020002000000000100000000000000000000000000000000000000000004020008000000000000000000000000000000000000000000000000000000000a000000000000000002510e580e0000000000000000000000000000000000000c00000100010000000100000000ff03000000000000000000000000000000000c0000010001000000000000000000000000000000000000000000000000000007000000000000000003c11300000000000000000000000000000000000000000e000000000200000041010000000000000000000000000000000000000000000e000000000400000061020000000000000000000000000000000000000000000e000004000000000020000000000000000000000000000000000000000000000e0000020000000000200100000000000000000000000000000000000000000010000000000000000000000000000000000000000000000000000000000000000c000002000200000001400000000000000000000000000000000000000000000c000002000200000000000000000000000000000000000000000000000000000e000002000000000040000000000000000000000000000000000000000000000c000002000200000001000000000000000000000000000000000000000000000c000002000200000000000000000000000000000000000000000000000000000c000004000400000001200000000000000000000000000000000000000000000c000004000400000000000000000000000000000000000000000000000000000c000008000800000001020000000000000000000000000000000000000000000c00000800080000000000000000000000000000000000000000000000000000180000020010000000000500000000000000000000000000000000000000000008100004001000000000000000000000000000000000000000000000000000000e100000002000000021000000000000000000000000000000000000000000000e10002000000000004001000000000000000000000000000000000000000000020000020002000000000100000000000000000000000000000000000000000004020008000000000000000000000000000000000000000000000000000000000a000000000000000002690e700e0000000000000000000000000000000000000c00000100010000000100000000ff03000000000000000000000000000000000c0000010001000000000000000000000000000000000000000000000000000007000000000000000003c11300000000000000000000000000000000000000000e0000000002000000410100000000000000000000000000000000000000000005020000000200000001000000000000000000000000000000000000000000001a000002000200000002ff00000000000000000000000000000000000000000004020000000000000000000000000000000000000000000000000000000000000a000000000000000004780e870e0000000000000000000000000000000000000e0000000001000000610300000000000000000000000000000000000000000007000000000000000003a50c00000000000000000000000000000000000000000a0000000000000000027b0e7c0e0000000000000000000000000000000000000a0000000000000000018a0e8a0e0000000000000000000000000000000000000c000002000200000001ffffffffffffffffffffffffffffffff0000000000000c000002000200000000ffffffff0000000000000000000000000000000000001a010002000400000002000000000000000000000000000000000000000000000c000002000200000001010000000000000000000000000000000000000000000c000002000200000000000000000000000000000000000000000000000000000e0000000008000000610200000000000000000000000000000000000000000004040008000000000000000000000000000000000000000000000000000000000a000000000000000004860e840e0000000000000000000000000000000000000c000002000200000001000000000000000000000000000000000000000000000c000002000200000000000000000000000000000000000000000000000000001a0000020002000000020100000000000000000000000000000000000000000002020000000100000000000000000000000000000000000000000000000000000e0000000000000000e10200000000000000000000000000000000000000000007000000000000000000000000000000000000000000000000000000000000000e0000000000000000e10200000000000000000000000000000000000000000007000000000000000004000000000000000000000000000000000000000000000c000001000100000001000000000000000000000000000000000000000000000c000001000100000000000000000000000000000000a079c3080000000000000e000000000200000021020000000000000000000000000000000000000000000e0000020000000000600100000000000000000000000000000000000000000007000000000000000003a21300000000000000000000000000000000000000000e0000000002000000610100000000000000000000000000000000000000000002000002000200000000040000000000000000000000000000000000000000000c000001000100000001200000000000000000000000000000000000000000000c0000010001000000000000000000000000000000000000000000000000000007000000000000000003a21300000000000000000000000000000000000000000e0000000002000000610100000000000000000000000000000000000000000002000002000200000000240000000000000000000000000000000000000000000c0000010001000000012c0000000000000000000000000000000000000000000c0000010001000000000000000000000000000000000000000000000000000007000000000000000003a21300000000000000000000000000000000000000000e0000000002000000610100000000000000000000000000000000000000000002000002000200000000440000000000000000000000000000000000000000000c00000100010000000178656e6f6e20726f66207972657571200000000000000c000001000100000000726f74617265706f203a31323743524500000000000007000000000000000003a21300000000000000000000000000000000000000000e0000000002000000610100000000000000000000000000000000000000000002000002000200000000640000000000000000000000000000000000000000000c000001000100000001000000000000000000000000000000000000000000000c000001000100000000000000006e656b6f7420746e6574736900000000000007000000000000000003a21300000000000000000000000000000000000000000c000002000200000001840000000000000000000000000000000000000000000c000002000200000000000000000000000000000000000000000000000000000e000002000000000000000000000000000000000000000000000000000000000c000002000200000001000000000000000000000000000000000000000000000c000002000200000000000000000000000000000000000000000000000000000e0000020000000000600300000000000000000000000000000000000000000018000002000400000000050000000000000000000000000000000000000000000e000004000000000060020000000000000000000000000000000000000000000e000000000200000061010000000000000000000000000000000000000000000202000400010000000000000000000000000000000000000000000000000000070000000000000000037a1300000000000000000000000000000000000000000c000002000200000001200000000000000000000000000000000000000000000c000002000200000000000000000000000000000000000000000000000000000e0000000004000000610200000000000000000000000000000000000000000008040002000200000000000000000000000000000000000000000000000000000e020001000000000000010000000000000000000000000000000000000000000e0000000002000000610300000000000000000000000000000000000000000002000002000200000000010000000000000000000000000000000000000000000c000004000400000001040000000000000000000000000000000000000000000c0000040004000000000000000000000000000000000000000000000000000004020004000000000000000000000000000000000000000000000000000000000a000000000000000002aa0ebb0e0000000000000000000000000000000000000e000000000200000061010000000000000000000000000000000000000000000200000200010000000080000000000000000000000000000000000000000000070000000000000000037a1300000000000000000000000000000000000000000c000002000200000001ffffffffffffffffffffffffffffffff0000000000000c000002000200000000ffffffffffffffffffffffff000000000000000000000e000000000400000001050000000000000000000000000000000000000000001a040002000200000002000000000000000000000000000000000000000000000c000004000400000001000000000000000000000000000000000000000000000c000004000400000000000000000000000000000000ffffffff0000000000001a010004000400000002000000000000000000000000000000000000000000001a040002000200000004000000000000000000000000000000000000000000000e000002000000000000050000000000000000000000000000000000000000000e0000000000000000e10200000000000000000000000000000000000000000007000000000000000004000000000000000000000000000000000000000000000e0000000000000000e00200000000000000000000000000000000000000000004010000000000000000000000000000000000000000000000000000000000000a000000000000000004ce0ecc0e0000000000000000000000000000000000000e0000000000000000e10200000000000000000000000000000000000000000007000000000000000000000000000000000000000000000000000000000000000c000001000100000001000000000000000000000000000000000000000000000c000001000100000000000000000000000000000000a079c3080000000000000e000000000200000021020000000000000000000000000000000000000000000e0000020000000000600100000000000000000000000000000000000000000007000000000000000003a21300000000000000000000000000000000000000000e0000000002000000610100000000000000000000000000000000000000000002000002000200000000040000000000000000000000000000000000000000000c000001000100000001200000000000000000000000000000000000000000000c0000010001000000000000000000000000000000000000000000000000000007000000000000000003a21300000000000000000000000000000000000000000e0000000002000000610100000000000000000000000000000000000000000002000002000200000000240000000000000000000000000000000000000000000c000001000100000001240000000000000000000000000000000000000000000c0000010001000000000000000000000000000000000000000000000000000007000000000000000003a21300000000000000000000000000000000000000000e0000000002000000610100000000000000000000000000000000000000000002000002000200000000440000000000000000000000000000000000000000000c000001000100000001646461206f72657a20656874206f74200000000000000c000001000100000000726566736e617274203a31323743524500000000000007000000000000000003a21300000000000000000000000000000000000000000e0000000002000000610100000000000000000000000000000000000000000002000002000200000000640000000000000000000000000000000000000000000c000001000100000001000000000000000000000000000000000000000000000c0000010001000000000000000000000000000000007373657200000000000007000000000000000003a21300000000000000000000000000000000000000000c000002000200000001840000000000000000000000000000000000000000000c000002000200000000000000000000000000000000000000000000000000000e000002000000000000000000000000000000000000000000000000000000000c000002000200000001000000000000000000000000000000000000000000000c000002000200000000000000000000000000000000000000000000000000000e0000020000000000600300000000000000000000000000000000000000000018000002000400000000050000000000000000000000000000000000000000000e000004000000000060020000000000000000000000000000000000000000000e000000000200000061010000000000000000000000000000000000000000000202000400010000000000000000000000000000000000000000000000000000070000000000000000037a1300000000000000000000000000000000000000000c000002000200000001200000000000000000000000000000000000000000000c000002000200000000000000000000000000000000000000000000000000000e0000000004000000610200000000000000000000000000000000000000000008040002000200000000000000000000000000000000000000000000000000000e020001000000000000010000000000000000000000000000000000000000000e0000000002000000610300000000000000000000000000000000000000000002000002000200000000010000000000000000000000000000000000000000000c000004000400000001040000000000000000000000000000000000000000000c0000040004000000000000000000000000000000000000000000000000000004020004000000000000000000000000000000000000000000000000000000000a000000000000000002ec0efd0e0000000000000000000000000000000000000e000000000200000061010000000000000000000000000000000000000000000200000200010000000080000000000000000000000000000000000000000000070000000000000000037a1300000000000000000000000000000000000000000c000002000200000001ffffffffffffffffffffffffffffffff0000000000000c000002000200000000ffffffffffffffffffffffff000000000000000000000e000000000400000001050000000000000000000000000000000000000000001a040002000200000002000000000000000000000000000000000000000000000c000004000400000001000000000000000000000000000000000000000000000c000004000400000000000000000000000000000000ffffffff0000000000001a010004000400000002000000000000000000000000000000000000000000001a040002000200000004000000000000000000000000000000000000000000000e000002000000000000050000000000000000000000000000000000000000000e0000000000000000e10200000000000000000000000000000000000000000007000000000000000004000000000000000000000000000000000000000000000e0000000000000000e0020000000000000000000000000000000000000000000e000002000000000060010000000000000000000000000000000000000000000e000001000000000060020000000000000000000000000000000000000000000e00000400000000006003000000000000000000000000000000000000000000020400000001000000000000000000000000000000000000000000000000000007000000000000000003400a00000000000000000000000000000000000000000a000000000000000002120f130f0000000000000000000000000000000000000a0000000000000000012a102a100000000000000000000000000000000000000c000002000200000001ffffffffffffffffffffffffffffffff0000000000000c000002000200000000ffffffff0000000000000000000000000000000000001a010002000400000002000000000000000000000000000000000000000000000e000000000800000061020000000000000000000000000000000000000000001a080002000800000002000000000000000000000000000000000000000000000e0000080000000000600200000000000000000000000000000000000000000004040008000000000000000000000000000000000000000000000000000000000a0000000000000000041b0f9a0f0000000000000000000000000000000000000e000000000400000061010000000000000000000000000000000000000000001a040002000400000002000000000000000000000000000000000000000000000c000002000200000001010000000000000000000000000000000000000000000c000002000200000000000000000000000000000000000000000000000000000e0000040000000000600100000000000000000000000000000000000000000004040000000000000000000000000000000000000000000000000000000000000a00000000000000000a240f220f0000000000000000000000000000000000000c000002000200000001000000000000000000000000000000000000000000000c000002000200000000000000000000000000000000000000000000000000001a0000020001000000020100000000000000000000000000000000000000000007000000000000000003c90e00000000000000000000000000000000000000000a000000000000000002270f280f0000000000000000000000000000000000000a0000000000000000012a102a100000000000000000000000000000000000000e00000000010000006103000000000000000000000000000000000000000000070000000000000000032c1000000000000000000000000000000000000000000a0000000000000000022b0f2c0f0000000000000000000000000000000000000a0000000000000000012a102a100000000000000000000000000000000000000e000000000200000061020000000000000000000000000000000000000000000e000002000000000020000000000000000000000000000000000000000000000c000002000200000001030000000000000000000000000000000000000000000c000002000200000000000000000000000000000000000000000000000000000e0000020000000000200100000000000000000000000000000000000000000010000000000000000000000000000000000000000000000000000000000000000c000002000200000001400000000000000000000000000000000000000000000c000002000200000000000000000000000000000000000000000000000000000e000002000000000040000000000000000000000000000000000000000000000c000002000200000001000000000000000000000000000000000000000000000c000002000200000000000000000000000000000000000000000000000000000c000004000400000001200000000000000000000000000000000000000000000c000004000400000000000000000000000000000000000000000000000000000c000008000800000001020000000000000000000000000000000000000000000c00000800080000000000000000000000000000000000000000000000000000180000020010000000000500000000000000000000000000000000000000000008100004001000000000000000000000000000000000000000000000000000000e100000002000000021000000000000000000000000000000000000000000000e10002000000000004001000000000000000000000000000000000000000000020000020002000000000100000000000000000000000000000000000000000004020008000000000000000000000000000000000000000000000000000000000a0000000000000000023b0f420f0000000000000000000000000000000000000c00000100010000000100000000ff03000000000000000000000000000000000c0000010001000000000000000000000000000000000000000000000000000007000000000000000003c11300000000000000000000000000000000000000000e00000000020000004101000000000000000000000000000000000000000000050200000004000000010000000000000000000000000000000000000000000004040000000000000000000000000000000000000000000000000000000000000a000000000000000004d70f490f0000000000000000000000000000000000000c000008000800000001ffffffffffffffffffffffffffffffff0000000000000c000008000800000000ffffffffffffffffffffffffffffffff000000000000020400080004000000000000000000000000000000000000000000000000000005020004000000000000000000000000000000000000000000000000000000000e000000000200000061010000000000000000000000000000000000000000000e000002000000000020000000000000000000000000000000000000000000000c000002000200000001030000000000000000000000000000000000000000000c000002000200000000000000000000000000000000000000000000000000000e0000020000000000200100000000000000000000000000000000000000000010000000000000000000000000000000000000000000000000000000000000000c000002000200000001400000000000000000000000000000000000000000000c000002000200000000000000000000000000000000000000000000000000000e000002000000000040000000000000000000000000000000000000000000000c000002000200000001000000000000000000000000000000000000000000000c000002000200000000000000000000000000000000000000000000000000000c000004000400000001200000000000000000000000000000000000000000000c000004000400000000000000000000000000000000000000000000000000000c000008000800000001020000000000000000000000000000000000000000000c00000800080000000000000000000000000000000000000000000000000000180000020010000000000500000000000000000000000000000000000000000008100004001000000000000000000000000000000000000000000000000000000e100000002000000021000000000000000000000000000000000000000000000e10002000000000004001000000000000000000000000000000000000000000020000020002000000000100000000000000000000000000000000000000000004020008000000000000000000000000000000000000000000000000000000000a0000000000000000025c0f630f0000000000000000000000000000000000000c00000100010000000100000000ff03000000000000000000000000000000000c0000010001000000000000000000000000000000000000000000000000000007000000000000000003c11300000000000000000000000000000000000000000e0000000002000000410100000000000000000000000000000000000000000005020000000400000001000000000000000000000000000000000000000000000c000008000800000001ffffffffffffffffffffffffffffffff0000000000000c000008000800000000ffffffffffffffffffffffffffffffff00000000000004040008000000000000000000000000000000000000000000000000000000000a000000000000000004f60f6c0f000000000000000000000000000000000000020000040004000000000100000000000000000000000000000000000000000005020004000000000000000000000000000000000000000000000000000000000e000000000200000061030000000000000000000000000000000000000000000e000002000000000020000000000000000000000000000000000000000000000c000002000200000001020000000000000000000000000000000000000000000c000002000200000000000000000000000000000000000000000000000000000e0000020000000000200100000000000000000000000000000000000000000010000000000000000000000000000000000000000000000000000000000000000c000004000400000001400000000000000000000000000000000000000000000c000004000400000000000000000000000000000000000000000000000000000e000004000000000040000000000000000000000000000000000000000000000c000004000400000001000000000000000000000000000000000000000000000c000004000400000000000000000000000000000000000000000000000000000c000008000800000001200000000000000000000000000000000000000000000c00000800080000000000000000000000000000000000000000000000000000180000040010000000000500000000000000000000000000000000000000000008100008001000000000000000000000000000000000000000000000000000000e100000002000000021000000000000000000000000000000000000000000000e10002000000000004001000000000000000000000000000000000000000000020000040004000000000100000000000000000000000000000000000000000004040002000000000000000000000000000000000000000000000000000000000a0000000000000000027b0f820f0000000000000000000000000000000000000c00000100010000000100000000ff03000000000000000000000000000000000c0000010001000000000000000000000000000000000000000000000000000007000000000000000003c11300000000000000000000000000000000000000000e0000000002000000410100000000000000000000000000000000000000000005020000000400000001000000000000000000000000000000000000000000000c000008000800000001000000000000000000000000000000000000000000000c00000800080000000000000000ffffffffffffffffffffffff0000000000001a040008000400000002000000000000000000000000000000000000000000000e000000000800000061010000000000000000000000000000000000000000001a0400080004000000040000000000000000000000000000000000000000000005020004000000000000000000000000000000000000000000000000000000000c000002000200000001efb323f54d5af52816a1c463f1a72b950000000000000c000002000200000000aa8d37fc68b0c2699bc8e21bad52f2dd0000000000000c000004000400000001040000000000000000000000000000000000000000000c000004000400000000000000000000000000000000000000000000000000000504000200000000000a000000000000000000000000000000000000000000000e0000000002000000610200000000000000000000000000000000000000000005020008000000000002000000000000000000000000000000000000000000000c000002000200000001000000000000000000000000000000000000000000000c000002000200000000000000000000000000000000000000000000000000000e0000000004000000610300000000000000000000000000000000000000000005040002000000000002000000000000000000000000000000000000000000000e0000000000000000e10200000000000000000000000000000000000000000007000000000000000000000000000000000000000000000000000000000000000c000001000100000001000000000000000000000000000000000000000000000c000001000100000000000000000000000000000000a079c3080000000000000e000000000200000021020000000000000000000000000000000000000000000e0000020000000000600100000000000000000000000000000000000000000007000000000000000003a21300000000000000000000000000000000000000000e0000000002000000610100000000000000000000000000000000000000000002000002000200000000040000000000000000000000000000000000000000000c000001000100000001200000000000000000000000000000000000000000000c0000010001000000000000000000000000000000000000000000000000000007000000000000000003a21300000000000000000000000000000000000000000e0000000002000000610100000000000000000000000000000000000000000002000002000200000000240000000000000000000000000000000000000000000c000001000100000001250000000000000000000000000000000000000000000c0000010001000000000000000000000000000000000000000000000000000007000000000000000003a21300000000000000000000000000000000000000000e0000000002000000610100000000000000000000000000000000000000000002000002000200000000440000000000000000000000000000000000000000000c0000010001000000012074636572726f636e69206d6f7266200000000000000c000001000100000000726566736e617274203a31323743524500000000000007000000000000000003a21300000000000000000000000000000000000000000e0000000002000000610100000000000000000000000000000000000000000002000002000200000000640000000000000000000000000000000000000000000c000001000100000001000000000000000000000000000000000000000000000c000001000100000000000000000000000000000072656e776f00000000000007000000000000000003a21300000000000000000000000000000000000000000c000002000200000001840000000000000000000000000000000000000000000c000002000200000000000000000000000000000000000000000000000000000e000002000000000000000000000000000000000000000000000000000000000c000002000200000001000000000000000000000000000000000000000000000c000002000200000000000000000000000000000000000000000000000000000e0000020000000000600300000000000000000000000000000000000000000018000002000400000000050000000000000000000000000000000000000000000e000004000000000060020000000000000000000000000000000000000000000e000000000200000061010000000000000000000000000000000000000000000202000400010000000000000000000000000000000000000000000000000000070000000000000000037a1300000000000000000000000000000000000000000c000002000200000001200000000000000000000000000000000000000000000c000002000200000000000000000000000000000000000000000000000000000e0000000004000000610200000000000000000000000000000000000000000008040002000200000000000000000000000000000000000000000000000000000e020001000000000000010000000000000000000000000000000000000000000e0000000002000000610300000000000000000000000000000000000000000002000002000200000000010000000000000000000000000000000000000000000c000004000400000001040000000000000000000000000000000000000000000c0000040004000000000000000000000000000000000000000000000000000004020004000000000000000000000000000000000000000000000000000000000a000000000000000002b80fc90f0000000000000000000000000000000000000e000000000200000061010000000000000000000000000000000000000000000200000200010000000080000000000000000000000000000000000000000000070000000000000000037a1300000000000000000000000000000000000000000c000002000200000001ffffffffffffffffffffffffffffffff0000000000000c000002000200000000ffffffffffffffffffffffff000000000000000000000e000000000400000001050000000000000000000000000000000000000000001a040002000200000002000000000000000000000000000000000000000000000c000004000400000001000000000000000000000000000000000000000000000c000004000400000000000000000000000000000000ffffffff0000000000001a010004000400000002000000000000000000000000000000000000000000001a040002000200000004000000000000000000000000000000000000000000000e000002000000000000050000000000000000000000000000000000000000000e0000000000000000e10200000000000000000000000000000000000000000007000000000000000004000000000000000000000000000000000000000000000c000002000200000001000000000000000000000000000000000000000000000c000002000200000000000000000000000000000000717b484e0000000000000e000002000000000020000000000000000000000000000000000000000000000c000001000100000001110000000000000000000000000000000000000000000c000001000100000000000000000000000000000000000000000000000000000c000002000200000001040000000000000000000000000000000000000000000c0000020002000000000000000000000000000000000000000000000000000007000000000000000003a21300000000000000000000000000000000000000000c000002000200000001240000000000000000000000000000000000000000000c000002000200000000000000000000000000000000000000000000000000000e000002000000000000000000000000000000000000000000000000000000000c000004000400000001000000000000000000000000000000000000000000000c000004000400000000000000000000000000000000000000000000000000000c000002000200000001200000000000000000000000000000000000000000000c000002000200000000000000000000000000000000000000000000000000000a000000000000000001ea0fea0f000000000000000000000000000000000000020800000004000000000000000000000000000000000000000000000000000004100000000000000000000000000000000000000000000000000000000000000a00000000000000000aea0f1510000000000000000000000000000000000000180000040008000000000500000000000000000000000000000000000000000008080002000800000000000000000000000000000000000000000000000000000e080000001000000021000000000000000000000000000000000000000000000e0800100000000000000100000000000000000000000000000000000000000002000004000800000000010000000000000000000000000000000000000000000c000010001000000001010000000000000000000000000000000000000000000c0000100010000000000000000000000000000000000000000000000000000004080004000000000000000000000000000000000000000000000000000000000a000000000000000002e70ff30f0000000000000000000000000000000000000c000010001000000001000000000000000000000000000000000000000000000c000010001000000000000000000000000000000000000000000000000000000a000000000000000001e70fe70f0000000000000000000000000000000000000c000002000200000001000000000000000000000000000000000000000000000c000002000200000000000000000000000000000000717b484e0000000000000e000002000000000020000000000000000000000000000000000000000000000c000001000100000001110000000000000000000000000000000000000000000c000001000100000000000000000000000000000000000000000000000000000c000002000200000001040000000000000000000000000000000000000000000c0000020002000000000000000000000000000000000000000000000000000007000000000000000003a21300000000000000000000000000000000000000000c000002000200000001240000000000000000000000000000000000000000000c000002000200000000000000000000000000000000000000000000000000000e000002000000000000000000000000000000000000000000000000000000000c000004000400000001000000000000000000000000000000000000000000000c000004000400000000000000000000000000000000000000000000000000000c000002000200000001200000000000000000000000000000000000000000000c000002000200000000000000000000000000000000000000000000000000000a00000000000000000109100910000000000000000000000000000000000000020800000004000000000000000000000000000000000000000000000000000004100000000000000000000000000000000000000000000000000000000000000a00000000000000000a09102010000000000000000000000000000000000000180000040008000000000500000000000000000000000000000000000000000008080002000800000000000000000000000000000000000000000000000000000e080000001000000021000000000000000000000000000000000000000000000e0800100000000000000100000000000000000000000000000000000000000002000004000800000000010000000000000000000000000000000000000000000c000010001000000001010000000000000000000000000000000000000000000c0000100010000000000000000000000000000000000000000000000000000004080004000000000000000000000000000000000000000000000000000000000a000000000000000002061012100000000000000000000000000000000000000c000010001000000001000000000000000000000000000000000000000000000c000010001000000000000000000000000000000000000000000000000000000a000000000000000001061006100000000000000000000000000000000000000c000002000200000001ffffffffffffffffffffffffffffffff0000000000000c000002000200000000ffffffffffffffffffffffff000000000000000000000e000000000400000001020000000000000000000000000000000000000000001a040002000200000002000000000000000000000000000000000000000000000c000004000400000001000000000000000000000000000000000000000000000c000004000400000000000000000000000000000000ffffffff0000000000000e000000000800000021010000000000000000000000000000000000000000001a080004000400000002000000000000000000000000000000000000000000001a040002000200000004000000000000000000000000000000000000000000000e000002000000000000020000000000000000000000000000000000000000000a0000000000000000012a102a100000000000000000000000000000000000000c000002000200000001ffffffffffffffffffffffffffffffff0000000000000c000002000200000000ffffffffffffffffffffffff000000000000000000000e000000000400000001020000000000000000000000000000000000000000001a040002000200000002000000000000000000000000000000000000000000000c000004000400000001000000000000000000000000000000000000000000000c000004000400000000000000000000000000000000ffffffff0000000000000e000000000800000021010000000000000000000000000000000000000000001a080004000400000002000000000000000000000000000000000000000000001a040002000200000004000000000000000000000000000000000000000000000e000002000000000000020000000000000000000000000000000000000000000e0000000000000000e10200000000000000000000000000000000000000000007000000000000000004000000000000000000000000000000000000000000000e0000000000000000e00000000000000000000000000000000000000000000002010000000200000000000000000000000000000000000000000000000000000e000002000000000060010000000000000000000000000000000000000000000e000002000000000020000000000000000000000000000000000000000000000c000002000200000001040000000000000000000000000000000000000000000c000002000200000000000000000000000000000000000000000000000000000e0000020000000000200100000000000000000000000000000000000000000010000000000000000000000000000000000000000000000000000000000000000c000002000200000001400000000000000000000000000000000000000000000c000002000200000000000000000000000000000000000000000000000000000e000002000000000040000000000000000000000000000000000000000000000c000002000200000001000000000000000000000000000000000000000000000c000002000200000000000000000000000000000000000000000000000000000c000004000400000001200000000000000000000000000000000000000000000c000004000400000000000000000000000000000000000000000000000000000c000008000800000001020000000000000000000000000000000000000000000c00000800080000000000000000000000000000000000000000000000000000180000020010000000000500000000000000000000000000000000000000000008100004001000000000000000000000000000000000000000000000000000000e100000002000000021000000000000000000000000000000000000000000000e10002000000000004001000000000000000000000000000000000000000000020000020002000000000100000000000000000000000000000000000000000004020008000000000000000000000000000000000000000000000000000000000a0000000000000000023d1044100000000000000000000000000000000000000c00000100010000000100000000ff03000000000000000000000000000000000c0000010001000000000000000000000000000000000000000000000000000007000000000000000003c11300000000000000000000000000000000000000000e0000000002000000410100000000000000000000000000000000000000000005020000000400000001000000000000000000000000000000000000000000000c000008000800000001000000000000000000000000000000000000000000000c00000800080000000000000000ffffffffffffffffffffffff0000000000001a0400080004000000020000000000000000000000000000000000000000000005020004000000000000000000000000000000000000000000000000000000000e00000000020000006101000000000000000000000000000000000000000000020200000001000000000000000000000000000000000000000000000000000007000000000000000003400a00000000000000000000000000000000000000000a000000000000000002601051100000000000000000000000000000000000000c00000200020000000125b9c3c7c80a205b1e29b2f7c01403dd0000000000000c000002000200000000f3841e7d42714fd15b7decebe5e15b8c0000000000000c000004000400000001040000000000000000000000000000000000000000000c000004000400000000000000000000000000000000000000000000000000000504000200000000000a000000000000000000000000000000000000000000000c000002000200000001ffffffffffffffffffffffffffffffff0000000000000c000002000200000000ffffffff0000000000000000000000000000000000001a010002000200000002000000000000000000000000000000000000000000000c000004000400000001000000000000000000000000000000000000000000000c0000040004000000000000000000000000000000000000000000000000000005020004000000000002000000000000000000000000000000000000000000000e0000000002000000610100000000000000000000000000000000000000000005020004000000000002000000000000000000000000000000000000000000000e0000000000000000e10000000000000000000000000000000000000000000007000000000000000000000000000000000000000000000000000000000000000e0000000000000000e10000000000000000000000000000000000000000000007000000000000000004000000000000000000000000000000000000000000000e0000000000000000e0010000000000000000000000000000000000000000000e000001000000000060010000000000000000000000000000000000000000000e000002000000000060020000000000000000000000000000000000000000000e000002000000000020000000000000000000000000000000000000000000000c000002000200000001040000000000000000000000000000000000000000000c000002000200000000000000000000000000000000000000000000000000000e0000020000000000200100000000000000000000000000000000000000000010000000000000000000000000000000000000000000000000000000000000000c000002000200000001400000000000000000000000000000000000000000000c000002000200000000000000000000000000000000000000000000000000000e000002000000000040000000000000000000000000000000000000000000000c000002000200000001000000000000000000000000000000000000000000000c000002000200000000000000000000000000000000000000000000000000000c000004000400000001200000000000000000000000000000000000000000000c000004000400000000000000000000000000000000000000000000000000000c000008000800000001020000000000000000000000000000000000000000000c00000800080000000000000000000000000000000000000000000000000000180000020010000000000500000000000000000000000000000000000000000008100004001000000000000000000000000000000000000000000000000000000e100000002000000021000000000000000000000000000000000000000000000e10002000000000004001000000000000000000000000000000000000000000020000020002000000000100000000000000000000000000000000000000000004020008000000000000000000000000000000000000000000000000000000000a00000000000000000273107a100000000000000000000000000000000000000c00000100010000000100000000ff03000000000000000000000000000000000c0000010001000000000000000000000000000000000000000000000000000007000000000000000003c11300000000000000000000000000000000000000000c000002000200000001ffffffffffffffffffffffffffffffff0000000000000c000002000200000000ffffffff0000000000000000000000000000000000000e000000000400000061010000000000000000000000000000000000000000001a040002001000000002000000000000000000000000000000000000000000000e0000000002000000410100000000000000000000000000000000000000000005020000000400000001000000000000000000000000000000000000000000000c000008000800000001000000000000000000000000000000000000000000000c00000800080000000000000000ffffffffffffffffffffffff0000000000001a040008000400000002000000000000000000000000000000000000000000000e000010000000000060010000000000000000000000000000000000000000001a0400100004000000040000000000000000000000000000000000000000000005020004000000000000000000000000000000000000000000000000000000000e00000000020000006102000000000000000000000000000000000000000000020200000001000000000000000000000000000000000000000000000000000007000000000000000003400a00000000000000000000000000000000000000000a0000000000000000029d108d100000000000000000000000000000000000000c00000200020000000125b9c3c7c80a205b1e29b2f7c01403dd0000000000000c000002000200000000f3841e7d42714fd15b7decebe5e15b8c0000000000000c000004000400000001040000000000000000000000000000000000000000000c000004000400000000000000000000000000000000000000000000000000000504000200000000000a000000000000000000000000000000000000000000000c000002000200000001ffffffffffffffffffffffffffffffff0000000000000c000002000200000000ffffffff0000000000000000000000000000000000001a010002000200000002000000000000000000000000000000000000000000000e0000000004000000610100000000000000000000000000000000000000000005020004000000000002000000000000000000000000000000000000000000000c000002000200000001000000000000000000000000000000000000000000000c000002000200000000000000000000000000000000000000000000000000000e0000000004000000610200000000000000000000000000000000000000000005040002000000000002000000000000000000000000000000000000000000000e0000000000000000e10100000000000000000000000000000000000000000007000000000000000000000000000000000000000000000000000000000000000e0000000000000000e10100000000000000000000000000000000000000000007000000000000000004000000000000000000000000000000000000000000000e0000000000000000e0020000000000000000000000000000000000000000000c000002000200000001060000000000000000000000000000000000000000000c0000020002000000000000000000000000000000000000000000000000000005020000000400000001000000000000000000000000000000000000000000000c000008000800000001ffffffffffffffffffffffffffffffff0000000000000c000008000800000000ffffffffffffffffffffffffffffffff00000000000004040008000000000000000000000000000000000000000000000000000000000a0000000000000000047511a71000000000000000000000000000000000000002000004000400000000010000000000000000000000000000000000000000000e0000040000000000600300000000000000000000000000000000000000000005020004000000000000000000000000000000000000000000000000000000000c000002000200000001ffffffffffffffffffffffffffffffff0000000000000c000002000200000000ffffffff0000000000000000000000000000000000001a010002000200000002000000000000000000000000000000000000000000000c00000400040000000173736572646461206f72657a206568740000000000000c000004000400000000206f7420746e696d203a3132374352450000000000000c000008000800000001200000000000000000000000000000000000000000000c000008000800000000000000000000000000000000000000000000000000000e0000020000000000600200000000000000000000000000000000000000000004020000000000000000000000000000000000000000000000000000000000000a0000000000000000043d11b4100000000000000000000000000000000000000e000000000200000061030000000000000000000000000000000000000000000e000002000000000020000000000000000000000000000000000000000000000c000002000200000001020000000000000000000000000000000000000000000c000002000200000000000000000000000000000000000000000000000000000e0000020000000000200100000000000000000000000000000000000000000010000000000000000000000000000000000000000000000000000000000000000c000004000400000001400000000000000000000000000000000000000000000c000004000400000000000000000000000000000000000000000000000000000e000004000000000040000000000000000000000000000000000000000000000c000004000400000001000000000000000000000000000000000000000000000c000004000400000000000000000000000000000000000000000000000000000c000008000800000001200000000000000000000000000000000000000000000c00000800080000000000000000000000000000000000000000000000000000180000040010000000000500000000000000000000000000000000000000000008100008001000000000000000000000000000000000000000000000000000000e100000002000000021000000000000000000000000000000000000000000000e10002000000000004001000000000000000000000000000000000000000000020000040004000000000100000000000000000000000000000000000000000004040002000000000000000000000000000000000000000000000000000000000a000000000000000002c110c8100000000000000000000000000000000000000c00000100010000000100000000ff03000000000000000000000000000000000c0000010001000000000000000000000000000000000000000000000000000007000000000000000003c11300000000000000000000000000000000000000000e0000000002000000410100000000000000000000000000000000000000000005020000000200000001000000000000000000000000000000000000000000000c000004000400000001ffffffffffffffffffffffffffffffff0000000000000c000004000400000000ffffffff0000000000000000000000000000000000001a020004000200000002000000000000000000000000000000000000000000000c000004000400000001000000006465746e696d2079646165720000000000000c0000040004000000006c61206e656b6f74203a3132374352450000000000000c0000080008000000011c0000000000000000000000000000000000000000000c0000080008000000000000000000000000000000000000000000000000000004020000000000000000000000000000000000000000000000000000000000000a000000000000000004d6103d110000000000000000000000000000000000000e000000000200000061020000000000000000000000000000000000000000000e000002000000000020000000000000000000000000000000000000000000000c000002000200000001030000000000000000000000000000000000000000000c000002000200000000000000000000000000000000000000000000000000000e0000020000000000200100000000000000000000000000000000000000000010000000000000000000000000000000000000000000000000000000000000000c000002000200000001400000000000000000000000000000000000000000000c000002000200000000000000000000000000000000000000000000000000000e000002000000000040000000000000000000000000000000000000000000000c000002000200000001000000000000000000000000000000000000000000000c000002000200000000000000000000000000000000000000000000000000000c000004000400000001200000000000000000000000000000000000000000000c000004000400000000000000000000000000000000000000000000000000000c000008000800000001020000000000000000000000000000000000000000000c00000800080000000000000000000000000000000000000000000000000000180000020010000000000500000000000000000000000000000000000000000008100004001000000000000000000000000000000000000000000000000000000e100000002000000021000000000000000000000000000000000000000000000e10002000000000004001000000000000000000000000000000000000000000020000020002000000000100000000000000000000000000000000000000000004020008000000000000000000000000000000000000000000000000000000000a000000000000000002e510ec100000000000000000000000000000000000000c00000100010000000100000000ff03000000000000000000000000000000000c0000010001000000000000000000000000000000000000000000000000000007000000000000000003c11300000000000000000000000000000000000000000e0000000002000000410100000000000000000000000000000000000000000005020000000400000001000000000000000000000000000000000000000000000c000008000800000001ffffffffffffffffffffffffffffffff0000000000000c000008000800000000ffffffffffffffffffffffffffffffff00000000000004040008000000000000000000000000000000000000000000000000000000000a0000000000000000049411f510000000000000000000000000000000000000020000040004000000000100000000000000000000000000000000000000000005020004000000000000000000000000000000000000000000000000000000000e000000000200000061030000000000000000000000000000000000000000000e000002000000000020000000000000000000000000000000000000000000000c000002000200000001020000000000000000000000000000000000000000000c000002000200000000000000000000000000000000000000000000000000000e0000020000000000200100000000000000000000000000000000000000000010000000000000000000000000000000000000000000000000000000000000000c000004000400000001400000000000000000000000000000000000000000000c000004000400000000000000000000000000000000000000000000000000000e000004000000000040000000000000000000000000000000000000000000000c000004000400000001000000000000000000000000000000000000000000000c000004000400000000000000000000000000000000000000000000000000000c000008000800000001200000000000000000000000000000000000000000000c00000800080000000000000000000000000000000000000000000000000000180000040010000000000500000000000000000000000000000000000000000008100008001000000000000000000000000000000000000000000000000000000e100000002000000021000000000000000000000000000000000000000000000e10002000000000004001000000000000000000000000000000000000000000020000040004000000000100000000000000000000000000000000000000000004040002000000000000000000000000000000000000000000000000000000000a00000000000000000204110b110000000000000000000000000000000000000c00000100010000000100000000ff03000000000000000000000000000000000c0000010001000000000000000000000000000000000000000000000000000007000000000000000003c11300000000000000000000000000000000000000000e0000000002000000410100000000000000000000000000000000000000000005020000000400000001000000000000000000000000000000000000000000000c000008000800000001000000000000000000000000000000000000000000000c00000800080000000000000000ffffffffffffffffffffffff0000000000001a040008000400000002000000000000000000000000000000000000000000000e000000000800000061020000000000000000000000000000000000000000001a0400080004000000040000000000000000000000000000000000000000000005020004000000000000000000000000000000000000000000000000000000000c000002000200000001efb323f54d5af52816a1c463f1a72b950000000000000c000002000200000000aa8d37fc68b0c2699bc8e21bad52f2dd0000000000000c000004000400000001040000000000000000000000000000000000000000000c000004000400000000000000000000000000000000000000000000000000000504000200000000000a000000000000000000000000000000000000000000000c000002000200000001000000000000000000000000000000000000000000000c0000020002000000000000000000000000000000000000000000000000000005020008000000000002000000000000000000000000000000000000000000000e0000000004000000610300000000000000000000000000000000000000000005040002000000000002000000000000000000000000000000000000000000000e000004000000000020000000000000000000000000000000000000000000000c000004000400000001080000000000000000000000000000000000000000000c000004000400000000000000000000000000000000000000000000000000000e0000040000000000200100000000000000000000000000000000000000000010000000000000000000000000000000000000000000000000000000000000000c000004000400000001400000000000000000000000000000000000000000000c000004000400000000000000000000000000000000000000000000000000000e000004000000000040000000000000000000000000000000000000000000000c000004000400000001200000000000000000000000000000000000000000000c000004000400000000000000000000000000000000000000000000000000000c000008000800000001020000000000000000000000000000000000000000000c00000800080000000000000000000000000000000000000000000000000000180000020010000000000500000000000000000000000000000000000000000008100004001000000000000000000000000000000000000000000000000000000e100000002000000021000000000000000000000000000000000000000000000e10002000000000004001000000000000000000000000000000000000000000020000020002000000000100000000000000000000000000000000000000000004020008000000000000000000000000000000000000000000000000000000000a0000000000000000022c1133110000000000000000000000000000000000000c00000100010000000100000000ff03000000000000000000000000000000000c0000010001000000000000000000000000000000000000000000000000000007000000000000000003c11300000000000000000000000000000000000000000e000000000200000041010000000000000000000000000000000000000000000c000004000400000001640000000000000000000000000000000000000000000c0000040004000000000000000000000000000000000000000000000000000005020004000000000000000000000000000000000000000000000000000000000e000000000100000061030000000000000000000000000000000000000000000e0000000000000000e10200000000000000000000000000000000000000000007000000000000000000000000000000000000000000000000000000000000000e000008000000000060020000000000000000000000000000000000000000000e000004000000000060030000000000000000000000000000000000000000000c000001000100000001000000000000000000000000000000000000000000000c000001000100000000000000000000000000000000a079c3080000000000000e000000000200000021020000000000000000000000000000000000000000000e0000020000000000600100000000000000000000000000000000000000000007000000000000000003a21300000000000000000000000000000000000000000e0000000002000000610100000000000000000000000000000000000000000002000002000200000000040000000000000000000000000000000000000000000c000001000100000001200000000000000000000000000000000000000000000c0000010001000000000000000000000000000000000000000000000000000007000000000000000003a21300000000000000000000000000000000000000000e0000000002000000610100000000000000000000000000000000000000000002000002000200000000240000000000000000000000000000000000000000000e0000000001000000610200000000000000000000000000000000000000000007000000000000000003a21300000000000000000000000000000000000000000e0000000002000000610100000000000000000000000000000000000000000002000002000200000000440000000000000000000000000000000000000000000e0000000001000000610300000000000000000000000000000000000000000007000000000000000003a21300000000000000000000000000000000000000000c000002000200000001640000000000000000000000000000000000000000000c000002000200000000000000000000000000000000000000000000000000000e000002000000000000000000000000000000000000000000000000000000000c000002000200000001000000000000000000000000000000000000000000000c000002000200000000000000000000000000000000000000000000000000000e0000020000000000600300000000000000000000000000000000000000000018000002000400000000050000000000000000000000000000000000000000000e000004000000000060020000000000000000000000000000000000000000000e000000000200000061010000000000000000000000000000000000000000000202000400010000000000000000000000000000000000000000000000000000070000000000000000037a1300000000000000000000000000000000000000000c000002000200000001200000000000000000000000000000000000000000000c000002000200000000000000000000000000000000000000000000000000000e0000000004000000610200000000000000000000000000000000000000000008040002000200000000000000000000000000000000000000000000000000000e020001000000000000010000000000000000000000000000000000000000000e0000000002000000610300000000000000000000000000000000000000000002000002000200000000010000000000000000000000000000000000000000000c000004000400000001030000000000000000000000000000000000000000000c0000040004000000000000000000000000000000000000000000000000000004020004000000000000000000000000000000000000000000000000000000000a000000000000000002561167110000000000000000000000000000000000000e000000000200000061010000000000000000000000000000000000000000000200000200010000000060000000000000000000000000000000000000000000070000000000000000037a1300000000000000000000000000000000000000000c000002000200000001ffffffffffffffffffffffffffffffff0000000000000c000002000200000000ffffffffffffffffffffffff000000000000000000000e000000000400000001040000000000000000000000000000000000000000001a040002000200000002000000000000000000000000000000000000000000000c000004000400000001000000000000000000000000000000000000000000000c000004000400000000000000000000000000000000ffffffff0000000000001a010004000400000002000000000000000000000000000000000000000000001a040002000200000004000000000000000000000000000000000000000000000e000002000000000000040000000000000000000000000000000000000000000e0000000000000000e10200000000000000000000000000000000000000000007000000000000000004000000000000000000000000000000000000000000000c000002000200000001000000000000000000000000000000000000000000000c000002000200000000000000000000000000000000717b484e0000000000000e000002000000000020000000000000000000000000000000000000000000000c000001000100000001110000000000000000000000000000000000000000000c000001000100000000000000000000000000000000000000000000000000000c000002000200000001040000000000000000000000000000000000000000000c0000020002000000000000000000000000000000000000000000000000000007000000000000000003a21300000000000000000000000000000000000000000c000002000200000001240000000000000000000000000000000000000000000c000002000200000000000000000000000000000000000000000000000000000e000002000000000000000000000000000000000000000000000000000000000c000004000400000001000000000000000000000000000000000000000000000c000004000400000000000000000000000000000000000000000000000000000c000002000200000001200000000000000000000000000000000000000000000c000002000200000000000000000000000000000000000000000000000000000a00000000000000000188118811000000000000000000000000000000000000020800000004000000000000000000000000000000000000000000000000000004100000000000000000000000000000000000000000000000000000000000000a00000000000000000a8811b311000000000000000000000000000000000000180000040008000000000500000000000000000000000000000000000000000008080002000800000000000000000000000000000000000000000000000000000e080000001000000021000000000000000000000000000000000000000000000e0800100000000000000100000000000000000000000000000000000000000002000004000800000000010000000000000000000000000000000000000000000c000010001000000001010000000000000000000000000000000000000000000c0000100010000000000000000000000000000000000000000000000000000004080004000000000000000000000000000000000000000000000000000000000a000000000000000002851191110000000000000000000000000000000000000c000010001000000001000000000000000000000000000000000000000000000c000010001000000000000000000000000000000000000000000000000000000a000000000000000001851185110000000000000000000000000000000000000c000002000200000001000000000000000000000000000000000000000000000c000002000200000000000000000000000000000000717b484e0000000000000e000002000000000020000000000000000000000000000000000000000000000c000001000100000001110000000000000000000000000000000000000000000c000001000100000000000000000000000000000000000000000000000000000c000002000200000001040000000000000000000000000000000000000000000c0000020002000000000000000000000000000000000000000000000000000007000000000000000003a21300000000000000000000000000000000000000000c000002000200000001240000000000000000000000000000000000000000000c000002000200000000000000000000000000000000000000000000000000000e000002000000000000000000000000000000000000000000000000000000000c000004000400000001000000000000000000000000000000000000000000000c000004000400000000000000000000000000000000000000000000000000000c000002000200000001200000000000000000000000000000000000000000000c000002000200000000000000000000000000000000000000000000000000000a000000000000000001a711a711000000000000000000000000000000000000020800000004000000000000000000000000000000000000000000000000000004100000000000000000000000000000000000000000000000000000000000000a00000000000000000aa711be11000000000000000000000000000000000000180000040008000000000500000000000000000000000000000000000000000008080002000800000000000000000000000000000000000000000000000000000e080000001000000021000000000000000000000000000000000000000000000e0800100000000000000100000000000000000000000000000000000000000002000004000800000000010000000000000000000000000000000000000000000c000010001000000001010000000000000000000000000000000000000000000c0000100010000000000000000000000000000000000000000000000000000004080004000000000000000000000000000000000000000000000000000000000a000000000000000002a411b0110000000000000000000000000000000000000c000010001000000001000000000000000000000000000000000000000000000c000010001000000000000000000000000000000000000000000000000000000a000000000000000001a411a4110000000000000000000000000000000000000c000002000200000001ffffffffffffffffffffffffffffffff0000000000000c000002000200000000ffffffffffffffffffffffff000000000000000000000e000000000400000001020000000000000000000000000000000000000000001a040002000200000002000000000000000000000000000000000000000000000c000004000400000001000000000000000000000000000000000000000000000c000004000400000000000000000000000000000000ffffffff0000000000000e000000000800000021010000000000000000000000000000000000000000001a080004000400000002000000000000000000000000000000000000000000001a040002000200000004000000000000000000000000000000000000000000000e000002000000000000020000000000000000000000000000000000000000000a000000000000000001c811c8110000000000000000000000000000000000000c000002000200000001ffffffffffffffffffffffffffffffff0000000000000c000002000200000000ffffffffffffffffffffffff000000000000000000000e000000000400000001020000000000000000000000000000000000000000001a040002000200000002000000000000000000000000000000000000000000000c000004000400000001000000000000000000000000000000000000000000000c000004000400000000000000000000000000000000ffffffff0000000000000e000000000800000021010000000000000000000000000000000000000000001a080004000400000002000000000000000000000000000000000000000000001a040002000200000004000000000000000000000000000000000000000000000e000002000000000000020000000000000000000000000000000000000000000e0000000000000000e10200000000000000000000000000000000000000000007000000000000000004000000000000000000000000000000000000000000000e0000000000000000e00600000000000000000000000000000000000000000002010000001000000000000000000000000000000000000000000000000000000c000002000200000001ffffffffffffffff00000000000000000000000000000c0000020002000000000000000000000000000000000000000000000000000004100002000000000000000000000000000000000000000000000000000000000a0000000000000000081d12d011000000000000000000000000000000000000020000100002000000003f0000000000000000000000000000000000000000000c000004000400000001e0ffffffffffffffffffffffffffffff0000000000000c000004000400000000ffffffffffffffffffffffffffffffff0000000000001a020004000200000002000000000000000000000000000000000000000000000e0000000008000000210200000000000000000000000000000000000000000002080002000200000000000000000000000000000000000000000000000000000c000004000400000001010000000000000000000000000000000000000000000c000004000400000000000000000000000000000000000000000000000000000e0000080000000000600200000000000000000000000000000000000000000004020008000000000000000000000000000000000000000000000000000000000a000000000000000002dd11db110000000000000000000000000000000000000c000004000400000001000000000000000000000000000000000000000000000c000004000400000000000000000000000000000000000000000000000000000c000008000800000001ffffffffffffffff00000000000000000000000000000c0000080008000000000000000000000000000000000000000000000000000004020008000000000000000000000000000000000000000000000000000000000a0000000000000000084712e11100000000000000000000000000000000000004040000000000000000000000000000000000000000000000000000000000000a00000000000000000a4712e3110000000000000000000000000000000000000e0000020000000000200200000000000000000000000000000000000000000002100000000100000000000000000000000000000000000000000000000000000e000000000200000061020000000000000000000000000000000000000000000e0000100000000000600700000000000000000000000000000000000000000007000000000000000003a21300000000000000000000000000000000000000000e00000000020000006107000000000000000000000000000000000000000000020000020002000000001f0000000000000000000000000000000000000000000c000004000400000001e0ffffffffffffffffffffffffffffff0000000000000c000004000400000000ffffffffffffffffffffffffffffffff0000000000001a020004000400000002000000000000000000000000000000000000000000000e0000000002000000610200000000000000000000000000000000000000000002000002000200000000200000000000000000000000000000000000000000000e000002000000000060050000000000000000000000000000000000000000000e000000000200000001000000000000000000000000000000000000000000001a000002000200000002ffffffff00000000000000000000000000000000000002000002000800000000200000000000000000000000000000000000000000000e0000040000000000600100000000000000000000000000000000000000000018000004000200000002050000000000000000000000000000000000000000000c000004000400000001000000000000000000000000000000000000000000000c000004000400000000000000000000000000000000000000000000000000000e000002000000000060030000000000000000000000000000000000000000000e0000080000000000600400000000000000000000000000000000000000000004020000000000000000000000000000000000000000000000000000000000000a0000000000000000040a12fb110000000000000000000000000000000000000e0000040000000000600700000000000000000000000000000000000000000018000004000200000000050000000000000000000000000000000000000000000e000002000000000060060000000000000000000000000000000000000000000208000200010000000000000000000000000000000000000000000000000000070000000000000000038e1300000000000000000000000000000000000000000e000000000200000061050000000000000000000000000000000000000000000e00000000040000006106000000000000000000000000000000000000000000020200040002000000000000000000000000000000000000000000000000000007000000000000000003a21300000000000000000000000000000000000000000e000000000400000061070000000000000000000000000000000000000000000e0000000008000000610400000000000000000000000000000000000000000002000004000400000000010000000000000000000000000000000000000000000e0000000002000000610300000000000000000000000000000000000000000004040002000000000000000000000000000000000000000000000000000000000a000000000000000002fb110a120000000000000000000000000000000000000e000000000200000061050000000000000000000000000000000000000000000c000002000200000001000000000000000000000000000000000000000000000c0000020002000000000000000000000000000000000000000000000000000004020000000000000000000000000000000000000000000000000000000000000a00000000000000000a0f121a120000000000000000000000000000000000000e000000000200000061010000000000000000000000000000000000000000000208000200010000000000000000000000000000000000000000000000000000070000000000000000038e1300000000000000000000000000000000000000000e000000000200000061050000000000000000000000000000000000000000000e0000000004000000610100000000000000000000000000000000000000000002020004000200000000000000000000000000000000000000000000000000000e000002000000000060070000000000000000000000000000000000000000000202000000010000000000000000000000000000000000000000000000000000070000000000000000037a1300000000000000000000000000000000000000000e0000000002000000610700000000000000000000000000000000000000000007000000000000000003a21300000000000000000000000000000000000000000e000000000100000061020000000000000000000000000000000000000000000e0000000000000000e10600000000000000000000000000000000000000000007000000000000000000000000000000000000000000000000000000000000000c000002000200000001000000000000000000000000000000000000000000000c000002000200000000000000000000000000000000717b484e0000000000000e000002000000000020000000000000000000000000000000000000000000000c000001000100000001410000000000000000000000000000000000000000000c000001000100000000000000000000000000000000000000000000000000000c000002000200000001040000000000000000000000000000000000000000000c0000020002000000000000000000000000000000000000000000000000000007000000000000000003a21300000000000000000000000000000000000000000c000002000200000001240000000000000000000000000000000000000000000c000002000200000000000000000000000000000000000000000000000000000e000002000000000000000000000000000000000000000000000000000000000c000004000400000001000000000000000000000000000000000000000000000c000004000400000000000000000000000000000000000000000000000000000c000002000200000001200000000000000000000000000000000000000000000c000002000200000000000000000000000000000000000000000000000000000a00000000000000000130123012000000000000000000000000000000000000020800000004000000000000000000000000000000000000000000000000000004100000000000000000000000000000000000000000000000000000000000000a00000000000000000a30123c12000000000000000000000000000000000000180000040008000000000500000000000000000000000000000000000000000008080002000800000000000000000000000000000000000000000000000000000e080000001000000021000000000000000000000000000000000000000000000e0800100000000000000100000000000000000000000000000000000000000002000004000800000000010000000000000000000000000000000000000000000c000010001000000001010000000000000000000000000000000000000000000c0000100010000000000000000000000000000000000000000000000000000004080004000000000000000000000000000000000000000000000000000000000a0000000000000000022d1239120000000000000000000000000000000000000c000010001000000001000000000000000000000000000000000000000000000c000010001000000000000000000000000000000000000000000000000000000a0000000000000000012d122d120000000000000000000000000000000000000c000002000200000001ffffffffffffffffffffffffffffffff0000000000000c000002000200000000ffffffffffffffffffffffff000000000000000000000e000000000400000001020000000000000000000000000000000000000000001a040002000200000002000000000000000000000000000000000000000000000c000004000400000001000000000000000000000000000000000000000000000c000004000400000000000000000000000000000000ffffffff0000000000000e000000000800000021010000000000000000000000000000000000000000001a080004000400000002000000000000000000000000000000000000000000001a040002000200000004000000000000000000000000000000000000000000000e000002000000000000020000000000000000000000000000000000000000000a000000000000000001701270120000000000000000000000000000000000000c000002000200000001000000000000000000000000000000000000000000000c000002000200000000000000000000000000000000717b484e0000000000000e000002000000000020000000000000000000000000000000000000000000000c000001000100000001410000000000000000000000000000000000000000000c000001000100000000000000000000000000000000000000000000000000000c000002000200000001040000000000000000000000000000000000000000000c0000020002000000000000000000000000000000000000000000000000000007000000000000000003a21300000000000000000000000000000000000000000c000002000200000001240000000000000000000000000000000000000000000c000002000200000000000000000000000000000000000000000000000000000e000002000000000000000000000000000000000000000000000000000000000c000004000400000001000000000000000000000000000000000000000000000c000004000400000000000000000000000000000000000000000000000000000c000002000200000001200000000000000000000000000000000000000000000c000002000200000000000000000000000000000000000000000000000000000a0000000000000000015a125a12000000000000000000000000000000000000020800000004000000000000000000000000000000000000000000000000000004100000000000000000000000000000000000000000000000000000000000000a00000000000000000a5a126612000000000000000000000000000000000000180000040008000000000500000000000000000000000000000000000000000008080002000800000000000000000000000000000000000000000000000000000e080000001000000021000000000000000000000000000000000000000000000e0800100000000000000100000000000000000000000000000000000000000002000004000800000000010000000000000000000000000000000000000000000c000010001000000001010000000000000000000000000000000000000000000c0000100010000000000000000000000000000000000000000000000000000004080004000000000000000000000000000000000000000000000000000000000a000000000000000002571263120000000000000000000000000000000000000c000010001000000001000000000000000000000000000000000000000000000c000010001000000000000000000000000000000000000000000000000000000a000000000000000001571257120000000000000000000000000000000000000c000002000200000001ffffffffffffffffffffffffffffffff0000000000000c000002000200000000ffffffffffffffffffffffff000000000000000000000e000000000400000001020000000000000000000000000000000000000000001a040002000200000002000000000000000000000000000000000000000000000c000004000400000001000000000000000000000000000000000000000000000c000004000400000000000000000000000000000000ffffffff0000000000000e000000000800000021010000000000000000000000000000000000000000001a080004000400000002000000000000000000000000000000000000000000001a040002000200000004000000000000000000000000000000000000000000000e000002000000000000020000000000000000000000000000000000000000000e0000000000000000e10600000000000000000000000000000000000000000007000000000000000004000000000000000000000000000000000000000000000e0000000000000000e00500000000000000000000000000000000000000000002010000002000000000000000000000000000000000000000000000000000000c000010001000000001000000000000000000000000000000000000000000000c00001000100000000000000000000000000000000000000000000000000000022000000004000000000000000000000000000000000000000000000000000004200000000000000000000000000000000000000000000000000000000000000a000000000000000004b912791200000000000000000000000000000000000002040000000200000000000000000000000000000000000000000000000000000c000004000400000001ffffffffffffffffffffffffffffffff0000000000000c000004000400000000ffffffffffffffffffffffffffffffff00000000000004100004000000000000000000000000000000000000000000000000000000000a000000000000000004d1127e12000000000000000000000000000000000000080000020004000000010a00000000000000000000000000000000000000000002000010001000000000010000000000000000000000000000000000000000000c0000080008000000010a0000000000000000000000000000000000000000000c0000080008000000000000000000000000000000000000000000000000000004020008000000000000000000000000000000000000000000000000000000000a000000000000000002841279120000000000000000000000000000000000000e000020000000000060040000000000000000000000000000000000000000000e00001000000000006006000000000000000000000000000000000000000000021000000001000000000000000000000000000000000000000000000000000007000000000000000003ca1100000000000000000000000000000000000000000a00000000000000000289128a120000000000000000000000000000000000000a0000000000000000014e134e13000000000000000000000000000000000000020100000002000000000000000000000000000000000000000000000000000002000001000400000000200000000000000000000000000000000000000000000e000004000000000060010000000000000000000000000000000000000000000e000000000400000061060000000000000000000000000000000000000000000e000000000800000061040000000000000000000000000000000000000000000e000002000000000060020000000000000000000000000000000000000000000e000008000000000060050000000000000000000000000000000000000000000e0000000004000000610600000000000000000000000000000000000000000004040000000000000000000000000000000000000000000000000000000000000a000000000000000004f01294120000000000000000000000000000000000000202000000010000000000000000000000000000000000000000000000000000070000000000000000037a1300000000000000000000000000000000000000000c000002000200000001ffffffffffffffffffffffffffffffff0000000000000c000002000200000000ffffffffffffffffffffffffffffffff0000000000000e000000000400000061060000000000000000000000000000000000000000000204000200040000000000000000000000000000000000000000000000000000020400000002000000000000000000000000000000000000000000000000000004010002000000000000000000000000000000000000000000000000000000000a0000000000000000089d120f130000000000000000000000000000000000000e0000000004000000610100000000000000000000000000000000000000000002040002000400000000000000000000000000000000000000000000000000000e0000040000000000600300000000000000000000000000000000000000000002040000000100000000000000000000000000000000000000000000000000000e00000200000000006006000000000000000000000000000000000000000000070000000000000000037a1300000000000000000000000000000000000000000c000002000200000001ffffffffffffffffffffffffffffffff0000000000000c000002000200000000ffffffffffffffffffffffffffffff000000000000001a010002000200000002000000000000000000000000000000000000000000000e00000000080000006105000000000000000000000000000000000000000000080000080004000000010a0000000000000000000000000000000000000000000e00000400000000006004000000000000000000000000000000000000000000060000040004000000000a000000000000000000000000000000000000000000040800040004000000000000000000000000000000000000000000000000000018000004000400000000f80000000000000000000000000000000000000000001a040002000200000004000000000000000000000000000000000000000000000c000004000400000001000000000000000000000000000000000000000000000c000004000400000000000000000000000000000000000000300000000000001a020004000100000004000000000000000000000000000000000000000000000e0000000002000000610300000000000000000000000000000000000000000007000000000000000003a21300000000000000000000000000000000000000000e000000000800000061040000000000000000000000000000000000000000000e000000000200000061020000000000000000000000000000000000000000000c0000040004000000010a0000000000000000000000000000000000000000000c000004000400000000000000000000000000000000000000000000000000000e0000000010000000610500000000000000000000000000000000000000000004100004000000000000000000000000000000000000000000000000000000000a000000000000000002ce1290120000000000000000000000000000000000000e000000000200000021020000000000000000000000000000000000000000000c000004000400000001bfffffffffffffffffffffffffffffff0000000000000c000004000400000000ffffffffffffffffffffffffffffffff00000000000004020004000000000000000000000000000000000000000000000000000000000a0000000000000000085013be1200000000000000000000000000000000000002000002000800000000400000000000000000000000000000000000000000000c000004000400000001ffffffffffffffff00000000000000000000000000000c0000040004000000000000000000000000000000000000000000000000000004080004000000000000000000000000000000000000000000000000000000000a0000000000000000085013c3120000000000000000000000000000000000000e000008000000000020020000000000000000000000000000000000000000000c000001000100000001010000000000000000000000000000000000000000000c000001000100000000000000000000000000000000000000000000000000000e0000020000000000600200000000000000000000000000000000000000000007000000000000000003a21300000000000000000000000000000000000000000e0000000002000000610200000000000000000000000000000000000000000002000002000200000000200000000000000000000000000000000000000000000c000001000100000001000000000000000000000000000000000000000000000c0000010001000000000000000000000000000000000000003000000000000007000000000000000003a21300000000000000000000000000000000000000000e0000000002000000610200000000000000000000000000000000000000000002020000000100000000000000000000000000000000000000000000000000000e0000000000000000e10500000000000000000000000000000000000000000007000000000000000000000000000000000000000000000000000000000000000c000002000200000001000000000000000000000000000000000000000000000c000002000200000000000000000000000000000000717b484e0000000000000e000002000000000020000000000000000000000000000000000000000000000c000001000100000001110000000000000000000000000000000000000000000c000001000100000000000000000000000000000000000000000000000000000c000002000200000001040000000000000000000000000000000000000000000c0000020002000000000000000000000000000000000000000000000000000007000000000000000003a21300000000000000000000000000000000000000000c000002000200000001240000000000000000000000000000000000000000000c000002000200000000000000000000000000000000000000000000000000000e000002000000000000000000000000000000000000000000000000000000000c000004000400000001000000000000000000000000000000000000000000000c000004000400000000000000000000000000000000000000000000000000000c000002000200000001200000000000000000000000000000000000000000000c000002000200000000000000000000000000000000000000000000000000000a000000000000000001e412e412000000000000000000000000000000000000020800000004000000000000000000000000000000000000000000000000000004100000000000000000000000000000000000000000000000000000000000000a00000000000000000ae4122e13000000000000000000000000000000000000180000040008000000000500000000000000000000000000000000000000000008080002000800000000000000000000000000000000000000000000000000000e080000001000000021000000000000000000000000000000000000000000000e0800100000000000000100000000000000000000000000000000000000000002000004000800000000010000000000000000000000000000000000000000000c000010001000000001010000000000000000000000000000000000000000000c0000100010000000000000000000000000000000000000000000000000000004080004000000000000000000000000000000000000000000000000000000000a000000000000000002e112ed120000000000000000000000000000000000000c000010001000000001000000000000000000000000000000000000000000000c000010001000000000000000000000000000000000000000000000000000000a000000000000000001e112e1120000000000000000000000000000000000000c000002000200000001000000000000000000000000000000000000000000000c000002000200000000000000000000000000000000717b484e0000000000000e000002000000000020000000000000000000000000000000000000000000000c000001000100000001110000000000000000000000000000000000000000000c000001000100000000000000000000000000000000000000000000000000000c000002000200000001040000000000000000000000000000000000000000000c0000020002000000000000000000000000000000000000000000000000000007000000000000000003a21300000000000000000000000000000000000000000c000002000200000001240000000000000000000000000000000000000000000c000002000200000000000000000000000000000000000000000000000000000e000002000000000000000000000000000000000000000000000000000000000c000004000400000001000000000000000000000000000000000000000000000c000004000400000000000000000000000000000000000000000000000000000c000002000200000001200000000000000000000000000000000000000000000c000002000200000000000000000000000000000000000000000000000000000a00000000000000000103130313000000000000000000000000000000000000020800000004000000000000000000000000000000000000000000000000000004100000000000000000000000000000000000000000000000000000000000000a00000000000000000a03133913000000000000000000000000000000000000180000040008000000000500000000000000000000000000000000000000000008080002000800000000000000000000000000000000000000000000000000000e080000001000000021000000000000000000000000000000000000000000000e0800100000000000000100000000000000000000000000000000000000000002000004000800000000010000000000000000000000000000000000000000000c000010001000000001010000000000000000000000000000000000000000000c0000100010000000000000000000000000000000000000000000000000000004080004000000000000000000000000000000000000000000000000000000000a00000000000000000200130c130000000000000000000000000000000000000c000010001000000001000000000000000000000000000000000000000000000c000010001000000000000000000000000000000000000000000000000000000a000000000000000001001300130000000000000000000000000000000000000c000002000200000001000000000000000000000000000000000000000000000c000002000200000000000000000000000000000000717b484e0000000000000e000002000000000020000000000000000000000000000000000000000000000c000001000100000001320000000000000000000000000000000000000000000c000001000100000000000000000000000000000000000000000000000000000c000002000200000001040000000000000000000000000000000000000000000c0000020002000000000000000000000000000000000000000000000000000007000000000000000003a21300000000000000000000000000000000000000000c000002000200000001240000000000000000000000000000000000000000000c000002000200000000000000000000000000000000000000000000000000000e000002000000000000000000000000000000000000000000000000000000000c000004000400000001000000000000000000000000000000000000000000000c000004000400000000000000000000000000000000000000000000000000000c000002000200000001200000000000000000000000000000000000000000000c000002000200000000000000000000000000000000000000000000000000000a00000000000000000122132213000000000000000000000000000000000000020800000004000000000000000000000000000000000000000000000000000004100000000000000000000000000000000000000000000000000000000000000a00000000000000000a22134413000000000000000000000000000000000000180000040008000000000500000000000000000000000000000000000000000008080002000800000000000000000000000000000000000000000000000000000e080000001000000021000000000000000000000000000000000000000000000e0800100000000000000100000000000000000000000000000000000000000002000004000800000000010000000000000000000000000000000000000000000c000010001000000001010000000000000000000000000000000000000000000c0000100010000000000000000000000000000000000000000000000000000004080004000000000000000000000000000000000000000000000000000000000a0000000000000000021f132b130000000000000000000000000000000000000c000010001000000001000000000000000000000000000000000000000000000c000010001000000000000000000000000000000000000000000000000000000a0000000000000000011f131f130000000000000000000000000000000000000c000002000200000001ffffffffffffffffffffffffffffffff0000000000000c000002000200000000ffffffffffffffffffffffff000000000000000000000e000000000400000001020000000000000000000000000000000000000000001a040002000200000002000000000000000000000000000000000000000000000c000004000400000001000000000000000000000000000000000000000000000c000004000400000000000000000000000000000000ffffffff0000000000000e000000000800000021010000000000000000000000000000000000000000001a080004000400000002000000000000000000000000000000000000000000001a040002000200000004000000000000000000000000000000000000000000000e000002000000000000020000000000000000000000000000000000000000000a0000000000000000014e134e130000000000000000000000000000000000000c000002000200000001ffffffffffffffffffffffffffffffff0000000000000c000002000200000000ffffffffffffffffffffffff000000000000000000000e000000000400000001020000000000000000000000000000000000000000001a040002000200000002000000000000000000000000000000000000000000000c000004000400000001000000000000000000000000000000000000000000000c000004000400000000000000000000000000000000ffffffff0000000000000e000000000800000021010000000000000000000000000000000000000000001a080004000400000002000000000000000000000000000000000000000000001a040002000200000004000000000000000000000000000000000000000000000e000002000000000000020000000000000000000000000000000000000000000a0000000000000000014e134e130000000000000000000000000000000000000c000002000200000001ffffffffffffffffffffffffffffffff0000000000000c000002000200000000ffffffffffffffffffffffff000000000000000000000e000000000400000001020000000000000000000000000000000000000000001a040002000200000002000000000000000000000000000000000000000000000c000004000400000001000000000000000000000000000000000000000000000c000004000400000000000000000000000000000000ffffffff0000000000000e000000000800000021010000000000000000000000000000000000000000001a080004000400000002000000000000000000000000000000000000000000001a040002000200000004000000000000000000000000000000000000000000000e000002000000000000020000000000000000000000000000000000000000000e0000000000000000e10500000000000000000000000000000000000000000007000000000000000004000000000000000000000000000000000000000000000c000002000200000001000000000000000000000000000000000000000000000c000002000200000000000000000000000000000000717b484e0000000000000e000002000000000020000000000000000000000000000000000000000000000c000001000100000001410000000000000000000000000000000000000000000c000001000100000000000000000000000000000000000000000000000000000c000002000200000001040000000000000000000000000000000000000000000c0000020002000000000000000000000000000000000000000000000000000007000000000000000003a21300000000000000000000000000000000000000000c000002000200000001240000000000000000000000000000000000000000000c000002000200000000000000000000000000000000000000000000000000000e000002000000000000000000000000000000000000000000000000000000000c000004000400000001000000000000000000000000000000000000000000000c000004000400000000000000000000000000000000000000000000000000000c000002000200000001200000000000000000000000000000000000000000000c000002000200000000000000000000000000000000000000000000000000000a00000000000000000163136313000000000000000000000000000000000000020800000004000000000000000000000000000000000000000000000000000004100000000000000000000000000000000000000000000000000000000000000a00000000000000000a63136f13000000000000000000000000000000000000180000040008000000000500000000000000000000000000000000000000000008080002000800000000000000000000000000000000000000000000000000000e080000001000000021000000000000000000000000000000000000000000000e0800100000000000000100000000000000000000000000000000000000000002000004000800000000010000000000000000000000000000000000000000000c000010001000000001010000000000000000000000000000000000000000000c0000100010000000000000000000000000000000000000000000000000000004080004000000000000000000000000000000000000000000000000000000000a00000000000000000260136c130000000000000000000000000000000000000c000010001000000001000000000000000000000000000000000000000000000c000010001000000000000000000000000000000000000000000000000000000a000000000000000001601360130000000000000000000000000000000000000c000002000200000001ffffffffffffffffffffffffffffffff0000000000000c000002000200000000ffffffffffffffffffffffff000000000000000000000e000000000400000001020000000000000000000000000000000000000000001a040002000200000002000000000000000000000000000000000000000000000c000004000400000001000000000000000000000000000000000000000000000c000004000400000000000000000000000000000000ffffffff0000000000000e000000000800000021010000000000000000000000000000000000000000001a080004000400000002000000000000000000000000000000000000000000001a040002000200000004000000000000000000000000000000000000000000000e000002000000000000020000000000000000000000000000000000000000000a0000000000000000014e134e130000000000000000000000000000000000000c000002000200000001e0ffffffffffffffffffffffffffffff0000000000000c000002000200000000ffffffffffffffffffffffffffffffff0000000000001a010002000200000002000000000000000000000000000000000000000000000c000004000400000001200000000000000000000000000000000000000000000c0000040004000000000000000000000000000000000000000000000000000008020004000400000000000000000000000000000000000000000000000000001a0000010002000000021f00000000000000000000000000000000000000000018000002000800000000030000000000000000000000000000000000000000000e0400000002000000210000000000000000000000000000000000000000000004080000000000000000000000000000000000000000000000000000000000000a0000000000000000048c1385130000000000000000000000000000000000000c000010001000000001000100000000000000000000000000000000000000000c0000100010000000000000000000000000000000000000000000000000000004100008001000000000000000000000000000000000000000000000000000000e04000000040000002101000000000000000000000000000000000000000000181000040004000000020000000000000000000000000000000000000000000018080002000200000000000000000000000000000000000000000000000000001a04000200020000000400000000000000000000000000000000000000000000020200000001000000000000000000000000000000000000000000000000000007000000000000000000000000000000000000000000000000000000000000000c000002000200000001e0ffffffffffffffffffffffffffffff0000000000000c000002000200000000ffffffffffffffffffffffffffffffff0000000000001a010002000200000002000000000000000000000000000000000000000000000c000004000400000001200000000000000000000000000000000000000000000c0000040004000000000000000000000000000000000000000000000000000008020004000400000000000000000000000000000000000000000000000000001a0000010002000000021f00000000000000000000000000000000000000000018000002000800000000030000000000000000000000000000000000000000000e0400000002000000010000000000000000000000000000000000000000000004080000000000000000000000000000000000000000000000000000000000000a000000000000000004a01399130000000000000000000000000000000000000c000010001000000001000100000000000000000000000000000000000000000c0000100010000000000000000000000000000000000000000000000000000004100008001000000000000000000000000000000000000000000000000000000e04000000040000000101000000000000000000000000000000000000000000181000040004000000020000000000000000000000000000000000000000000018080002000200000000000000000000000000000000000000000000000000001a04000200020000000400000000000000000000000000000000000000000000020200000001000000000000000000000000000000000000000000000000000007000000000000000000000000000000000000000000000000000000000000000c000004000400000001e0ffffffffffffffffffffffffffffff0000000000000c000004000400000000ffffffffffffffffffffffffffffffff0000000000001a020004000400000002000000000000000000000000000000000000000000000c000008000800000001200000000000000000000000000000000000000000000c0000080008000000000000000000000000000000000000000000000000000008040008000400000000000000000000000000000000000000000000000000001a0000020002000000021f00000000000000000000000000000000000000000018000002000200000000030000000000000000000000000000000000000000000c000008000800000001000100000000000000000000000000000000000000000c0000080008000000000000000000000000000000000000000000000000000004080002001000000000000000000000000000000000000000000000000000000c000020002000000001ffffffffffffffffffffffffffffffff0000000000000c000020002000000000ffffffffffffffffffffffffffffffff000000000000020100000008000000000000000000000000000000000000000000000000000004020000000000000000000000000000000000000000000000000000000000000a000000000000000004b713b21300000000000000000000000000000000000018100020000800000000000000000000000000000000000000000000000000000e040000004000000021000000000000000000000000000000000000000000001a4000080008000000020000000000000000000000000000000000000000000018020001004000000002000000000000000000000000000000000000000000001a400008000800000004000000000000000000000000000000000000000000000e0400000040000000210100000000000000000000000000000000000000000004020000000000000000000000000000000000000000000000000000000000000a000000000000000004be13ba13000000000000000000000000000000000000181000010010000000000000000000000000000000000000000000000000000018020020000200000002000000000000000000000000000000000000000000001a400002000200000002000000000000000000000000000000000000000000001a100002004000000004000000000000000000000000000000000000000000000e040040000000000020010000000000000000000000000000000000000000000e04000800000000002000000000000000000000000000000000000000000000070000000000000000000000000000000000000000000000000000000000000007010000000000000005000000000000000000000000000000000000000000000a000000000000000002c313c6130000000000000000000000000000000000000c000001000100000001000000000000000000000000000000000000000000000c0000010001000000000000000000000000000000000000000000000000000007000000000000000000000000000000000000000000000000000000000000000c000001000100000001010000000000000000000000000000000000000000000c000001000100000000000000000000000000000000000000000000000000000700000000000000000000000000000000000000000000000000000000000000"
        }
      },
      "factoryDependencies": {},
      "hash": "afd624eecad78d4dac122d4a390b6d15baa68386650214565fa66ac2e1213b75"
    }
  }
}