{
  "@openzeppelin/contracts/token/ERC1155/utils/ERC1155Holder.sol": {
    "ERC1155Holder": {
      "abi": [
        {
          "inputs": [
            {
              "internalType": "address",
              "name": "",
              "type": "address"
            },
            {
              "internalType": "address",
              "name": "",
              "type": "address"
            },
            {
              "internalType": "uint256[]",
              "name": "",
              "type": "uint256[]"
            },
            {
              "internalType": "uint256[]",
              "name": "",
              "type": "uint256[]"
            },
            {
              "internalType": "bytes",
              "name": "",
              "type": "bytes"
            }
          ],
          "name": "onERC1155BatchReceived",
          "outputs": [
            {
              "internalType": "bytes4",
              "name": "",
              "type": "bytes4"
            }
          ],
          "stateMutability": "nonpayable",
          "type": "function"
        },
        {
          "inputs": [
            {
              "internalType": "address",
              "name": "",
              "type": "address"
            },
            {
              "internalType": "address",
              "name": "",
              "type": "address"
            },
            {
              "internalType": "uint256",
              "name": "",
              "type": "uint256"
            },
            {
              "internalType": "uint256",
              "name": "",
              "type": "uint256"
            },
            {
              "internalType": "bytes",
              "name": "",
              "type": "bytes"
            }
          ],
          "name": "onERC1155Received",
          "outputs": [
            {
              "internalType": "bytes4",
              "name": "",
              "type": "bytes4"
            }
          ],
          "stateMutability": "nonpayable",
          "type": "function"
        },
        {
          "inputs": [
            {
              "internalType": "bytes4",
              "name": "interfaceId",
              "type": "bytes4"
            }
          ],
          "name": "supportsInterface",
          "outputs": [
            {
              "internalType": "bool",
              "name": "",
              "type": "bool"
            }
          ],
          "stateMutability": "view",
          "type": "function"
        }
      ],
      "evm": {
        "bytecode": {
          "object": "0c0000040004000000010000000000000000ffffffffffffffff0000000000000c000004000400000000ffffffffffffffffffffffffffffffff0000000000000e000000000200000001000000000000000000000000000000000000000000001a020004000800000002000000000000000000000000000000000000000000000c000010001000000001000000000000000001000000000000000000000000000c000010001000000000000000000000000000000000000000000000000000000c000020002000000001010000000000000000000000000000000000000000000c000020002000000000000000000000000000000000000000000000000000000c000004000400000001010000000000000000000000000000000000000000000c0000040004000000000000000000000000000000000000000000000000000004080010000000000000000000000000000000000000000000000000000000000a0000000000000000040e000c000000000000000000000000000000000000000c000004000400000001000000000000000000000000000000000000000000000c000004000400000000000000000000000000000000000000000000000000000c0000100010000000017c7ee91ae51bb0ed9b9e413333bf74f70000000000000c000010001000000000b75ee1170f6b7c3ce4583c65d82198c400000000000005100000004000000001000000000000000000000000000000000000000000000c000010001000000001010000000000000000000000000000000000000000000c0000100010000000000000000000000000000000000000000000000000000004400000000000000000000000000000000000000000000000000000000000000a000000000000000004170015000000000000000000000000000000000000000c000010001000000001000000000000000000000000000000000000000000000c0000100010000000000000000000000000000000000000000000000000000004400020000000000000000000000000000000000000000000000000000000000a00000000000000000419001f000000000000000000000000000000000000000c000020002000000001000000000000000000000000000000000000000000000c00002000200000000000000000000000000000000083bbcae30000000000000c000080008000000001000000000000000001000000000000000000000000000c0000800080000000000000000000000000000000000000000000000000000004080080000000000000000000000000000000000000000000000000000000000a0000000000000000043a001f0000000000000000000000000000000000000004400000000000000000000000000000000000000000000000000000000000000a000000000000000004210027000000000000000000000000000000000000000c000020002000000001000000000000000000000000000000000000000000000c000020002000000000000000000000000000000000c9a6bc8e0000000000000c000008000800000001000000000000000001000000000000000000000000000c0000080008000000000000000000000000000000000000000000000000000004020008000000000000000000000000000000000000000000000000000000000a0000000000000000023a0027000000000000000000000000000000000000001a100004000200000002000000000000000000000000000000000000000000001a000002000400000002010000000000000000000000000000000000000000000c000002000200000001010000000000000000000000000000000000000000000c0000020002000000000000000000000000000000000000000000000000000004040002000000000000000000000000000000000000000000000000000000000a0000000000000000042d0037000000000000000000000000000000000000000c000004000400000001800000000000000000000000000000000000000000000c000004000400000000000000000000000000000000000000000000000000000e000004000000000020020000000000000000000000000000000000000000000c000004000400000001000000000000000000000000000000000000000000000c000004000400000000000000000000000000000000000000000000000000000e000004000000000000000000000000000000000000000000000000000000000c0000040004000000017c7ee91ae51bb0ed9b9e413333bf74f70000000000000c000004000400000000b75ee1170f6b7c3ce4583c65d82198c400000000000005040002000000000000000000000000000000000000000000000000000000000a0000000000000000013900390000000000000000000000000000000000000007000000000000000003400000000000000000000000000000000000000000000a0000000000000000023f00390000000000000000000000000000000000000007000000000000000000000000000000000000000000000000000000000000000c000002000200000001040000000000000000000000000000000000000000000c000002000200000000000000000000000000000000000000000000000000000e000002000000000000000000000000000000000000000000000000000000000e00002000000000000001000000000000000000000000000000000000000000070000000000000000040000000000000000000000000000000000000000000007000000000000000004000000000000000000000000000000000000000000000e0000000000000000e00c0000000000000000000000000000000000000000000c000002000200000001800000000000000000000000000000000000000000000c000002000200000000000000000000000000000000000000000000000000000e000002000000000020020000000000000000000000000000000000000000000e000000000200000001000000000000000000000000000000000000000000001a000002000400000002fcffffff00000000000000000000000000000000000004040000000000000000000000000000000000000000000000000000000000000a000000000000000004c60048000000000000000000000000000000000000001a000002000200000002ffffffff0000000000000000000000000000000000000c000004000400000001000000000000000000000000000000000000000000000c000004000400000000000000000000000000000000ffffffff0000000000000e000000000800000001010000000000000000000000000000000000000000001a080004000400000002000000000000000000000000000000000000000000000c000008000800000001000000000000000000000000000000000000000000000c000008000800000000000000000000000000000000a7c9ff0100000000000004040008000000000000000000000000000000000000000000000000000000000a00000000000000000451008000000000000000000000000000000000000000020200000001000000000000000000000000000000000000000000000000000007000000000000000003f30000000000000000000000000000000000000000000a000000000000000002540055000000000000000000000000000000000000000a000000000000000001bf00bf000000000000000000000000000000000000000c000002000200000001000000000000000000000000000000000000000000000c000002000200000000000000000000000000000000ffffffff0000000000001a010002001000000002000000000000000000000000000000000000000000000c000020002000000001000000000000000000000000000000000000000000000c000020002000000000000000000000000000000000a7c9ff010000000000000c000002000200000001000000000000000000000000000000000000000000000c000002000200000000000000000000000000000000000000000000000000000c000004000400000001010000000000000000000000000000000000000000000c000004000400000000000000000000000000000000000000000000000000000c000008000800000001010000000000000000000000000000000000000000000c0000080008000000000000000000000000000000000000000000000000000004100020000000000000000000000000000000000000000000000000000000000a000000000000000004640062000000000000000000000000000000000000000c000008000800000001000000000000000000000000000000000000000000000c000008000800000000000000000000000000000000000000000000000000000c000020002000000001000000000000000000000000000000000000000000000c000020002000000000000000000000000000000000e012234e00000000000004100020000000000000000000000000000000000000000000000000000000000a0000000000000000046a0068000000000000000000000000000000000000000c000004000400000001000000000000000000000000000000000000000000000c000004000400000000000000000000000000000000000000000000000000001a040008000400000004000000000000000000000000000000000000000000001a000004000400000002010000000000000000000000000000000000000000000e000004000000000020040000000000000000000000000000000000000000000c000004000400000001200000000000000000000000000000000000000000000c000004000400000000000000000000000000000000000000000000000000000e000004000000000000000000000000000000000000000000000000000000000a00000000000000000174007400000000000000000000000000000000000000020800000002000000000000000000000000000000000000000000000000000004100000000000000000000000000000000000000000000000000000000000000a00000000000000000a7400ce00000000000000000000000000000000000000180000020008000000000500000000000000000000000000000000000000000008080004000800000000000000000000000000000000000000000000000000000e080000001000000021040000000000000000000000000000000000000000000e0800100000000000000100000000000000000000000000000000000000000002000002000800000000010000000000000000000000000000000000000000000c000010001000000001010000000000000000000000000000000000000000000c0000100010000000000000000000000000000000000000000000000000000004080002000000000000000000000000000000000000000000000000000000000a00000000000000000271007d000000000000000000000000000000000000000c000010001000000001000000000000000000000000000000000000000000000c000010001000000000000000000000000000000000000000000000000000000a000000000000000001710071000000000000000000000000000000000000000c000008000800000001000000000000000000000000000000000000000000000c000008000800000000000000000000000000000000817c19bc00000000000004040008000000000000000000000000000000000000000000000000000000000a0000000000000000048400b0000000000000000000000000000000000000000c000004000400000001000000000000000000000000000000000000000000000c000004000400000000000000000000000000000000000000000000000000000e0000040000000000600d0000000000000000000000000000000000000000000e0000040000000000600c0000000000000000000000000000000000000000000e0000040000000000600b0000000000000000000000000000000000000000000e0000040000000000600a0000000000000000000000000000000000000000000e000004000000000060090000000000000000000000000000000000000000000c0000000001000000010001000000000000000000000000000000000000000007000000000000000003ab0200000000000000000000000000000000000000000a0000000000000000028e008f000000000000000000000000000000000000000a000000000000000001bf00bf000000000000000000000000000000000000000c000001000100000001000000000000000000000000000000000000000000000c000001000100000000000000000000000000000000817c19bc0000000000000e000000000200000021020000000000000000000000000000000000000000000e0000020000000000600100000000000000000000000000000000000000000007000000000000000003ac0300000000000000000000000000000000000000000c000002000200000001200000000000000000000000000000000000000000000c000002000200000000000000000000000000000000000000000000000000000e000002000000000000000000000000000000000000000000000000000000000c000002000200000001000000000000000000000000000000000000000000000c000002000200000000000000000000000000000000000000000000000000000a0000000000000000019c009c0000000000000000000000000000000000000004040000000000000000000000000000000000000000000000000000000000000a00000000000000000a9c00ce000000000000000000000000000000000000000e0000020000000000600300000000000000000000000000000000000000000018000002000200000000050000000000000000000000000000000000000000000e000002000000000060020000000000000000000000000000000000000000000e00000000040000006101000000000000000000000000000000000000000000020400020001000000000000000000000000000000000000000000000000000007000000000000000003840300000000000000000000000000000000000000000c000002000200000001200000000000000000000000000000000000000000000c000002000200000000000000000000000000000000000000000000000000000e0000000004000000610200000000000000000000000000000000000000000008040002000200000000000000000000000000000000000000000000000000000e020001000000000000010000000000000000000000000000000000000000000e0000000008000000610300000000000000000000000000000000000000000002000008000200000000010000000000000000000000000000000000000000000c000004000400000001010000000000000000000000000000000000000000000c0000040004000000000000000000000000000000000000000000000000000004020008000000000000000000000000000000000000000000000000000000000a0000000000000000029a00ad000000000000000000000000000000000000000c000004000400000001000000000000000000000000000000000000000000000c000004000400000000000000000000000000000000000000000000000000000a0000000000000000019a009a000000000000000000000000000000000000000c000008000800000001000000000000000000000000000000000000000000000c000008000800000000000000000000000000000000616e3af200000000000004040008000000000000000000000000000000000000000000000000000000000a000000000000000004b400c6000000000000000000000000000000000000000c000004000400000001000000000000000000000000000000000000000000000c000004000400000000000000000000000000000000000000000000000000000e000004000000000060080000000000000000000000000000000000000000000e000004000000000060070000000000000000000000000000000000000000000e000004000000000060060000000000000000000000000000000000000000000e000004000000000060050000000000000000000000000000000000000000000e000004000000000060040000000000000000000000000000000000000000000c0000000001000000016000000000000000000000000000000000000000000007000000000000000003200300000000000000000000000000000000000000000a000000000000000002be00d0000000000000000000000000000000000000000a000000000000000001bf00bf000000000000000000000000000000000000000c000002000200000001010000000000000000000000000000000000000000000c000002000200000000000000000000000000000000000000000000000000000e000000000400000021ffff000000000000000000000000000000000000000004040002000000000000000000000000000000000000000000000000000000000a000000000000000004ce00c4000000000000000000000000000000000000000e0000000000000000e10c00000000000000000000000000000000000000000007000000000000000004000000000000000000000000000000000000000000000c000002000200000001000000000000000000000000000000000000000000000c000002000200000000000000000000000000000000000000000000000000000e000002000000000000000000000000000000000000000000000000000000000c000002000200000001010000000000000000000000000000000000000000000c000002000200000000000000000000000000000000000000000000000000000e000000000400000021ffff000000000000000000000000000000000000000004040002000000000000000000000000000000000000000000000000000000000a000000000000000004ce00f1000000000000000000000000000000000000000e0000000000000000e10c00000000000000000000000000000000000000000007000000000000000000000000000000000000000000000000000000000000000c000001000100000001000000000000000000000000000000000000000000000c000001000100000000000000000000000000000000616e3af20000000000000e000000000200000021020000000000000000000000000000000000000000000e0000020000000000600100000000000000000000000000000000000000000007000000000000000003ac0300000000000000000000000000000000000000000c000002000200000001200000000000000000000000000000000000000000000c000002000200000000000000000000000000000000000000000000000000000e000002000000000000000000000000000000000000000000000000000000000c000002000200000001000000000000000000000000000000000000000000000c000002000200000000000000000000000000000000000000000000000000000a000000000000000001dd00dd0000000000000000000000000000000000000004040000000000000000000000000000000000000000000000000000000000000a00000000000000000add00ce000000000000000000000000000000000000000e0000020000000000600300000000000000000000000000000000000000000018000002000200000000050000000000000000000000000000000000000000000e000002000000000060020000000000000000000000000000000000000000000e00000000040000006101000000000000000000000000000000000000000000020400020001000000000000000000000000000000000000000000000000000007000000000000000003840300000000000000000000000000000000000000000c000002000200000001200000000000000000000000000000000000000000000c000002000200000000000000000000000000000000000000000000000000000e0000000004000000610200000000000000000000000000000000000000000008040002000200000000000000000000000000000000000000000000000000000e020001000000000000010000000000000000000000000000000000000000000e0000000008000000610300000000000000000000000000000000000000000002000008000200000000010000000000000000000000000000000000000000000c000004000400000001010000000000000000000000000000000000000000000c0000040004000000000000000000000000000000000000000000000000000004020008000000000000000000000000000000000000000000000000000000000a000000000000000002db00ee000000000000000000000000000000000000000c000004000400000001000000000000000000000000000000000000000000000c000004000400000000000000000000000000000000000000000000000000000a000000000000000001db00db000000000000000000000000000000000000000e0000000000000000e10c00000000000000000000000000000000000000000007000000000000000004000000000000000000000000000000000000000000000c000002000200000001fcffffffffffffffffffffffffffffff0000000000000c000002000200000000ffffffffffffffffffffffffffffffff00000000000002010002000800000000000000000000000000000000000000000000000000000c000010001000000001200000000000000000000000000000000000000000000c000010001000000000000000000000000000000000000000000000000000000c000004000400000001000000000000000000000000000000000000000000000c000004000400000000000000000000000000000000000000800000000000000c000002000200000001000000000000000000000000000000000000000000000c0000020002000000000000000000000000000000000000008000000000000004080010000000000000000000000000000000000000000000000000000000000a00000000000000000c0001fe000000000000000000000000000000000000000c000002000200000001000000000000000000000000000000000000000000000c000002000200000000000000000000000000000000000000000000000000001a080004001000000002000000000000000000000000000000000000000000000c000008000800000001000000000000000000000000000000000000000000000c0000080008000000000000000000000000000000000000008000000000000004100000000000000000000000000000000000000000000000000000000000000a000000000000000002070105010000000000000000000000000000000000000c000008000800000001000000000000000000000000000000000000000000000c0000080008000000000000000000000000000000000000000000000000000004100004000000000000000000000000000000000000000000000000000000000a0000000000000000040a010901000000000000000000000000000000000000020200000008000000000000000000000000000000000000000000000000000004080000000000000000000000000000000000000000000000000000000000000a00000000000000000a0c0115010000000000000000000000000000000000000c000001000100000001240000000000000000000000000000000000000000000c0000010001000000000000000000000000000000000000000000000000000007000000000000000003980300000000000000000000000000000000000000000c000002000200000001000000000000000000000000000000000000000000000c000002000200000000000000000000000000000000ffffffff0000000000001a0100020002000000020000000000000000000000000000000000000000000004010002000000000000000000000000000000000000000000000000000000000a0000000000000000041401150100000000000000000000000000000000000007000000000000000000000000000000000000000000000000000000000000000c000002000200000001000000000000000000000000000000000000000000000c000002000200000000000000000000000000000000000000000000000000000e0000020000000000000000000000000000000000000000000000000000000007000000000000000004000000000000000000000000000000000000000000000e0000000000000000e003000000000000000000000000000000000000000000020000010008000000001f0000000000000000000000000000000000000000000c000004000400000001000000000000000000000000000000000000000000000c000004000400000000000000000000000000000000000000800000000000000c000040004000000001000000000000000000000000000000000000000000000c0000400040000000000000000000000000000000000000008000000000000004080002000000000000000000000000000000000000000000000000000000000a000000000000000002230121010000000000000000000000000000000000000c000040004000000001000000000000000000000000000000000000000000000c000040004000000000000000000000000000000000000000000000000000000e000002000000000060030000000000000000000000000000000000000000001a020004001000000002000000000000000000000000000000000000000000001a080004002000000002000000000000000000000000000000000000000000000c000008000800000001000000000000000000000000000000000000000000000c0000080008000000000000000000000000000000000000008000000000000004200010000000000000000000000000000000000000000000000000000000000a0000000000000000082c012a010000000000000000000000000000000000000c000008000800000001000000000000000000000000000000000000000000000c000008000800000000000000000000000000000000000000000000000000001a2000100010000000080000000000000000000000000000000000000000000004100004000000000000000000000000000000000000000000000000000000000a00000000000000000430012f01000000000000000000000000000000000000024000000008000000000000000000000000000000000000000000000000000004080000000000000000000000000000000000000000000000000000000000000a00000000000000000a32016c0100000000000000000000000000000000000002000001000200000000200000000000000000000000000000000000000000000e00000200000000006004000000000000000000000000000000000000000000020200000001000000000000000000000000000000000000000000000000000007000000000000000003980300000000000000000000000000000000000000000c000002000200000001ffffffffffffffff00000000000000000000000000000c0000020002000000000000000000000000000000000000000000000000000004010002000000000000000000000000000000000000000000000000000000000a0000000000000000063a01710100000000000000000000000000000000000018000001000200000000050000000000000000000000000000000000000000000e00000200000000006002000000000000000000000000000000000000000000020000020002000000003f0000000000000000000000000000000000000000000c000004000400000001e0ffffffffffffffffffffffffffffff0000000000000c000004000400000000ffffffffffffffffffffffffffffffff0000000000001a020004000400000002000000000000000000000000000000000000000000000e0000000002000000210200000000000000000000000000000000000000000002020004001000000000000000000000000000000000000000000000000000000c000004000400000001010000000000000000000000000000000000000000000c0000040004000000000000000000000000000000000000000000000000000004100002000000000000000000000000000000000000000000000000000000000a000000000000000002480146010000000000000000000000000000000000000c000004000400000001000000000000000000000000000000000000000000000c000004000400000000000000000000000000000000000000000000000000000c000008000800000001ffffffffffffffff00000000000000000000000000000c0000080008000000000000000000000000000000000000000000000000000004100008000000000000000000000000000000000000000000000000000000000a00000000000000000890014c0100000000000000000000000000000000000004040000000000000000000000000000000000000000000000000000000000000a00000000000000000a90014e010000000000000000000000000000000000000e000010000000000020020000000000000000000000000000000000000000000e0000020000000000600100000000000000000000000000000000000000000007000000000000000003ac0300000000000000000000000000000000000000000e000000000400000061040000000000000000000000000000000000000000000e0000000002000000610200000000000000000000000000000000000000000002040002000800000000000000000000000000000000000000000000000000000e000000000200000061030000000000000000000000000000000000000000000e0000080000000000600200000000000000000000000000000000000000000004080002000000000000000000000000000000000000000000000000000000000a0000000000000000086c0158010000000000000000000000000000000000000e000000000200000061010000000000000000000000000000000000000000000e000002000000000060030000000000000000000000000000000000000000000e0000000002000000610200000000000000000000000000000000000000000004040002000000000000000000000000000000000000000000000000000000000a00000000000000000c69015d0100000000000000000000000000000000000002000004000400000000200000000000000000000000000000000000000000000e00000400000000006004000000000000000000000000000000000000000000020400000001000000000000000000000000000000000000000000000000000007000000000000000003980300000000000000000000000000000000000000000e0000000002000000610300000000000000000000000000000000000000000002000002000200000000200000000000000000000000000000000000000000000e0000020000000000600300000000000000000000000000000000000000000007000000000000000003ac0300000000000000000000000000000000000000000e000000000400000061040000000000000000000000000000000000000000000e0000000002000000610200000000000000000000000000000000000000000004040002000000000000000000000000000000000000000000000000000000000a0000000000000000025d0169010000000000000000000000000000000000000e000000000100000061010000000000000000000000000000000000000000000e0000000000000000e10300000000000000000000000000000000000000000007000000000000000000000000000000000000000000000000000000000000000c000002000200000001000000000000000000000000000000000000000000000c000002000200000000000000000000000000000000000000000000000000000e000002000000000000000000000000000000000000000000000000000000000e0000000000000000e10300000000000000000000000000000000000000000007000000000000000004000000000000000000000000000000000000000000000c000002000200000001000000000000000000000000000000000000000000000c000002000200000000000000000000000000000000717b484e0000000000000e000002000000000020000000000000000000000000000000000000000000000c000001000100000001410000000000000000000000000000000000000000000c000001000100000000000000000000000000000000000000000000000000000c000002000200000001040000000000000000000000000000000000000000000c0000020002000000000000000000000000000000000000000000000000000007000000000000000003ac0300000000000000000000000000000000000000000c000002000200000001240000000000000000000000000000000000000000000c000002000200000000000000000000000000000000000000000000000000000e000002000000000000000000000000000000000000000000000000000000000c000004000400000001000000000000000000000000000000000000000000000c000004000400000000000000000000000000000000000000000000000000000c000002000200000001200000000000000000000000000000000000000000000c000002000200000000000000000000000000000000000000000000000000000a00000000000000000184018401000000000000000000000000000000000000020800000004000000000000000000000000000000000000000000000000000004100000000000000000000000000000000000000000000000000000000000000a00000000000000000a8401af01000000000000000000000000000000000000180000040008000000000500000000000000000000000000000000000000000008080002000800000000000000000000000000000000000000000000000000000e080000001000000021000000000000000000000000000000000000000000000e0800100000000000000100000000000000000000000000000000000000000002000004000800000000010000000000000000000000000000000000000000000c000010001000000001010000000000000000000000000000000000000000000c0000100010000000000000000000000000000000000000000000000000000004080004000000000000000000000000000000000000000000000000000000000a00000000000000000281018d010000000000000000000000000000000000000c000010001000000001000000000000000000000000000000000000000000000c000010001000000000000000000000000000000000000000000000000000000a000000000000000001810181010000000000000000000000000000000000000c000002000200000001000000000000000000000000000000000000000000000c000002000200000000000000000000000000000000717b484e0000000000000e000002000000000020000000000000000000000000000000000000000000000c000001000100000001410000000000000000000000000000000000000000000c000001000100000000000000000000000000000000000000000000000000000c000002000200000001040000000000000000000000000000000000000000000c0000020002000000000000000000000000000000000000000000000000000007000000000000000003ac0300000000000000000000000000000000000000000c000002000200000001240000000000000000000000000000000000000000000c000002000200000000000000000000000000000000000000000000000000000e000002000000000000000000000000000000000000000000000000000000000c000004000400000001000000000000000000000000000000000000000000000c000004000400000000000000000000000000000000000000000000000000000c000002000200000001200000000000000000000000000000000000000000000c000002000200000000000000000000000000000000000000000000000000000a000000000000000001a301a301000000000000000000000000000000000000020800000004000000000000000000000000000000000000000000000000000004100000000000000000000000000000000000000000000000000000000000000a00000000000000000aa301ba01000000000000000000000000000000000000180000040008000000000500000000000000000000000000000000000000000008080002000800000000000000000000000000000000000000000000000000000e080000001000000021000000000000000000000000000000000000000000000e0800100000000000000100000000000000000000000000000000000000000002000004000800000000010000000000000000000000000000000000000000000c000010001000000001010000000000000000000000000000000000000000000c0000100010000000000000000000000000000000000000000000000000000004080004000000000000000000000000000000000000000000000000000000000a000000000000000002a001ac010000000000000000000000000000000000000c000010001000000001000000000000000000000000000000000000000000000c000010001000000000000000000000000000000000000000000000000000000a000000000000000001a001a0010000000000000000000000000000000000000c000002000200000001ffffffffffffffffffffffffffffffff0000000000000c000002000200000000ffffffffffffffffffffffff000000000000000000000e000000000400000001020000000000000000000000000000000000000000001a040002000200000002000000000000000000000000000000000000000000000c000004000400000001000000000000000000000000000000000000000000000c000004000400000000000000000000000000000000ffffffff0000000000000e000000000800000021010000000000000000000000000000000000000000001a080004000400000002000000000000000000000000000000000000000000001a040002000200000004000000000000000000000000000000000000000000000e000002000000000000020000000000000000000000000000000000000000000a000000000000000001c401c4010000000000000000000000000000000000000c000002000200000001ffffffffffffffffffffffffffffffff0000000000000c000002000200000000ffffffffffffffffffffffff000000000000000000000e000000000400000001020000000000000000000000000000000000000000001a040002000200000002000000000000000000000000000000000000000000000c000004000400000001000000000000000000000000000000000000000000000c000004000400000000000000000000000000000000ffffffff0000000000000e000000000800000021010000000000000000000000000000000000000000001a080004000400000002000000000000000000000000000000000000000000001a040002000200000004000000000000000000000000000000000000000000000e000002000000000000020000000000000000000000000000000000000000000e0000000000000000e10300000000000000000000000000000000000000000007000000000000000004000000000000000000000000000000000000000000000e0000000000000000e0070000000000000000000000000000000000000000000201000000400000000000000000000000000000000000000000000000000000020000400008000000001f0000000000000000000000000000000000000000000c000004000400000001000000000000000000000000000000000000000000000c000004000400000000000000000000000000000000000000800000000000000c000080008000000001000000000000000000000000000000000000000000000c0000800080000000000000000000000000000000000000008000000000000004080002000000000000000000000000000000000000000000000000000000000a000000000000000002d101cf010000000000000000000000000000000000000c000080008000000001000000000000000000000000000000000000000000000c000080008000000000000000000000000000000000000000000000000000000e000002000000000060080000000000000000000000000000000000000000001a020004001000000002000000000000000000000000000000000000000000001a080004002000000002000000000000000000000000000000000000000000000c000008000800000001000000000000000000000000000000000000000000000c0000080008000000000000000000000000000000000000008000000000000004200010000000000000000000000000000000000000000000000000000000000a000000000000000008da01d8010000000000000000000000000000000000000c000008000800000001000000000000000000000000000000000000000000000c000008000800000000000000000000000000000000000000000000000000001a2000100010000000080000000000000000000000000000000000000000000004100004000000000000000000000000000000000000000000000000000000000a000000000000000004de01dd01000000000000000000000000000000000000028000000008000000000000000000000000000000000000000000000000000004080000000000000000000000000000000000000000000000000000000000000a00000000000000000ae00151020000000000000000000000000000000000000e0000400000000000600700000000000000000000000000000000000000000002000040000200000000200000000000000000000000000000000000000000000e000002000000000060060000000000000000000000000000000000000000000202000000010000000000000000000000000000000000000000000000000000070000000000000000039803000000000000000000000000000000000000000002010000001000000000000000000000000000000000000000000000000000000c000002000200000001ffffffffffffffff00000000000000000000000000000c0000020002000000000000000000000000000000000000000000000000000004100002000000000000000000000000000000000000000000000000000000000a000000000000000006ea015602000000000000000000000000000000000000020000100002000000003f0000000000000000000000000000000000000000000c000004000400000001e0ffffffffffffffffffffffffffffff0000000000000c000004000400000000ffffffffffffffffffffffffffffffff0000000000001a020004000400000002000000000000000000000000000000000000000000000e0000000002000000210200000000000000000000000000000000000000000002020004002000000000000000000000000000000000000000000000000000000c000004000400000001010000000000000000000000000000000000000000000c0000040004000000000000000000000000000000000000000000000000000004200002000000000000000000000000000000000000000000000000000000000a000000000000000002f601f4010000000000000000000000000000000000000c000004000400000001000000000000000000000000000000000000000000000c000004000400000000000000000000000000000000000000000000000000000c000008000800000001ffffffffffffffff00000000000000000000000000000c0000080008000000000000000000000000000000000000000000000000000004200008000000000000000000000000000000000000000000000000000000000a0000000000000000087502fa0100000000000000000000000000000000000004040000000000000000000000000000000000000000000000000000000000000a00000000000000000a7502fc010000000000000000000000000000000000000e0000200000000000200200000000000000000000000000000000000000000002100000000100000000000000000000000000000000000000000000000000000e000010000000000060020000000000000000000000000000000000000000000e0000020000000000600300000000000000000000000000000000000000000007000000000000000003ac0300000000000000000000000000000000000000000e000000000400000061020000000000000000000000000000000000000000000e0000000002000000610600000000000000000000000000000000000000000002020004000200000000000000000000000000000000000000000000000000000e000000000800000061070000000000000000000000000000000000000000000e0000000010000000610800000000000000000000000000000000000000000004020010000000000000000000000000000000000000000000000000000000000a000000000000000008510208020000000000000000000000000000000000000c000010001000000001000000000000000000000000000000000000000000000c000010001000000000000000000000000000000000000000000000000000001a0000040002000000021f0000000000000000000000000000000000000000000e0000020000000000600100000000000000000000000000000000000000000002000008000800000000400000000000000000000000000000000000000000000e0000000002000000610300000000000000000000000000000000000000000002000002000200000000200000000000000000000000000000000000000000000e0000020000000000600600000000000000000000000000000000000000000018000004000200000002050000000000000000000000000000000000000000000e000002000000000060040000000000000000000000000000000000000000000e0000080000000000600500000000000000000000000000000000000000000004020000000000000000000000000000000000000000000000000000000000000a000000000000000004240215020000000000000000000000000000000000000e0000100000000000600800000000000000000000000000000000000000000018000010000200000000050000000000000000000000000000000000000000000e00000200000000006007000000000000000000000000000000000000000000020800020001000000000000000000000000000000000000000000000000000007000000000000000003980300000000000000000000000000000000000000000e000000000200000061060000000000000000000000000000000000000000000e00000000040000006107000000000000000000000000000000000000000000020200040002000000000000000000000000000000000000000000000000000007000000000000000003ac0300000000000000000000000000000000000000000e000000001000000061080000000000000000000000000000000000000000000e0000000008000000610500000000000000000000000000000000000000000002000010001000000000010000000000000000000000000000000000000000000e0000000002000000610400000000000000000000000000000000000000000004100002000000000000000000000000000000000000000000000000000000000a000000000000000002150224020000000000000000000000000000000000000e000000000200000061060000000000000000000000000000000000000000000e000000000400000061020000000000000000000000000000000000000000000e0000000002000000610100000000000000000000000000000000000000000004020000000000000000000000000000000000000000000000000000000000000a000000000000000004480229020000000000000000000000000000000000000c000002000200000001e0ffffffffffffffffffffffffffffff0000000000000c000002000200000000ffffffffffffffffffffffffffffffff0000000000001a040002000200000002000000000000000000000000000000000000000000000e00000200000000006008000000000000000000000000000000000000000000020800020001000000000000000000000000000000000000000000000000000007000000000000000003980300000000000000000000000000000000000000000e0000000002000000610100000000000000000000000000000000000000000018000002000200000000030000000000000000000000000000000000000000000c000004000400000001000100000000000000000000000000000000000000000c0000040004000000000000000000000000000000000000000000000000000004040002000400000000000000000000000000000000000000000000000000000c000008000800000001ffffffffffffffffffffffffffffffff0000000000000c000008000800000000ffffffffffffffffffffffffffffffff00000000000018040008000400000000000000000000000000000000000000000000000000001a010004000400000002000000000000000000000000000000000000000000000e0000040000000000600700000000000000000000000000000000000000000018020008000200000002000000000000000000000000000000000000000000000e000002000000000060050000000000000000000000000000000000000000000e000000000200000061060000000000000000000000000000000000000000000e0000000004000000610800000000000000000000000000000000000000000002020004000200000000000000000000000000000000000000000000000000000e00000200000000006008000000000000000000000000000000000000000000020200000001000000000000000000000000000000000000000000000000000007000000000000000003840300000000000000000000000000000000000000000e000000000200000061050000000000000000000000000000000000000000001a010002000200000002000000000000000000000000000000000000000000000e000000000400000061070000000000000000000000000000000000000000001a040002000100000004000000000000000000000000000000000000000000000e0000000002000000610800000000000000000000000000000000000000000007000000000000000003ac0300000000000000000000000000000000000000000e000000000400000061020000000000000000000000000000000000000000000e00000000020000006103000000000000000000000000000000000000000000020400020002000000000000000000000000000000000000000000000000000002000002000200000000200000000000000000000000000000000000000000000c000001000100000001000000000000000000000000000000000000000000000c0000010001000000000000000000000000000000000000000000000000000007000000000000000003ac0300000000000000000000000000000000000000000e000000000100000061030000000000000000000000000000000000000000000e0000000000000000e10700000000000000000000000000000000000000000007000000000000000000000000000000000000000000000000000000000000000c000002000200000001000000000000000000000000000000000000000000000c000002000200000000000000000000000000000000000000000000000000000e000002000000000000000000000000000000000000000000000000000000000e0000000000000000e10700000000000000000000000000000000000000000007000000000000000004000000000000000000000000000000000000000000000c000002000200000001000000000000000000000000000000000000000000000c000002000200000000000000000000000000000000717b484e0000000000000e000002000000000020000000000000000000000000000000000000000000000c000001000100000001410000000000000000000000000000000000000000000c000001000100000000000000000000000000000000000000000000000000000c000002000200000001040000000000000000000000000000000000000000000c0000020002000000000000000000000000000000000000000000000000000007000000000000000003ac0300000000000000000000000000000000000000000c000002000200000001240000000000000000000000000000000000000000000c000002000200000000000000000000000000000000000000000000000000000e000002000000000000000000000000000000000000000000000000000000000c000004000400000001000000000000000000000000000000000000000000000c000004000400000000000000000000000000000000000000000000000000000c000002000200000001200000000000000000000000000000000000000000000c000002000200000000000000000000000000000000000000000000000000000a00000000000000000169026902000000000000000000000000000000000000020800000004000000000000000000000000000000000000000000000000000004100000000000000000000000000000000000000000000000000000000000000a00000000000000000a69029402000000000000000000000000000000000000180000040008000000000500000000000000000000000000000000000000000008080002000800000000000000000000000000000000000000000000000000000e080000001000000021000000000000000000000000000000000000000000000e0800100000000000000100000000000000000000000000000000000000000002000004000800000000010000000000000000000000000000000000000000000c000010001000000001010000000000000000000000000000000000000000000c0000100010000000000000000000000000000000000000000000000000000004080004000000000000000000000000000000000000000000000000000000000a000000000000000002660272020000000000000000000000000000000000000c000010001000000001000000000000000000000000000000000000000000000c000010001000000000000000000000000000000000000000000000000000000a000000000000000001660266020000000000000000000000000000000000000c000002000200000001000000000000000000000000000000000000000000000c000002000200000000000000000000000000000000717b484e0000000000000e000002000000000020000000000000000000000000000000000000000000000c000001000100000001410000000000000000000000000000000000000000000c000001000100000000000000000000000000000000000000000000000000000c000002000200000001040000000000000000000000000000000000000000000c0000020002000000000000000000000000000000000000000000000000000007000000000000000003ac0300000000000000000000000000000000000000000c000002000200000001240000000000000000000000000000000000000000000c000002000200000000000000000000000000000000000000000000000000000e000002000000000000000000000000000000000000000000000000000000000c000004000400000001000000000000000000000000000000000000000000000c000004000400000000000000000000000000000000000000000000000000000c000002000200000001200000000000000000000000000000000000000000000c000002000200000000000000000000000000000000000000000000000000000a00000000000000000188028802000000000000000000000000000000000000020800000004000000000000000000000000000000000000000000000000000004100000000000000000000000000000000000000000000000000000000000000a00000000000000000a88029f02000000000000000000000000000000000000180000040008000000000500000000000000000000000000000000000000000008080002000800000000000000000000000000000000000000000000000000000e080000001000000021000000000000000000000000000000000000000000000e0800100000000000000100000000000000000000000000000000000000000002000004000800000000010000000000000000000000000000000000000000000c000010001000000001010000000000000000000000000000000000000000000c0000100010000000000000000000000000000000000000000000000000000004080004000000000000000000000000000000000000000000000000000000000a000000000000000002850291020000000000000000000000000000000000000c000010001000000001000000000000000000000000000000000000000000000c000010001000000000000000000000000000000000000000000000000000000a000000000000000001850285020000000000000000000000000000000000000c000002000200000001ffffffffffffffffffffffffffffffff0000000000000c000002000200000000ffffffffffffffffffffffff000000000000000000000e000000000400000001020000000000000000000000000000000000000000001a040002000200000002000000000000000000000000000000000000000000000c000004000400000001000000000000000000000000000000000000000000000c000004000400000000000000000000000000000000ffffffff0000000000000e000000000800000021010000000000000000000000000000000000000000001a080004000400000002000000000000000000000000000000000000000000001a040002000200000004000000000000000000000000000000000000000000000e000002000000000000020000000000000000000000000000000000000000000a000000000000000001a902a9020000000000000000000000000000000000000c000002000200000001ffffffffffffffffffffffffffffffff0000000000000c000002000200000000ffffffffffffffffffffffff000000000000000000000e000000000400000001020000000000000000000000000000000000000000001a040002000200000002000000000000000000000000000000000000000000000c000004000400000001000000000000000000000000000000000000000000000c000004000400000000000000000000000000000000ffffffff0000000000000e000000000800000021010000000000000000000000000000000000000000001a080004000400000002000000000000000000000000000000000000000000001a040002000200000004000000000000000000000000000000000000000000000e000002000000000000020000000000000000000000000000000000000000000e0000000000000000e10700000000000000000000000000000000000000000007000000000000000004000000000000000000000000000000000000000000000e0000000000000000e0010000000000000000000000000000000000000000000c000004000400000001fcffffffffffffffffffffffffffffff0000000000000c000004000400000000ffffffffffffffffffffffffffffffff0000000000000e0000020000000000600100000000000000000000000000000000000000000002020004000800000000000000000000000000000000000000000000000000000c000010001000000001a00000000000000000000000000000000000000000000c000010001000000000000000000000000000000000000000000000000000000c000004000400000001000000000000000000000000000000000000000000000c000004000400000000000000000000000000000000000000800000000000000c000002000200000001000000000000000000000000000000000000000000000c0000020002000000000000000000000000000000000000008000000000000004080010000000000000000000000000000000000000000000000000000000000a00000000000000000cba02b8020000000000000000000000000000000000000c000002000200000001000000000000000000000000000000000000000000000c000002000200000000000000000000000000000000000000000000000000001a080004001000000002000000000000000000000000000000000000000000000c000008000800000001000000000000000000000000000000000000000000000c0000080008000000000000000000000000000000000000008000000000000004100000000000000000000000000000000000000000000000000000000000000a000000000000000002c102bf020000000000000000000000000000000000000c000008000800000001000000000000000000000000000000000000000000000c0000080008000000000000000000000000000000000000000000000000000004100004000000000000000000000000000000000000000000000000000000000a000000000000000004c402c302000000000000000000000000000000000000020200000008000000000000000000000000000000000000000000000000000002000001000200000000400000000000000000000000000000000000000000000e0000020000000000600200000000000000000000000000000000000000000004080000000000000000000000000000000000000000000000000000000000000a00000000000000000ac80219030000000000000000000000000000000000000c000001000100000001240000000000000000000000000000000000000000000c0000010001000000000000000000000000000000000000000000000000000007000000000000000003980300000000000000000000000000000000000000000c000002000200000001ffffffffffffffffffffffffffffffff0000000000000c000002000200000000ffffffff00000000000000000000000000000000000004010002000000000000000000000000000000000000000000000000000000000a0000000000000000081903cf020000000000000000000000000000000000000c000004000400000001200000000000000000000000000000000000000000000c000004000400000000000000000000000000000000000000000000000000000e0000000002000000610200000000000000000000000000000000000000000008020004000200000000000000000000000000000000000000000000000000000e020001000000000060010000000000000000000000000000000000000000000c000001000100000001440000000000000000000000000000000000000000000c0000010001000000000000000000000000000000000000000000000000000007000000000000000003980300000000000000000000000000000000000000000c000002000200000001000000000000000000000000000000000000000000000c0000020002000000000000000001000000000000000000000000000000000004010002000000000000000000000000000000000000000000000000000000000a00000000000000000c1903db020000000000000000000000000000000000000e0000000002000000610200000000000000000000000000000000000000000002000002000200000000200000000000000000000000000000000000000000000c000004000400000001200000000000000000000000000000000000000000000c0000040004000000000000000000000000000000000000000000000000000008020004000200000000000000000000000000000000000000000000000000000e020001000000000060010000000000000000000000000000000000000000000c000001000100000001640000000000000000000000000000000000000000000c0000010001000000000000000000000000000000000000000000000000000007000000000000000003980300000000000000000000000000000000000000000c000002000200000001ffffffffffffffff00000000000000000000000000000c0000020002000000000000000000000000000000000000000000000000000004010002000000000000000000000000000000000000000000000000000000000a0000000000000000081903e80200000000000000000000000000000000000002000001000100000000040000000000000000000000000000000000000000000e0000000002000000610100000000000000000000000000000000000000000007000000000000000003190100000000000000000000000000000000000000000a000000000000000002ec02ed020000000000000000000000000000000000000a0000000000000000011e031e030000000000000000000000000000000000000e0000000002000000610200000000000000000000000000000000000000000002000002000200000000400000000000000000000000000000000000000000000c000004000400000001200000000000000000000000000000000000000000000c0000040004000000000000000000000000000000000000000000000000000008020004000200000000000000000000000000000000000000000000000000000e020001000000000060010000000000000000000000000000000000000000000c000001000100000001840000000000000000000000000000000000000000000c0000010001000000000000000000000000000000000000000000000000000007000000000000000003980300000000000000000000000000000000000000000c000002000200000001ffffffffffffffff00000000000000000000000000000c0000020002000000000000000000000000000000000000000000000000000004010002000000000000000000000000000000000000000000000000000000000a0000000000000000081903fa0200000000000000000000000000000000000002000001000100000000040000000000000000000000000000000000000000000e0000000002000000610100000000000000000000000000000000000000000007000000000000000003190100000000000000000000000000000000000000000a000000000000000002fe02ff020000000000000000000000000000000000000a0000000000000000011e031e030000000000000000000000000000000000000e0000000002000000610200000000000000000000000000000000000000000002000002000200000000600000000000000000000000000000000000000000000c000004000400000001200000000000000000000000000000000000000000000c0000040004000000000000000000000000000000000000000000000000000008020004000200000000000000000000000000000000000000000000000000000e020001000000000060010000000000000000000000000000000000000000000c000001000100000001a40000000000000000000000000000000000000000000c0000010001000000000000000000000000000000000000000000000000000007000000000000000003980300000000000000000000000000000000000000000c000002000200000001ffffffffffffffff00000000000000000000000000000c0000020002000000000000000000000000000000000000000000000000000004010002000000000000000000000000000000000000000000000000000000000a00000000000000000819030c0300000000000000000000000000000000000002000001000100000000040000000000000000000000000000000000000000000e0000000002000000610100000000000000000000000000000000000000000007000000000000000003c60100000000000000000000000000000000000000000a000000000000000002100311030000000000000000000000000000000000000a0000000000000000011e031e030000000000000000000000000000000000000c000002000200000001200000000000000000000000000000000000000000000c000002000200000000000000000000000000000000000000000000000000000e0000000004000000610200000000000000000000000000000000000000000008040002000200000000000000000000000000000000000000000000000000000e0200010000000000600500000000000000000000000000000000000000000004000004000100000001400000000000000000000000000000000000000000000e0000000000000000e10100000000000000000000000000000000000000000007000000000000000000000000000000000000000000000000000000000000000c000002000200000001000000000000000000000000000000000000000000000c000002000200000000000000000000000000000000000000000000000000000e000002000000000000000000000000000000000000000000000000000000000e0000000000000000e10100000000000000000000000000000000000000000007000000000000000004000000000000000000000000000000000000000000000e0000000000000000e10100000000000000000000000000000000000000000007000000000000000004000000000000000000000000000000000000000000000e0000000000000000e0030000000000000000000000000000000000000000000c000004000400000001fcffffffffffffffffffffffffffffff0000000000000c000004000400000000ffffffffffffffffffffffffffffffff0000000000000e0000020000000000600300000000000000000000000000000000000000000002020004000800000000000000000000000000000000000000000000000000000c000010001000000001a00000000000000000000000000000000000000000000c000010001000000000000000000000000000000000000000000000000000000c000004000400000001000000000000000000000000000000000000000000000c000004000400000000000000000000000000000000000000800000000000000c000002000200000001000000000000000000000000000000000000000000000c0000020002000000000000000000000000000000000000008000000000000004080010000000000000000000000000000000000000000000000000000000000a00000000000000000c2f032d030000000000000000000000000000000000000c000002000200000001000000000000000000000000000000000000000000000c000002000200000000000000000000000000000000000000000000000000001a080004001000000002000000000000000000000000000000000000000000000c000008000800000001000000000000000000000000000000000000000000000c0000080008000000000000000000000000000000000000008000000000000004100000000000000000000000000000000000000000000000000000000000000a000000000000000002360334030000000000000000000000000000000000000c000008000800000001000000000000000000000000000000000000000000000c0000080008000000000000000000000000000000000000000000000000000004100004000000000000000000000000000000000000000000000000000000000a00000000000000000439033803000000000000000000000000000000000000020200000008000000000000000000000000000000000000000000000000000002000001000200000000800000000000000000000000000000000000000000000e0000020000000000600400000000000000000000000000000000000000000004080000000000000000000000000000000000000000000000000000000000000a00000000000000000a3d037d030000000000000000000000000000000000000c000001000100000001240000000000000000000000000000000000000000000c0000010001000000000000000000000000000000000000000000000000000007000000000000000003980300000000000000000000000000000000000000000c000002000200000001ffffffffffffffffffffffffffffffff0000000000000c000002000200000000ffffffff00000000000000000000000000000000000004010002000000000000000000000000000000000000000000000000000000000a0000000000000000087d0344030000000000000000000000000000000000000c000004000400000001200000000000000000000000000000000000000000000c000004000400000000000000000000000000000000000000000000000000000e0000000002000000610400000000000000000000000000000000000000000008020004000200000000000000000000000000000000000000000000000000000e020001000000000060010000000000000000000000000000000000000000000c000001000100000001440000000000000000000000000000000000000000000c0000010001000000000000000000000000000000000000000000000000000007000000000000000003980300000000000000000000000000000000000000000c000002000200000001000000000000000000000000000000000000000000000c0000020002000000000000000001000000000000000000000000000000000004010002000000000000000000000000000000000000000000000000000000000a00000000000000000c7d0350030000000000000000000000000000000000000e0000000002000000610400000000000000000000000000000000000000000002000002000400000000600000000000000000000000000000000000000000000e0000040000000000600200000000000000000000000000000000000000000002000002000400000000400000000000000000000000000000000000000000000e0000040000000000600100000000000000000000000000000000000000000002000002000200000000200000000000000000000000000000000000000000000c000004000400000001200000000000000000000000000000000000000000000c0000040004000000000000000000000000000000000000000000000000000008020004000200000000000000000000000000000000000000000000000000000e020001000000000060010000000000000000000000000000000000000000000c000001000100000001640000000000000000000000000000000000000000000c0000010001000000000000000000000000000000000000000000000000000007000000000000000003980300000000000000000000000000000000000000000c000002000200000001200000000000000000000000000000000000000000000c000002000200000000000000000000000000000000000000000000000000000e0000000004000000610100000000000000000000000000000000000000000008040002000200000000000000000000000000000000000000000000000000000e020001000000000060010000000000000000000000000000000000000000000c000001000100000001840000000000000000000000000000000000000000000c0000010001000000000000000000000000000000000000000000000000000007000000000000000003980300000000000000000000000000000000000000000e000000000200000061020000000000000000000000000000000000000000000c000004000400000001200000000000000000000000000000000000000000000c0000040004000000000000000000000000000000000000000000000000000008020004000200000000000000000000000000000000000000000000000000000e020001000000000060010000000000000000000000000000000000000000000c000001000100000001a40000000000000000000000000000000000000000000c0000010001000000000000000000000000000000000000000000000000000007000000000000000003980300000000000000000000000000000000000000000c000002000200000001ffffffffffffffff00000000000000000000000000000c0000020002000000000000000000000000000000000000000000000000000004010002000000000000000000000000000000000000000000000000000000000a0000000000000000087d03710300000000000000000000000000000000000002000001000100000000040000000000000000000000000000000000000000000e0000000002000000610300000000000000000000000000000000000000000007000000000000000003c60100000000000000000000000000000000000000000a000000000000000002820375030000000000000000000000000000000000000c000002000200000001200000000000000000000000000000000000000000000c000002000200000000000000000000000000000000000000000000000000000e0000000004000000610400000000000000000000000000000000000000000008040002000200000000000000000000000000000000000000000000000000000e0200010000000000600500000000000000000000000000000000000000000004000004000100000001800000000000000000000000000000000000000000000e0000000000000000e10300000000000000000000000000000000000000000007000000000000000000000000000000000000000000000000000000000000000c000002000200000001000000000000000000000000000000000000000000000c000002000200000000000000000000000000000000000000000000000000000e000002000000000000000000000000000000000000000000000000000000000e0000000000000000e10300000000000000000000000000000000000000000007000000000000000004000000000000000000000000000000000000000000000e0000000000000000e10300000000000000000000000000000000000000000007000000000000000004000000000000000000000000000000000000000000000c000002000200000001e0ffffffffffffffffffffffffffffff0000000000000c000002000200000000ffffffffffffffffffffffffffffffff0000000000001a010002000200000002000000000000000000000000000000000000000000000c000004000400000001200000000000000000000000000000000000000000000c0000040004000000000000000000000000000000000000000000000000000008020004000400000000000000000000000000000000000000000000000000001a0000010002000000021f00000000000000000000000000000000000000000018000002000800000000030000000000000000000000000000000000000000000e0400000002000000210000000000000000000000000000000000000000000004080000000000000000000000000000000000000000000000000000000000000a00000000000000000496038f030000000000000000000000000000000000000c000010001000000001000100000000000000000000000000000000000000000c0000100010000000000000000000000000000000000000000000000000000004100008001000000000000000000000000000000000000000000000000000000e04000000040000002101000000000000000000000000000000000000000000181000040004000000020000000000000000000000000000000000000000000018080002000200000000000000000000000000000000000000000000000000001a04000200020000000400000000000000000000000000000000000000000000020200000001000000000000000000000000000000000000000000000000000007000000000000000000000000000000000000000000000000000000000000000c000002000200000001e0ffffffffffffffffffffffffffffff0000000000000c000002000200000000ffffffffffffffffffffffffffffffff0000000000001a010002000200000002000000000000000000000000000000000000000000000c000004000400000001200000000000000000000000000000000000000000000c0000040004000000000000000000000000000000000000000000000000000008020004000400000000000000000000000000000000000000000000000000001a0000010002000000021f00000000000000000000000000000000000000000018000002000800000000030000000000000000000000000000000000000000000e0400000002000000010000000000000000000000000000000000000000000004080000000000000000000000000000000000000000000000000000000000000a000000000000000004aa03a3030000000000000000000000000000000000000c000010001000000001000100000000000000000000000000000000000000000c0000100010000000000000000000000000000000000000000000000000000004100008001000000000000000000000000000000000000000000000000000000e04000000040000000101000000000000000000000000000000000000000000181000040004000000020000000000000000000000000000000000000000000018080002000200000000000000000000000000000000000000000000000000001a04000200020000000400000000000000000000000000000000000000000000020200000001000000000000000000000000000000000000000000000000000007000000000000000000000000000000000000000000000000000000000000000c000004000400000001e0ffffffffffffffffffffffffffffff0000000000000c000004000400000000ffffffffffffffffffffffffffffffff0000000000001a020004000400000002000000000000000000000000000000000000000000000c000008000800000001200000000000000000000000000000000000000000000c0000080008000000000000000000000000000000000000000000000000000008040008000400000000000000000000000000000000000000000000000000001a0000020002000000021f00000000000000000000000000000000000000000018000002000200000000030000000000000000000000000000000000000000000c000008000800000001000100000000000000000000000000000000000000000c0000080008000000000000000000000000000000000000000000000000000004080002001000000000000000000000000000000000000000000000000000000c000020002000000001ffffffffffffffffffffffffffffffff0000000000000c000020002000000000ffffffffffffffffffffffffffffffff000000000000020100000008000000000000000000000000000000000000000000000000000004020000000000000000000000000000000000000000000000000000000000000a000000000000000004c103bc0300000000000000000000000000000000000018100020000800000000000000000000000000000000000000000000000000000e040000004000000021000000000000000000000000000000000000000000001a4000080008000000020000000000000000000000000000000000000000000018020001004000000002000000000000000000000000000000000000000000001a400008000800000004000000000000000000000000000000000000000000000e0400000040000000210100000000000000000000000000000000000000000004020000000000000000000000000000000000000000000000000000000000000a000000000000000004c803c403000000000000000000000000000000000000181000010010000000000000000000000000000000000000000000000000000018020020000200000002000000000000000000000000000000000000000000001a400002000200000002000000000000000000000000000000000000000000001a100002004000000004000000000000000000000000000000000000000000000e040040000000000020010000000000000000000000000000000000000000000e040008000000000020000000000000000000000000000000000000000000000700000000000000000000000000000000000000000000000000000000000000"
        }
      },
      "factoryDependencies": {},
      "hash": "dfc6128db7e9c03d91eaef70d4b341ccb290c58608b673a0caa775c7c237ca5e"
    }
  }
}