{
  "contracts/zkTribes.sol": {
    "ZKTribes": {
      "abi": [
        {
          "inputs": [],
          "stateMutability": "nonpayable",
          "type": "constructor"
        },
        {
          "anonymous": false,
          "inputs": [
            {
              "indexed": true,
              "internalType": "address",
              "name": "account",
              "type": "address"
            },
            {
              "indexed": true,
              "internalType": "address",
              "name": "operator",
              "type": "address"
            },
            {
              "indexed": false,
              "internalType": "bool",
              "name": "approved",
              "type": "bool"
            }
          ],
          "name": "ApprovalForAll",
          "type": "event"
        },
        {
          "anonymous": false,
          "inputs": [
            {
              "indexed": true,
              "internalType": "address",
              "name": "previousOwner",
              "type": "address"
            },
            {
              "indexed": true,
              "internalType": "address",
              "name": "newOwner",
              "type": "address"
            }
          ],
          "name": "OwnershipTransferred",
          "type": "event"
        },
        {
          "anonymous": false,
          "inputs": [
            {
              "indexed": true,
              "internalType": "address",
              "name": "operator",
              "type": "address"
            },
            {
              "indexed": true,
              "internalType": "address",
              "name": "from",
              "type": "address"
            },
            {
              "indexed": true,
              "internalType": "address",
              "name": "to",
              "type": "address"
            },
            {
              "indexed": false,
              "internalType": "uint256[]",
              "name": "ids",
              "type": "uint256[]"
            },
            {
              "indexed": false,
              "internalType": "uint256[]",
              "name": "values",
              "type": "uint256[]"
            }
          ],
          "name": "TransferBatch",
          "type": "event"
        },
        {
          "anonymous": false,
          "inputs": [
            {
              "indexed": true,
              "internalType": "address",
              "name": "operator",
              "type": "address"
            },
            {
              "indexed": true,
              "internalType": "address",
              "name": "from",
              "type": "address"
            },
            {
              "indexed": true,
              "internalType": "address",
              "name": "to",
              "type": "address"
            },
            {
              "indexed": false,
              "internalType": "uint256",
              "name": "id",
              "type": "uint256"
            },
            {
              "indexed": false,
              "internalType": "uint256",
              "name": "value",
              "type": "uint256"
            }
          ],
          "name": "TransferSingle",
          "type": "event"
        },
        {
          "anonymous": false,
          "inputs": [
            {
              "indexed": false,
              "internalType": "uint256",
              "name": "tokenId",
              "type": "uint256"
            },
            {
              "indexed": false,
              "internalType": "string",
              "name": "tribeName",
              "type": "string"
            }
          ],
          "name": "TribeCreated",
          "type": "event"
        },
        {
          "anonymous": false,
          "inputs": [
            {
              "indexed": false,
              "internalType": "address",
              "name": "tribeMember",
              "type": "address"
            },
            {
              "indexed": false,
              "internalType": "string",
              "name": "tribeName",
              "type": "string"
            }
          ],
          "name": "TribeJoined",
          "type": "event"
        },
        {
          "anonymous": false,
          "inputs": [
            {
              "indexed": false,
              "internalType": "string",
              "name": "value",
              "type": "string"
            },
            {
              "indexed": true,
              "internalType": "uint256",
              "name": "id",
              "type": "uint256"
            }
          ],
          "name": "URI",
          "type": "event"
        },
        {
          "inputs": [
            {
              "internalType": "address",
              "name": "account",
              "type": "address"
            },
            {
              "internalType": "uint256",
              "name": "id",
              "type": "uint256"
            }
          ],
          "name": "balanceOf",
          "outputs": [
            {
              "internalType": "uint256",
              "name": "",
              "type": "uint256"
            }
          ],
          "stateMutability": "view",
          "type": "function"
        },
        {
          "inputs": [
            {
              "internalType": "address[]",
              "name": "accounts",
              "type": "address[]"
            },
            {
              "internalType": "uint256[]",
              "name": "ids",
              "type": "uint256[]"
            }
          ],
          "name": "balanceOfBatch",
          "outputs": [
            {
              "internalType": "uint256[]",
              "name": "",
              "type": "uint256[]"
            }
          ],
          "stateMutability": "view",
          "type": "function"
        },
        {
          "inputs": [
            {
              "internalType": "string",
              "name": "tribeName",
              "type": "string"
            }
          ],
          "name": "createTribe",
          "outputs": [],
          "stateMutability": "nonpayable",
          "type": "function"
        },
        {
          "inputs": [],
          "name": "currentTokenId",
          "outputs": [
            {
              "internalType": "uint256",
              "name": "",
              "type": "uint256"
            }
          ],
          "stateMutability": "view",
          "type": "function"
        },
        {
          "inputs": [
            {
              "internalType": "address",
              "name": "account",
              "type": "address"
            },
            {
              "internalType": "address",
              "name": "operator",
              "type": "address"
            }
          ],
          "name": "isApprovedForAll",
          "outputs": [
            {
              "internalType": "bool",
              "name": "",
              "type": "bool"
            }
          ],
          "stateMutability": "view",
          "type": "function"
        },
        {
          "inputs": [
            {
              "internalType": "string",
              "name": "tribeName",
              "type": "string"
            }
          ],
          "name": "joinTheTribe",
          "outputs": [],
          "stateMutability": "nonpayable",
          "type": "function"
        },
        {
          "inputs": [
            {
              "internalType": "address",
              "name": "",
              "type": "address"
            },
            {
              "internalType": "address",
              "name": "",
              "type": "address"
            },
            {
              "internalType": "uint256[]",
              "name": "",
              "type": "uint256[]"
            },
            {
              "internalType": "uint256[]",
              "name": "",
              "type": "uint256[]"
            },
            {
              "internalType": "bytes",
              "name": "",
              "type": "bytes"
            }
          ],
          "name": "onERC1155BatchReceived",
          "outputs": [
            {
              "internalType": "bytes4",
              "name": "",
              "type": "bytes4"
            }
          ],
          "stateMutability": "nonpayable",
          "type": "function"
        },
        {
          "inputs": [
            {
              "internalType": "address",
              "name": "",
              "type": "address"
            },
            {
              "internalType": "address",
              "name": "",
              "type": "address"
            },
            {
              "internalType": "uint256",
              "name": "",
              "type": "uint256"
            },
            {
              "internalType": "uint256",
              "name": "",
              "type": "uint256"
            },
            {
              "internalType": "bytes",
              "name": "",
              "type": "bytes"
            }
          ],
          "name": "onERC1155Received",
          "outputs": [
            {
              "internalType": "bytes4",
              "name": "",
              "type": "bytes4"
            }
          ],
          "stateMutability": "nonpayable",
          "type": "function"
        },
        {
          "inputs": [],
          "name": "owner",
          "outputs": [
            {
              "internalType": "address",
              "name": "",
              "type": "address"
            }
          ],
          "stateMutability": "view",
          "type": "function"
        },
        {
          "inputs": [],
          "name": "renounceOwnership",
          "outputs": [],
          "stateMutability": "nonpayable",
          "type": "function"
        },
        {
          "inputs": [
            {
              "internalType": "address",
              "name": "from",
              "type": "address"
            },
            {
              "internalType": "address",
              "name": "to",
              "type": "address"
            },
            {
              "internalType": "uint256[]",
              "name": "ids",
              "type": "uint256[]"
            },
            {
              "internalType": "uint256[]",
              "name": "amounts",
              "type": "uint256[]"
            },
            {
              "internalType": "bytes",
              "name": "data",
              "type": "bytes"
            }
          ],
          "name": "safeBatchTransferFrom",
          "outputs": [],
          "stateMutability": "nonpayable",
          "type": "function"
        },
        {
          "inputs": [
            {
              "internalType": "address",
              "name": "from",
              "type": "address"
            },
            {
              "internalType": "address",
              "name": "to",
              "type": "address"
            },
            {
              "internalType": "uint256",
              "name": "id",
              "type": "uint256"
            },
            {
              "internalType": "uint256",
              "name": "amount",
              "type": "uint256"
            },
            {
              "internalType": "bytes",
              "name": "data",
              "type": "bytes"
            }
          ],
          "name": "safeTransferFrom",
          "outputs": [],
          "stateMutability": "nonpayable",
          "type": "function"
        },
        {
          "inputs": [
            {
              "internalType": "address",
              "name": "operator",
              "type": "address"
            },
            {
              "internalType": "bool",
              "name": "approved",
              "type": "bool"
            }
          ],
          "name": "setApprovalForAll",
          "outputs": [],
          "stateMutability": "nonpayable",
          "type": "function"
        },
        {
          "inputs": [
            {
              "internalType": "bytes4",
              "name": "interfaceId",
              "type": "bytes4"
            }
          ],
          "name": "supportsInterface",
          "outputs": [
            {
              "internalType": "bool",
              "name": "",
              "type": "bool"
            }
          ],
          "stateMutability": "view",
          "type": "function"
        },
        {
          "inputs": [
            {
              "internalType": "address",
              "name": "newOwner",
              "type": "address"
            }
          ],
          "name": "transferOwnership",
          "outputs": [],
          "stateMutability": "nonpayable",
          "type": "function"
        },
        {
          "inputs": [
            {
              "internalType": "string",
              "name": "",
              "type": "string"
            }
          ],
          "name": "tribes",
          "outputs": [
            {
              "internalType": "uint256",
              "name": "",
              "type": "uint256"
            }
          ],
          "stateMutability": "view",
          "type": "function"
        },
        {
          "inputs": [
            {
              "internalType": "uint256",
              "name": "",
              "type": "uint256"
            }
          ],
          "name": "uri",
          "outputs": [
            {
              "internalType": "string",
              "name": "",
              "type": "string"
            }
          ],
          "stateMutability": "view",
          "type": "function"
        }
      ],
      "evm": {
        "bytecode": {
          "object": "0c0000040004000000010000000000000000ffffffffffffffff0000000000000c000004000400000000ffffffffffffffffffffffffffffffff0000000000000e000000000200000001000000000000000000000000000000000000000000001a020004000800000002000000000000000000000000000000000000000000000c000010001000000001000000000000000001000000000000000000000000000c000010001000000000000000000000000000000000000000000000000000000c000020002000000001010000000000000000000000000000000000000000000c000020002000000000000000000000000000000000000000000000000000000c000004000400000001010000000000000000000000000000000000000000000c0000040004000000000000000000000000000000000000000000000000000004080010000000000000000000000000000000000000000000000000000000000a0000000000000000040e000c000000000000000000000000000000000000000c000004000400000001000000000000000000000000000000000000000000000c000004000400000000000000000000000000000000000000000000000000000c0000100010000000017c7ee91ae51bb0ed9b9e413333bf74f70000000000000c000010001000000000b75ee1170f6b7c3ce4583c65d82198c400000000000005100000004000000001000000000000000000000000000000000000000000000c000010001000000001010000000000000000000000000000000000000000000c0000100010000000000000000000000000000000000000000000000000000004400000000000000000000000000000000000000000000000000000000000000a000000000000000004170015000000000000000000000000000000000000000c000010001000000001000000000000000000000000000000000000000000000c0000100010000000000000000000000000000000000000000000000000000004400020000000000000000000000000000000000000000000000000000000000a00000000000000000419001f000000000000000000000000000000000000000c000020002000000001000000000000000000000000000000000000000000000c00002000200000000000000000000000000000000083bbcae30000000000000c000080008000000001000000000000000001000000000000000000000000000c0000800080000000000000000000000000000000000000000000000000000004080080000000000000000000000000000000000000000000000000000000000a00000000000000000433001f0000000000000000000000000000000000000004400000000000000000000000000000000000000000000000000000000000000a000000000000000004210027000000000000000000000000000000000000000c000020002000000001000000000000000000000000000000000000000000000c000020002000000000000000000000000000000000c9a6bc8e0000000000000c000008000800000001000000000000000001000000000000000000000000000c0000080008000000000000000000000000000000000000000000000000000004020008000000000000000000000000000000000000000000000000000000000a000000000000000002330027000000000000000000000000000000000000001a100004000200000002000000000000000000000000000000000000000000001a000002000200000002010000000000000000000000000000000000000000000c000004000400000001010000000000000000000000000000000000000000000c0000040004000000000000000000000000000000000000000000000000000004020004000000000000000000000000000000000000000000000000000000000a0000000000000000042d00300000000000000000000000000000000000000007000000000000000003380000000000000000000000000000000000000000000a00000000000000000232002f00000000000000000000000000000000000000070000000000000000000000000000000000000000000000000000000000000007000000000000000003ae0000000000000000000000000000000000000000000a00000000000000000232002f0000000000000000000000000000000000000007000000000000000004000000000000000000000000000000000000000000000c000002000200000001040000000000000000000000000000000000000000000c000002000200000000000000000000000000000000000000000000000000000e000002000000000000000000000000000000000000000000000000000000000e0000200000000000000100000000000000000000000000000000000000000007000000000000000004000000000000000000000000000000000000000000000c000002000200000001a00000000000000000000000000000000000000000000c000002000200000000000000000000000000000000000000000000000000000e000002000000000020020000000000000000000000000000000000000000000c000002000200000001000000000000000000000000000000000000000000000c000002000200000000000000000000000000000000000000000000000000000e000002000000000020040000000000000000000000000000000000000000000c000002000200000001020000000000000000000000000000000000000000000c0000020002000000000000000000000000000000000000000000000000000005020000000200000001000000000000000000000000000000000000000000001a0000020004000000020100000000000000000000000000000000000000000018000002000800000002010000000000000000000000000000000000000000001a0000080002000000027f00000000000000000000000000000000000000000004040000000000000000000000000000000000000000000000000000000000000a0000000000000000044700460000000000000000000000000000000000000002080000000200000000000000000000000000000000000000000000000000000c0000200020000000011f0000000000000000000000000000000000000000000c000020002000000000000000000000000000000000000000000000000000000c000010001000000001010000000000000000000000000000000000000000000c000010001000000000000000000000000000000000000000000000000000000c000008000800000001010000000000000000000000000000000000000000000c0000080008000000000000000000000000000000000000000000000000000004020020000000000000000000000000000000000000000000000000000000000a00000000000000000851004f000000000000000000000000000000000000000c000008000800000001000000000000000000000000000000000000000000000c0000080008000000000000000000000000000000000000000000000000000004040000000000000000000000000000000000000000000000000000000000000a00000000000000000a550053000000000000000000000000000000000000000c000010001000000001000000000000000000000000000000000000000000000c000010001000000000000000000000000000000000000000000000000000001a000010000400000002010000000000000000000000000000000000000000001a0000080008000000020100000000000000000000000000000000000000000004040008000000000000000000000000000000000000000000000000000000000a000000000000000004780059000000000000000000000000000000000000000c000002000200000001000000000000000000000000000000000000000000000c000002000200000000000000000000000000000000717b484e0000000000000e000002000000000020000000000000000000000000000000000000000000000c000001000100000001220000000000000000000000000000000000000000000c000001000100000000000000000000000000000000000000000000000000000c000002000200000001040000000000000000000000000000000000000000000c00000200020000000000000000000000000000000000000000000000000000070000000000000000032b1a00000000000000000000000000000000000000000c000002000200000001240000000000000000000000000000000000000000000c000002000200000000000000000000000000000000000000000000000000000e000002000000000000000000000000000000000000000000000000000000000c000004000400000001000000000000000000000000000000000000000000000c000004000400000000000000000000000000000000000000000000000000000c000002000200000001200000000000000000000000000000000000000000000c000002000200000000000000000000000000000000000000000000000000000a0000000000000000016c006c00000000000000000000000000000000000000020800000004000000000000000000000000000000000000000000000000000004100000000000000000000000000000000000000000000000000000000000000a00000000000000000a6c008100000000000000000000000000000000000000180000040008000000000500000000000000000000000000000000000000000008080002000800000000000000000000000000000000000000000000000000000e080000001000000021000000000000000000000000000000000000000000000e0800100000000000000100000000000000000000000000000000000000000002000004000800000000010000000000000000000000000000000000000000000c000010001000000001010000000000000000000000000000000000000000000c0000100010000000000000000000000000000000000000000000000000000004080004000000000000000000000000000000000000000000000000000000000a000000000000000002690075000000000000000000000000000000000000000c000010001000000001000000000000000000000000000000000000000000000c000010001000000000000000000000000000000000000000000000000000000a00000000000000000169006900000000000000000000000000000000000000020200000001000000000000000000000000000000000000000000000000000007000000000000000003cd0400000000000000000000000000000000000000000a0000000000000000027b0091000000000000000000000000000000000000000c000002000200000001010000000000000000000000000000000000000000000c000002000200000000000000000000000000000000000000000000000000000e000000000400000021ffff000000000000000000000000000000000000000004040002000000000000000000000000000000000000000000000000000000000a000000000000000004a800800000000000000000000000000000000000000007000000000000000004000000000000000000000000000000000000000000000c000002000200000001ffffffffffffffffffffffffffffffff0000000000000c000002000200000000ffffffffffffffffffffffff000000000000000000000e000000000400000001020000000000000000000000000000000000000000001a040002000200000002000000000000000000000000000000000000000000000c000004000400000001000000000000000000000000000000000000000000000c000004000400000000000000000000000000000000ffffffff0000000000000e000000000800000021010000000000000000000000000000000000000000001a080004000400000002000000000000000000000000000000000000000000001a040002000200000004000000000000000000000000000000000000000000000e000002000000000000020000000000000000000000000000000000000000000c000002000200000001010000000000000000000000000000000000000000000c000002000200000000000000000000000000000000000000000000000000000e000000000400000021ffff000000000000000000000000000000000000000004040002000000000000000000000000000000000000000000000000000000000a000000000000000004a800900000000000000000000000000000000000000007000000000000000004000000000000000000000000000000000000000000000c000004000400000001020000000000000000000000000000000000000000000c000004000400000000000000000000000000000000000000000000000000000c000002000200000001000000000000000000000000000000000000000000000c0000020002000000000000000000000000000000000000000000000000000005040002000000000000000000000000000000000000000000000000000000000c000004000400000001ffffffffffffffffffffffffffffffff0000000000000c000004000400000000ffffffff00000000000000000000000000000000000014000000000800000000000000000000000000000000000000000000000000001a080004000800000002000000000000000000000000000000000000000000000c000020002000000001030000000000000000000000000000000000000000000c0000200020000000000000000000000000000000000000000000000000000005200000001000000001000000000000000000000000000000000000000000000c000040004000000001000000000000000000000000000000000000000000000c00004000400000000000000000ffffffffffffffffffffffff0000000000001a100040004000000002000000000000000000000000000000000000000000001a4000080040000000040000000000000000000000000000000000000000000005200040000000000000000000000000000000000000000000000000000000000c000040004000000001e057646b6f18b4e3afdaa322977f49190000000000000c00004000400000000084f2a4d01fcd4413145916539c07e08b0000000000000520004000000000000a000000000000000000000000000000000000000000001a1000040004000000020000000000000000000000000000000000000000000005040008000000000002000000000000000000000000000000000000000000000e000002000000000000000000000000000000000000000000000000000000000c0000020002000000017c7ee91ae51bb0ed9b9e413333bf74f70000000000000c000002000200000000b75ee1170f6b7c3ce4583c65d82198c40000000000000c000004000400000001010000000000000000000000000000000000000000000c00000400040000000000000000000000000000000000000000000000000000050200040000000000000000000000000000000000000000000000000000000007000000000000000000000000000000000000000000000000000000000000000e0000000000000000e0210000000000000000000000000000000000000000000c000002000200000001800000000000000000000000000000000000000000000c000002000200000000000000000000000000000000000000000000000000000e000002000000000020020000000000000000000000000000000000000000000e000000000800000001000000000000000000000000000000000000000000001a000008000400000002fcffffff00000000000000000000000000000000000004040000000000000000000000000000000000000000000000000000000000000a000000000000000004c104b6000000000000000000000000000000000000000c000002000200000001000000000000000000000000000000000000000000000c000002000200000000000000000000000000000000ffffffff0000000000000e000000001000000001010000000000000000000000000000000000000000001a100002002000000002000000000000000000000000000000000000000000000c000010001000000001000000000000000000000000000000000000000000000c0000100010000000000000000000000000000000007b9b9a0000000000000004200010000000000000000000000000000000000000000000000000000000000a000000000000000004be00d7000000000000000000000000000000000000000c000002000200000001040000000000000000000000000000000000000000000c0000020002000000000000000000000000000000000000000000000000000005020000000200000001000000000000000000000000000000000000000000000e000002000000000020040000000000000000000000000000000000000000000c000002000200000001200000000000000000000000000000000000000000000c000002000200000000000000000000000000000000000000000000000000000e000002000000000000000000000000000000000000000000000000000000000c000004000400000001000000000000000000000000000000000000000000000c000004000400000000000000000000000000000000000000000000000000000a000000000000000001cb00cb00000000000000000000000000000000000000020800000004000000000000000000000000000000000000000000000000000004100000000000000000000000000000000000000000000000000000000000000a00000000000000000acb00c904000000000000000000000000000000000000180000040008000000000500000000000000000000000000000000000000000008080002000800000000000000000000000000000000000000000000000000000e080000001000000021040000000000000000000000000000000000000000000e0800100000000000000100000000000000000000000000000000000000000002000004000800000000010000000000000000000000000000000000000000000c000010001000000001010000000000000000000000000000000000000000000c0000100010000000000000000000000000000000000000000000000000000004080004000000000000000000000000000000000000000000000000000000000a000000000000000002c800d4000000000000000000000000000000000000000c000010001000000001000000000000000000000000000000000000000000000c000010001000000000000000000000000000000000000000000000000000000a000000000000000001c800c8000000000000000000000000000000000000001a000008000200000002ffffffff0000000000000000000000000000000000000c000008000800000001000000000000000000000000000000000000000000000c0000080008000000000000000000000000000000008ed5fd0000000000000004200008000000000000000000000000000000000000000000000000000000000a000000000000000004dc000f010000000000000000000000000000000000000c000004000400000001000000000000000000000000000000000000000000000c000004000400000000000000000000000000000000000000000000000000000e000004000000000060220000000000000000000000000000000000000000000e000004000000000060210000000000000000000000000000000000000000000c000000000400000001000400000000000000000000000000000000000000000e00000400000000006006000000000000000000000000000000000000000000020400000001000000000000000000000000000000000000000000000000000007000000000000000003ff0400000000000000000000000000000000000000000a000000000000000002e500e6000000000000000000000000000000000000000a000000000000000001580258020000000000000000000000000000000000000e0000000002000000610600000000000000000000000000000000000000000002000002000200000000200000000000000000000000000000000000000000000c000004000400000001200000000000000000000000000000000000000000000c0000040004000000000000000000000000000000000000000000000000000008020004000200000000000000000000000000000000000000000000000000000e020000000200000061010000000000000000000000000000000000000000000e0000000001000000612100000000000000000000000000000000000000000007000000000000000003010b00000000000000000000000000000000000000000a000000000000000002ef00f0000000000000000000000000000000000000000a000000000000000001580258020000000000000000000000000000000000000e000000000200000021020000000000000000000000000000000000000000000e00000200000000006004000000000000000000000000000000000000000000070000000000000000032b1a00000000000000000000000000000000000000000c000002000200000001200000000000000000000000000000000000000000000c000002000200000000000000000000000000000000000000000000000000000e000002000000000000000000000000000000000000000000000000000000000c000002000200000001000000000000000000000000000000000000000000000c000002000200000000000000000000000000000000000000000000000000000a000000000000000001fb00fb0000000000000000000000000000000000000004040000000000000000000000000000000000000000000000000000000000000a00000000000000000afb00c9040000000000000000000000000000000000000e0000020000000000600600000000000000000000000000000000000000000018000002000400000000050000000000000000000000000000000000000000000e000004000000000060050000000000000000000000000000000000000000000e00000000020000006104000000000000000000000000000000000000000000020200040001000000000000000000000000000000000000000000000000000007000000000000000003031a00000000000000000000000000000000000000000c000002000200000001200000000000000000000000000000000000000000000c000002000200000000000000000000000000000000000000000000000000000e0000000004000000610500000000000000000000000000000000000000000008040002000200000000000000000000000000000000000000000000000000000e020001000000000000010000000000000000000000000000000000000000000e0000000008000000610600000000000000000000000000000000000000000002000008000200000000010000000000000000000000000000000000000000000c000004000400000001010000000000000000000000000000000000000000000c0000040004000000000000000000000000000000000000000000000000000004020008000000000000000000000000000000000000000000000000000000000a000000000000000002f9000c010000000000000000000000000000000000000c000004000400000001000000000000000000000000000000000000000000000c000004000400000000000000000000000000000000000000000000000000000a000000000000000001f900f9000000000000000000000000000000000000000c000008000800000001000000000000000000000000000000000000000000000c000008000800000000000000000000000000000000a7c9ff0100000000000004200008000000000000000000000000000000000000000000000000000000000a00000000000000000413013e01000000000000000000000000000000000000020200000001000000000000000000000000000000000000000000000000000007000000000000000003360500000000000000000000000000000000000000000a000000000000000002160117010000000000000000000000000000000000000a0000000000000000015802580200000000000000000000000000000000000007000000000000000003e31900000000000000000000000000000000000000000c000002000200000001010000000000000000000000000000000000000000000c0000020002000000000000000000000000000000000000000000000000000004010000000000000000000000000000000000000000000000000000000000000a00000000000000000a1e011c010000000000000000000000000000000000000c000002000200000001000000000000000000000000000000000000000000000c000002000200000000000000000000000000000000000000000000000000001a000002000100000002010000000000000000000000000000000000000000000e000000000200000021020000000000000000000000000000000000000000000e00000200000000006004000000000000000000000000000000000000000000070000000000000000032b1a00000000000000000000000000000000000000000c000002000200000001200000000000000000000000000000000000000000000c000002000200000000000000000000000000000000000000000000000000000e000002000000000000000000000000000000000000000000000000000000000c000002000200000001000000000000000000000000000000000000000000000c000002000200000000000000000000000000000000000000000000000000000a0000000000000000012a012a0100000000000000000000000000000000000004040000000000000000000000000000000000000000000000000000000000000a00000000000000000a2a01c9040000000000000000000000000000000000000e0000020000000000600600000000000000000000000000000000000000000018000002000200000000050000000000000000000000000000000000000000000e000002000000000060050000000000000000000000000000000000000000000e00000000040000006104000000000000000000000000000000000000000000020400020001000000000000000000000000000000000000000000000000000007000000000000000003031a00000000000000000000000000000000000000000c000002000200000001200000000000000000000000000000000000000000000c000002000200000000000000000000000000000000000000000000000000000e0000000004000000610500000000000000000000000000000000000000000008040002000200000000000000000000000000000000000000000000000000000e020001000000000000010000000000000000000000000000000000000000000e0000000008000000610600000000000000000000000000000000000000000002000008000200000000010000000000000000000000000000000000000000000c000004000400000001010000000000000000000000000000000000000000000c0000040004000000000000000000000000000000000000000000000000000004020008000000000000000000000000000000000000000000000000000000000a00000000000000000228013b010000000000000000000000000000000000000c000004000400000001000000000000000000000000000000000000000000000c000004000400000000000000000000000000000000000000000000000000000a000000000000000001280128010000000000000000000000000000000000000c000008000800000001000000000000000000000000000000000000000000000c0000080008000000000000000000000000000000001c34890e00000000000004200008000000000000000000000000000000000000000000000000000000000a00000000000000000442014a010000000000000000000000000000000000000c000002000200000001240000000000000000000000000000000000000000000c0000020002000000000000000000000000000000000000000000000000000004040002000000000000000000000000000000000000000000000000000000000a00000000000000000c800146010000000000000000000000000000000000000c000002000200000001000000000000000000000000000000000000000000000c000002000200000000000000000000000000000000000000000000000000000e000002000000000000000000000000000000000000000000000000000000000a000000000000000001580258020000000000000000000000000000000000000c000004000400000001000000000000000000000000000000000000000000000c00000400040000000000000000000000000000000000a7911100000000000004200004000000000000000000000000000000000000000000000000000000000a0000000000000000044e01d7010000000000000000000000000000000000000c000004000400000001240000000000000000000000000000000000000000000c0000040004000000000000000000000000000000000000000000000000000004020004000000000000000000000000000000000000000000000000000000000a00000000000000000c52012c020000000000000000000000000000000000000c000001000100000001240000000000000000000000000000000000000000000c000001000100000000000000000000000000000000000000000000000000000e0000020000000000600500000000000000000000000000000000000000000007000000000000000003171a00000000000000000000000000000000000000000e000000002000000061050000000000000000000000000000000000000000000c000002000200000001000000000000000001000000000000000000000000000c0000020002000000000000000000000000000000000000000000000000000004010002000000000000000000000000000000000000000000000000000000000a00000000000000000c2c025b0100000000000000000000000000000000000002000001000800000000230000000000000000000000000000000000000000000c000004000400000001000000000000000000000000000000000000000000000c000004000400000000000000000000000000000000000000800000000000000c000002000200000001000000000000000000000000000000000000000000000c0000020002000000000000000000000000000000000000008000000000000004080020000000000000000000000000000000000000000000000000000000000a00000000000000000c640162010000000000000000000000000000000000000c000002000200000001000000000000000000000000000000000000000000000c000002000200000000000000000000000000000000000000000000000000001a080004001000000002000000000000000000000000000000000000000000000c000008000800000001000000000000000000000000000000000000000000000c0000080008000000000000000000000000000000000000008000000000000004100000000000000000000000000000000000000000000000000000000000000a0000000000000000026b0169010000000000000000000000000000000000000c000008000800000001000000000000000000000000000000000000000000000c0000080008000000000000000000000000000000000000000000000000000004100004000000000000000000000000000000000000000000000000000000000a0000000000000000046e016d01000000000000000000000000000000000000020200000008000000000000000000000000000000000000000000000000000004080000000000000000000000000000000000000000000000000000000000000a00000000000000000a2c02700100000000000000000000000000000000000002000001000200000000240000000000000000000000000000000000000000000e00000200000000006006000000000000000000000000000000000000000000020200000001000000000000000000000000000000000000000000000000000007000000000000000003171a000000000000000000000000000000000000000002010000000200000000000000000000000000000000000000000000000000000e000000000100000061060000000000000000000000000000000000000000000e00000000040000006105000000000000000000000000000000000000000000070000000000000000035c0500000000000000000000000000000000000000000a00000000000000000279017a010000000000000000000000000000000000000a0000000000000000015802580200000000000000000000000000000000000007000000000000000003ae1600000000000000000000000000000000000000000a00000000000000000258027c010000000000000000000000000000000000000c000002000200000001000000000000000000000000000000000000000000000c000002000200000000000000000000000000000000000000000000000000000e000002000000000000000000000000000000000000000000000000000000000a000000000000000001c904c904000000000000000000000000000000000000070000000000000000034a0a00000000000000000000000000000000000000000a000000000000000002820184010000000000000000000000000000000000000e000001000000000060020000000000000000000000000000000000000000000a000000000000000001580258020000000000000000000000000000000000000e000001000000000060020000000000000000000000000000000000000000000c000001000100000001200000000000000000000000000000000000000000000c000001000100000000000000000000000000000000000000000000000000000e000000000200000021020000000000000000000000000000000000000000000e00000200000000006004000000000000000000000000000000000000000000070000000000000000032b1a00000000000000000000000000000000000000000e0000000001000000610200000000000000000000000000000000000000000007000000000000000003031a00000000000000000000000000000000000000000e000001000000000060030000000000000000000000000000000000000000000e000000000200000061040000000000000000000000000000000000000000000200000200020000000020000000000000000000000000000000000000000000070000000000000000032b1a00000000000000000000000000000000000000000c000004000400000001000000000000000000000000000000000000000000000c000004000400000000000000000000000000000000000000000000000000000e0000000002000000610400000000000000000000000000000000000000000002000002000200000000400000000000000000000000000000000000000000000e000002000000000060010000000000000000000000000000000000000000000e0000000002000000610300000000000000000000000000000000000000000004020000000000000000000000000000000000000000000000000000000000000a000000000000000004b00198010000000000000000000000000000000000000e0000040000000000600500000000000000000000000000000000000000000002000004000800000000200000000000000000000000000000000000000000000e000008000000000060060000000000000000000000000000000000000000000e00000000020000006102000000000000000000000000000000000000000000020800020001000000000000000000000000000000000000000000000000000007000000000000000003031a00000000000000000000000000000000000000000e000000000200000061010000000000000000000000000000000000000000000e000000000400000061050000000000000000000000000000000000000000000204000200020000000000000000000000000000000000000000000000000000070000000000000000032b1a00000000000000000000000000000000000000000e0000000008000000610600000000000000000000000000000000000000000002080000000400000000000000000000000000000000000000000000000000000e0000000002000000610300000000000000000000000000000000000000000004080002000000000000000000000000000000000000000000000000000000000a0000000000000000029801a7010000000000000000000000000000000000000e0000000002000000610300000000000000000000000000000000000000000004080002000000000000000000000000000000000000000000000000000000000a000000000000000006b001aa010000000000000000000000000000000000000e000000000200000061030000000000000000000000000000000000000000000e0000000004000000610100000000000000000000000000000000000000000002020004000200000000000000000000000000000000000000000000000000000c000001000100000001000000000000000000000000000000000000000000000c00000100010000000000000000000000000000000000000000000000000000070000000000000000032b1a00000000000000000000000000000000000000000e00000000020000006103000000000000000000000000000000000000000000020000020002000000005f0000000000000000000000000000000000000000000c000004000400000001e0ffffffffffffffffffffffffffffff0000000000000c000004000400000000ffffffffffffffffffffffffffffffff0000000000001a020004000200000002000000000000000000000000000000000000000000000e000002000000000000000000000000000000000000000000000000000000000e0000020000000000600200000000000000000000000000000000000000000018000002000200000002050000000000000000000000000000000000000000000c000008000800000001000000000000000000000000000000000000000000000c000008000800000000000000000000000000000000000000000000000000000e000000000400000061040000000000000000000000000000000000000000000e0000020000000000600300000000000000000000000000000000000000000004020000000000000000000000000000000000000000000000000000000000000a000000000000000004ce01be010000000000000000000000000000000000000e0000080000000000600600000000000000000000000000000000000000000018000008000400000000050000000000000000000000000000000000000000000e000004000000000060050000000000000000000000000000000000000000000e00000000020000006104000000000000000000000000000000000000000000020200040001000000000000000000000000000000000000000000000000000007000000000000000003031a00000000000000000000000000000000000000000e000000000800000061060000000000000000000000000000000000000000000c000002000200000001200000000000000000000000000000000000000000000c000002000200000000000000000000000000000000000000000000000000000e0000000004000000610500000000000000000000000000000000000000000008040002000200000000000000000000000000000000000000000000000000000e0200010000000000000100000000000000000000000000000000000000000002000008000800000000010000000000000000000000000000000000000000000e0000000002000000610300000000000000000000000000000000000000000004080002000000000000000000000000000000000000000000000000000000000a000000000000000002be01ce010000000000000000000000000000000000000e000000000200000061040000000000000000000000000000000000000000000c000004000400000001000000000000000000000000000000000000000000000c0000040004000000000000000000000000000000000000000000000000000004040000000000000000000000000000000000000000000000000000000000000a00000000000000000ad301c9040000000000000000000000000000000000000e00000000040000006102000000000000000000000000000000000000000000020200040001000000000000000000000000000000000000000000000000000007000000000000000003031a00000000000000000000000000000000000000000a000000000000000001c904c9040000000000000000000000000000000000000c000004000400000001000000000000000000000000000000000000000000000c000004000400000000000000000000000000000000b2b5292300000000000004200004000000000000000000000000000000000000000000000000000000000a000000000000000004db0130020000000000000000000000000000000000000c000004000400000001240000000000000000000000000000000000000000000c0000040004000000000000000000000000000000000000000000000000000004020004000000000000000000000000000000000000000000000000000000000a00000000000000000cdf0155020000000000000000000000000000000000000c000001000100000001240000000000000000000000000000000000000000000c000001000100000000000000000000000000000000000000000000000000000e0000020000000000600500000000000000000000000000000000000000000007000000000000000003171a00000000000000000000000000000000000000000e000000002000000061050000000000000000000000000000000000000000000c000002000200000001000000000000000001000000000000000000000000000c0000020002000000000000000000000000000000000000000000000000000004010002000000000000000000000000000000000000000000000000000000000a00000000000000000c5502e80100000000000000000000000000000000000002000001000800000000230000000000000000000000000000000000000000000c000004000400000001000000000000000000000000000000000000000000000c000004000400000000000000000000000000000000000000800000000000000c000002000200000001000000000000000000000000000000000000000000000c0000020002000000000000000000000000000000000000008000000000000004080020000000000000000000000000000000000000000000000000000000000a00000000000000000cf101ef010000000000000000000000000000000000000c000002000200000001000000000000000000000000000000000000000000000c000002000200000000000000000000000000000000000000000000000000001a080004001000000002000000000000000000000000000000000000000000000c000008000800000001000000000000000000000000000000000000000000000c0000080008000000000000000000000000000000000000008000000000000004100000000000000000000000000000000000000000000000000000000000000a000000000000000002f801f6010000000000000000000000000000000000000c000008000800000001000000000000000000000000000000000000000000000c0000080008000000000000000000000000000000000000000000000000000004100004000000000000000000000000000000000000000000000000000000000a000000000000000004fb01fa01000000000000000000000000000000000000020200000008000000000000000000000000000000000000000000000000000004080000000000000000000000000000000000000000000000000000000000000a00000000000000000a5502fd0100000000000000000000000000000000000002000001000200000000240000000000000000000000000000000000000000000e00000200000000006006000000000000000000000000000000000000000000020200000001000000000000000000000000000000000000000000000000000007000000000000000003171a000000000000000000000000000000000000000002010000000200000000000000000000000000000000000000000000000000000e000000000100000061060000000000000000000000000000000000000000000e00000000040000006105000000000000000000000000000000000000000000070000000000000000035c0500000000000000000000000000000000000000000a000000000000000002060208020000000000000000000000000000000000000e000001000000000060030000000000000000000000000000000000000000000a000000000000000001580258020000000000000000000000000000000000000e000001000000000060030000000000000000000000000000000000000000000e000000000200000021020000000000000000000000000000000000000000000e000002000000000060060000000000000000000000000000000000000000000e0000000001000000610300000000000000000000000000000000000000000007000000000000000003031a00000000000000000000000000000000000000000c000002000200000001000000000000000000000000000000000000000000000c0000020002000000000000000000000000000000000000000000000000000002010000000800000000000000000000000000000000000000000000000000000e0000080000000000600200000000000000000000000000000000000000000004080000000000000000000000000000000000000000000000000000000000000a0000000000000000041d0313020000000000000000000000000000000000000e0000020000000000600400000000000000000000000000000000000000000002000002000400000000200000000000000000000000000000000000000000000e000004000000000060050000000000000000000000000000000000000000000e00000000020000006103000000000000000000000000000000000000000000020400020001000000000000000000000000000000000000000000000000000007000000000000000003031a00000000000000000000000000000000000000000e000000000200000061060000000000000000000000000000000000000000000e000000000400000061040000000000000000000000000000000000000000000204000200020000000000000000000000000000000000000000000000000000070000000000000000032b1a00000000000000000000000000000000000000000e000000001000000061050000000000000000000000000000000000000000000e00000000080000006102000000000000000000000000000000000000000000021000000002000000000000000000000000000000000000000000000000000004100008000000000000000000000000000000000000000000000000000000000a000000000000000002130222020000000000000000000000000000000000000e00000000040000006106000000000000000000000000000000000000000000020800040002000000000000000000000000000000000000000000000000000004100008000000000000000000000000000000000000000000000000000000000a0000000000000000061f0326020000000000000000000000000000000000000c000001000100000001000000000000000000000000000000000000000000000c000001000100000000000000000000000000000000000000000000000000000e00000200000000006005000000000000000000000000000000000000000000070000000000000000032b1a00000000000000000000000000000000000000000e000000000200000061050000000000000000000000000000000000000000000a0000000000000000011f031f030000000000000000000000000000000000000c000002000200000001000000000000000000000000000000000000000000000c000002000200000000000000000000000000000000000000000000000000000e000002000000000000000000000000000000000000000000000000000000000a000000000000000001580258020000000000000000000000000000000000000c000004000400000001000000000000000000000000000000000000000000000c000004000400000000000000000000000000000000d6c2b22e00000000000004200004000000000000000000000000000000000000000000000000000000000a00000000000000000434025f020000000000000000000000000000000000000c000004000400000001000000000000000000000000000000000000000000000c000004000400000000000000000000000000000000000000000000000000000e000004000000000060200000000000000000000000000000000000000000000e0000040000000000601f0000000000000000000000000000000000000000000e0000040000000000601e0000000000000000000000000000000000000000000e0000040000000000601d0000000000000000000000000000000000000000000e0000040000000000601c0000000000000000000000000000000000000000000c000000000400000001600300000000000000000000000000000000000000000e00000400000000006006000000000000000000000000000000000000000000020400000001000000000000000000000000000000000000000000000000000007000000000000000003d00600000000000000000000000000000000000000000a000000000000000002400241020000000000000000000000000000000000000a000000000000000001580258020000000000000000000000000000000000000e000000000800000061060000000000000000000000000000000000000000000200000800020000000060000000000000000000000000000000000000000000020000080004000000004000000000000000000000000000000000000000000002000008000800000000200000000000000000000000000000000000000000000c000010001000000001200000000000000000000000000000000000000000000c000010001000000000000000000000000000000000000000000000000000000808001000200000000000000000000000000000000000000000000000000000080400100004000000000000000000000000000000000000000000000000000008020010000200000000000000000000000000000000000000000000000000000e020000000800000061010000000000000000000000000000000000000000000e040000000400000061010000000000000000000000000000000000000000000e200000000200000061010000000000000000000000000000000000000000000e0000000001000000611c000000000000000000000000000000000000000000070000000000000000036f1000000000000000000000000000000000000000000a000000000000000002500251020000000000000000000000000000000000000a000000000000000001580258020000000000000000000000000000000000000c000002000200000001000000000000000000000000000000000000000000000c000002000200000000000000000000000000000000000000000000000000000e000002000000000000000000000000000000000000000000000000000000000a000000000000000001c904c9040000000000000000000000000000000000000c000002000200000001000000000000000000000000000000000000000000000c000002000200000000000000000000000000000000000000000000000000000e000002000000000000000000000000000000000000000000000000000000000c000002000200000001010000000000000000000000000000000000000000000c000002000200000000000000000000000000000000000000000000000000000e000000000400000021ffff000000000000000000000000000000000000000004040002000000000000000000000000000000000000000000000000000000000a000000000000000004c9045d020000000000000000000000000000000000000e0000000000000000e12100000000000000000000000000000000000000000007000000000000000004000000000000000000000000000000000000000000000c000004000400000001000000000000000000000000000000000000000000000c000004000400000000000000000000000000000000f473124e00000000000004200004000000000000000000000000000000000000000000000000000000000a0000000000000000046302d7020000000000000000000000000000000000000c000004000400000001000000000000000000000000000000000000000000000c000004000400000000000000000000000000000000000000000000000000000e0000040000000000601b0000000000000000000000000000000000000000000e0000040000000000601a0000000000000000000000000000000000000000000c000000000400000001200300000000000000000000000000000000000000000e00000400000000006006000000000000000000000000000000000000000000020400000001000000000000000000000000000000000000000000000000000007000000000000000003660700000000000000000000000000000000000000000a0000000000000000026c026d020000000000000000000000000000000000000a000000000000000001580258020000000000000000000000000000000000000e0000000002000000610600000000000000000000000000000000000000000002000002000200000000200000000000000000000000000000000000000000000c000004000400000001200000000000000000000000000000000000000000000c0000040004000000000000000000000000000000000000000000000000000008020004000200000000000000000000000000000000000000000000000000000e020000000200000061010000000000000000000000000000000000000000000e0000000001000000611a000000000000000000000000000000000000000000070000000000000000032e0c00000000000000000000000000000000000000000a000000000000000002760277020000000000000000000000000000000000000a000000000000000001580258020000000000000000000000000000000000000e000001000000000060050000000000000000000000000000000000000000000c000001000100000001200000000000000000000000000000000000000000000c000001000100000000000000000000000000000000000000000000000000000e000000000200000021020000000000000000000000000000000000000000000e00000200000000006003000000000000000000000000000000000000000000070000000000000000032b1a00000000000000000000000000000000000000000e00000000020000006105000000000000000000000000000000000000000000020200000001000000000000000000000000000000000000000000000000000007000000000000000003031a00000000000000000000000000000000000000000e000001000000000060020000000000000000000000000000000000000000000e000000000200000061030000000000000000000000000000000000000000000200000200020000000020000000000000000000000000000000000000000000070000000000000000032b1a00000000000000000000000000000000000000000c000004000400000001000000000000000000000000000000000000000000000c000004000400000000000000000000000000000000000000000000000000000e0000000002000000610300000000000000000000000000000000000000000002000002000200000000400000000000000000000000000000000000000000000e000002000000000060060000000000000000000000000000000000000000000e0000000002000000610200000000000000000000000000000000000000000004020000000000000000000000000000000000000000000000000000000000000a0000000000000000049d028c020000000000000000000000000000000000000e000004000000000060040000000000000000000000000000000000000000000e0000000002000000610500000000000000000000000000000000000000000002000002000200000000200000000000000000000000000000000000000000000e00000200000000006005000000000000000000000000000000000000000000020200000001000000000000000000000000000000000000000000000000000007000000000000000003031a00000000000000000000000000000000000000000e000000000200000061060000000000000000000000000000000000000000000e00000200000000006006000000000000000000000000000000000000000000070000000000000000032b1a00000000000000000000000000000000000000000e000000000400000061040000000000000000000000000000000000000000000e0000000002000000610600000000000000000000000000000000000000000002000002000200000000200000000000000000000000000000000000000000000e0000020000000000600600000000000000000000000000000000000000000002000004000400000000010000000000000000000000000000000000000000000e0000000002000000610200000000000000000000000000000000000000000004040002000000000000000000000000000000000000000000000000000000000a0000000000000000028c029d020000000000000000000000000000000000000e000000000400000061030000000000000000000000000000000000000000000e0000000002000000610600000000000000000000000000000000000000000004020004000800000000000000000000000000000000000000000000000000000c000010001000000001000000000000000000000000000000000000000000000c000010001000000000000000000000000000000000000000000000000000001a0000080002000000021f0000000000000000000000000000000000000000000e000002000000000060020000000000000000000000000000000000000000000e000008000000000000000000000000000000000000000000000000000000000e0000080000000000600100000000000000000000000000000000000000000018000008000200000002050000000000000000000000000000000000000000000e0000020000000000600400000000000000000000000000000000000000000004020000000000000000000000000000000000000000000000000000000000000a000000000000000004ba02aa020000000000000000000000000000000000000e0000100000000000600600000000000000000000000000000000000000000018000010000200000000050000000000000000000000000000000000000000000e00000200000000006005000000000000000000000000000000000000000000020400020001000000000000000000000000000000000000000000000000000007000000000000000003031a00000000000000000000000000000000000000000e000000001000000061060000000000000000000000000000000000000000000e000000000400000061030000000000000000000000000000000000000000000c000002000200000001200000000000000000000000000000000000000000000c000002000200000000000000000000000000000000000000000000000000000e0000000008000000610500000000000000000000000000000000000000000008080002000200000000000000000000000000000000000000000000000000000e0200010000000000000100000000000000000000000000000000000000000002000010001000000000010000000000000000000000000000000000000000000e0000000002000000610400000000000000000000000000000000000000000004100002000000000000000000000000000000000000000000000000000000000a000000000000000002aa02ba020000000000000000000000000000000000000e0000000002000000610200000000000000000000000000000000000000000004020000000000000000000000000000000000000000000000000000000000000a000000000000000004c904bd020000000000000000000000000000000000000c000002000200000001e0ffffffffffffffffffffffffffffff0000000000000c000002000200000000ffffffffffffffffffffffffffffffff0000000000000e000000000800000061010000000000000000000000000000000000000000001a080002000200000002000000000000000000000000000000000000000000000e00000200000000006006000000000000000000000000000000000000000000020400020001000000000000000000000000000000000000000000000000000007000000000000000003031a00000000000000000000000000000000000000000c000002000200000001200000000000000000000000000000000000000000000c000002000200000000000000000000000000000000000000000000000000000e0000000004000000610600000000000000000000000000000000000000000008040002000200000000000000000000000000000000000000000000000000000e0000000004000000610200000000000000000000000000000000000000000018000004000400000000030000000000000000000000000000000000000000000c000008000800000001ffffffffffffffffffffffffffffffff0000000000000c000008000800000000ffffffffffffffffffffffffffffffff00000000000018040008001000000002000000000000000000000000000000000000000000000e020000002000000001010000000000000000000000000000000000000000001a200010001000000002000000000000000000000000000000000000000000000c000020002000000001000100000000000000000000000000000000000000000c00002000200000000000000000000000000000000000000000000000000000042000040004000000000000000000000000000000000000000000000000000018040008000400000000000000000000000000000000000000000000000000001a010004000400000002000000000000000000000000000000000000000000001a040010000400000004000000000000000000000000000000000000000000000e020004000000000000010000000000000000000000000000000000000000000a000000000000000001c904c9040000000000000000000000000000000000000c000004000400000001000000000000000000000000000000000000000000000c000004000400000000000000000000000000000000a618507100000000000004200004000000000000000000000000000000000000000000000000000000000a000000000000000004db02e10200000000000000000000000000000000000007000000000000000003bd0900000000000000000000000000000000000000000a0000000000000000025802dd020000000000000000000000000000000000000c000002000200000001000000000000000000000000000000000000000000000c000002000200000000000000000000000000000000000000000000000000000e000002000000000000000000000000000000000000000000000000000000000a000000000000000001c904c9040000000000000000000000000000000000000c000004000400000001000000000000000000000000000000000000000000000c0000040004000000000000000000000000000000005bcba58d00000000000004200004000000000000000000000000000000000000000000000000000000000a000000000000000004e50201030000000000000000000000000000000000000c000002000200000001030000000000000000000000000000000000000000000c0000020002000000000000000000000000000000000000000000000000000005020000000200000001000000000000000000000000000000000000000000000c000004000400000001ffffffffffffffffffffffffffffffff0000000000000c000004000400000000ffffffff0000000000000000000000000000000000001a020004000200000002000000000000000000000000000000000000000000000e000002000000000020040000000000000000000000000000000000000000000c000002000200000001200000000000000000000000000000000000000000000c000002000200000000000000000000000000000000000000000000000000000e000002000000000000000000000000000000000000000000000000000000000c000004000400000001000000000000000000000000000000000000000000000c000004000400000000000000000000000000000000000000000000000000000a000000000000000001f502f502000000000000000000000000000000000000020800000004000000000000000000000000000000000000000000000000000004100000000000000000000000000000000000000000000000000000000000000a00000000000000000af502c904000000000000000000000000000000000000180000040008000000000500000000000000000000000000000000000000000008080002000800000000000000000000000000000000000000000000000000000e080000001000000021040000000000000000000000000000000000000000000e0800100000000000000100000000000000000000000000000000000000000002000004000800000000010000000000000000000000000000000000000000000c000010001000000001010000000000000000000000000000000000000000000c0000100010000000000000000000000000000000000000000000000000000004080004000000000000000000000000000000000000000000000000000000000a000000000000000002f202fe020000000000000000000000000000000000000c000010001000000001000000000000000000000000000000000000000000000c000010001000000000000000000000000000000000000000000000000000000a000000000000000001f202f2020000000000000000000000000000000000000c000004000400000001000000000000000000000000000000000000000000000c00000400040000000000000000000000000000000065b42ca200000000000004200004000000000000000000000000000000000000000000000000000000000a000000000000000004050381030000000000000000000000000000000000000c000004000400000001000000000000000000000000000000000000000000000c000004000400000000000000000000000000000000000000000000000000000e000004000000000060190000000000000000000000000000000000000000000e000004000000000060180000000000000000000000000000000000000000000c000000000400000001e00200000000000000000000000000000000000000000e00000400000000006006000000000000000000000000000000000000000000020400000001000000000000000000000000000000000000000000000000000007000000000000000003590800000000000000000000000000000000000000000a0000000000000000020e030f030000000000000000000000000000000000000a000000000000000001580258020000000000000000000000000000000000000e0000000002000000610600000000000000000000000000000000000000000002000002000200000000200000000000000000000000000000000000000000000c000004000400000001200000000000000000000000000000000000000000000c0000040004000000000000000000000000000000000000000000000000000008020004000200000000000000000000000000000000000000000000000000000e020000000200000061010000000000000000000000000000000000000000000e0000000001000000611800000000000000000000000000000000000000000007000000000000000003080d00000000000000000000000000000000000000000a000000000000000002180319030000000000000000000000000000000000000a000000000000000001580258020000000000000000000000000000000000000c000002000200000001000000000000000000000000000000000000000000000c000002000200000000000000000000000000000000000000000000000000000e000002000000000000000000000000000000000000000000000000000000000a000000000000000001c904c9040000000000000000000000000000000000000e0000000004000000610600000000000000000000000000000000000000000002080004000200000000000000000000000000000000000000000000000000000c000001000100000001050000000000000000000000000000000000000000000c00000100010000000000000000000000000000000000000000000000000000070000000000000000032b1a00000000000000000000000000000000000000000c000008000800000001000000000000000000000000000000000000000000000c000008000800000000000000000000000000000000000000000000000000000e0000000002000000610200000000000000000000000000000000000000000002000002000400000000200000000000000000000000000000000000000000001a0000040002000000021f0000000000000000000000000000000000000000000e0000020000000000600200000000000000000000000000000000000000000010000000000000000000000000000000000000000000000000000000000000000e000004000000000040000000000000000000000000000000000000000000000e0000040000000000600100000000000000000000000000000000000000000018000004000200000002050000000000000000000000000000000000000000000e000000000400000061060000000000000000000000000000000000000000000e0000020000000000600300000000000000000000000000000000000000000004020000000000000000000000000000000000000000000000000000000000000a000000000000000004400330030000000000000000000000000000000000000e0000080000000000600500000000000000000000000000000000000000000018000008000400000000050000000000000000000000000000000000000000000e000004000000000060040000000000000000000000000000000000000000000e00000000020000006106000000000000000000000000000000000000000000020200040001000000000000000000000000000000000000000000000000000007000000000000000003031a00000000000000000000000000000000000000000e000000000800000061050000000000000000000000000000000000000000000c000002000200000001200000000000000000000000000000000000000000000c000002000200000000000000000000000000000000000000000000000000000e0000000004000000610400000000000000000000000000000000000000000008040002000200000000000000000000000000000000000000000000000000000e0200010000000000400100000000000000000000000000000000000000000002000008000800000000010000000000000000000000000000000000000000000e0000000002000000610300000000000000000000000000000000000000000004080002000000000000000000000000000000000000000000000000000000000a000000000000000002300340030000000000000000000000000000000000000e000000000400000061060000000000000000000000000000000000000000000e0000000002000000610200000000000000000000000000000000000000000004020000000000000000000000000000000000000000000000000000000000000a0000000000000000045d0344030000000000000000000000000000000000000c000002000200000001e0ffffffffffffffffffffffffffffff0000000000000c000002000200000000ffffffffffffffffffffffffffffffff0000000000000e000000000800000061010000000000000000000000000000000000000000001a080002000200000002000000000000000000000000000000000000000000000e00000200000000006005000000000000000000000000000000000000000000020400020001000000000000000000000000000000000000000000000000000007000000000000000003031a00000000000000000000000000000000000000000c000002000200000001200000000000000000000000000000000000000000000c000002000200000000000000000000000000000000000000000000000000000e0000000004000000610500000000000000000000000000000000000000000008040002000200000000000000000000000000000000000000000000000000000e0000000004000000610200000000000000000000000000000000000000000018000004000400000000030000000000000000000000000000000000000000000c000008000800000001ffffffffffffffffffffffffffffffff0000000000000c000008000800000000ffffffffffffffffffffffffffffffff00000000000018040008001000000002000000000000000000000000000000000000000000000e020000002000000041010000000000000000000000000000000000000000001a200010001000000002000000000000000000000000000000000000000000000c000020002000000001000100000000000000000000000000000000000000000c00002000200000000000000000000000000000000000000000000000000000042000040004000000000000000000000000000000000000000000000000000018040008000400000000000000000000000000000000000000000000000000001a010004000400000002000000000000000000000000000000000000000000001a040010000400000004000000000000000000000000000000000000000000000e020004000000000040010000000000000000000000000000000000000000000c00000100010000000100000000ff03000000000000000000000000000000000c00000100010000000000000000000000000000000000000000000000000000070000000000000000034a1a00000000000000000000000000000000000000000e0000000002000000410100000000000000000000000000000000000000000005020000000100000001000000000000000000000000000000000000000000000e000000000200000021020000000000000000000000000000000000000000000e00000200000000006004000000000000000000000000000000000000000000070000000000000000032b1a00000000000000000000000000000000000000000c000002000200000001200000000000000000000000000000000000000000000c000002000200000000000000000000000000000000000000000000000000000e000002000000000000000000000000000000000000000000000000000000000c000002000200000001000000000000000000000000000000000000000000000c000002000200000000000000000000000000000000000000000000000000000a0000000000000000016d036d0300000000000000000000000000000000000004040000000000000000000000000000000000000000000000000000000000000a00000000000000000a6d03c9040000000000000000000000000000000000000e0000020000000000600600000000000000000000000000000000000000000018000002000400000000050000000000000000000000000000000000000000000e000004000000000060050000000000000000000000000000000000000000000e00000000020000006104000000000000000000000000000000000000000000020200040001000000000000000000000000000000000000000000000000000007000000000000000003031a00000000000000000000000000000000000000000c000002000200000001200000000000000000000000000000000000000000000c000002000200000000000000000000000000000000000000000000000000000e0000000004000000610500000000000000000000000000000000000000000008040002000200000000000000000000000000000000000000000000000000000e020001000000000000010000000000000000000000000000000000000000000e0000000008000000610600000000000000000000000000000000000000000002000008000200000000010000000000000000000000000000000000000000000c000004000400000001010000000000000000000000000000000000000000000c0000040004000000000000000000000000000000000000000000000000000004020008000000000000000000000000000000000000000000000000000000000a0000000000000000026b037e030000000000000000000000000000000000000c000004000400000001000000000000000000000000000000000000000000000c000004000400000000000000000000000000000000000000000000000000000a0000000000000000016b036b030000000000000000000000000000000000000c000004000400000001000000000000000000000000000000000000000000000c000004000400000000000000000000000000000000817c19bc00000000000004200004000000000000000000000000000000000000000000000000000000000a0000000000000000048503b1030000000000000000000000000000000000000c000004000400000001000000000000000000000000000000000000000000000c000004000400000000000000000000000000000000000000000000000000000e000004000000000060170000000000000000000000000000000000000000000e000004000000000060160000000000000000000000000000000000000000000e000004000000000060150000000000000000000000000000000000000000000e000004000000000060140000000000000000000000000000000000000000000e000004000000000060130000000000000000000000000000000000000000000c0000000001000000014002000000000000000000000000000000000000000007000000000000000003d00600000000000000000000000000000000000000000a0000000000000000028f0390030000000000000000000000000000000000000a000000000000000001580258020000000000000000000000000000000000000c000001000100000001000000000000000000000000000000000000000000000c000001000100000000000000000000000000000000817c19bc0000000000000e000000000200000021020000000000000000000000000000000000000000000e00000200000000006004000000000000000000000000000000000000000000070000000000000000032b1a00000000000000000000000000000000000000000c000002000200000001200000000000000000000000000000000000000000000c000002000200000000000000000000000000000000000000000000000000000e000002000000000000000000000000000000000000000000000000000000000c000002000200000001000000000000000000000000000000000000000000000c000002000200000000000000000000000000000000000000000000000000000a0000000000000000019d039d0300000000000000000000000000000000000004040000000000000000000000000000000000000000000000000000000000000a00000000000000000a9d03c9040000000000000000000000000000000000000e0000020000000000600600000000000000000000000000000000000000000018000002000200000000050000000000000000000000000000000000000000000e000002000000000060050000000000000000000000000000000000000000000e00000000040000006104000000000000000000000000000000000000000000020400020001000000000000000000000000000000000000000000000000000007000000000000000003031a00000000000000000000000000000000000000000c000002000200000001200000000000000000000000000000000000000000000c000002000200000000000000000000000000000000000000000000000000000e0000000004000000610500000000000000000000000000000000000000000008040002000200000000000000000000000000000000000000000000000000000e020001000000000000010000000000000000000000000000000000000000000e0000000008000000610600000000000000000000000000000000000000000002000008000200000000010000000000000000000000000000000000000000000c000004000400000001010000000000000000000000000000000000000000000c0000040004000000000000000000000000000000000000000000000000000004020008000000000000000000000000000000000000000000000000000000000a0000000000000000029b03ae030000000000000000000000000000000000000c000004000400000001000000000000000000000000000000000000000000000c000004000400000000000000000000000000000000000000000000000000000a0000000000000000019b039b030000000000000000000000000000000000000c000004000400000001000000000000000000000000000000000000000000000c000004000400000000000000000000000000000000b54400d300000000000004200004000000000000000000000000000000000000000000000000000000000a000000000000000004b503be030000000000000000000000000000000000000c000004000400000001240000000000000000000000000000000000000000000c000004000400000000000000000000000000000000000000000000000000000e0000020000000000600500000000000000000000000000000000000000000004020004000000000000000000000000000000000000000000000000000000000a00000000000000000c3104ba030000000000000000000000000000000000000c000002000200000001000000000000000000000000000000000000000000000c000002000200000000000000000000000000000000000000000000000000000e000002000000000000000000000000000000000000000000000000000000000a000000000000000001580258020000000000000000000000000000000000000c000004000400000001000000000000000000000000000000000000000000000c000004000400000000000000000000000000000000c5e985e900000000000004200004000000000000000000000000000000000000000000000000000000000a000000000000000004c2035e040000000000000000000000000000000000000c000004000400000001000000000000000000000000000000000000000000000c000004000400000000000000000000000000000000000000000000000000000e000004000000000060120000000000000000000000000000000000000000000e000004000000000060110000000000000000000000000000000000000000000c000000000400000001000200000000000000000000000000000000000000000e000004000000000060060000000000000000000000000000000000000000000204000000010000000000000000000000000000000000000000000000000000070000000000000000039a0800000000000000000000000000000000000000000a000000000000000002cb03cc030000000000000000000000000000000000000a000000000000000001580258020000000000000000000000000000000000000e0000000002000000610600000000000000000000000000000000000000000002000002000400000000200000000000000000000000000000000000000000000c000002000200000001ffffffffffffffffffffffffffffffff0000000000000c000002000200000000ffffffff0000000000000000000000000000000000000e000000000800000061110000000000000000000000000000000000000000001a080002000800000002000000000000000000000000000000000000000000000c000002000200000001200000000000000000000000000000000000000000000c0000020002000000000000000000000000000000000000000000000000000008040002000400000000000000000000000000000000000000000000000000000e040000000400000061010000000000000000000000000000000000000000000e000004000000000060060000000000000000000000000000000000000000000e000008000000000020000000000000000000000000000000000000000000000c000004000400000001010000000000000000000000000000000000000000000c000004000400000000000000000000000000000000000000000000000000000e0000040000000000200100000000000000000000000000000000000000000010000000000000000000000000000000000000000000000000000000000000000c000004000400000001400000000000000000000000000000000000000000000c000004000400000000000000000000000000000000000000000000000000000e000004000000000040000000000000000000000000000000000000000000000c000004000400000001020000000000000000000000000000000000000000000c000004000400000000000000000000000000000000000000000000000000000c000020002000000001000000000000000000000000000000000000000000000c00002000200000000000000000000000000000000000000000000000000000180000200008000000000500000000000000000000000000000000000000000008080002000800000000000000000000000000000000000000000000000000000e080000001000000021000000000000000000000000000000000000000000000e08001000000000004001000000000000000000000000000000000000000000020000200020000000000100000000000000000000000000000000000000000004200004000000000000000000000000000000000000000000000000000000000a000000000000000002e303ea030000000000000000000000000000000000000c00000100010000000100000000ff03000000000000000000000000000000000c00000100010000000000000000000000000000000000000000000000000000070000000000000000034a1a00000000000000000000000000000000000000000c000002000200000001ffffffffffffffffffffffffffffffff0000000000000c000002000200000000ffffffff0000000000000000000000000000000000000e000000000400000061060000000000000000000000000000000000000000001a040002000200000002000000000000000000000000000000000000000000000e000000000400000041010000000000000000000000000000000000000000000e000002000000000020000000000000000000000000000000000000000000000e0000040000000000200100000000000000000000000000000000000000000010000000000000000000000000000000000000000000000000000000000000000c000002000200000001400000000000000000000000000000000000000000000c000002000200000000000000000000000000000000000000000000000000000e000002000000000040000000000000000000000000000000000000000000000c000002000200000001000000000000000000000000000000000000000000000c000002000200000000000000000000000000000000000000000000000000000c000004000400000001200000000000000000000000000000000000000000000c000004000400000000000000000000000000000000000000000000000000000c000008000800000001020000000000000000000000000000000000000000000c00000800080000000000000000000000000000000000000000000000000000180000020010000000000500000000000000000000000000000000000000000008100004001000000000000000000000000000000000000000000000000000000e100000002000000021000000000000000000000000000000000000000000000e10002000000000004001000000000000000000000000000000000000000000020000020002000000000100000000000000000000000000000000000000000004020008000000000000000000000000000000000000000000000000000000000a000000000000000002fe0305040000000000000000000000000000000000000c00000100010000000100000000ff03000000000000000000000000000000000c00000100010000000000000000000000000000000000000000000000000000070000000000000000034a1a00000000000000000000000000000000000000000e0000000002000000410100000000000000000000000000000000000000000005020000000200000001000000000000000000000000000000000000000000001a000002000400000002ff0000000000000000000000000000000000000000000c000002000200000001010000000000000000000000000000000000000000000c0000020002000000000000000000000000000000000000000000000000000004040000000000000000000000000000000000000000000000000000000000000a00000000000000000a11040f040000000000000000000000000000000000000c000002000200000001000000000000000000000000000000000000000000000c000002000200000000000000000000000000000000000000000000000000001a000002000100000002010000000000000000000000000000000000000000000e000000000200000021020000000000000000000000000000000000000000000e00000200000000006004000000000000000000000000000000000000000000070000000000000000032b1a00000000000000000000000000000000000000000c000002000200000001200000000000000000000000000000000000000000000c000002000200000000000000000000000000000000000000000000000000000e000002000000000000000000000000000000000000000000000000000000000c000002000200000001000000000000000000000000000000000000000000000c000002000200000000000000000000000000000000000000000000000000000a0000000000000000011d041d0400000000000000000000000000000000000004040000000000000000000000000000000000000000000000000000000000000a00000000000000000a1d04c9040000000000000000000000000000000000000e0000020000000000600600000000000000000000000000000000000000000018000002000200000000050000000000000000000000000000000000000000000e000002000000000060050000000000000000000000000000000000000000000e00000000040000006104000000000000000000000000000000000000000000020400020001000000000000000000000000000000000000000000000000000007000000000000000003031a00000000000000000000000000000000000000000c000002000200000001200000000000000000000000000000000000000000000c000002000200000000000000000000000000000000000000000000000000000e0000000004000000610500000000000000000000000000000000000000000008040002000200000000000000000000000000000000000000000000000000000e020001000000000000010000000000000000000000000000000000000000000e0000000008000000610600000000000000000000000000000000000000000002000008000200000000010000000000000000000000000000000000000000000c000004000400000001010000000000000000000000000000000000000000000c0000040004000000000000000000000000000000000000000000000000000004020008000000000000000000000000000000000000000000000000000000000a0000000000000000021b042e040000000000000000000000000000000000000c000004000400000001000000000000000000000000000000000000000000000c000004000400000000000000000000000000000000000000000000000000000a0000000000000000011b041b040000000000000000000000000000000000000c000001000100000001240000000000000000000000000000000000000000000c0000010001000000000000000000000000000000000000000000000000000007000000000000000003171a00000000000000000000000000000000000000000c000002000200000001000000000000000001000000000000000000000000000c0000020002000000000000000000000000000000000000000000000000000004010002000000000000000000000000000000000000000000000000000000000a00000000000000000cba03380400000000000000000000000000000000000002000001000800000000230000000000000000000000000000000000000000000c000004000400000001000000000000000000000000000000000000000000000c000004000400000000000000000000000000000000000000800000000000000c000002000200000001000000000000000000000000000000000000000000000c000002000200000000000000000000000000000000000000800000000000000e0000000010000000610500000000000000000000000000000000000000000004080010000000000000000000000000000000000000000000000000000000000a00000000000000000c420440040000000000000000000000000000000000000c000002000200000001000000000000000000000000000000000000000000000c000002000200000000000000000000000000000000000000000000000000001a080004001000000002000000000000000000000000000000000000000000000c000008000800000001000000000000000000000000000000000000000000000c0000080008000000000000000000000000000000000000008000000000000004100000000000000000000000000000000000000000000000000000000000000a000000000000000002490447040000000000000000000000000000000000000c000008000800000001000000000000000000000000000000000000000000000c0000080008000000000000000000000000000000000000000000000000000004100004000000000000000000000000000000000000000000000000000000000a0000000000000000044c044b04000000000000000000000000000000000000020200000008000000000000000000000000000000000000000000000000000004080000000000000000000000000000000000000000000000000000000000000a00000000000000000aba034e0400000000000000000000000000000000000002000001000200000000240000000000000000000000000000000000000000000e00000200000000006006000000000000000000000000000000000000000000020200000001000000000000000000000000000000000000000000000000000007000000000000000003171a000000000000000000000000000000000000000002010000000200000000000000000000000000000000000000000000000000000e000000000100000061060000000000000000000000000000000000000000000e00000000040000006105000000000000000000000000000000000000000000070000000000000000035c0500000000000000000000000000000000000000000a000000000000000002570458040000000000000000000000000000000000000a0000000000000000015802580200000000000000000000000000000000000007000000000000000003851300000000000000000000000000000000000000000a00000000000000000258025a040000000000000000000000000000000000000c000002000200000001000000000000000000000000000000000000000000000c000002000200000000000000000000000000000000000000000000000000000e000002000000000000000000000000000000000000000000000000000000000a000000000000000001c904c9040000000000000000000000000000000000000c000004000400000001000000000000000000000000000000000000000000000c000004000400000000000000000000000000000000616e3af200000000000004200004000000000000000000000000000000000000000000000000000000000a00000000000000000462048e040000000000000000000000000000000000000c000004000400000001000000000000000000000000000000000000000000000c000004000400000000000000000000000000000000000000000000000000000e000004000000000060100000000000000000000000000000000000000000000e0000040000000000600f0000000000000000000000000000000000000000000e0000040000000000600e0000000000000000000000000000000000000000000e0000040000000000600d0000000000000000000000000000000000000000000e0000040000000000600c0000000000000000000000000000000000000000000c0000000001000000016001000000000000000000000000000000000000000007000000000000000003d50800000000000000000000000000000000000000000a0000000000000000026c046d040000000000000000000000000000000000000a000000000000000001580258020000000000000000000000000000000000000c000001000100000001000000000000000000000000000000000000000000000c000001000100000000000000000000000000000000616e3af20000000000000e000000000200000021020000000000000000000000000000000000000000000e00000200000000006004000000000000000000000000000000000000000000070000000000000000032b1a00000000000000000000000000000000000000000c000002000200000001200000000000000000000000000000000000000000000c000002000200000000000000000000000000000000000000000000000000000e000002000000000000000000000000000000000000000000000000000000000c000002000200000001000000000000000000000000000000000000000000000c000002000200000000000000000000000000000000000000000000000000000a0000000000000000017a047a0400000000000000000000000000000000000004040000000000000000000000000000000000000000000000000000000000000a00000000000000000a7a04c9040000000000000000000000000000000000000e0000020000000000600600000000000000000000000000000000000000000018000002000200000000050000000000000000000000000000000000000000000e000002000000000060050000000000000000000000000000000000000000000e00000000040000006104000000000000000000000000000000000000000000020400020001000000000000000000000000000000000000000000000000000007000000000000000003031a00000000000000000000000000000000000000000c000002000200000001200000000000000000000000000000000000000000000c000002000200000000000000000000000000000000000000000000000000000e0000000004000000610500000000000000000000000000000000000000000008040002000200000000000000000000000000000000000000000000000000000e020001000000000000010000000000000000000000000000000000000000000e0000000008000000610600000000000000000000000000000000000000000002000008000200000000010000000000000000000000000000000000000000000c000004000400000001010000000000000000000000000000000000000000000c0000040004000000000000000000000000000000000000000000000000000004020008000000000000000000000000000000000000000000000000000000000a00000000000000000278048b040000000000000000000000000000000000000c000004000400000001000000000000000000000000000000000000000000000c000004000400000000000000000000000000000000000000000000000000000a000000000000000001780478040000000000000000000000000000000000000c000004000400000001000000000000000000000000000000000000000000000c0000040004000000000000000000000000000000002a4342f200000000000004200004000000000000000000000000000000000000000000000000000000000a0000000000000000049204b3040000000000000000000000000000000000000c000004000400000001000000000000000000000000000000000000000000000c000004000400000000000000000000000000000000000000000000000000000e0000040000000000600b0000000000000000000000000000000000000000000e0000040000000000600a0000000000000000000000000000000000000000000e000004000000000060090000000000000000000000000000000000000000000e000004000000000060080000000000000000000000000000000000000000000e000004000000000060070000000000000000000000000000000000000000000c000000000400000001c00000000000000000000000000000000000000000000e00000400000000006006000000000000000000000000000000000000000000020400000001000000000000000000000000000000000000000000000000000007000000000000000003d50800000000000000000000000000000000000000000a0000000000000000029e049f040000000000000000000000000000000000000a000000000000000001580258020000000000000000000000000000000000000e000000000800000061060000000000000000000000000000000000000000000200000800020000000060000000000000000000000000000000000000000000020000080004000000004000000000000000000000000000000000000000000002000008000800000000200000000000000000000000000000000000000000000c000010001000000001200000000000000000000000000000000000000000000c000010001000000000000000000000000000000000000000000000000000000808001000200000000000000000000000000000000000000000000000000000080400100004000000000000000000000000000000000000000000000000000008020010000200000000000000000000000000000000000000000000000000000e020000000800000061010000000000000000000000000000000000000000000e040000000400000061010000000000000000000000000000000000000000000e200000000200000061010000000000000000000000000000000000000000000e0000000001000000610700000000000000000000000000000000000000000007000000000000000003bf0d00000000000000000000000000000000000000000a000000000000000002ae04af040000000000000000000000000000000000000a000000000000000001580258020000000000000000000000000000000000000c000002000200000001000000000000000000000000000000000000000000000c000002000200000000000000000000000000000000000000000000000000000e000002000000000000000000000000000000000000000000000000000000000a000000000000000001c904c9040000000000000000000000000000000000000c000004000400000001000000000000000000000000000000000000000000000c0000040004000000000000000000000000000000008be3fdf200000000000004200004000000000000000000000000000000000000000000000000000000000a000000000000000004b704c1040000000000000000000000000000000000000202000000010000000000000000000000000000000000000000000000000000070000000000000000035b0900000000000000000000000000000000000000000a000000000000000002ba04bb040000000000000000000000000000000000000a0000000000000000015802580200000000000000000000000000000000000007000000000000000003e20900000000000000000000000000000000000000000a0000000000000000025802bd040000000000000000000000000000000000000c000002000200000001000000000000000000000000000000000000000000000c000002000200000000000000000000000000000000000000000000000000000e000002000000000000000000000000000000000000000000000000000000000a000000000000000001c904c9040000000000000000000000000000000000000c000002000200000001000000000000000000000000000000000000000000000c000002000200000000000000000000000000000000000000000000000000000e000002000000000000000000000000000000000000000000000000000000000c000002000200000001010000000000000000000000000000000000000000000c000002000200000000000000000000000000000000000000000000000000000e000000000400000021ffff000000000000000000000000000000000000000004040002000000000000000000000000000000000000000000000000000000000a000000000000000004c904cb040000000000000000000000000000000000000e0000000000000000e12100000000000000000000000000000000000000000007000000000000000000000000000000000000000000000000000000000000000e0000000000000000e12100000000000000000000000000000000000000000007000000000000000004000000000000000000000000000000000000000000000e0000000000000000e00000000000000000000000000000000000000000000002010000000400000000000000000000000000000000000000000000000000000c0000020002000000011f0000000000000000000000000000000000000000000c0000020002000000000000000000000000000000000000000000000000000004040002000000000000000000000000000000000000000000000000000000000a000000000000000006fd04d3040000000000000000000000000000000000000e000004000000000060010000000000000000000000000000000000000000000c000002000200000001020000000000000000000000000000000000000000000c000002000200000000000000000000000000000000000000000000000000000e0000020000000000200000000000000000000000000000000000000000000010000000000000000000000000000000000000000000000000000000000000000c000002000200000001200000000000000000000000000000000000000000000c000002000200000000000000000000000000000000000000000000000000000e000002000000000040000000000000000000000000000000000000000000000c000004000400000001000000000000000000000000000000000000000000000c000004000400000000000000000000000000000000000000000000000000000a000000000000000001e104e104000000000000000000000000000000000000020800000004000000000000000000000000000000000000000000000000000004100000000000000000000000000000000000000000000000000000000000000a00000000000000000ae104ed04000000000000000000000000000000000000180000040008000000000500000000000000000000000000000000000000000008080002000800000000000000000000000000000000000000000000000000000e080000001000000021000000000000000000000000000000000000000000000e0800100000000000400100000000000000000000000000000000000000000002000004000800000000010000000000000000000000000000000000000000000c000010001000000001010000000000000000000000000000000000000000000c0000100010000000000000000000000000000000000000000000000000000004080004000000000000000000000000000000000000000000000000000000000a000000000000000002de04ea040000000000000000000000000000000000000c000010001000000001000000000000000000000000000000000000000000000c000010001000000000000000000000000000000000000000000000000000000a000000000000000001de04de040000000000000000000000000000000000000c00000100010000000100000000ff03000000000000000000000000000000000c00000100010000000000000000000000000000000000000000000000000000070000000000000000034a1a00000000000000000000000000000000000000000e00000000020000006101000000000000000000000000000000000000000000020000020002000000001f00000000000000000000000000000000000000000018000002000400000002050000000000000000000000000000000000000000000e00000000020000004101000000000000000000000000000000000000000000020200040004000000000000000000000000000000000000000000000000000004020004000000000000000000000000000000000000000000000000000000000a000000000000000002f704fd040000000000000000000000000000000000000c000008000800000001000000000000000000000000000000000000000000000c000008000800000000000000000000000000000000000000000000000000000502000800000000000000000000000000000000000000000000000000000000020000020002000000000100000000000000000000000000000000000000000004020004000000000000000000000000000000000000000000000000000000000a000000000000000002f704fd040000000000000000000000000000000000000e0000000000000000e10000000000000000000000000000000000000000000007000000000000000000000000000000000000000000000000000000000000000e0000000000000000e0010000000000000000000000000000000000000000000c000004000400000001fcffffffffffffffffffffffffffffff0000000000000c000004000400000000ffffffffffffffffffffffffffffffff00000000000002020004000800000000000000000000000000000000000000000000000000000c000010001000000001400000000000000000000000000000000000000000000c000010001000000000000000000000000000000000000000000000000000000c000004000400000001000000000000000000000000000000000000000000000c000004000400000000000000000000000000000000000000800000000000000c000002000200000001000000000000000000000000000000000000000000000c0000020002000000000000000000000000000000000000008000000000000004080010000000000000000000000000000000000000000000000000000000000a00000000000000000c0d050b050000000000000000000000000000000000000c000002000200000001000000000000000000000000000000000000000000000c000002000200000000000000000000000000000000000000000000000000001a080004001000000002000000000000000000000000000000000000000000000c000008000800000001000000000000000000000000000000000000000000000c0000080008000000000000000000000000000000000000008000000000000004100000000000000000000000000000000000000000000000000000000000000a000000000000000002140512050000000000000000000000000000000000000c000008000800000001000000000000000000000000000000000000000000000c0000080008000000000000000000000000000000000000000000000000000004100004000000000000000000000000000000000000000000000000000000000a00000000000000000417051605000000000000000000000000000000000000020200000008000000000000000000000000000000000000000000000000000002000001000200000000400000000000000000000000000000000000000000000e0000020000000000600200000000000000000000000000000000000000000004080000000000000000000000000000000000000000000000000000000000000a00000000000000000a1b0531050000000000000000000000000000000000000c000001000100000001240000000000000000000000000000000000000000000c0000010001000000000000000000000000000000000000000000000000000007000000000000000003171a00000000000000000000000000000000000000000c000002000200000001ffffffffffffffffffffffffffffffff0000000000000c000002000200000000ffffffff00000000000000000000000000000000000004010002000000000000000000000000000000000000000000000000000000000a000000000000000008310522050000000000000000000000000000000000000c000002000200000001200000000000000000000000000000000000000000000c000002000200000000000000000000000000000000000000000000000000000e0000000004000000610200000000000000000000000000000000000000000008040002000200000000000000000000000000000000000000000000000000000e000002000000000060010000000000000000000000000000000000000000000e020001000000000060010000000000000000000000000000000000000000000c000001000100000001440000000000000000000000000000000000000000000c0000010001000000000000000000000000000000000000000000000000000007000000000000000003171a00000000000000000000000000000000000000000e000000000200000061010000000000000000000000000000000000000000000e020001000000000060020000000000000000000000000000000000000000000e0000000002000000610200000000000000000000000000000000000000000004000002000100000001400000000000000000000000000000000000000000000e0000000000000000e10100000000000000000000000000000000000000000007000000000000000000000000000000000000000000000000000000000000000c000002000200000001000000000000000000000000000000000000000000000c000002000200000000000000000000000000000000000000000000000000000e000002000000000000000000000000000000000000000000000000000000000e0000000000000000e10100000000000000000000000000000000000000000007000000000000000004000000000000000000000000000000000000000000000c000002000200000001fcffffffffffffffffffffffffffffff0000000000000c000002000200000000ffffffffffffffffffffffffffffffff00000000000002010002000800000000000000000000000000000000000000000000000000000c000010001000000001200000000000000000000000000000000000000000000c000010001000000000000000000000000000000000000000000000000000000c000004000400000001000000000000000000000000000000000000000000000c000004000400000000000000000000000000000000000000800000000000000c000002000200000001000000000000000000000000000000000000000000000c0000020002000000000000000000000000000000000000008000000000000004080010000000000000000000000000000000000000000000000000000000000a00000000000000000c430541050000000000000000000000000000000000000c000002000200000001000000000000000000000000000000000000000000000c000002000200000000000000000000000000000000000000000000000000001a080004001000000002000000000000000000000000000000000000000000000c000008000800000001000000000000000000000000000000000000000000000c0000080008000000000000000000000000000000000000008000000000000004100000000000000000000000000000000000000000000000000000000000000a0000000000000000024a0548050000000000000000000000000000000000000c000008000800000001000000000000000000000000000000000000000000000c0000080008000000000000000000000000000000000000000000000000000004100004000000000000000000000000000000000000000000000000000000000a0000000000000000044d054c05000000000000000000000000000000000000020200000008000000000000000000000000000000000000000000000000000004080000000000000000000000000000000000000000000000000000000000000a00000000000000000a4f0558050000000000000000000000000000000000000c000001000100000001240000000000000000000000000000000000000000000c0000010001000000000000000000000000000000000000000000000000000007000000000000000003171a00000000000000000000000000000000000000000c000002000200000001000000000000000000000000000000000000000000000c000002000200000000000000000000000000000000ffffffff0000000000001a0100020002000000020000000000000000000000000000000000000000000004010002000000000000000000000000000000000000000000000000000000000a0000000000000000045705580500000000000000000000000000000000000007000000000000000000000000000000000000000000000000000000000000000c000002000200000001000000000000000000000000000000000000000000000c000002000200000000000000000000000000000000000000000000000000000e0000020000000000000000000000000000000000000000000000000000000007000000000000000004000000000000000000000000000000000000000000000e0000000000000000e007000000000000000000000000000000000000000000020200000010000000000000000000000000000000000000000000000000000002010000000800000000000000000000000000000000000000000000000000000c000002000200000001ffffffffffffffff00000000000000000000000000000c0000020002000000000000000000000000000000000000000000000000000004100002000000000000000000000000000000000000000000000000000000000a000000000000000008c90563050000000000000000000000000000000000000e000004000000000060070000000000000000000000000000000000000000000e00000800000000006008000000000000000000000000000000000000000000020000100002000000003f0000000000000000000000000000000000000000000c000004000400000001e0ffffffffffffffffffffffffffffff0000000000000c000004000400000000ffffffffffffffffffffffffffffffff0000000000001a020004000400000002000000000000000000000000000000000000000000000e0000000002000000210200000000000000000000000000000000000000000002020004002000000000000000000000000000000000000000000000000000000c000004000400000001010000000000000000000000000000000000000000000c0000040004000000000000000000000000000000000000000000000000000004200002000000000000000000000000000000000000000000000000000000000a00000000000000000271056f050000000000000000000000000000000000000c000004000400000001000000000000000000000000000000000000000000000c000004000400000000000000000000000000000000000000000000000000000c000008000800000001ffffffffffffffff00000000000000000000000000000c0000080008000000000000000000000000000000000000000000000000000004200008000000000000000000000000000000000000000000000000000000000a000000000000000008e805750500000000000000000000000000000000000004040000000000000000000000000000000000000000000000000000000000000a00000000000000000ae80577050000000000000000000000000000000000000e0000200000000000200200000000000000000000000000000000000000000002100000000100000000000000000000000000000000000000000000000000000e000010000000000060030000000000000000000000000000000000000000000e00000200000000006002000000000000000000000000000000000000000000070000000000000000032b1a00000000000000000000000000000000000000000e000000000400000061030000000000000000000000000000000000000000000e0000000008000000610800000000000000000000000000000000000000000002040008000200000000000000000000000000000000000000000000000000000e0000000010000000610700000000000000000000000000000000000000000004020010000000000000000000000000000000000000000000000000000000000a000000000000000006820507060000000000000000000000000000000000000c000010001000000001000000000000000000000000000000000000000000000c000010001000000000000000000000000000000000000000000000000000001a0000040002000000021f0000000000000000000000000000000000000000000e0000020000000000600100000000000000000000000000000000000000000002000008000800000000200000000000000000000000000000000000000000000e0000000002000000610200000000000000000000000000000000000000000002000002000200000000200000000000000000000000000000000000000000000e0000020000000000600600000000000000000000000000000000000000000018000004000200000002050000000000000000000000000000000000000000000e000002000000000060040000000000000000000000000000000000000000000e0000080000000000600500000000000000000000000000000000000000000004020000000000000000000000000000000000000000000000000000000000000a0000000000000000049e058f050000000000000000000000000000000000000e0000100000000000600800000000000000000000000000000000000000000018000010000200000000050000000000000000000000000000000000000000000e00000200000000006007000000000000000000000000000000000000000000020800020001000000000000000000000000000000000000000000000000000007000000000000000003171a00000000000000000000000000000000000000000e000000000200000061060000000000000000000000000000000000000000000e000000000400000061070000000000000000000000000000000000000000000202000400020000000000000000000000000000000000000000000000000000070000000000000000032b1a00000000000000000000000000000000000000000e000000001000000061080000000000000000000000000000000000000000000e0000000008000000610500000000000000000000000000000000000000000002000010001000000000010000000000000000000000000000000000000000000e0000000002000000610400000000000000000000000000000000000000000004100002000000000000000000000000000000000000000000000000000000000a0000000000000000028f059e050000000000000000000000000000000000000e000000000400000061030000000000000000000000000000000000000000000e0000000002000000610100000000000000000000000000000000000000000004020000000000000000000000000000000000000000000000000000000000000a000000000000000004c105a2050000000000000000000000000000000000000c000002000200000001e0ffffffffffffffffffffffffffffff0000000000000c000002000200000000ffffffffffffffffffffffffffffffff0000000000001a040002000200000002000000000000000000000000000000000000000000000e00000200000000006008000000000000000000000000000000000000000000020800020001000000000000000000000000000000000000000000000000000007000000000000000003171a00000000000000000000000000000000000000000e0000000002000000610100000000000000000000000000000000000000000018000002000200000000030000000000000000000000000000000000000000000c000004000400000001000100000000000000000000000000000000000000000c0000040004000000000000000000000000000000000000000000000000000004040002000400000000000000000000000000000000000000000000000000000c000008000800000001ffffffffffffffffffffffffffffffff0000000000000c000008000800000000ffffffffffffffffffffffffffffffff00000000000018040008000400000000000000000000000000000000000000000000000000001a010004000400000002000000000000000000000000000000000000000000000e0000040000000000600700000000000000000000000000000000000000000018020008000200000002000000000000000000000000000000000000000000000e000002000000000060050000000000000000000000000000000000000000000e000000000200000061060000000000000000000000000000000000000000000e0000000004000000610800000000000000000000000000000000000000000002020004000200000000000000000000000000000000000000000000000000000e00000200000000006008000000000000000000000000000000000000000000020200000001000000000000000000000000000000000000000000000000000007000000000000000003031a00000000000000000000000000000000000000000e000000000200000061050000000000000000000000000000000000000000001a010002000200000002000000000000000000000000000000000000000000000e000000000400000061070000000000000000000000000000000000000000001a040002000100000004000000000000000000000000000000000000000000000e00000000020000006108000000000000000000000000000000000000000000070000000000000000032b1a00000000000000000000000000000000000000000e000000000400000061030000000000000000000000000000000000000000000e0000000002000000610600000000000000000000000000000000000000000002020004000200000000000000000000000000000000000000000000000000000c000001000100000001000000000000000000000000000000000000000000000c00000100010000000000000000000000000000000000000000000000000000070000000000000000032b1a00000000000000000000000000000000000000000e000000000100000061020000000000000000000000000000000000000000000e0000000000000000e10700000000000000000000000000000000000000000007000000000000000000000000000000000000000000000000000000000000000c000002000200000001000000000000000000000000000000000000000000000c000002000200000000000000000000000000000000717b484e0000000000000e000002000000000020000000000000000000000000000000000000000000000c000001000100000001410000000000000000000000000000000000000000000c000001000100000000000000000000000000000000000000000000000000000c000002000200000001040000000000000000000000000000000000000000000c00000200020000000000000000000000000000000000000000000000000000070000000000000000032b1a00000000000000000000000000000000000000000c000002000200000001240000000000000000000000000000000000000000000c000002000200000000000000000000000000000000000000000000000000000e000002000000000000000000000000000000000000000000000000000000000c000004000400000001000000000000000000000000000000000000000000000c000004000400000000000000000000000000000000000000000000000000000c000002000200000001200000000000000000000000000000000000000000000c000002000200000000000000000000000000000000000000000000000000000a000000000000000001dc05dc05000000000000000000000000000000000000020800000004000000000000000000000000000000000000000000000000000004100000000000000000000000000000000000000000000000000000000000000a00000000000000000adc050c06000000000000000000000000000000000000180000040008000000000500000000000000000000000000000000000000000008080002000800000000000000000000000000000000000000000000000000000e080000001000000021000000000000000000000000000000000000000000000e0800100000000000000100000000000000000000000000000000000000000002000004000800000000010000000000000000000000000000000000000000000c000010001000000001010000000000000000000000000000000000000000000c0000100010000000000000000000000000000000000000000000000000000004080004000000000000000000000000000000000000000000000000000000000a000000000000000002d905e5050000000000000000000000000000000000000c000010001000000001000000000000000000000000000000000000000000000c000010001000000000000000000000000000000000000000000000000000000a000000000000000001d905d9050000000000000000000000000000000000000c000002000200000001000000000000000000000000000000000000000000000c000002000200000000000000000000000000000000717b484e0000000000000e000002000000000020000000000000000000000000000000000000000000000c000001000100000001410000000000000000000000000000000000000000000c000001000100000000000000000000000000000000000000000000000000000c000002000200000001040000000000000000000000000000000000000000000c00000200020000000000000000000000000000000000000000000000000000070000000000000000032b1a00000000000000000000000000000000000000000c000002000200000001240000000000000000000000000000000000000000000c000002000200000000000000000000000000000000000000000000000000000e000002000000000000000000000000000000000000000000000000000000000c000004000400000001000000000000000000000000000000000000000000000c000004000400000000000000000000000000000000000000000000000000000c000002000200000001200000000000000000000000000000000000000000000c000002000200000000000000000000000000000000000000000000000000000a000000000000000001fb05fb05000000000000000000000000000000000000020800000004000000000000000000000000000000000000000000000000000004100000000000000000000000000000000000000000000000000000000000000a00000000000000000afb051706000000000000000000000000000000000000180000040008000000000500000000000000000000000000000000000000000008080002000800000000000000000000000000000000000000000000000000000e080000001000000021000000000000000000000000000000000000000000000e0800100000000000000100000000000000000000000000000000000000000002000004000800000000010000000000000000000000000000000000000000000c000010001000000001010000000000000000000000000000000000000000000c0000100010000000000000000000000000000000000000000000000000000004080004000000000000000000000000000000000000000000000000000000000a000000000000000002f80504060000000000000000000000000000000000000c000010001000000001000000000000000000000000000000000000000000000c000010001000000000000000000000000000000000000000000000000000000a000000000000000001f805f8050000000000000000000000000000000000000c000002000200000001000000000000000000000000000000000000000000000c000002000200000000000000000000000000000000000000000000000000000e000002000000000000000000000000000000000000000000000000000000000e0000000000000000e10700000000000000000000000000000000000000000007000000000000000004000000000000000000000000000000000000000000000c000002000200000001ffffffffffffffffffffffffffffffff0000000000000c000002000200000000ffffffffffffffffffffffff000000000000000000000e000000000400000001020000000000000000000000000000000000000000001a040002000200000002000000000000000000000000000000000000000000000c000004000400000001000000000000000000000000000000000000000000000c000004000400000000000000000000000000000000ffffffff0000000000000e000000000800000021010000000000000000000000000000000000000000001a080004000400000002000000000000000000000000000000000000000000001a040002000200000004000000000000000000000000000000000000000000000e000002000000000000020000000000000000000000000000000000000000000a000000000000000001210621060000000000000000000000000000000000000c000002000200000001ffffffffffffffffffffffffffffffff0000000000000c000002000200000000ffffffffffffffffffffffff000000000000000000000e000000000400000001020000000000000000000000000000000000000000001a040002000200000002000000000000000000000000000000000000000000000c000004000400000001000000000000000000000000000000000000000000000c000004000400000000000000000000000000000000ffffffff0000000000000e000000000800000021010000000000000000000000000000000000000000001a080004000400000002000000000000000000000000000000000000000000001a040002000200000004000000000000000000000000000000000000000000000e000002000000000000020000000000000000000000000000000000000000000e0000000000000000e10700000000000000000000000000000000000000000007000000000000000004000000000000000000000000000000000000000000000e0000000000000000e003000000000000000000000000000000000000000000020000010008000000001f0000000000000000000000000000000000000000000c000004000400000001000000000000000000000000000000000000000000000c000004000400000000000000000000000000000000000000800000000000000c000040004000000001000000000000000000000000000000000000000000000c0000400040000000000000000000000000000000000000008000000000000004080002000000000000000000000000000000000000000000000000000000000a0000000000000000022d062b060000000000000000000000000000000000000c000040004000000001000000000000000000000000000000000000000000000c000040004000000000000000000000000000000000000000000000000000000e000002000000000060030000000000000000000000000000000000000000001a020004001000000002000000000000000000000000000000000000000000001a080004002000000002000000000000000000000000000000000000000000000c000008000800000001000000000000000000000000000000000000000000000c0000080008000000000000000000000000000000000000008000000000000004200010000000000000000000000000000000000000000000000000000000000a000000000000000008360634060000000000000000000000000000000000000c000008000800000001000000000000000000000000000000000000000000000c000008000800000000000000000000000000000000000000000000000000001a2000100010000000080000000000000000000000000000000000000000000004100004000000000000000000000000000000000000000000000000000000000a0000000000000000043a063906000000000000000000000000000000000000024000000008000000000000000000000000000000000000000000000000000004080000000000000000000000000000000000000000000000000000000000000a00000000000000000a3c06760600000000000000000000000000000000000002000001000200000000200000000000000000000000000000000000000000000e00000200000000006004000000000000000000000000000000000000000000020200000001000000000000000000000000000000000000000000000000000007000000000000000003171a00000000000000000000000000000000000000000c000002000200000001ffffffffffffffff00000000000000000000000000000c0000020002000000000000000000000000000000000000000000000000000004010002000000000000000000000000000000000000000000000000000000000a0000000000000000087b06440600000000000000000000000000000000000018000001000200000000050000000000000000000000000000000000000000000e00000200000000006002000000000000000000000000000000000000000000020000020002000000003f0000000000000000000000000000000000000000000c000004000400000001e0ffffffffffffffffffffffffffffff0000000000000c000004000400000000ffffffffffffffffffffffffffffffff0000000000001a020004000400000002000000000000000000000000000000000000000000000e0000000002000000210200000000000000000000000000000000000000000002020004001000000000000000000000000000000000000000000000000000000c000004000400000001010000000000000000000000000000000000000000000c0000040004000000000000000000000000000000000000000000000000000004100002000000000000000000000000000000000000000000000000000000000a000000000000000002520650060000000000000000000000000000000000000c000004000400000001000000000000000000000000000000000000000000000c000004000400000000000000000000000000000000000000000000000000000c000008000800000001ffffffffffffffff00000000000000000000000000000c0000080008000000000000000000000000000000000000000000000000000004100008000000000000000000000000000000000000000000000000000000000a0000000000000000089a06560600000000000000000000000000000000000004040000000000000000000000000000000000000000000000000000000000000a00000000000000000a9a0658060000000000000000000000000000000000000e000010000000000020020000000000000000000000000000000000000000000e00000200000000006001000000000000000000000000000000000000000000070000000000000000032b1a00000000000000000000000000000000000000000e000000000400000061040000000000000000000000000000000000000000000e0000000002000000610200000000000000000000000000000000000000000002040002000800000000000000000000000000000000000000000000000000000e000000000200000061030000000000000000000000000000000000000000000e0000080000000000600200000000000000000000000000000000000000000004080002000000000000000000000000000000000000000000000000000000000a000000000000000008760662060000000000000000000000000000000000000e000000000200000061010000000000000000000000000000000000000000000e000002000000000060030000000000000000000000000000000000000000000e0000000002000000610200000000000000000000000000000000000000000004040002000000000000000000000000000000000000000000000000000000000a00000000000000000c7306670600000000000000000000000000000000000002000004000400000000200000000000000000000000000000000000000000000e00000400000000006004000000000000000000000000000000000000000000020400000001000000000000000000000000000000000000000000000000000007000000000000000003171a00000000000000000000000000000000000000000e0000000002000000610300000000000000000000000000000000000000000002000002000200000000200000000000000000000000000000000000000000000e00000200000000006003000000000000000000000000000000000000000000070000000000000000032b1a00000000000000000000000000000000000000000e000000000400000061040000000000000000000000000000000000000000000e0000000002000000610200000000000000000000000000000000000000000004040002000000000000000000000000000000000000000000000000000000000a000000000000000002670673060000000000000000000000000000000000000e000000000100000061010000000000000000000000000000000000000000000e0000000000000000e10300000000000000000000000000000000000000000007000000000000000000000000000000000000000000000000000000000000000c000002000200000001000000000000000000000000000000000000000000000c000002000200000000000000000000000000000000000000000000000000000e000002000000000000000000000000000000000000000000000000000000000e0000000000000000e10300000000000000000000000000000000000000000007000000000000000004000000000000000000000000000000000000000000000c000002000200000001000000000000000000000000000000000000000000000c000002000200000000000000000000000000000000717b484e0000000000000e000002000000000020000000000000000000000000000000000000000000000c000001000100000001410000000000000000000000000000000000000000000c000001000100000000000000000000000000000000000000000000000000000c000002000200000001040000000000000000000000000000000000000000000c00000200020000000000000000000000000000000000000000000000000000070000000000000000032b1a00000000000000000000000000000000000000000c000002000200000001240000000000000000000000000000000000000000000c000002000200000000000000000000000000000000000000000000000000000e000002000000000000000000000000000000000000000000000000000000000c000004000400000001000000000000000000000000000000000000000000000c000004000400000000000000000000000000000000000000000000000000000c000002000200000001200000000000000000000000000000000000000000000c000002000200000000000000000000000000000000000000000000000000000a0000000000000000018e068e06000000000000000000000000000000000000020800000004000000000000000000000000000000000000000000000000000004100000000000000000000000000000000000000000000000000000000000000a00000000000000000a8e06b906000000000000000000000000000000000000180000040008000000000500000000000000000000000000000000000000000008080002000800000000000000000000000000000000000000000000000000000e080000001000000021000000000000000000000000000000000000000000000e0800100000000000000100000000000000000000000000000000000000000002000004000800000000010000000000000000000000000000000000000000000c000010001000000001010000000000000000000000000000000000000000000c0000100010000000000000000000000000000000000000000000000000000004080004000000000000000000000000000000000000000000000000000000000a0000000000000000028b0697060000000000000000000000000000000000000c000010001000000001000000000000000000000000000000000000000000000c000010001000000000000000000000000000000000000000000000000000000a0000000000000000018b068b060000000000000000000000000000000000000c000002000200000001000000000000000000000000000000000000000000000c000002000200000000000000000000000000000000717b484e0000000000000e000002000000000020000000000000000000000000000000000000000000000c000001000100000001410000000000000000000000000000000000000000000c000001000100000000000000000000000000000000000000000000000000000c000002000200000001040000000000000000000000000000000000000000000c00000200020000000000000000000000000000000000000000000000000000070000000000000000032b1a00000000000000000000000000000000000000000c000002000200000001240000000000000000000000000000000000000000000c000002000200000000000000000000000000000000000000000000000000000e000002000000000000000000000000000000000000000000000000000000000c000004000400000001000000000000000000000000000000000000000000000c000004000400000000000000000000000000000000000000000000000000000c000002000200000001200000000000000000000000000000000000000000000c000002000200000000000000000000000000000000000000000000000000000a000000000000000001ad06ad06000000000000000000000000000000000000020800000004000000000000000000000000000000000000000000000000000004100000000000000000000000000000000000000000000000000000000000000a00000000000000000aad06c406000000000000000000000000000000000000180000040008000000000500000000000000000000000000000000000000000008080002000800000000000000000000000000000000000000000000000000000e080000001000000021000000000000000000000000000000000000000000000e0800100000000000000100000000000000000000000000000000000000000002000004000800000000010000000000000000000000000000000000000000000c000010001000000001010000000000000000000000000000000000000000000c0000100010000000000000000000000000000000000000000000000000000004080004000000000000000000000000000000000000000000000000000000000a000000000000000002aa06b6060000000000000000000000000000000000000c000010001000000001000000000000000000000000000000000000000000000c000010001000000000000000000000000000000000000000000000000000000a000000000000000001aa06aa060000000000000000000000000000000000000c000002000200000001ffffffffffffffffffffffffffffffff0000000000000c000002000200000000ffffffffffffffffffffffff000000000000000000000e000000000400000001020000000000000000000000000000000000000000001a040002000200000002000000000000000000000000000000000000000000000c000004000400000001000000000000000000000000000000000000000000000c000004000400000000000000000000000000000000ffffffff0000000000000e000000000800000021010000000000000000000000000000000000000000001a080004000400000002000000000000000000000000000000000000000000001a040002000200000004000000000000000000000000000000000000000000000e000002000000000000020000000000000000000000000000000000000000000a000000000000000001ce06ce060000000000000000000000000000000000000c000002000200000001ffffffffffffffffffffffffffffffff0000000000000c000002000200000000ffffffffffffffffffffffff000000000000000000000e000000000400000001020000000000000000000000000000000000000000001a040002000200000002000000000000000000000000000000000000000000000c000004000400000001000000000000000000000000000000000000000000000c000004000400000000000000000000000000000000ffffffff0000000000000e000000000800000021010000000000000000000000000000000000000000001a080004000400000002000000000000000000000000000000000000000000001a040002000200000004000000000000000000000000000000000000000000000e000002000000000000020000000000000000000000000000000000000000000e0000000000000000e10300000000000000000000000000000000000000000007000000000000000004000000000000000000000000000000000000000000000e0000000000000000e0020000000000000000000000000000000000000000000c000004000400000001fcffffffffffffffffffffffffffffff0000000000000c000004000400000000ffffffffffffffffffffffffffffffff0000000000000e0000020000000000600200000000000000000000000000000000000000000002020004000800000000000000000000000000000000000000000000000000000c000010001000000001a00000000000000000000000000000000000000000000c000010001000000000000000000000000000000000000000000000000000000c000004000400000001000000000000000000000000000000000000000000000c000004000400000000000000000000000000000000000000800000000000000c000002000200000001000000000000000000000000000000000000000000000c0000020002000000000000000000000000000000000000008000000000000004080010000000000000000000000000000000000000000000000000000000000a00000000000000000cdf06dd060000000000000000000000000000000000000c000002000200000001000000000000000000000000000000000000000000000c000002000200000000000000000000000000000000000000000000000000001a080004001000000002000000000000000000000000000000000000000000000c000008000800000001000000000000000000000000000000000000000000000c0000080008000000000000000000000000000000000000008000000000000004100000000000000000000000000000000000000000000000000000000000000a000000000000000002e606e4060000000000000000000000000000000000000c000008000800000001000000000000000000000000000000000000000000000c0000080008000000000000000000000000000000000000000000000000000004100004000000000000000000000000000000000000000000000000000000000a000000000000000004e906e806000000000000000000000000000000000000020200000008000000000000000000000000000000000000000000000000000002000001000200000000600000000000000000000000000000000000000000000e0000020000000000600300000000000000000000000000000000000000000004080000000000000000000000000000000000000000000000000000000000000a00000000000000000aed065c070000000000000000000000000000000000000c000001000100000001240000000000000000000000000000000000000000000c0000010001000000000000000000000000000000000000000000000000000007000000000000000003171a00000000000000000000000000000000000000000c000002000200000001ffffffffffffffffffffffffffffffff0000000000000c000002000200000000ffffffff00000000000000000000000000000000000004010002000000000000000000000000000000000000000000000000000000000a0000000000000000085c07f4060000000000000000000000000000000000000c000004000400000001200000000000000000000000000000000000000000000c000004000400000000000000000000000000000000000000000000000000000e0000000002000000610300000000000000000000000000000000000000000008020004000200000000000000000000000000000000000000000000000000000e020001000000000060010000000000000000000000000000000000000000000c000001000100000001440000000000000000000000000000000000000000000c0000010001000000000000000000000000000000000000000000000000000007000000000000000003171a00000000000000000000000000000000000000000c000002000200000001000000000000000000000000000000000000000000000c0000020002000000000000000001000000000000000000000000000000000004010002000000000000000000000000000000000000000000000000000000000a00000000000000000c5c0700070000000000000000000000000000000000000e0000000002000000610300000000000000000000000000000000000000000002000002000200000000200000000000000000000000000000000000000000000c000004000400000001200000000000000000000000000000000000000000000c0000040004000000000000000000000000000000000000000000000000000008020004000200000000000000000000000000000000000000000000000000000e020001000000000060010000000000000000000000000000000000000000000c000001000100000001640000000000000000000000000000000000000000000c0000010001000000000000000000000000000000000000000000000000000007000000000000000003171a00000000000000000000000000000000000000000c000002000200000001ffffffffffffffff00000000000000000000000000000c0000020002000000000000000000000000000000000000000000000000000004010002000000000000000000000000000000000000000000000000000000000a0000000000000000085c070d0700000000000000000000000000000000000002000001000100000000040000000000000000000000000000000000000000000e0000000002000000610200000000000000000000000000000000000000000007000000000000000003230600000000000000000000000000000000000000000a000000000000000002110712070000000000000000000000000000000000000a000000000000000001640764070000000000000000000000000000000000000e0000000002000000610300000000000000000000000000000000000000000002000002000200000000400000000000000000000000000000000000000000000c000004000400000001200000000000000000000000000000000000000000000c0000040004000000000000000000000000000000000000000000000000000008020004000200000000000000000000000000000000000000000000000000000e020001000000000060010000000000000000000000000000000000000000000c000001000100000001840000000000000000000000000000000000000000000c0000010001000000000000000000000000000000000000000000000000000007000000000000000003171a00000000000000000000000000000000000000000c000002000200000001ffffffffffffffff00000000000000000000000000000c0000020002000000000000000000000000000000000000000000000000000004010002000000000000000000000000000000000000000000000000000000000a0000000000000000085c071f0700000000000000000000000000000000000002000001000100000000040000000000000000000000000000000000000000000e0000000002000000610200000000000000000000000000000000000000000007000000000000000003230600000000000000000000000000000000000000000a000000000000000002230724070000000000000000000000000000000000000a000000000000000001640764070000000000000000000000000000000000000e0000000002000000610300000000000000000000000000000000000000000002000002000200000000600000000000000000000000000000000000000000000c000004000400000001200000000000000000000000000000000000000000000c0000040004000000000000000000000000000000000000000000000000000008020004000200000000000000000000000000000000000000000000000000000e020001000000000060010000000000000000000000000000000000000000000c000001000100000001a40000000000000000000000000000000000000000000c0000010001000000000000000000000000000000000000000000000000000007000000000000000003171a00000000000000000000000000000000000000000c000002000200000001ffffffffffffffff00000000000000000000000000000c0000020002000000000000000000000000000000000000000000000000000004010002000000000000000000000000000000000000000000000000000000000a0000000000000000085c07310700000000000000000000000000000000000002000001000800000000230000000000000000000000000000000000000000000c000004000400000001000000000000000000000000000000000000000000000c000004000400000000000000000000000000000000000000800000000000000c000002000200000001000000000000000000000000000000000000000000000c000002000200000000000000000000000000000000000000800000000000000e0000000010000000610200000000000000000000000000000000000000000004080010000000000000000000000000000000000000000000000000000000000a0000000000000000023b0739070000000000000000000000000000000000000c000002000200000001000000000000000000000000000000000000000000000c000002000200000000000000000000000000000000000000000000000000000e000000001000000061020000000000000000000000000000000000000000001a100004001000000002000000000000000000000000000000000000000000001a080004002000000002000000000000000000000000000000000000000000000c000008000800000001000000000000000000000000000000000000000000000c0000080008000000000000000000000000000000000000008000000000000004200010000000000000000000000000000000000000000000000000000000000a000000000000000008440742070000000000000000000000000000000000000c000008000800000001000000000000000000000000000000000000000000000c000008000800000000000000000000000000000000000000000000000000001a2000100010000000080000000000000000000000000000000000000000000004100004000000000000000000000000000000000000000000000000000000000a00000000000000000448074707000000000000000000000000000000000000020200000008000000000000000000000000000000000000000000000000000004080000000000000000000000000000000000000000000000000000000000000a00000000000000000a4a07610700000000000000000000000000000000000002000001000200000000240000000000000000000000000000000000000000000e00000200000000006001000000000000000000000000000000000000000000020200000001000000000000000000000000000000000000000000000000000007000000000000000003171a000000000000000000000000000000000000000002010000000200000000000000000000000000000000000000000000000000000e000000000100000061010000000000000000000000000000000000000000000e00000000040000006102000000000000000000000000000000000000000000070000000000000000035c0500000000000000000000000000000000000000000a000000000000000002530754070000000000000000000000000000000000000a000000000000000001640764070000000000000000000000000000000000000c000002000200000001200000000000000000000000000000000000000000000c000002000200000000000000000000000000000000000000000000000000000e0000000004000000610300000000000000000000000000000000000000000008040002000200000000000000000000000000000000000000000000000000000e0200010000000000600500000000000000000000000000000000000000000004000004000100000001600000000000000000000000000000000000000000000e0000000000000000e10200000000000000000000000000000000000000000007000000000000000000000000000000000000000000000000000000000000000c000002000200000001000000000000000000000000000000000000000000000c000002000200000000000000000000000000000000000000000000000000000e000002000000000000000000000000000000000000000000000000000000000e0000000000000000e10200000000000000000000000000000000000000000007000000000000000004000000000000000000000000000000000000000000000c000002000200000001000000000000000000000000000000000000000000000c000002000200000000000000000000000000000000000000000000000000000e000002000000000000000000000000000000000000000000000000000000000e0000000000000000e10200000000000000000000000000000000000000000007000000000000000004000000000000000000000000000000000000000000000e0000000000000000e0060000000000000000000000000000000000000000000c000004000400000001fcffffffffffffffffffffffffffffff0000000000000c000004000400000000ffffffffffffffffffffffffffffffff0000000000000e0000020000000000600400000000000000000000000000000000000000000002020004000800000000000000000000000000000000000000000000000000000c000010001000000001400000000000000000000000000000000000000000000c000010001000000000000000000000000000000000000000000000000000000c000004000400000001000000000000000000000000000000000000000000000c000004000400000000000000000000000000000000000000800000000000000c000002000200000001000000000000000000000000000000000000000000000c0000020002000000000000000000000000000000000000008000000000000004080010000000000000000000000000000000000000000000000000000000000a00000000000000000c750773070000000000000000000000000000000000000c000002000200000001000000000000000000000000000000000000000000000c000002000200000000000000000000000000000000000000000000000000001a080004001000000002000000000000000000000000000000000000000000000c000008000800000001000000000000000000000000000000000000000000000c0000080008000000000000000000000000000000000000008000000000000004100000000000000000000000000000000000000000000000000000000000000a0000000000000000027c077a070000000000000000000000000000000000000c000008000800000001000000000000000000000000000000000000000000000c0000080008000000000000000000000000000000000000000000000000000004100004000000000000000000000000000000000000000000000000000000000a0000000000000000047f077e07000000000000000000000000000000000000020200000008000000000000000000000000000000000000000000000000000002000001000200000000e00000000000000000000000000000000000000000000e0000020000000000600200000000000000000000000000000000000000000004080000000000000000000000000000000000000000000000000000000000000a00000000000000000a830700080000000000000000000000000000000000000c000001000100000001240000000000000000000000000000000000000000000c0000010001000000000000000000000000000000000000000000000000000007000000000000000003171a00000000000000000000000000000000000000000c000002000200000001000000000000000001000000000000000000000000000c0000020002000000000000000000000000000000000000000000000000000004010002000000000000000000000000000000000000000000000000000000000a00000000000000000c00088a0700000000000000000000000000000000000002000001000800000000230000000000000000000000000000000000000000000c000004000400000001000000000000000000000000000000000000000000000c000004000400000000000000000000000000000000000000800000000000000c000002000200000001000000000000000000000000000000000000000000000c000002000200000000000000000000000000000000000000800000000000000e0000000010000000610400000000000000000000000000000000000000000004080010000000000000000000000000000000000000000000000000000000000a00000000000000000c940792070000000000000000000000000000000000000c000002000200000001000000000000000000000000000000000000000000000c000002000200000000000000000000000000000000000000000000000000000e000000001000000061040000000000000000000000000000000000000000001a100004001000000002000000000000000000000000000000000000000000001a080004002000000002000000000000000000000000000000000000000000000c000008000800000001000000000000000000000000000000000000000000000c0000080008000000000000000000000000000000000000008000000000000004200010000000000000000000000000000000000000000000000000000000000a0000000000000000029d079b070000000000000000000000000000000000000c000008000800000001000000000000000000000000000000000000000000000c000008000800000000000000000000000000000000000000000000000000001a2000100010000000080000000000000000000000000000000000000000000004100004000000000000000000000000000000000000000000000000000000000a000000000000000004a107a007000000000000000000000000000000000000020200000008000000000000000000000000000000000000000000000000000004080000000000000000000000000000000000000000000000000000000000000a00000000000000000a0008a30700000000000000000000000000000000000002000001000200000000240000000000000000000000000000000000000000000e00000200000000006007000000000000000000000000000000000000000000020200000001000000000000000000000000000000000000000000000000000007000000000000000003171a00000000000000000000000000000000000000000c000002000200000001ffffffffffffffff00000000000000000000000000000c0000020002000000000000000000000000000000000000000000000000000004010002000000000000000000000000000000000000000000000000000000000a0000000000000000080508ab0700000000000000000000000000000000000018000001000200000000050000000000000000000000000000000000000000000e00000200000000006006000000000000000000000000000000000000000000020000020002000000003f0000000000000000000000000000000000000000000c000004000400000001e0ffffffffffffffffffffffffffffff0000000000000c000004000400000000ffffffffffffffffffffffffffffffff0000000000001a020004000400000002000000000000000000000000000000000000000000000e0000000002000000210200000000000000000000000000000000000000000002020004001000000000000000000000000000000000000000000000000000000c000004000400000001010000000000000000000000000000000000000000000c0000040004000000000000000000000000000000000000000000000000000004100002000000000000000000000000000000000000000000000000000000000a000000000000000002b907b7070000000000000000000000000000000000000c000004000400000001000000000000000000000000000000000000000000000c000004000400000000000000000000000000000000000000000000000000000c000008000800000001ffffffffffffffff00000000000000000000000000000c0000080008000000000000000000000000000000000000000000000000000004100008000000000000000000000000000000000000000000000000000000000a0000000000000000082f08bd0700000000000000000000000000000000000004040000000000000000000000000000000000000000000000000000000000000a00000000000000000a2f08bf0700000000000000000000000000000000000002010000000400000000000000000000000000000000000000000000000000000e000010000000000020020000000000000000000000000000000000000000000e0000040000000000600100000000000000000000000000000000000000000002040000000100000000000000000000000000000000000000000000000000000e00000200000000006003000000000000000000000000000000000000000000070000000000000000032b1a00000000000000000000000000000000000000000e000000000400000061070000000000000000000000000000000000000000000e0000000002000000610600000000000000000000000000000000000000000002040002000800000000000000000000000000000000000000000000000000000e000000000200000061040000000000000000000000000000000000000000000e0000080000000000600500000000000000000000000000000000000000000004080002000000000000000000000000000000000000000000000000000000000a0000000000000000080008cc070000000000000000000000000000000000000e000000000200000061030000000000000000000000000000000000000000000e000002000000000060060000000000000000000000000000000000000000000e0000000002000000610100000000000000000000000000000000000000000004020000000000000000000000000000000000000000000000000000000000000a000000000000000004e107d10700000000000000000000000000000000000002000004000400000000200000000000000000000000000000000000000000000e00000400000000006007000000000000000000000000000000000000000000020400000001000000000000000000000000000000000000000000000000000007000000000000000003171a00000000000000000000000000000000000000000c000002000200000001ffffffffffffffffffffffffffffffff0000000000000c000002000200000000ffffffff00000000000000000000000000000000000004010002000000000000000000000000000000000000000000000000000000000a000000000000000006d907fb070000000000000000000000000000000000000e0000000002000000610600000000000000000000000000000000000000000002000002000200000000200000000000000000000000000000000000000000000e00000200000000006006000000000000000000000000000000000000000000070000000000000000032b1a00000000000000000000000000000000000000000e000000000400000061070000000000000000000000000000000000000000000e0000000002000000610500000000000000000000000000000000000000000004040002000000000000000000000000000000000000000000000000000000000a000000000000000002d107e1070000000000000000000000000000000000000c000002000200000001200000000000000000000000000000000000000000000c000002000200000000000000000000000000000000000000000000000000000e0000000004000000610200000000000000000000000000000000000000000008040002000200000000000000000000000000000000000000000000000000000e000000000400000061030000000000000000000000000000000000000000000e020004000000000060010000000000000000000000000000000000000000000c000001000100000001440000000000000000000000000000000000000000000c0000010001000000000000000000000000000000000000000000000000000007000000000000000003171a00000000000000000000000000000000000000000c000002000200000001ffffffffffffffff00000000000000000000000000000c0000020002000000000000000000000000000000000000000000000000000004010002000000000000000000000000000000000000000000000000000000000a0000000000000000080008ee0700000000000000000000000000000000000002000001000100000000040000000000000000000000000000000000000000000e0000000002000000610400000000000000000000000000000000000000000007000000000000000003230600000000000000000000000000000000000000000a000000000000000002f207f3070000000000000000000000000000000000000a000000000000000001fe07fe070000000000000000000000000000000000000c000002000200000001200000000000000000000000000000000000000000000c000002000200000000000000000000000000000000000000000000000000000e0000000004000000610200000000000000000000000000000000000000000008040002000200000000000000000000000000000000000000000000000000000e0200010000000000600200000000000000000000000000000000000000000004000004000100000001e00000000000000000000000000000000000000000000e0000000000000000e10600000000000000000000000000000000000000000007000000000000000000000000000000000000000000000000000000000000000c000002000200000001000000000000000000000000000000000000000000000c000002000200000000000000000000000000000000000000000000000000000e000002000000000000000000000000000000000000000000000000000000000e0000000000000000e10600000000000000000000000000000000000000000007000000000000000004000000000000000000000000000000000000000000000c000002000200000001000000000000000000000000000000000000000000000c000002000200000000000000000000000000000000000000000000000000000e000002000000000000000000000000000000000000000000000000000000000e0000000000000000e10600000000000000000000000000000000000000000007000000000000000004000000000000000000000000000000000000000000000c000002000200000001000000000000000000000000000000000000000000000c000002000200000000000000000000000000000000717b484e0000000000000e000002000000000020000000000000000000000000000000000000000000000c000001000100000001410000000000000000000000000000000000000000000c000001000100000000000000000000000000000000000000000000000000000c000002000200000001040000000000000000000000000000000000000000000c00000200020000000000000000000000000000000000000000000000000000070000000000000000032b1a00000000000000000000000000000000000000000c000002000200000001240000000000000000000000000000000000000000000c000002000200000000000000000000000000000000000000000000000000000e000002000000000000000000000000000000000000000000000000000000000c000004000400000001000000000000000000000000000000000000000000000c000004000400000000000000000000000000000000000000000000000000000c000002000200000001200000000000000000000000000000000000000000000c000002000200000000000000000000000000000000000000000000000000000a00000000000000000118081808000000000000000000000000000000000000020800000004000000000000000000000000000000000000000000000000000004100000000000000000000000000000000000000000000000000000000000000a00000000000000000a18082408000000000000000000000000000000000000180000040008000000000500000000000000000000000000000000000000000008080002000800000000000000000000000000000000000000000000000000000e080000001000000021000000000000000000000000000000000000000000000e0800100000000000000100000000000000000000000000000000000000000002000004000800000000010000000000000000000000000000000000000000000c000010001000000001010000000000000000000000000000000000000000000c0000100010000000000000000000000000000000000000000000000000000004080004000000000000000000000000000000000000000000000000000000000a000000000000000002150821080000000000000000000000000000000000000c000010001000000001000000000000000000000000000000000000000000000c000010001000000000000000000000000000000000000000000000000000000a000000000000000001150815080000000000000000000000000000000000000c000002000200000001ffffffffffffffffffffffffffffffff0000000000000c000002000200000000ffffffffffffffffffffffff000000000000000000000e000000000400000001020000000000000000000000000000000000000000001a040002000200000002000000000000000000000000000000000000000000000c000004000400000001000000000000000000000000000000000000000000000c000004000400000000000000000000000000000000ffffffff0000000000000e000000000800000021010000000000000000000000000000000000000000001a080004000400000002000000000000000000000000000000000000000000001a040002000200000004000000000000000000000000000000000000000000000e000002000000000000020000000000000000000000000000000000000000000a000000000000000001fe07fe070000000000000000000000000000000000000c000002000200000001000000000000000000000000000000000000000000000c000002000200000000000000000000000000000000717b484e0000000000000e000002000000000020000000000000000000000000000000000000000000000c000001000100000001410000000000000000000000000000000000000000000c000001000100000000000000000000000000000000000000000000000000000c000002000200000001040000000000000000000000000000000000000000000c00000200020000000000000000000000000000000000000000000000000000070000000000000000032b1a00000000000000000000000000000000000000000c000002000200000001240000000000000000000000000000000000000000000c000002000200000000000000000000000000000000000000000000000000000e000002000000000000000000000000000000000000000000000000000000000c000004000400000001000000000000000000000000000000000000000000000c000004000400000000000000000000000000000000000000000000000000000c000002000200000001200000000000000000000000000000000000000000000c000002000200000000000000000000000000000000000000000000000000000a00000000000000000142084208000000000000000000000000000000000000020800000004000000000000000000000000000000000000000000000000000004100000000000000000000000000000000000000000000000000000000000000a00000000000000000a42084e08000000000000000000000000000000000000180000040008000000000500000000000000000000000000000000000000000008080002000800000000000000000000000000000000000000000000000000000e080000001000000021000000000000000000000000000000000000000000000e0800100000000000000100000000000000000000000000000000000000000002000004000800000000010000000000000000000000000000000000000000000c000010001000000001010000000000000000000000000000000000000000000c0000100010000000000000000000000000000000000000000000000000000004080004000000000000000000000000000000000000000000000000000000000a0000000000000000023f084b080000000000000000000000000000000000000c000010001000000001000000000000000000000000000000000000000000000c000010001000000000000000000000000000000000000000000000000000000a0000000000000000013f083f080000000000000000000000000000000000000c000002000200000001ffffffffffffffffffffffffffffffff0000000000000c000002000200000000ffffffffffffffffffffffff000000000000000000000e000000000400000001020000000000000000000000000000000000000000001a040002000200000002000000000000000000000000000000000000000000000c000004000400000001000000000000000000000000000000000000000000000c000004000400000000000000000000000000000000ffffffff0000000000000e000000000800000021010000000000000000000000000000000000000000001a080004000400000002000000000000000000000000000000000000000000001a040002000200000004000000000000000000000000000000000000000000000e000002000000000000020000000000000000000000000000000000000000000a000000000000000001fe07fe070000000000000000000000000000000000000e0000000000000000e0000000000000000000000000000000000000000000000c000004000400000001fcffffffffffffffffffffffffffffff0000000000000c000004000400000000ffffffffffffffffffffffffffffffff00000000000002020004000800000000000000000000000000000000000000000000000000000c000010001000000001400000000000000000000000000000000000000000000c000010001000000000000000000000000000000000000000000000000000000c000004000400000001000000000000000000000000000000000000000000000c000004000400000000000000000000000000000000000000800000000000000c000002000200000001000000000000000000000000000000000000000000000c0000020002000000000000000000000000000000000000008000000000000004080010000000000000000000000000000000000000000000000000000000000a00000000000000000c670865080000000000000000000000000000000000000c000002000200000001000000000000000000000000000000000000000000000c000002000200000000000000000000000000000000000000000000000000001a080004001000000002000000000000000000000000000000000000000000000c000008000800000001000000000000000000000000000000000000000000000c0000080008000000000000000000000000000000000000008000000000000004100000000000000000000000000000000000000000000000000000000000000a0000000000000000026e086c080000000000000000000000000000000000000c000008000800000001000000000000000000000000000000000000000000000c0000080008000000000000000000000000000000000000000000000000000004100004000000000000000000000000000000000000000000000000000000000a00000000000000000471087008000000000000000000000000000000000000020200000008000000000000000000000000000000000000000000000000000002000001000200000000200000000000000000000000000000000000000000000e0000020000000000600100000000000000000000000000000000000000000004080000000000000000000000000000000000000000000000000000000000000a00000000000000000a750895080000000000000000000000000000000000000c000001000100000001240000000000000000000000000000000000000000000c0000010001000000000000000000000000000000000000000000000000000007000000000000000003171a00000000000000000000000000000000000000000c000002000200000001ffffffffffffffffffffffffffffffff0000000000000c000002000200000000ffffffff00000000000000000000000000000000000004010002000000000000000000000000000000000000000000000000000000000a00000000000000000895087c080000000000000000000000000000000000000c000002000200000001200000000000000000000000000000000000000000000c000002000200000000000000000000000000000000000000000000000000000e0000000004000000610100000000000000000000000000000000000000000008040002000200000000000000000000000000000000000000000000000000000e020001000000000060010000000000000000000000000000000000000000000c000001000100000001440000000000000000000000000000000000000000000c0000010001000000000000000000000000000000000000000000000000000007000000000000000003171a00000000000000000000000000000000000000000c000002000200000001010000000000000000000000000000000000000000000c0000020002000000000000000000000000000000000000000000000000000004010000000000000000000000000000000000000000000000000000000000000a00000000000000000a8a0888080000000000000000000000000000000000000c000002000200000001000000000000000000000000000000000000000000000c000002000200000000000000000000000000000000000000000000000000001a0000020002000000020100000000000000000000000000000000000000000004010002000000000000000000000000000000000000000000000000000000000a0000000000000000048d0895080000000000000000000000000000000000000c000002000200000001200000000000000000000000000000000000000000000c000002000200000000000000000000000000000000000000000000000000000e0000000004000000610100000000000000000000000000000000000000000008040002000200000000000000000000000000000000000000000000000000000e0200010000000000600200000000000000000000000000000000000000000004000004000100000001200000000000000000000000000000000000000000000e0000000000000000e10000000000000000000000000000000000000000000007000000000000000000000000000000000000000000000000000000000000000c000002000200000001000000000000000000000000000000000000000000000c000002000200000000000000000000000000000000000000000000000000000e000002000000000000000000000000000000000000000000000000000000000e0000000000000000e10000000000000000000000000000000000000000000007000000000000000004000000000000000000000000000000000000000000000e0000000000000000e0010000000000000000000000000000000000000000000c000004000400000001fcffffffffffffffffffffffffffffff0000000000000c000004000400000000ffffffffffffffffffffffffffffffff00000000000002020004000800000000000000000000000000000000000000000000000000000c000010001000000001400000000000000000000000000000000000000000000c000010001000000000000000000000000000000000000000000000000000000c000004000400000001000000000000000000000000000000000000000000000c000004000400000000000000000000000000000000000000800000000000000c000002000200000001000000000000000000000000000000000000000000000c0000020002000000000000000000000000000000000000008000000000000004080010000000000000000000000000000000000000000000000000000000000a00000000000000000ca808a6080000000000000000000000000000000000000c000002000200000001000000000000000000000000000000000000000000000c000002000200000000000000000000000000000000000000000000000000001a080004001000000002000000000000000000000000000000000000000000000c000008000800000001000000000000000000000000000000000000000000000c0000080008000000000000000000000000000000000000008000000000000004100000000000000000000000000000000000000000000000000000000000000a000000000000000002af08ad080000000000000000000000000000000000000c000008000800000001000000000000000000000000000000000000000000000c0000080008000000000000000000000000000000000000000000000000000004100004000000000000000000000000000000000000000000000000000000000a000000000000000004b208b108000000000000000000000000000000000000020200000008000000000000000000000000000000000000000000000000000002000001000200000000400000000000000000000000000000000000000000000e0000020000000000600200000000000000000000000000000000000000000004080000000000000000000000000000000000000000000000000000000000000a00000000000000000ab608d0080000000000000000000000000000000000000c000001000100000001240000000000000000000000000000000000000000000c0000010001000000000000000000000000000000000000000000000000000007000000000000000003171a00000000000000000000000000000000000000000c000002000200000001ffffffffffffffffffffffffffffffff0000000000000c000002000200000000ffffffff00000000000000000000000000000000000004010002000000000000000000000000000000000000000000000000000000000a000000000000000008d008bd080000000000000000000000000000000000000c000002000200000001200000000000000000000000000000000000000000000c000002000200000000000000000000000000000000000000000000000000000e0000000004000000610200000000000000000000000000000000000000000008040002000200000000000000000000000000000000000000000000000000000e000002000000000060010000000000000000000000000000000000000000000e020001000000000060010000000000000000000000000000000000000000000c000001000100000001440000000000000000000000000000000000000000000c0000010001000000000000000000000000000000000000000000000000000007000000000000000003171a00000000000000000000000000000000000000000c000002000200000001000000000000000000000000000000000000000000000c0000020002000000000000000001000000000000000000000000000000000004010002000000000000000000000000000000000000000000000000000000000a00000000000000000cd008ca080000000000000000000000000000000000000e000000000200000061010000000000000000000000000000000000000000000e020001000000000060020000000000000000000000000000000000000000000e0000000002000000610200000000000000000000000000000000000000000004000002000100000001400000000000000000000000000000000000000000000e0000000000000000e10100000000000000000000000000000000000000000007000000000000000000000000000000000000000000000000000000000000000c000002000200000001000000000000000000000000000000000000000000000c000002000200000000000000000000000000000000000000000000000000000e000002000000000000000000000000000000000000000000000000000000000e0000000000000000e10100000000000000000000000000000000000000000007000000000000000004000000000000000000000000000000000000000000000e0000000000000000e0030000000000000000000000000000000000000000000c000004000400000001fcffffffffffffffffffffffffffffff0000000000000c000004000400000000ffffffffffffffffffffffffffffffff0000000000000e0000020000000000600300000000000000000000000000000000000000000002020004000800000000000000000000000000000000000000000000000000000c000010001000000001a00000000000000000000000000000000000000000000c000010001000000000000000000000000000000000000000000000000000000c000004000400000001000000000000000000000000000000000000000000000c000004000400000000000000000000000000000000000000800000000000000c000002000200000001000000000000000000000000000000000000000000000c0000020002000000000000000000000000000000000000008000000000000004080010000000000000000000000000000000000000000000000000000000000a00000000000000000ce408e2080000000000000000000000000000000000000c000002000200000001000000000000000000000000000000000000000000000c000002000200000000000000000000000000000000000000000000000000001a080004001000000002000000000000000000000000000000000000000000000c000008000800000001000000000000000000000000000000000000000000000c0000080008000000000000000000000000000000000000008000000000000004100000000000000000000000000000000000000000000000000000000000000a000000000000000002eb08e9080000000000000000000000000000000000000c000008000800000001000000000000000000000000000000000000000000000c0000080008000000000000000000000000000000000000000000000000000004100004000000000000000000000000000000000000000000000000000000000a000000000000000004ee08ed08000000000000000000000000000000000000020200000008000000000000000000000000000000000000000000000000000002000001000200000000800000000000000000000000000000000000000000000e0000020000000000600400000000000000000000000000000000000000000004080000000000000000000000000000000000000000000000000000000000000a00000000000000000af20851090000000000000000000000000000000000000c000001000100000001240000000000000000000000000000000000000000000c0000010001000000000000000000000000000000000000000000000000000007000000000000000003171a00000000000000000000000000000000000000000c000002000200000001ffffffffffffffffffffffffffffffff0000000000000c000002000200000000ffffffff00000000000000000000000000000000000004010002000000000000000000000000000000000000000000000000000000000a0000000000000000085109f9080000000000000000000000000000000000000c000004000400000001200000000000000000000000000000000000000000000c000004000400000000000000000000000000000000000000000000000000000e0000000002000000610400000000000000000000000000000000000000000008020004000200000000000000000000000000000000000000000000000000000e020001000000000060010000000000000000000000000000000000000000000c000001000100000001440000000000000000000000000000000000000000000c0000010001000000000000000000000000000000000000000000000000000007000000000000000003171a00000000000000000000000000000000000000000c000002000200000001000000000000000000000000000000000000000000000c0000020002000000000000000001000000000000000000000000000000000004010002000000000000000000000000000000000000000000000000000000000a00000000000000000c510905090000000000000000000000000000000000000e0000000002000000610400000000000000000000000000000000000000000002000002000400000000600000000000000000000000000000000000000000000e0000040000000000600200000000000000000000000000000000000000000002000002000400000000400000000000000000000000000000000000000000000e0000040000000000600100000000000000000000000000000000000000000002000002000200000000200000000000000000000000000000000000000000000c000004000400000001200000000000000000000000000000000000000000000c0000040004000000000000000000000000000000000000000000000000000008020004000200000000000000000000000000000000000000000000000000000e020001000000000060010000000000000000000000000000000000000000000c000001000100000001640000000000000000000000000000000000000000000c0000010001000000000000000000000000000000000000000000000000000007000000000000000003171a00000000000000000000000000000000000000000c000002000200000001200000000000000000000000000000000000000000000c000002000200000000000000000000000000000000000000000000000000000e0000000004000000610100000000000000000000000000000000000000000008040002000200000000000000000000000000000000000000000000000000000e020001000000000060010000000000000000000000000000000000000000000c000001000100000001840000000000000000000000000000000000000000000c0000010001000000000000000000000000000000000000000000000000000007000000000000000003171a00000000000000000000000000000000000000000e000000000200000061020000000000000000000000000000000000000000000c000004000400000001200000000000000000000000000000000000000000000c0000040004000000000000000000000000000000000000000000000000000008020004000200000000000000000000000000000000000000000000000000000e020001000000000060010000000000000000000000000000000000000000000c000001000100000001a40000000000000000000000000000000000000000000c0000010001000000000000000000000000000000000000000000000000000007000000000000000003171a00000000000000000000000000000000000000000c000002000200000001ffffffffffffffff00000000000000000000000000000c0000020002000000000000000000000000000000000000000000000000000004010002000000000000000000000000000000000000000000000000000000000a0000000000000000085109260900000000000000000000000000000000000002000001000800000000230000000000000000000000000000000000000000000c000004000400000001000000000000000000000000000000000000000000000c000004000400000000000000000000000000000000000000800000000000000c000002000200000001000000000000000000000000000000000000000000000c000002000200000000000000000000000000000000000000800000000000000e0000000010000000610300000000000000000000000000000000000000000004080010000000000000000000000000000000000000000000000000000000000a00000000000000000230092e090000000000000000000000000000000000000c000002000200000001000000000000000000000000000000000000000000000c000002000200000000000000000000000000000000000000000000000000000e000000001000000061030000000000000000000000000000000000000000001a100004001000000002000000000000000000000000000000000000000000001a080004002000000002000000000000000000000000000000000000000000000c000008000800000001000000000000000000000000000000000000000000000c0000080008000000000000000000000000000000000000008000000000000004200010000000000000000000000000000000000000000000000000000000000a000000000000000008390937090000000000000000000000000000000000000c000008000800000001000000000000000000000000000000000000000000000c000008000800000000000000000000000000000000000000000000000000001a2000100010000000080000000000000000000000000000000000000000000004100004000000000000000000000000000000000000000000000000000000000a0000000000000000043d093c09000000000000000000000000000000000000020200000008000000000000000000000000000000000000000000000000000004080000000000000000000000000000000000000000000000000000000000000a00000000000000000a3f09560900000000000000000000000000000000000002000001000200000000240000000000000000000000000000000000000000000e00000200000000006002000000000000000000000000000000000000000000020200000001000000000000000000000000000000000000000000000000000007000000000000000003171a000000000000000000000000000000000000000002010000000200000000000000000000000000000000000000000000000000000e000000000100000061020000000000000000000000000000000000000000000e00000000040000006103000000000000000000000000000000000000000000070000000000000000035c0500000000000000000000000000000000000000000a000000000000000002480949090000000000000000000000000000000000000a000000000000000001590959090000000000000000000000000000000000000c000002000200000001200000000000000000000000000000000000000000000c000002000200000000000000000000000000000000000000000000000000000e0000000004000000610400000000000000000000000000000000000000000008040002000200000000000000000000000000000000000000000000000000000e0200010000000000600500000000000000000000000000000000000000000004000004000100000001800000000000000000000000000000000000000000000e0000000000000000e10300000000000000000000000000000000000000000007000000000000000000000000000000000000000000000000000000000000000c000002000200000001000000000000000000000000000000000000000000000c000002000200000000000000000000000000000000000000000000000000000e000002000000000000000000000000000000000000000000000000000000000e0000000000000000e10300000000000000000000000000000000000000000007000000000000000004000000000000000000000000000000000000000000000c000002000200000001000000000000000000000000000000000000000000000c000002000200000000000000000000000000000000000000000000000000000e000002000000000000000000000000000000000000000000000000000000000e0000000000000000e10300000000000000000000000000000000000000000007000000000000000004000000000000000000000000000000000000000000000c000002000200000001fcffffffffffffffffffffffffffffff0000000000000c000002000200000000ffffffffffffffffffffffffffffffff00000000000002010002000800000000000000000000000000000000000000000000000000000c000010001000000001200000000000000000000000000000000000000000000c000010001000000000000000000000000000000000000000000000000000000c000004000400000001000000000000000000000000000000000000000000000c000004000400000000000000000000000000000000000000800000000000000c000002000200000001000000000000000000000000000000000000000000000c0000020002000000000000000000000000000000000000008000000000000004080010000000000000000000000000000000000000000000000000000000000a00000000000000000c680966090000000000000000000000000000000000000c000002000200000001000000000000000000000000000000000000000000000c000002000200000000000000000000000000000000000000000000000000001a080004001000000002000000000000000000000000000000000000000000000c000008000800000001000000000000000000000000000000000000000000000c0000080008000000000000000000000000000000000000008000000000000004100000000000000000000000000000000000000000000000000000000000000a0000000000000000026f096d090000000000000000000000000000000000000c000008000800000001000000000000000000000000000000000000000000000c0000080008000000000000000000000000000000000000000000000000000004100004000000000000000000000000000000000000000000000000000000000a00000000000000000472097109000000000000000000000000000000000000020200000008000000000000000000000000000000000000000000000000000004080000000000000000000000000000000000000000000000000000000000000a00000000000000000a74097c090000000000000000000000000000000000000c000001000100000001240000000000000000000000000000000000000000000c0000010001000000000000000000000000000000000000000000000000000007000000000000000003171a00000000000000000000000000000000000000000c000002000200000001ffffffffffffffffffffffffffffffff0000000000000c000002000200000000ffffffff00000000000000000000000000000000000004010002000000000000000000000000000000000000000000000000000000000a0000000000000000087c097b0900000000000000000000000000000000000007000000000000000000000000000000000000000000000000000000000000000c000002000200000001000000000000000000000000000000000000000000000c000002000200000000000000000000000000000000000000000000000000000e0000020000000000000000000000000000000000000000000000000000000007000000000000000004000000000000000000000000000000000000000000000e0000000000000000e00200000000000000000000000000000000000000000004010000000000000000000000000000000000000000000000000000000000000a000000000000000004850983090000000000000000000000000000000000000e0000000000000000e10200000000000000000000000000000000000000000007000000000000000000000000000000000000000000000000000000000000000c000001000100000001000000000000000000000000000000000000000000000c000001000100000000000000000000000000000000a079c3080000000000000e000000000200000021020000000000000000000000000000000000000000000e00000200000000006001000000000000000000000000000000000000000000070000000000000000032b1a00000000000000000000000000000000000000000e0000000002000000610100000000000000000000000000000000000000000002000002000200000000040000000000000000000000000000000000000000000c000001000100000001200000000000000000000000000000000000000000000c00000100010000000000000000000000000000000000000000000000000000070000000000000000032b1a00000000000000000000000000000000000000000e0000000002000000610100000000000000000000000000000000000000000002000002000200000000240000000000000000000000000000000000000000000c000001000100000001200000000000000000000000000000000000000000000c00000100010000000000000000000000000000000000000000000000000000070000000000000000032b1a00000000000000000000000000000000000000000e0000000002000000610100000000000000000000000000000000000000000002000002000200000000440000000000000000000000000000000000000000000c00000100010000000172656e776f2065687420746f6e2073690000000000000c0000010001000000002072656c6c6163203a656c62616e774f000000000000070000000000000000032b1a00000000000000000000000000000000000000000c000002000200000001640000000000000000000000000000000000000000000c000002000200000000000000000000000000000000000000000000000000000e000002000000000000000000000000000000000000000000000000000000000c000002000200000001000000000000000000000000000000000000000000000c000002000200000000000000000000000000000000000000000000000000000e0000020000000000600300000000000000000000000000000000000000000018000002000400000000050000000000000000000000000000000000000000000e000004000000000060020000000000000000000000000000000000000000000e00000000020000006101000000000000000000000000000000000000000000020200040001000000000000000000000000000000000000000000000000000007000000000000000003031a00000000000000000000000000000000000000000c000002000200000001200000000000000000000000000000000000000000000c000002000200000000000000000000000000000000000000000000000000000e0000000004000000610200000000000000000000000000000000000000000008040002000200000000000000000000000000000000000000000000000000000e020001000000000000010000000000000000000000000000000000000000000e0000000002000000610300000000000000000000000000000000000000000002000002000200000000010000000000000000000000000000000000000000000c000004000400000001030000000000000000000000000000000000000000000c0000040004000000000000000000000000000000000000000000000000000004020004000000000000000000000000000000000000000000000000000000000a0000000000000000029e09af090000000000000000000000000000000000000e00000000020000006101000000000000000000000000000000000000000000020000020001000000006000000000000000000000000000000000000000000007000000000000000003031a00000000000000000000000000000000000000000c000002000200000001ffffffffffffffffffffffffffffffff0000000000000c000002000200000000ffffffffffffffffffffffff000000000000000000000e000000000400000001040000000000000000000000000000000000000000001a040002000200000002000000000000000000000000000000000000000000000c000004000400000001000000000000000000000000000000000000000000000c000004000400000000000000000000000000000000ffffffff0000000000001a010004000400000002000000000000000000000000000000000000000000001a040002000200000004000000000000000000000000000000000000000000000e000002000000000000040000000000000000000000000000000000000000000e0000000000000000e10200000000000000000000000000000000000000000007000000000000000004000000000000000000000000000000000000000000000e0000000000000000e0010000000000000000000000000000000000000000000c000002000200000001030000000000000000000000000000000000000000000c0000020002000000000000000000000000000000000000000000000000000005020000000400000001000000000000000000000000000000000000000000000c000002000200000001ffffffffffffffffffffffffffffffff0000000000000c000002000200000000ffffffff0000000000000000000000000000000000000e000004000000000060010000000000000000000000000000000000000000001a0400020008000000020000000000000000000000000000000000000000000014000000000400000000000000000000000000000000000000000000000000000c000002000200000001010000000000000000000000000000000000000000000c000002000200000000000000000000000000000000000000000000000000000e0000080000000000600200000000000000000000000000000000000000000004080004000000000000000000000000000000000000000000000000000000000a000000000000000004cd09cb090000000000000000000000000000000000000c000002000200000001000000000000000000000000000000000000000000000c000002000200000000000000000000000000000000000000000000000000001a0000020001000000020100000000000000000000000000000000000000000007000000000000000003800900000000000000000000000000000000000000000a000000000000000002e009d0090000000000000000000000000000000000000c000002000200000001000000000000000000000000000000000000000000000c00000200020000000000000000ffffffffffffffffffffffff0000000000000e000000000400000061010000000000000000000000000000000000000000001a040002000200000002000000000000000000000000000000000000000000000c000004000400000001030000000000000000000000000000000000000000000c0000040004000000000000000000000000000000000000000000000000000005040002000000000000000000000000000000000000000000000000000000000c000002000200000001e057646b6f18b4e3afdaa322977f49190000000000000c00000200020000000084f2a4d01fcd4413145916539c07e08b0000000000000504000200000000000a000000000000000000000000000000000000000000000c000002000200000001000000000000000000000000000000000000000000000c000002000200000000000000000000000000000000000000000000000000000e0000000004000000610200000000000000000000000000000000000000000005040002000000000002000000000000000000000000000000000000000000000e0000000000000000e10100000000000000000000000000000000000000000007000000000000000000000000000000000000000000000000000000000000000e0000000000000000e10100000000000000000000000000000000000000000007000000000000000004000000000000000000000000000000000000000000000e0000000000000000e0020000000000000000000000000000000000000000000e000001000000000060030000000000000000000000000000000000000000000c000002000200000001030000000000000000000000000000000000000000000c0000020002000000000000000000000000000000000000000000000000000005020000000400000001000000000000000000000000000000000000000000000c000002000200000001ffffffffffffffffffffffffffffffff0000000000000c000002000200000000ffffffff0000000000000000000000000000000000000e000004000000000060010000000000000000000000000000000000000000001a0400020008000000020000000000000000000000000000000000000000000014000000000400000000000000000000000000000000000000000000000000000c000002000200000001010000000000000000000000000000000000000000000c000002000200000000000000000000000000000000000000000000000000000e0000080000000000600200000000000000000000000000000000000000000004080004000000000000000000000000000000000000000000000000000000000a000000000000000004f309f1090000000000000000000000000000000000000c000002000200000001000000000000000000000000000000000000000000000c000002000200000000000000000000000000000000000000000000000000001a0000020001000000020100000000000000000000000000000000000000000007000000000000000003800900000000000000000000000000000000000000000a0000000000000000020b0af6090000000000000000000000000000000000000c000002000200000001ffffffffffffffffffffffffffffffff0000000000000c000002000200000000ffffffff0000000000000000000000000000000000000e000000000400000061030000000000000000000000000000000000000000001a0400020002000000020000000000000000000000000000000000000000000004020000000000000000000000000000000000000000000000000000000000000a0000000000000000040d0afc090000000000000000000000000000000000000c000004000400000001000000000000000000000000000000000000000000000c00000400040000000000000000ffffffffffffffffffffffff0000000000000e000000000800000061010000000000000000000000000000000000000000001a080004000400000002000000000000000000000000000000000000000000001a040002000400000004000000000000000000000000000000000000000000000c000008000800000001030000000000000000000000000000000000000000000c0000080008000000000000000000000000000000000000000000000000000005080004000000000000000000000000000000000000000000000000000000000c000004000400000001e057646b6f18b4e3afdaa322977f49190000000000000c00000400040000000084f2a4d01fcd4413145916539c07e08b0000000000000508000400000000000a000000000000000000000000000000000000000000000e0000000004000000610200000000000000000000000000000000000000000005040002000000000002000000000000000000000000000000000000000000000e0000000000000000e10200000000000000000000000000000000000000000007000000000000000000000000000000000000000000000000000000000000000e0000000000000000e10200000000000000000000000000000000000000000007000000000000000004000000000000000000000000000000000000000000000c000001000100000001000000000000000000000000000000000000000000000c000001000100000000000000000000000000000000a079c3080000000000000e000000000200000021020000000000000000000000000000000000000000000e00000200000000006001000000000000000000000000000000000000000000070000000000000000032b1a00000000000000000000000000000000000000000e0000000002000000610100000000000000000000000000000000000000000002000002000200000000040000000000000000000000000000000000000000000c000001000100000001200000000000000000000000000000000000000000000c00000100010000000000000000000000000000000000000000000000000000070000000000000000032b1a00000000000000000000000000000000000000000e0000000002000000610100000000000000000000000000000000000000000002000002000200000000240000000000000000000000000000000000000000000c000001000100000001260000000000000000000000000000000000000000000c00000100010000000000000000000000000000000000000000000000000000070000000000000000032b1a00000000000000000000000000000000000000000e0000000002000000610100000000000000000000000000000000000000000002000002000200000000440000000000000000000000000000000000000000000c00000100010000000161206f72657a206568742073692072650000000000000c0000010001000000006e776f2077656e203a656c62616e774f000000000000070000000000000000032b1a00000000000000000000000000000000000000000e0000000002000000610100000000000000000000000000000000000000000002000002000200000000640000000000000000000000000000000000000000000c000001000100000001000000000000000000000000000000000000000000000c00000100010000000000000000000000000000737365726464000000000000070000000000000000032b1a00000000000000000000000000000000000000000c000002000200000001840000000000000000000000000000000000000000000c000002000200000000000000000000000000000000000000000000000000000e000002000000000000000000000000000000000000000000000000000000000c000002000200000001000000000000000000000000000000000000000000000c000002000200000000000000000000000000000000000000000000000000000e0000020000000000600300000000000000000000000000000000000000000018000002000400000000050000000000000000000000000000000000000000000e000004000000000060020000000000000000000000000000000000000000000e00000000020000006101000000000000000000000000000000000000000000020200040001000000000000000000000000000000000000000000000000000007000000000000000003031a00000000000000000000000000000000000000000c000002000200000001200000000000000000000000000000000000000000000c000002000200000000000000000000000000000000000000000000000000000e0000000004000000610200000000000000000000000000000000000000000008040002000200000000000000000000000000000000000000000000000000000e020001000000000000010000000000000000000000000000000000000000000e0000000002000000610300000000000000000000000000000000000000000002000002000200000000010000000000000000000000000000000000000000000c000004000400000001040000000000000000000000000000000000000000000c0000040004000000000000000000000000000000000000000000000000000004020004000000000000000000000000000000000000000000000000000000000a0000000000000000022b0a3c0a0000000000000000000000000000000000000e00000000020000006101000000000000000000000000000000000000000000020000020001000000008000000000000000000000000000000000000000000007000000000000000003031a00000000000000000000000000000000000000000c000002000200000001ffffffffffffffffffffffffffffffff0000000000000c000002000200000000ffffffffffffffffffffffff000000000000000000000e000000000400000001050000000000000000000000000000000000000000001a040002000200000002000000000000000000000000000000000000000000000c000004000400000001000000000000000000000000000000000000000000000c000004000400000000000000000000000000000000ffffffff0000000000001a010004000400000002000000000000000000000000000000000000000000001a040002000200000004000000000000000000000000000000000000000000000e000002000000000000050000000000000000000000000000000000000000000e0000000000000000e10200000000000000000000000000000000000000000007000000000000000004000000000000000000000000000000000000000000000e0000000000000000e0040000000000000000000000000000000000000000000c000002000200000001020000000000000000000000000000000000000000000c0000020002000000000000000000000000000000000000000000000000000005020000000200000001000000000000000000000000000000000000000000001a000002002000000002010000000000000000000000000000000000000000000e0000020000000000600400000000000000000000000000000000000000000018000002000200000002010000000000000000000000000000000000000000001a0000020010000000027f00000000000000000000000000000000000000000004200000000000000000000000000000000000000000000000000000000000000a000000000000000004550a540a00000000000000000000000000000000000002020000001000000000000000000000000000000000000000000000000000000c0000080008000000011f0000000000000000000000000000000000000000000c000008000800000000000000000000000000000000000000000000000000000c000002000200000001010000000000000000000000000000000000000000000c000002000200000000000000000000000000000000000000000000000000000c000004000400000001010000000000000000000000000000000000000000000c0000040004000000000000000000000000000000000000000000000000000004100008000000000000000000000000000000000000000000000000000000000a0000000000000000085f0a5d0a0000000000000000000000000000000000000c000004000400000001000000000000000000000000000000000000000000000c0000040004000000000000000000000000000000000000000000000000000004200000000000000000000000000000000000000000000000000000000000000a00000000000000000a630a610a0000000000000000000000000000000000000c000002000200000001000000000000000000000000000000000000000000000c000002000200000000000000000000000000000000000000000000000000000e000020000000000060050000000000000000000000000000000000000000001a0200040002000000080000000000000000000000000000000000000000000004020000000000000000000000000000000000000000000000000000000000000a00000000000000000aab0a670a0000000000000000000000000000000000000e000000000200000021020000000000000000000000000000000000000000000e0000020000000000600100000000000000000000000000000000000000000002100000000100000000000000000000000000000000000000000000000000000e00001000000000006002000000000000000000000000000000000000000000070000000000000000032b1a00000000000000000000000000000000000000000e0000000002000000610100000000000000000000000000000000000000000002000002000200000000200000000000000000000000000000000000000000000e000002000000000060030000000000000000000000000000000000000000000e0000000002000000610500000000000000000000000000000000000000000004020000000000000000000000000000000000000000000000000000000000000a000000000000000004720a7b0a0000000000000000000000000000000000000c00000200020000000100ffffffffffffffffffffffffffffff0000000000000c000002000200000000ffffffffffffffffffffffffffffffff0000000000000e000000000400000061040000000000000000000000000000000000000000001a040002000100000002000000000000000000000000000000000000000000000e00000000020000006103000000000000000000000000000000000000000000070000000000000000032b1a00000000000000000000000000000000000000000e0000000002000000610100000000000000000000000000000000000000000002000002000200000000400000000000000000000000000000000000000000000a000000000000000001940a940a0000000000000000000000000000000000000e000000000200000061010000000000000000000000000000000000000000000c000002000200000001020000000000000000000000000000000000000000000c000002000200000000000000000000000000000000000000000000000000000e000002000000000020000000000000000000000000000000000000000000000c000008000800000001ce5abba33acd75fa111181ca21338b820000000000000c000008000800000000a83b1bc41c63b7f2e023a812fa8757400000000000000c000010001000000001000000000000000000000000000000000000000000000c000010001000000000000000000000000000000000000000000000000000000e000000000200000061030000000000000000000000000000000000000000000e0000000004000000610200000000000000000000000000000000000000000004040000000000000000000000000000000000000000000000000000000000000a000000000000000004940a870a0000000000000000000000000000000000000e000010000000000060040000000000000000000000000000000000000000000e000008000000000060050000000000000000000000000000000000000000000508000000010000000100000000000000000000000000000000000000000000070000000000000000032b1a00000000000000000000000000000000000000000e000000001000000061040000000000000000000000000000000000000000000e000000000800000061050000000000000000000000000000000000000000000e00000000040000006102000000000000000000000000000000000000000000020000080008000000000100000000000000000000000000000000000000000002000010001000000000200000000000000000000000000000000000000000000e00000000020000006103000000000000000000000000000000000000000000021000020002000000000000000000000000000000000000000000000000000004100004000000000000000000000000000000000000000000000000000000000a000000000000000002870a940a0000000000000000000000000000000000000e000000001000000061010000000000000000000000000000000000000000000402001000020000000000000000000000000000000000000000000000000000020000020002000000001f0000000000000000000000000000000000000000000c000004000400000001e0ffffffffffffffffffffffffffffff0000000000000c000004000400000000ffffffffffffffffffffffffffffffff0000000000001a0200040008000000020000000000000000000000000000000000000000000002080010000200000000000000000000000000000000000000000000000000000c000004000400000001010000000000000000000000000000000000000000000c0000040004000000000000000000000000000000000000000000000000000004020008000000000000000000000000000000000000000000000000000000000a000000000000000002a10a9f0a0000000000000000000000000000000000000c000004000400000001000000000000000000000000000000000000000000000c000004000400000000000000000000000000000000000000000000000000000c000008000800000001ffffffffffffffff00000000000000000000000000000c0000080008000000000000000000000000000000000000000000000000000004020008000000000000000000000000000000000000000000000000000000000a000000000000000008d60aa50a00000000000000000000000000000000000004040000000000000000000000000000000000000000000000000000000000000a00000000000000000ad60aa70a0000000000000000000000000000000000000e0000020000000000200200000000000000000000000000000000000000000002100000000100000000000000000000000000000000000000000000000000000e0000000000000000e10400000000000000000000000000000000000000000007000000000000000000000000000000000000000000000000000000000000000c000002000200000001000000000000000000000000000000000000000000000c000002000200000000000000000000000000000000717b484e0000000000000e000002000000000020000000000000000000000000000000000000000000000c000001000100000001220000000000000000000000000000000000000000000c000001000100000000000000000000000000000000000000000000000000000c000002000200000001040000000000000000000000000000000000000000000c00000200020000000000000000000000000000000000000000000000000000070000000000000000032b1a00000000000000000000000000000000000000000c000002000200000001240000000000000000000000000000000000000000000c000002000200000000000000000000000000000000000000000000000000000e000002000000000000000000000000000000000000000000000000000000000c000004000400000001000000000000000000000000000000000000000000000c000004000400000000000000000000000000000000000000000000000000000c000002000200000001200000000000000000000000000000000000000000000c000002000200000000000000000000000000000000000000000000000000000a000000000000000001be0abe0a000000000000000000000000000000000000020800000004000000000000000000000000000000000000000000000000000004100000000000000000000000000000000000000000000000000000000000000a00000000000000000abe0aca0a000000000000000000000000000000000000180000040008000000000500000000000000000000000000000000000000000008080002000800000000000000000000000000000000000000000000000000000e080000001000000021000000000000000000000000000000000000000000000e0800100000000000000100000000000000000000000000000000000000000002000004000800000000010000000000000000000000000000000000000000000c000010001000000001010000000000000000000000000000000000000000000c0000100010000000000000000000000000000000000000000000000000000004080004000000000000000000000000000000000000000000000000000000000a000000000000000002bb0ac70a0000000000000000000000000000000000000c000010001000000001000000000000000000000000000000000000000000000c000010001000000000000000000000000000000000000000000000000000000a000000000000000001bb0abb0a0000000000000000000000000000000000000c000002000200000001ffffffffffffffffffffffffffffffff0000000000000c000002000200000000ffffffffffffffffffffffff000000000000000000000e000000000400000001020000000000000000000000000000000000000000001a040002000200000002000000000000000000000000000000000000000000000c000004000400000001000000000000000000000000000000000000000000000c000004000400000000000000000000000000000000ffffffff0000000000000e000000000800000021010000000000000000000000000000000000000000001a080004000400000002000000000000000000000000000000000000000000001a040002000200000004000000000000000000000000000000000000000000000e000002000000000000020000000000000000000000000000000000000000000e0000000000000000e10400000000000000000000000000000000000000000007000000000000000004000000000000000000000000000000000000000000000c000002000200000001000000000000000000000000000000000000000000000c000002000200000000000000000000000000000000717b484e0000000000000e000002000000000020000000000000000000000000000000000000000000000c000001000100000001410000000000000000000000000000000000000000000c000001000100000000000000000000000000000000000000000000000000000c000002000200000001040000000000000000000000000000000000000000000c00000200020000000000000000000000000000000000000000000000000000070000000000000000032b1a00000000000000000000000000000000000000000c000002000200000001240000000000000000000000000000000000000000000c000002000200000000000000000000000000000000000000000000000000000e000002000000000000000000000000000000000000000000000000000000000c000004000400000001000000000000000000000000000000000000000000000c000004000400000000000000000000000000000000000000000000000000000c000002000200000001200000000000000000000000000000000000000000000c000002000200000000000000000000000000000000000000000000000000000a000000000000000001e90ae90a000000000000000000000000000000000000020800000004000000000000000000000000000000000000000000000000000004100000000000000000000000000000000000000000000000000000000000000a00000000000000000ae90af50a000000000000000000000000000000000000180000040008000000000500000000000000000000000000000000000000000008080002000800000000000000000000000000000000000000000000000000000e080000001000000021000000000000000000000000000000000000000000000e0800100000000000000100000000000000000000000000000000000000000002000004000800000000010000000000000000000000000000000000000000000c000010001000000001010000000000000000000000000000000000000000000c0000100010000000000000000000000000000000000000000000000000000004080004000000000000000000000000000000000000000000000000000000000a000000000000000002e60af20a0000000000000000000000000000000000000c000010001000000001000000000000000000000000000000000000000000000c000010001000000000000000000000000000000000000000000000000000000a000000000000000001e60ae60a0000000000000000000000000000000000000c000002000200000001ffffffffffffffffffffffffffffffff0000000000000c000002000200000000ffffffffffffffffffffffff000000000000000000000e000000000400000001020000000000000000000000000000000000000000001a040002000200000002000000000000000000000000000000000000000000000c000004000400000001000000000000000000000000000000000000000000000c000004000400000000000000000000000000000000ffffffff0000000000000e000000000800000021010000000000000000000000000000000000000000001a080004000400000002000000000000000000000000000000000000000000001a040002000200000004000000000000000000000000000000000000000000000e000002000000000000020000000000000000000000000000000000000000000e0000000000000000e10400000000000000000000000000000000000000000007000000000000000004000000000000000000000000000000000000000000000e0000000000000000e0020000000000000000000000000000000000000000000c000004000400000001ffffffffffffffffffffffffffffffff0000000000000c000004000400000000ffffffff0000000000000000000000000000000000001a0100040004000000020000000000000000000000000000000000000000000004040000000000000000000000000000000000000000000000000000000000000a0000000000000000043a0b070b0000000000000000000000000000000000000e000004000000000060030000000000000000000000000000000000000000000e000002000000000020000000000000000000000000000000000000000000000c000002000200000001000000000000000000000000000000000000000000000c000002000200000000000000000000000000000000000000000000000000000e0000020000000000200100000000000000000000000000000000000000000010000000000000000000000000000000000000000000000000000000000000000c000004000400000001400000000000000000000000000000000000000000000c000004000400000000000000000000000000000000000000000000000000000e000004000000000040000000000000000000000000000000000000000000000c000004000400000001200000000000000000000000000000000000000000000c000004000400000000000000000000000000000000000000000000000000000c000008000800000001020000000000000000000000000000000000000000000c00000800080000000000000000000000000000000000000000000000000000180000020010000000000500000000000000000000000000000000000000000008100004001000000000000000000000000000000000000000000000000000000e100000002000000021000000000000000000000000000000000000000000000e10002000000000004001000000000000000000000000000000000000000000020000020002000000000100000000000000000000000000000000000000000004020008000000000000000000000000000000000000000000000000000000000a000000000000000002140b1b0b0000000000000000000000000000000000000c00000100010000000100000000ff03000000000000000000000000000000000c00000100010000000000000000000000000000000000000000000000000000070000000000000000034a1a00000000000000000000000000000000000000000e000000000200000041010000000000000000000000000000000000000000000e000000000400000061030000000000000000000000000000000000000000000e000004000000000020000000000000000000000000000000000000000000000e0000020000000000200100000000000000000000000000000000000000000010000000000000000000000000000000000000000000000000000000000000000c000002000200000001400000000000000000000000000000000000000000000c000002000200000000000000000000000000000000000000000000000000000e000002000000000040000000000000000000000000000000000000000000000c000002000200000001000000000000000000000000000000000000000000000c000002000200000000000000000000000000000000000000000000000000000c000004000400000001200000000000000000000000000000000000000000000c000004000400000000000000000000000000000000000000000000000000000c000008000800000001020000000000000000000000000000000000000000000c00000800080000000000000000000000000000000000000000000000000000180000020010000000000500000000000000000000000000000000000000000008100004001000000000000000000000000000000000000000000000000000000e100000002000000021000000000000000000000000000000000000000000000e10002000000000004001000000000000000000000000000000000000000000020000020002000000000100000000000000000000000000000000000000000004020008000000000000000000000000000000000000000000000000000000000a0000000000000000022c0b330b0000000000000000000000000000000000000c00000100010000000100000000ff03000000000000000000000000000000000c00000100010000000000000000000000000000000000000000000000000000070000000000000000034a1a00000000000000000000000000000000000000000e0000000002000000410100000000000000000000000000000000000000000005020000000100000001000000000000000000000000000000000000000000000e0000000000000000e10200000000000000000000000000000000000000000007000000000000000000000000000000000000000000000000000000000000000c000001000100000001000000000000000000000000000000000000000000000c000001000100000000000000000000000000000000a079c3080000000000000e000000000200000021020000000000000000000000000000000000000000000e00000200000000006001000000000000000000000000000000000000000000070000000000000000032b1a00000000000000000000000000000000000000000e0000000002000000610100000000000000000000000000000000000000000002000002000200000000040000000000000000000000000000000000000000000c000001000100000001200000000000000000000000000000000000000000000c00000100010000000000000000000000000000000000000000000000000000070000000000000000032b1a00000000000000000000000000000000000000000e0000000002000000610100000000000000000000000000000000000000000002000002000200000000240000000000000000000000000000000000000000000c0000010001000000012b0000000000000000000000000000000000000000000c00000100010000000000000000000000000000000000000000000000000000070000000000000000032b1a00000000000000000000000000000000000000000e0000000002000000610100000000000000000000000000000000000000000002000002000200000000440000000000000000000000000000000000000000000c0000010001000000017a2065687420726f66207972657571200000000000000c00000100010000000065636e616c6162203a35353131435245000000000000070000000000000000032b1a00000000000000000000000000000000000000000e0000000002000000610100000000000000000000000000000000000000000002000002000200000000640000000000000000000000000000000000000000000c000001000100000001000000000000000000000000000000000000000000000c000001000100000000000000000073736572646461206f7265000000000000070000000000000000032b1a00000000000000000000000000000000000000000c000002000200000001840000000000000000000000000000000000000000000c000002000200000000000000000000000000000000000000000000000000000e000002000000000000000000000000000000000000000000000000000000000c000002000200000001000000000000000000000000000000000000000000000c000002000200000000000000000000000000000000000000000000000000000e0000020000000000600300000000000000000000000000000000000000000018000002000400000000050000000000000000000000000000000000000000000e000004000000000060020000000000000000000000000000000000000000000e00000000020000006101000000000000000000000000000000000000000000020200040001000000000000000000000000000000000000000000000000000007000000000000000003031a00000000000000000000000000000000000000000c000002000200000001200000000000000000000000000000000000000000000c000002000200000000000000000000000000000000000000000000000000000e0000000004000000610200000000000000000000000000000000000000000008040002000200000000000000000000000000000000000000000000000000000e020001000000000000010000000000000000000000000000000000000000000e0000000002000000610300000000000000000000000000000000000000000002000002000200000000010000000000000000000000000000000000000000000c000004000400000001040000000000000000000000000000000000000000000c0000040004000000000000000000000000000000000000000000000000000004020004000000000000000000000000000000000000000000000000000000000a000000000000000002580b690b0000000000000000000000000000000000000e00000000020000006101000000000000000000000000000000000000000000020000020001000000008000000000000000000000000000000000000000000007000000000000000003031a00000000000000000000000000000000000000000c000002000200000001ffffffffffffffffffffffffffffffff0000000000000c000002000200000000ffffffffffffffffffffffff000000000000000000000e000000000400000001050000000000000000000000000000000000000000001a040002000200000002000000000000000000000000000000000000000000000c000004000400000001000000000000000000000000000000000000000000000c000004000400000000000000000000000000000000ffffffff0000000000001a010004000400000002000000000000000000000000000000000000000000001a040002000200000004000000000000000000000000000000000000000000000e000002000000000000050000000000000000000000000000000000000000000e0000000000000000e10200000000000000000000000000000000000000000007000000000000000004000000000000000000000000000000000000000000000e0000000000000000e0070000000000000000000000000000000000000000000c000002000200000001ffffffffffffffff00000000000000000000000000000c0000020002000000000000000000000000000000000000000000000000000004010002000000000000000000000000000000000000000000000000000000000a000000000000000008d90b7c0b00000000000000000000000000000000000018000001000200000000050000000000000000000000000000000000000000000e00000200000000006002000000000000000000000000000000000000000000020000020002000000003f0000000000000000000000000000000000000000000c000004000400000001e0ffffffffffffffffffffffffffffff0000000000000c000004000400000000ffffffffffffffffffffffffffffffff0000000000001a020004000200000002000000000000000000000000000000000000000000000e0000000008000000210200000000000000000000000000000000000000000002080002000200000000000000000000000000000000000000000000000000000c000004000400000001010000000000000000000000000000000000000000000c000004000400000000000000000000000000000000000000000000000000000e0000080000000000600300000000000000000000000000000000000000000004020008000000000000000000000000000000000000000000000000000000000a0000000000000000028b0b890b0000000000000000000000000000000000000c000004000400000001000000000000000000000000000000000000000000000c000004000400000000000000000000000000000000000000000000000000000c000008000800000001ffffffffffffffff00000000000000000000000000000c0000080008000000000000000000000000000000000000000000000000000004020008000000000000000000000000000000000000000000000000000000000a000000000000000008030c8f0b00000000000000000000000000000000000004040000000000000000000000000000000000000000000000000000000000000a00000000000000000a030c910b0000000000000000000000000000000000000e000002000000000020020000000000000000000000000000000000000000000e00000000020000006103000000000000000000000000000000000000000000070000000000000000032b1a00000000000000000000000000000000000000000c000010001000000001000000000000000000000000000000000000000000000c000010001000000000000000000000000000000000000000000000000000000e000000000400000061020000000000000000000000000000000000000000001a0000040002000000021f0000000000000000000000000000000000000000000e000002000000000060010000000000000000000000000000000000000000000e0000000002000000610300000000000000000000000000000000000000000002000002000200000000200000000000000000000000000000000000000000000e000002000000000060060000000000000000000000000000000000000000000e000000000200000001000000000000000000000000000000000000000000001a000002000200000002ffffffff000000000000000000000000000000000000020000020008000000002000000000000000000000000000000000000000000018000004000200000002050000000000000000000000000000000000000000000e000002000000000060040000000000000000000000000000000000000000000e0000080000000000600500000000000000000000000000000000000000000004020000000000000000000000000000000000000000000000000000000000000a000000000000000004b30ba40b0000000000000000000000000000000000000e0000100000000000600800000000000000000000000000000000000000000018000010000200000000050000000000000000000000000000000000000000000e00000200000000006007000000000000000000000000000000000000000000020800020001000000000000000000000000000000000000000000000000000007000000000000000003171a00000000000000000000000000000000000000000e000000000200000061060000000000000000000000000000000000000000000e000000000400000061070000000000000000000000000000000000000000000202000400020000000000000000000000000000000000000000000000000000070000000000000000032b1a00000000000000000000000000000000000000000e000000001000000061080000000000000000000000000000000000000000000e0000000008000000610500000000000000000000000000000000000000000002000010001000000000010000000000000000000000000000000000000000000e0000000002000000610400000000000000000000000000000000000000000004100002000000000000000000000000000000000000000000000000000000000a000000000000000002a40bb30b0000000000000000000000000000000000000e000000000200000061060000000000000000000000000000000000000000000e0000000002000000610100000000000000000000000000000000000000000004020000000000000000000000000000000000000000000000000000000000000a000000000000000004d60bb70b0000000000000000000000000000000000000c000002000200000001e0ffffffffffffffffffffffffffffff0000000000000c000002000200000000ffffffffffffffffffffffffffffffff0000000000000e000000000400000061020000000000000000000000000000000000000000001a040002000200000002000000000000000000000000000000000000000000000e00000200000000006008000000000000000000000000000000000000000000020800020001000000000000000000000000000000000000000000000000000007000000000000000003171a00000000000000000000000000000000000000000e0000000002000000610100000000000000000000000000000000000000000018000002000200000000030000000000000000000000000000000000000000000c000004000400000001000100000000000000000000000000000000000000000c0000040004000000000000000000000000000000000000000000000000000004040002000400000000000000000000000000000000000000000000000000000c000008000800000001ffffffffffffffffffffffffffffffff0000000000000c000008000800000000ffffffffffffffffffffffffffffffff00000000000018040008000400000000000000000000000000000000000000000000000000001a010004000400000002000000000000000000000000000000000000000000000e0000040000000000600700000000000000000000000000000000000000000018020008000200000002000000000000000000000000000000000000000000000e000002000000000060050000000000000000000000000000000000000000000e000000000200000061060000000000000000000000000000000000000000000e0000000004000000610800000000000000000000000000000000000000000002020004000200000000000000000000000000000000000000000000000000000e00000200000000006008000000000000000000000000000000000000000000020200000001000000000000000000000000000000000000000000000000000007000000000000000003031a00000000000000000000000000000000000000000e000000000200000061050000000000000000000000000000000000000000001a010002000200000002000000000000000000000000000000000000000000000e000000000400000061070000000000000000000000000000000000000000001a040002000100000004000000000000000000000000000000000000000000000e00000000020000006108000000000000000000000000000000000000000000070000000000000000032b1a00000000000000000000000000000000000000000e000000000100000061030000000000000000000000000000000000000000000e0000000000000000e10700000000000000000000000000000000000000000007000000000000000000000000000000000000000000000000000000000000000c000002000200000001000000000000000000000000000000000000000000000c000002000200000000000000000000000000000000717b484e0000000000000e000002000000000020000000000000000000000000000000000000000000000c000001000100000001410000000000000000000000000000000000000000000c000001000100000000000000000000000000000000000000000000000000000c000002000200000001040000000000000000000000000000000000000000000c00000200020000000000000000000000000000000000000000000000000000070000000000000000032b1a00000000000000000000000000000000000000000c000002000200000001240000000000000000000000000000000000000000000c000002000200000000000000000000000000000000000000000000000000000e000002000000000000000000000000000000000000000000000000000000000c000004000400000001000000000000000000000000000000000000000000000c000004000400000000000000000000000000000000000000000000000000000c000002000200000001200000000000000000000000000000000000000000000c000002000200000000000000000000000000000000000000000000000000000a000000000000000001ec0bec0b000000000000000000000000000000000000020800000004000000000000000000000000000000000000000000000000000004100000000000000000000000000000000000000000000000000000000000000a00000000000000000aec0bf80b000000000000000000000000000000000000180000040008000000000500000000000000000000000000000000000000000008080002000800000000000000000000000000000000000000000000000000000e080000001000000021000000000000000000000000000000000000000000000e0800100000000000000100000000000000000000000000000000000000000002000004000800000000010000000000000000000000000000000000000000000c000010001000000001010000000000000000000000000000000000000000000c0000100010000000000000000000000000000000000000000000000000000004080004000000000000000000000000000000000000000000000000000000000a000000000000000002e90bf50b0000000000000000000000000000000000000c000010001000000001000000000000000000000000000000000000000000000c000010001000000000000000000000000000000000000000000000000000000a000000000000000001e90be90b0000000000000000000000000000000000000c000002000200000001ffffffffffffffffffffffffffffffff0000000000000c000002000200000000ffffffffffffffffffffffff000000000000000000000e000000000400000001020000000000000000000000000000000000000000001a040002000200000002000000000000000000000000000000000000000000000c000004000400000001000000000000000000000000000000000000000000000c000004000400000000000000000000000000000000ffffffff0000000000000e000000000800000021010000000000000000000000000000000000000000001a080004000400000002000000000000000000000000000000000000000000001a040002000200000004000000000000000000000000000000000000000000000e000002000000000000020000000000000000000000000000000000000000000a0000000000000000012c0c2c0c0000000000000000000000000000000000000c000002000200000001000000000000000000000000000000000000000000000c000002000200000000000000000000000000000000717b484e0000000000000e000002000000000020000000000000000000000000000000000000000000000c000001000100000001410000000000000000000000000000000000000000000c000001000100000000000000000000000000000000000000000000000000000c000002000200000001040000000000000000000000000000000000000000000c00000200020000000000000000000000000000000000000000000000000000070000000000000000032b1a00000000000000000000000000000000000000000c000002000200000001240000000000000000000000000000000000000000000c000002000200000000000000000000000000000000000000000000000000000e000002000000000000000000000000000000000000000000000000000000000c000004000400000001000000000000000000000000000000000000000000000c000004000400000000000000000000000000000000000000000000000000000c000002000200000001200000000000000000000000000000000000000000000c000002000200000000000000000000000000000000000000000000000000000a000000000000000001160c160c000000000000000000000000000000000000020800000004000000000000000000000000000000000000000000000000000004100000000000000000000000000000000000000000000000000000000000000a00000000000000000a160c220c000000000000000000000000000000000000180000040008000000000500000000000000000000000000000000000000000008080002000800000000000000000000000000000000000000000000000000000e080000001000000021000000000000000000000000000000000000000000000e0800100000000000000100000000000000000000000000000000000000000002000004000800000000010000000000000000000000000000000000000000000c000010001000000001010000000000000000000000000000000000000000000c0000100010000000000000000000000000000000000000000000000000000004080004000000000000000000000000000000000000000000000000000000000a000000000000000002130c1f0c0000000000000000000000000000000000000c000010001000000001000000000000000000000000000000000000000000000c000010001000000000000000000000000000000000000000000000000000000a000000000000000001130c130c0000000000000000000000000000000000000c000002000200000001ffffffffffffffffffffffffffffffff0000000000000c000002000200000000ffffffffffffffffffffffff000000000000000000000e000000000400000001020000000000000000000000000000000000000000001a040002000200000002000000000000000000000000000000000000000000000c000004000400000001000000000000000000000000000000000000000000000c000004000400000000000000000000000000000000ffffffff0000000000000e000000000800000021010000000000000000000000000000000000000000001a080004000400000002000000000000000000000000000000000000000000001a040002000200000004000000000000000000000000000000000000000000000e000002000000000000020000000000000000000000000000000000000000000e0000000000000000e10700000000000000000000000000000000000000000007000000000000000004000000000000000000000000000000000000000000000e0000000000000000e0050000000000000000000000000000000000000000000e000002000000000060030000000000000000000000000000000000000000000e0000010000000000600200000000000000000000000000000000000000000007000000000000000003031a00000000000000000000000000000000000000000e000001000000000060060000000000000000000000000000000000000000000e00000000020000006103000000000000000000000000000000000000000000020200000001000000000000000000000000000000000000000000000000000007000000000000000003031a00000000000000000000000000000000000000000e0000000002000000610600000000000000000000000000000000000000000004020001000000000000000000000000000000000000000000000000000000000a000000000000000004390ccb0c000000000000000000000000000000000000020200000001000000000000000000000000000000000000000000000000000007000000000000000003770b00000000000000000000000000000000000000000a0000000000000000023c0c3e0c0000000000000000000000000000000000000e000001000000000060040000000000000000000000000000000000000000000a000000000000000001c90cc90c0000000000000000000000000000000000000e000001000000000060040000000000000000000000000000000000000000000e00000000020000006102000000000000000000000000000000000000000000020200000001000000000000000000000000000000000000000000000000000007000000000000000003031a00000000000000000000000000000000000000000c000002000200000001000000000000000000000000000000000000000000000c000002000200000000000000000000000000000000000000000000000000000e0000000004000000610400000000000000000000000000000000000000000004010000000000000000000000000000000000000000000000000000000000000a000000000000000004730c470c0000000000000000000000000000000000000e00000200000000006006000000000000000000000000000000000000000000180000020002000000000500000000000000000000000000000000000000000002000002000200000000200000000000000000000000000000000000000000000e000002000000000060050000000000000000000000000000000000000000000e00000000040000006102000000000000000000000000000000000000000000020200040001000000000000000000000000000000000000000000000000000007000000000000000003031a00000000000000000000000000000000000000000e000001000000000060010000000000000000000000000000000000000000000e0000000001000000610400000000000000000000000000000000000000000007000000000000000003031a00000000000000000000000000000000000000000e0000000002000000610600000000000000000000000000000000000000000004010002000000000000000000000000000000000000000000000000000000000a000000000000000008540c760c0000000000000000000000000000000000000e00000000020000006103000000000000000000000000000000000000000000020200000001000000000000000000000000000000000000000000000000000007000000000000000003031a00000000000000000000000000000000000000000e0000000002000000610600000000000000000000000000000000000000000004010002000000000000000000000000000000000000000000000000000000000a0000000000000000085a0c950c0000000000000000000000000000000000000c000002000200000001ffffffffffffffffffffffffffffffff0000000000000c000002000200000000ffffffff0000000000000000000000000000000000000e000000000400000061010000000000000000000000000000000000000000001a040002000200000002000000000000000000000000000000000000000000000e000002000000000060010000000000000000000000000000000000000000000e000000000200000061050000000000000000000000000000000000000000000e00000000040000006103000000000000000000000000000000000000000000020200040001000000000000000000000000000000000000000000000000000007000000000000000003031a000000000000000000000000000000000000000002010000000200000000000000000000000000000000000000000000000000000e0000000001000000610100000000000000000000000000000000000000000007000000000000000003010b00000000000000000000000000000000000000000a000000000000000002670c680c0000000000000000000000000000000000000a000000000000000001c90cc90c0000000000000000000000000000000000000e000000000200000061040000000000000000000000000000000000000000000e000000000400000061050000000000000000000000000000000000000000000204000200020000000000000000000000000000000000000000000000000000070000000000000000032b1a00000000000000000000000000000000000000000e00000000020000006102000000000000000000000000000000000000000000020200000001000000000000000000000000000000000000000000000000000007000000000000000003031a00000000000000000000000000000000000000000e00000000020000006106000000000000000000000000000000000000000000020000020002000000000100000000000000000000000000000000000000000004020001000000000000000000000000000000000000000000000000000000000a000000000000000002470c730c0000000000000000000000000000000000000e000000000100000061040000000000000000000000000000000000000000000e0000000000000000e10500000000000000000000000000000000000000000007000000000000000000000000000000000000000000000000000000000000000c000002000200000001000000000000000000000000000000000000000000000c000002000200000000000000000000000000000000717b484e0000000000000e000002000000000020000000000000000000000000000000000000000000000c000001000100000001320000000000000000000000000000000000000000000c000001000100000000000000000000000000000000000000000000000000000c000002000200000001040000000000000000000000000000000000000000000c00000200020000000000000000000000000000000000000000000000000000070000000000000000032b1a00000000000000000000000000000000000000000c000002000200000001240000000000000000000000000000000000000000000c000002000200000000000000000000000000000000000000000000000000000e000002000000000000000000000000000000000000000000000000000000000c000004000400000001000000000000000000000000000000000000000000000c000004000400000000000000000000000000000000000000000000000000000c000002000200000001200000000000000000000000000000000000000000000c000002000200000000000000000000000000000000000000000000000000000a000000000000000001890c890c000000000000000000000000000000000000020800000004000000000000000000000000000000000000000000000000000004100000000000000000000000000000000000000000000000000000000000000a00000000000000000a890cb40c000000000000000000000000000000000000180000040008000000000500000000000000000000000000000000000000000008080002000800000000000000000000000000000000000000000000000000000e080000001000000021000000000000000000000000000000000000000000000e0800100000000000000100000000000000000000000000000000000000000002000004000800000000010000000000000000000000000000000000000000000c000010001000000001010000000000000000000000000000000000000000000c0000100010000000000000000000000000000000000000000000000000000004080004000000000000000000000000000000000000000000000000000000000a000000000000000002860c920c0000000000000000000000000000000000000c000010001000000001000000000000000000000000000000000000000000000c000010001000000000000000000000000000000000000000000000000000000a000000000000000001860c860c0000000000000000000000000000000000000c000002000200000001000000000000000000000000000000000000000000000c000002000200000000000000000000000000000000717b484e0000000000000e000002000000000020000000000000000000000000000000000000000000000c000001000100000001320000000000000000000000000000000000000000000c000001000100000000000000000000000000000000000000000000000000000c000002000200000001040000000000000000000000000000000000000000000c00000200020000000000000000000000000000000000000000000000000000070000000000000000032b1a00000000000000000000000000000000000000000c000002000200000001240000000000000000000000000000000000000000000c000002000200000000000000000000000000000000000000000000000000000e000002000000000000000000000000000000000000000000000000000000000c000004000400000001000000000000000000000000000000000000000000000c000004000400000000000000000000000000000000000000000000000000000c000002000200000001200000000000000000000000000000000000000000000c000002000200000000000000000000000000000000000000000000000000000a000000000000000001a80ca80c000000000000000000000000000000000000020800000004000000000000000000000000000000000000000000000000000004100000000000000000000000000000000000000000000000000000000000000a00000000000000000aa80cbf0c000000000000000000000000000000000000180000040008000000000500000000000000000000000000000000000000000008080002000800000000000000000000000000000000000000000000000000000e080000001000000021000000000000000000000000000000000000000000000e0800100000000000000100000000000000000000000000000000000000000002000004000800000000010000000000000000000000000000000000000000000c000010001000000001010000000000000000000000000000000000000000000c0000100010000000000000000000000000000000000000000000000000000004080004000000000000000000000000000000000000000000000000000000000a000000000000000002a50cb10c0000000000000000000000000000000000000c000010001000000001000000000000000000000000000000000000000000000c000010001000000000000000000000000000000000000000000000000000000a000000000000000001a50ca50c0000000000000000000000000000000000000c000002000200000001ffffffffffffffffffffffffffffffff0000000000000c000002000200000000ffffffffffffffffffffffff000000000000000000000e000000000400000001020000000000000000000000000000000000000000001a040002000200000002000000000000000000000000000000000000000000000c000004000400000001000000000000000000000000000000000000000000000c000004000400000000000000000000000000000000ffffffff0000000000000e000000000800000021010000000000000000000000000000000000000000001a080004000400000002000000000000000000000000000000000000000000001a040002000200000004000000000000000000000000000000000000000000000e000002000000000000020000000000000000000000000000000000000000000a000000000000000001c90cc90c0000000000000000000000000000000000000c000002000200000001ffffffffffffffffffffffffffffffff0000000000000c000002000200000000ffffffffffffffffffffffff000000000000000000000e000000000400000001020000000000000000000000000000000000000000001a040002000200000002000000000000000000000000000000000000000000000c000004000400000001000000000000000000000000000000000000000000000c000004000400000000000000000000000000000000ffffffff0000000000000e000000000800000021010000000000000000000000000000000000000000001a080004000400000002000000000000000000000000000000000000000000001a040002000200000004000000000000000000000000000000000000000000000e000002000000000000020000000000000000000000000000000000000000000e0000000000000000e10500000000000000000000000000000000000000000007000000000000000004000000000000000000000000000000000000000000000c000001000100000001000000000000000000000000000000000000000000000c000001000100000000000000000000000000000000a079c3080000000000000e000000000200000021020000000000000000000000000000000000000000000e00000200000000006004000000000000000000000000000000000000000000070000000000000000032b1a00000000000000000000000000000000000000000e0000000002000000610400000000000000000000000000000000000000000002000002000200000000040000000000000000000000000000000000000000000c000001000100000001200000000000000000000000000000000000000000000c00000100010000000000000000000000000000000000000000000000000000070000000000000000032b1a00000000000000000000000000000000000000000e0000000002000000610400000000000000000000000000000000000000000002000002000200000000240000000000000000000000000000000000000000000c000001000100000001290000000000000000000000000000000000000000000c00000100010000000000000000000000000000000000000000000000000000070000000000000000032b1a00000000000000000000000000000000000000000e0000000002000000610400000000000000000000000000000000000000000002000002000200000000440000000000000000000000000000000000000000000c0000010001000000016874676e656c2073646920646e6120730000000000000c000001000100000000746e756f636361203a35353131435245000000000000070000000000000000032b1a00000000000000000000000000000000000000000e0000000002000000610400000000000000000000000000000000000000000002000002000200000000640000000000000000000000000000000000000000000c000001000100000001000000000000000000000000000000000000000000000c00000100010000000000000000000000686374616d73696d20000000000000070000000000000000032b1a00000000000000000000000000000000000000000c000002000200000001840000000000000000000000000000000000000000000c000002000200000000000000000000000000000000000000000000000000000e000002000000000000000000000000000000000000000000000000000000000c000002000200000001000000000000000000000000000000000000000000000c000002000200000000000000000000000000000000000000000000000000000e0000020000000000600600000000000000000000000000000000000000000018000002000400000000050000000000000000000000000000000000000000000e000004000000000060050000000000000000000000000000000000000000000e00000000020000006104000000000000000000000000000000000000000000020200040001000000000000000000000000000000000000000000000000000007000000000000000003031a00000000000000000000000000000000000000000c000002000200000001200000000000000000000000000000000000000000000c000002000200000000000000000000000000000000000000000000000000000e0000000004000000610500000000000000000000000000000000000000000008040002000200000000000000000000000000000000000000000000000000000e020001000000000000010000000000000000000000000000000000000000000e0000000002000000610600000000000000000000000000000000000000000002000002000200000000010000000000000000000000000000000000000000000c000004000400000001040000000000000000000000000000000000000000000c0000040004000000000000000000000000000000000000000000000000000004020004000000000000000000000000000000000000000000000000000000000a000000000000000002e90cfa0c0000000000000000000000000000000000000e00000000020000006104000000000000000000000000000000000000000000020000020001000000008000000000000000000000000000000000000000000007000000000000000003031a00000000000000000000000000000000000000000c000002000200000001ffffffffffffffffffffffffffffffff0000000000000c000002000200000000ffffffffffffffffffffffff000000000000000000000e000000000400000001050000000000000000000000000000000000000000001a040002000200000002000000000000000000000000000000000000000000000c000004000400000001000000000000000000000000000000000000000000000c000004000400000000000000000000000000000000ffffffff0000000000001a010004000400000002000000000000000000000000000000000000000000001a040002000200000004000000000000000000000000000000000000000000000e000002000000000000050000000000000000000000000000000000000000000e0000000000000000e10500000000000000000000000000000000000000000007000000000000000004000000000000000000000000000000000000000000000e0000000000000000e0020000000000000000000000000000000000000000000c000010001000000001ffffffffffffffffffffffffffffffff0000000000000c000010001000000000ffffffff0000000000000000000000000000000000001a0100100004000000020000000000000000000000000000000000000000000014000000000800000000000000000000000000000000000000000000000000000e0000040000000000600200000000000000000000000000000000000000000004080004000000000000000000000000000000000000000000000000000000000a000000000000000004820d100d0000000000000000000000000000000000000e000002000000000060030000000000000000000000000000000000000000000e000008000000000060010000000000000000000000000000000000000000001a080010000200000002000000000000000000000000000000000000000000000e000002000000000020000000000000000000000000000000000000000000000c000002000200000001010000000000000000000000000000000000000000000c000002000200000000000000000000000000000000000000000000000000000e0000020000000000200100000000000000000000000000000000000000000010000000000000000000000000000000000000000000000000000000000000000c000002000200000001400000000000000000000000000000000000000000000c000002000200000000000000000000000000000000000000000000000000000e000002000000000040000000000000000000000000000000000000000000000c000002000200000001000000000000000000000000000000000000000000000c000002000200000000000000000000000000000000000000000000000000000c000004000400000001200000000000000000000000000000000000000000000c000004000400000000000000000000000000000000000000000000000000000c000008000800000001020000000000000000000000000000000000000000000c00000800080000000000000000000000000000000000000000000000000000180000020010000000000500000000000000000000000000000000000000000008100004001000000000000000000000000000000000000000000000000000000e100000002000000021000000000000000000000000000000000000000000000e10002000000000004001000000000000000000000000000000000000000000020000020002000000000100000000000000000000000000000000000000000004020008000000000000000000000000000000000000000000000000000000000a000000000000000002210d280d0000000000000000000000000000000000000c00000100010000000100000000ff03000000000000000000000000000000000c00000100010000000000000000000000000000000000000000000000000000070000000000000000034a1a00000000000000000000000000000000000000000e000000000200000041010000000000000000000000000000000000000000000e000000000400000061020000000000000000000000000000000000000000000e000004000000000020000000000000000000000000000000000000000000000e0000020000000000200100000000000000000000000000000000000000000010000000000000000000000000000000000000000000000000000000000000000c000002000200000001400000000000000000000000000000000000000000000c000002000200000000000000000000000000000000000000000000000000000e000002000000000040000000000000000000000000000000000000000000000c000002000200000001000000000000000000000000000000000000000000000c000002000200000000000000000000000000000000000000000000000000000c000004000400000001200000000000000000000000000000000000000000000c000004000400000000000000000000000000000000000000000000000000000c000008000800000001020000000000000000000000000000000000000000000c00000800080000000000000000000000000000000000000000000000000000180000020010000000000500000000000000000000000000000000000000000008100004001000000000000000000000000000000000000000000000000000000e100000002000000021000000000000000000000000000000000000000000000e10002000000000004001000000000000000000000000000000000000000000020000020002000000000100000000000000000000000000000000000000000004020008000000000000000000000000000000000000000000000000000000000a000000000000000002390d400d0000000000000000000000000000000000000c000004000400000001010000000000000000000000000000000000000000000c000004000400000000000000000000000000000000000000000000000000000e0000000002000000610300000000000000000000000000000000000000000004020000000000000000000000000000000000000000000000000000000000000a00000000000000000a470d450d0000000000000000000000000000000000000c000004000400000001000000000000000000000000000000000000000000000c000004000400000000000000000000000000000000000000000000000000000e000004000000000060030000000000000000000000000000000000000000000c00000100010000000100000000ff03000000000000000000000000000000000c00000100010000000000000000000000000000000000000000000000000000070000000000000000034a1a00000000000000000000000000000000000000000e0000000002000000410100000000000000000000000000000000000000000005020000000400000001000000000000000000000000000000000000000000000c00000800080000000100ffffffffffffffffffffffffffffff0000000000000c000008000800000000ffffffffffffffffffffffffffffffff0000000000001a040008000400000002000000000000000000000000000000000000000000000e000000000800000061030000000000000000000000000000000000000000001a000008000800000002010000000000000000000000000000000000000000001a0400080004000000040000000000000000000000000000000000000000000005020004000000000000000000000000000000000000000000000000000000000e000000000200000021020000000000000000000000000000000000000000000e000002000000000060030000000000000000000000000000000000000000000208000000010000000000000000000000000000000000000000000000000000070000000000000000032b1a00000000000000000000000000000000000000000e000000000800000061030000000000000000000000000000000000000000000c000002000200000001316c6937592bca89049220f200f253960000000000000c000002000200000000bd593dad459889e80761ab39ab7e30170000000000000c000004000400000001030000002000000000000000000000000000000000000c000004000400000000000000000000000000000000000000000000000000000504000200000000000a000000000000000000000000000000000000000000000e000000000200000061020000000000000000000000000000000000000000000e00000000040000006101000000000000000000000000000000000000000000050400020000000000020000000000000000000000000000000000000000000002000008001000000000200000000000000000000000000000000000000000000c000002000200000001e0ffffffffffffffffffffffffffffff0000000000000c000002000200000000ffffffffffffffffffffffffffffffff0000000000000e0000100000000000600200000000000000000000000000000000000000000004080002000000000000000000000000000000000000000000000000000000000a00000000000000000c670d6f0d0000000000000000000000000000000000000e0000000000000000e10200000000000000000000000000000000000000000007000000000000000000000000000000000000000000000000000000000000000c000002000200000001000000000000000000000000000000000000000000000c000002000200000000000000000000000000000000000000000000000000000520000200000000000200000000000000000000000000000000000000000000020000080008000000004000000000000000000000000000000000000000000004100008000000000000000000000000000000000000000000000000000000000a0000000000000000086f0d670d0000000000000000000000000000000000000e00000800000000006003000000000000000000000000000000000000000000020800000001000000000000000000000000000000000000000000000000000007000000000000000003031a00000000000000000000000000000000000000000e000000001000000061020000000000000000000000000000000000000000000e00000000080000006103000000000000000000000000000000000000000000041000080002000000000000000000000000000000000000000000000000000002010000002000000000000000000000000000000000000000000000000000000c0000040004000000013f0000000000000000000000000000000000000000000c0000040004000000000000000000000000000000000000000000000000000004020004000000000000000000000000000000000000000000000000000000000a0000000000000000087a0d690d00000000000000000000000000000000000002000008000100000000200000000000000000000000000000000000000000000e0000200000000000600100000000000000000000000000000000000000000007000000000000000003031a00000000000000000000000000000000000000000e000000001000000061020000000000000000000000000000000000000000000e000000000800000061030000000000000000000000000000000000000000000e0000000002000000610100000000000000000000000000000000000000000005020001000000000002000000000000000000000000000000000000000000000a0000000000000000016c0d6c0d0000000000000000000000000000000000000c000001000100000001000000000000000000000000000000000000000000000c000001000100000000000000000000000000000000a079c3080000000000000e000000000200000021020000000000000000000000000000000000000000000e00000200000000006001000000000000000000000000000000000000000000070000000000000000032b1a00000000000000000000000000000000000000000e0000000002000000610100000000000000000000000000000000000000000002000002000200000000040000000000000000000000000000000000000000000c000001000100000001200000000000000000000000000000000000000000000c00000100010000000000000000000000000000000000000000000000000000070000000000000000032b1a00000000000000000000000000000000000000000e0000000002000000610100000000000000000000000000000000000000000002000002000200000000240000000000000000000000000000000000000000000c000001000100000001290000000000000000000000000000000000000000000c00000100010000000000000000000000000000000000000000000000000000070000000000000000032b1a00000000000000000000000000000000000000000e0000000002000000610100000000000000000000000000000000000000000002000002000200000000440000000000000000000000000000000000000000000c000001000100000001737574617473206c61766f72707061200000000000000c000001000100000000676e6974746573203a35353131435245000000000000070000000000000000032b1a00000000000000000000000000000000000000000e0000000002000000610100000000000000000000000000000000000000000002000002000200000000640000000000000000000000000000000000000000000c000001000100000001000000000000000000000000000000000000000000000c00000100010000000000000000000000666c657320726f6620000000000000070000000000000000032b1a00000000000000000000000000000000000000000c000002000200000001840000000000000000000000000000000000000000000c000002000200000000000000000000000000000000000000000000000000000e000002000000000000000000000000000000000000000000000000000000000c000002000200000001000000000000000000000000000000000000000000000c000002000200000000000000000000000000000000000000000000000000000e0000020000000000600300000000000000000000000000000000000000000018000002000400000000050000000000000000000000000000000000000000000e000004000000000060020000000000000000000000000000000000000000000e00000000020000006101000000000000000000000000000000000000000000020200040001000000000000000000000000000000000000000000000000000007000000000000000003031a00000000000000000000000000000000000000000c000002000200000001200000000000000000000000000000000000000000000c000002000200000000000000000000000000000000000000000000000000000e0000000004000000610200000000000000000000000000000000000000000008040002000200000000000000000000000000000000000000000000000000000e020001000000000000010000000000000000000000000000000000000000000e0000000002000000610300000000000000000000000000000000000000000002000002000200000000010000000000000000000000000000000000000000000c000004000400000001040000000000000000000000000000000000000000000c0000040004000000000000000000000000000000000000000000000000000004020004000000000000000000000000000000000000000000000000000000000a000000000000000002a00db10d0000000000000000000000000000000000000e00000000020000006101000000000000000000000000000000000000000000020000020001000000008000000000000000000000000000000000000000000007000000000000000003031a00000000000000000000000000000000000000000c000002000200000001ffffffffffffffffffffffffffffffff0000000000000c000002000200000000ffffffffffffffffffffffff000000000000000000000e000000000400000001050000000000000000000000000000000000000000001a040002000200000002000000000000000000000000000000000000000000000c000004000400000001000000000000000000000000000000000000000000000c000004000400000000000000000000000000000000ffffffff0000000000001a010004000400000002000000000000000000000000000000000000000000001a040002000200000004000000000000000000000000000000000000000000000e000002000000000000050000000000000000000000000000000000000000000e0000000000000000e10200000000000000000000000000000000000000000007000000000000000004000000000000000000000000000000000000000000000e0000000000000000e0090000000000000000000000000000000000000000000e000008000000000060050000000000000000000000000000000000000000000e000004000000000060060000000000000000000000000000000000000000000c000010001000000001ffffffffffffffffffffffffffffffff0000000000000c000010001000000000ffffffff0000000000000000000000000000000000001a0100100008000000020000000000000000000000000000000000000000000014000000000400000000000000000000000000000000000000000000000000000e000008000000000060040000000000000000000000000000000000000000000e0000040000000000600100000000000000000000000000000000000000000004080004000000000000000000000000000000000000000000000000000000000a000000000000000004070eca0d0000000000000000000000000000000000000e0000020000000000600a0000000000000000000000000000000000000000000e000000000200000061040000000000000000000000000000000000000000000e000002000000000020000000000000000000000000000000000000000000000c000002000200000001010000000000000000000000000000000000000000000c000002000200000000000000000000000000000000000000000000000000000e0000020000000000200100000000000000000000000000000000000000000010000000000000000000000000000000000000000000000000000000000000000c000002000200000001400000000000000000000000000000000000000000000c000002000200000000000000000000000000000000000000000000000000000e000002000000000040000000000000000000000000000000000000000000000c000002000200000001000000000000000000000000000000000000000000000c000002000200000000000000000000000000000000000000000000000000000c000004000400000001200000000000000000000000000000000000000000000c000004000400000000000000000000000000000000000000000000000000000c000008000800000001020000000000000000000000000000000000000000000c00000800080000000000000000000000000000000000000000000000000000180000020010000000000500000000000000000000000000000000000000000008100004001000000000000000000000000000000000000000000000000000000e100000002000000021000000000000000000000000000000000000000000000e10002000000000004001000000000000000000000000000000000000000000020000020002000000000100000000000000000000000000000000000000000004020008000000000000000000000000000000000000000000000000000000000a000000000000000002da0de10d0000000000000000000000000000000000000c00000100010000000100000000ff03000000000000000000000000000000000c00000100010000000000000000000000000000000000000000000000000000070000000000000000034a1a00000000000000000000000000000000000000000c000002000200000001ffffffffffffffffffffffffffffffff0000000000000c000002000200000000ffffffff0000000000000000000000000000000000000e000000000400000061010000000000000000000000000000000000000000001a040002000200000002000000000000000000000000000000000000000000000e000000000400000041010000000000000000000000000000000000000000000e000002000000000020000000000000000000000000000000000000000000000e0000040000000000200100000000000000000000000000000000000000000010000000000000000000000000000000000000000000000000000000000000000c000002000200000001400000000000000000000000000000000000000000000c000002000200000000000000000000000000000000000000000000000000000e000002000000000040000000000000000000000000000000000000000000000c000002000200000001000000000000000000000000000000000000000000000c000002000200000000000000000000000000000000000000000000000000000c000004000400000001200000000000000000000000000000000000000000000c000004000400000000000000000000000000000000000000000000000000000c000008000800000001020000000000000000000000000000000000000000000c00000800080000000000000000000000000000000000000000000000000000180000020010000000000500000000000000000000000000000000000000000008100004001000000000000000000000000000000000000000000000000000000e100000002000000021000000000000000000000000000000000000000000000e10002000000000004001000000000000000000000000000000000000000000020000020002000000000100000000000000000000000000000000000000000004020008000000000000000000000000000000000000000000000000000000000a000000000000000002f50dfc0d0000000000000000000000000000000000000c00000100010000000100000000ff03000000000000000000000000000000000c00000100010000000000000000000000000000000000000000000000000000070000000000000000034a1a00000000000000000000000000000000000000000e0000000002000000410100000000000000000000000000000000000000000005020000000200000001000000000000000000000000000000000000000000001a000002000400000002ff0000000000000000000000000000000000000000000e0000000002000000610a0000000000000000000000000000000000000000000c000010001000000001ffffffffffffffffffffffffffffffff0000000000000c000010001000000000ffffffff00000000000000000000000000000000000004040000000000000000000000000000000000000000000000000000000000000a0000000000000000043210070e0000000000000000000000000000000000001a020010000400000002000000000000000000000000000000000000000000000c000002000200000001010000000000000000000000000000000000000000000c000002000200000000000000000000000000000000000000000000000000000e0000040000000000600200000000000000000000000000000000000000000004040000000000000000000000000000000000000000000000000000000000000a00000000000000000a0f0e0d0e0000000000000000000000000000000000000c000002000200000001000000000000000000000000000000000000000000000c000002000200000000000000000000000000000000000000000000000000001a0000020001000000020100000000000000000000000000000000000000000007000000000000000003bf1200000000000000000000000000000000000000000a000000000000000002120e130e0000000000000000000000000000000000000a000000000000000001301030100000000000000000000000000000000000000e000000000200000021020000000000000000000000000000000000000000000c000004000400000001bfffffffffffffffffffffffffffffff0000000000000c000004000400000000ffffffffffffffffffffffffffffffff00000000000004020004000000000000000000000000000000000000000000000000000000000a0000000000000000085f0f180e00000000000000000000000000000000000002000002000800000000400000000000000000000000000000000000000000000c000004000400000001ffffffffffffffff00000000000000000000000000000c0000040004000000000000000000000000000000000000000000000000000004080004000000000000000000000000000000000000000000000000000000000a0000000000000000085f0f1d0e0000000000000000000000000000000000000e000008000000000020020000000000000000000000000000000000000000000c000001000100000001010000000000000000000000000000000000000000000c000001000100000000000000000000000000000000000000000000000000000e00000200000000006003000000000000000000000000000000000000000000070000000000000000032b1a00000000000000000000000000000000000000000c000008000800000001000000000000000000000000000000000000000000000c000008000800000000000000000000000000000000000000000000000000000e0000000002000000610300000000000000000000000000000000000000000002000002000200000000200000000000000000000000000000000000000000000e000002000000000060080000000000000000000000000000000000000000000e000000000200000001000000000000000000000000000000000000000000001a000002000200000002ffffffff00000000000000000000000000000000000002000002000200000000200000000000000000000000000000000000000000000e000002000000000060070000000000000000000000000000000000000000000a0000000000000000012f0e2f0e000000000000000000000000000000000000020200000008000000000000000000000000000000000000000000000000000004040000000000000000000000000000000000000000000000000000000000000a00000000000000000a2f0e420e0000000000000000000000000000000000000e0000080000000000600a00000000000000000000000000000000000000000018000008000400000000050000000000000000000000000000000000000000000e000004000000000060090000000000000000000000000000000000000000000e00000000020000006107000000000000000000000000000000000000000000020200040001000000000000000000000000000000000000000000000000000007000000000000000003171a00000000000000000000000000000000000000000e000000000200000061080000000000000000000000000000000000000000000e000000000400000061090000000000000000000000000000000000000000000202000400020000000000000000000000000000000000000000000000000000070000000000000000032b1a00000000000000000000000000000000000000000e0000000008000000610a00000000000000000000000000000000000000000002000008000200000000010000000000000000000000000000000000000000000c000004000400000001010000000000000000000000000000000000000000000c0000040004000000000000000000000000000000000000000000000000000004020008000000000000000000000000000000000000000000000000000000000a0000000000000000022c0e3f0e0000000000000000000000000000000000000c000004000400000001000000000000000000000000000000000000000000000c000004000400000000000000000000000000000000000000000000000000000a0000000000000000012c0e2c0e0000000000000000000000000000000000000e0000000001000000610300000000000000000000000000000000000000000007000000000000000003031a000000000000000000000000000000000000000004010000000000000000000000000000000000000000000000000000000000000a0000000000000000047e0f460e0000000000000000000000000000000000000e000000000100000061060000000000000000000000000000000000000000000e00000000020000006108000000000000000000000000000000000000000000070000000000000000032b1a00000000000000000000000000000000000000000e000000000200000021020000000000000000000000000000000000000000000c000004000400000001bfffffffffffffffffffffffffffffff0000000000000c000004000400000000ffffffffffffffffffffffffffffffff00000000000004020004000000000000000000000000000000000000000000000000000000000a0000000000000000089d0f4e0e00000000000000000000000000000000000002000002000800000000400000000000000000000000000000000000000000000c000004000400000001ffffffffffffffff00000000000000000000000000000c0000040004000000000000000000000000000000000000000000000000000004080004000000000000000000000000000000000000000000000000000000000a0000000000000000089d0f530e0000000000000000000000000000000000000e000008000000000020020000000000000000000000000000000000000000000c000001000100000001010000000000000000000000000000000000000000000c000001000100000000000000000000000000000000000000000000000000000e00000200000000006003000000000000000000000000000000000000000000070000000000000000032b1a00000000000000000000000000000000000000000c000008000800000001000000000000000000000000000000000000000000000c000008000800000000000000000000000000000000000000000000000000000e0000000002000000610300000000000000000000000000000000000000000002000002000200000000200000000000000000000000000000000000000000000e000002000000000060080000000000000000000000000000000000000000000e000000000200000001000000000000000000000000000000000000000000001a000002000200000002ffffffff00000000000000000000000000000000000002000002000200000000200000000000000000000000000000000000000000000e000002000000000060070000000000000000000000000000000000000000000a000000000000000001650e650e000000000000000000000000000000000000020200000008000000000000000000000000000000000000000000000000000004040000000000000000000000000000000000000000000000000000000000000a00000000000000000a650e780e0000000000000000000000000000000000000e0000080000000000600a00000000000000000000000000000000000000000018000008000400000000050000000000000000000000000000000000000000000e000004000000000060090000000000000000000000000000000000000000000e00000000020000006107000000000000000000000000000000000000000000020200040001000000000000000000000000000000000000000000000000000007000000000000000003171a00000000000000000000000000000000000000000e000000000200000061080000000000000000000000000000000000000000000e000000000400000061090000000000000000000000000000000000000000000202000400020000000000000000000000000000000000000000000000000000070000000000000000032b1a00000000000000000000000000000000000000000e0000000008000000610a00000000000000000000000000000000000000000002000008000200000000010000000000000000000000000000000000000000000c000004000400000001010000000000000000000000000000000000000000000c0000040004000000000000000000000000000000000000000000000000000004020008000000000000000000000000000000000000000000000000000000000a000000000000000002620e750e0000000000000000000000000000000000000c000004000400000001000000000000000000000000000000000000000000000c000004000400000000000000000000000000000000000000000000000000000a000000000000000001620e620e0000000000000000000000000000000000000e0000000001000000610300000000000000000000000000000000000000000007000000000000000003031a000000000000000000000000000000000000000004010000000000000000000000000000000000000000000000000000000000000a000000000000000004bc0f7c0e0000000000000000000000000000000000000e000000000100000061050000000000000000000000000000000000000000000e00000000020000006108000000000000000000000000000000000000000000070000000000000000032b1a00000000000000000000000000000000000000000e000000000200000061060000000000000000000000000000000000000000000e000002000000000020000000000000000000000000000000000000000000000c000002000200000001000000000000000000000000000000000000000000000c000002000200000000000000000000000000000000000000000000000000000e0000020000000000200100000000000000000000000000000000000000000010000000000000000000000000000000000000000000000000000000000000000c000004000400000001400000000000000000000000000000000000000000000c000004000400000000000000000000000000000000000000000000000000000e000004000000000040000000000000000000000000000000000000000000000c000004000400000001200000000000000000000000000000000000000000000c000004000400000000000000000000000000000000000000000000000000000c000008000800000001020000000000000000000000000000000000000000000c00000800080000000000000000000000000000000000000000000000000000180000020010000000000500000000000000000000000000000000000000000008100004001000000000000000000000000000000000000000000000000000000e100000002000000021000000000000000000000000000000000000000000000e10002000000000004001000000000000000000000000000000000000000000020000020002000000000100000000000000000000000000000000000000000004020008000000000000000000000000000000000000000000000000000000000a0000000000000000028c0e930e0000000000000000000000000000000000000c00000100010000000100000000ff03000000000000000000000000000000000c00000100010000000000000000000000000000000000000000000000000000070000000000000000034a1a00000000000000000000000000000000000000000e000000000200000041010000000000000000000000000000000000000000000e000000000400000061040000000000000000000000000000000000000000000e000004000000000020000000000000000000000000000000000000000000000e0000020000000000200100000000000000000000000000000000000000000010000000000000000000000000000000000000000000000000000000000000000c000002000200000001400000000000000000000000000000000000000000000c000002000200000000000000000000000000000000000000000000000000000e000002000000000040000000000000000000000000000000000000000000000c000002000200000001000000000000000000000000000000000000000000000c000002000200000000000000000000000000000000000000000000000000000c000004000400000001200000000000000000000000000000000000000000000c000004000400000000000000000000000000000000000000000000000000000c000008000800000001020000000000000000000000000000000000000000000c00000800080000000000000000000000000000000000000000000000000000180000020010000000000500000000000000000000000000000000000000000008100004001000000000000000000000000000000000000000000000000000000e100000002000000021000000000000000000000000000000000000000000000e10002000000000004001000000000000000000000000000000000000000000020000020002000000000100000000000000000000000000000000000000000004020008000000000000000000000000000000000000000000000000000000000a000000000000000002a40eab0e0000000000000000000000000000000000000c00000100010000000100000000ff03000000000000000000000000000000000c00000100010000000000000000000000000000000000000000000000000000070000000000000000034a1a00000000000000000000000000000000000000000e0000000002000000410100000000000000000000000000000000000000000005020000000800000001000000000000000000000000000000000000000000000c000002000200000001010000000000000000000000000000000000000000000c000002000200000000000000000000000000000000000000000000000000000e000000000400000061050000000000000000000000000000000000000000000e0000080000000000600a00000000000000000000000000000000000000000004080004000000000000000000000000000000000000000000000000000000000a00000000000000000cb80eb60e0000000000000000000000000000000000000c000002000200000001000000000000000000000000000000000000000000000c000002000200000000000000000000000000000000000000000000000000001a0000020001000000020100000000000000000000000000000000000000000007000000000000000003011300000000000000000000000000000000000000000a000000000000000002bb0ebc0e0000000000000000000000000000000000000a000000000000000001301030100000000000000000000000000000000000000e000000000200000061060000000000000000000000000000000000000000000e000002000000000020000000000000000000000000000000000000000000000c000002000200000001000000000000000000000000000000000000000000000c000002000200000000000000000000000000000000000000000000000000000e0000020000000000200100000000000000000000000000000000000000000010000000000000000000000000000000000000000000000000000000000000000c000004000400000001400000000000000000000000000000000000000000000c000004000400000000000000000000000000000000000000000000000000000e000004000000000040000000000000000000000000000000000000000000000c000004000400000001200000000000000000000000000000000000000000000c000004000400000000000000000000000000000000000000000000000000000c000008000800000001020000000000000000000000000000000000000000000c00000800080000000000000000000000000000000000000000000000000000180000020010000000000500000000000000000000000000000000000000000008100004001000000000000000000000000000000000000000000000000000000e100000002000000021000000000000000000000000000000000000000000000e10002000000000004001000000000000000000000000000000000000000000020000020002000000000100000000000000000000000000000000000000000004020008000000000000000000000000000000000000000000000000000000000a000000000000000002c90ed00e0000000000000000000000000000000000000c00000100010000000100000000ff03000000000000000000000000000000000c00000100010000000000000000000000000000000000000000000000000000070000000000000000034a1a00000000000000000000000000000000000000000e000000000200000041010000000000000000000000000000000000000000000e000000000400000061040000000000000000000000000000000000000000000e000004000000000020000000000000000000000000000000000000000000000e0000020000000000200100000000000000000000000000000000000000000010000000000000000000000000000000000000000000000000000000000000000c000002000200000001400000000000000000000000000000000000000000000c000002000200000000000000000000000000000000000000000000000000000e000002000000000040000000000000000000000000000000000000000000000c000002000200000001000000000000000000000000000000000000000000000c000002000200000000000000000000000000000000000000000000000000000c000004000400000001200000000000000000000000000000000000000000000c000004000400000000000000000000000000000000000000000000000000000c000008000800000001020000000000000000000000000000000000000000000c00000800080000000000000000000000000000000000000000000000000000180000020010000000000500000000000000000000000000000000000000000008100004001000000000000000000000000000000000000000000000000000000e100000002000000021000000000000000000000000000000000000000000000e10002000000000004001000000000000000000000000000000000000000000020000020002000000000100000000000000000000000000000000000000000004020008000000000000000000000000000000000000000000000000000000000a000000000000000002e10ee80e0000000000000000000000000000000000000c00000100010000000100000000ff03000000000000000000000000000000000c00000100010000000000000000000000000000000000000000000000000000070000000000000000034a1a00000000000000000000000000000000000000000e000000000200000061050000000000000000000000000000000000000000000e0000000004000000610a00000000000000000000000000000000000000000004040002000200000000000000000000000000000000000000000000000000000e0000000004000000410100000000000000000000000000000000000000000005040002000000000000000000000000000000000000000000000000000000000e000000000200000061060000000000000000000000000000000000000000000e000002000000000020000000000000000000000000000000000000000000000c000002000200000001000000000000000000000000000000000000000000000c000002000200000000000000000000000000000000000000000000000000000e0000020000000000200100000000000000000000000000000000000000000010000000000000000000000000000000000000000000000000000000000000000c000004000400000001400000000000000000000000000000000000000000000c000004000400000000000000000000000000000000000000000000000000000e000004000000000040000000000000000000000000000000000000000000000c000004000400000001200000000000000000000000000000000000000000000c000004000400000000000000000000000000000000000000000000000000000c000008000800000001020000000000000000000000000000000000000000000c00000800080000000000000000000000000000000000000000000000000000180000020010000000000500000000000000000000000000000000000000000008100004001000000000000000000000000000000000000000000000000000000e100000002000000021000000000000000000000000000000000000000000000e10002000000000004001000000000000000000000000000000000000000000020000020002000000000100000000000000000000000000000000000000000004020008000000000000000000000000000000000000000000000000000000000a000000000000000002fd0e040f0000000000000000000000000000000000000c00000100010000000100000000ff03000000000000000000000000000000000c00000100010000000000000000000000000000000000000000000000000000070000000000000000034a1a00000000000000000000000000000000000000000e000000000200000041010000000000000000000000000000000000000000000e000000000400000061020000000000000000000000000000000000000000000e000004000000000020000000000000000000000000000000000000000000000e0000020000000000200100000000000000000000000000000000000000000010000000000000000000000000000000000000000000000000000000000000000c000002000200000001400000000000000000000000000000000000000000000c000002000200000000000000000000000000000000000000000000000000000e000002000000000040000000000000000000000000000000000000000000000c000002000200000001000000000000000000000000000000000000000000000c000002000200000000000000000000000000000000000000000000000000000c000004000400000001200000000000000000000000000000000000000000000c000004000400000000000000000000000000000000000000000000000000000c000008000800000001020000000000000000000000000000000000000000000c00000800080000000000000000000000000000000000000000000000000000180000020010000000000500000000000000000000000000000000000000000008100004001000000000000000000000000000000000000000000000000000000e100000002000000021000000000000000000000000000000000000000000000e10002000000000004001000000000000000000000000000000000000000000020000020002000000000100000000000000000000000000000000000000000004020008000000000000000000000000000000000000000000000000000000000a000000000000000002150f1c0f0000000000000000000000000000000000000c00000100010000000100000000ff03000000000000000000000000000000000c00000100010000000000000000000000000000000000000000000000000000070000000000000000034a1a00000000000000000000000000000000000000000c000002000200000001ffffffffffffffffffffffffffffffff0000000000000c000002000200000000ffffffffffffffffffffffffffffffff0000000000000e000000001000000061050000000000000000000000000000000000000000001a100002000800000008000000000000000000000000000000000000000000000e00000000020000004101000000000000000000000000000000000000000000050200000004000000010000000000000000000000000000000000000000000004040008000000000000000000000000000000000000000000000000000000000a000000000000000008db0f270f000000000000000000000000000000000000020400100004000000000000000000000000000000000000000000000000000005020004000000000000000000000000000000000000000000000000000000000e000000000200000021020000000000000000000000000000000000000000000e000002000000000060090000000000000000000000000000000000000000000e00000000010000006106000000000000000000000000000000000000000000070000000000000000032b1a00000000000000000000000000000000000000000e0000000002000000610900000000000000000000000000000000000000000002000002000200000000200000000000000000000000000000000000000000000e0000020000000000600a0000000000000000000000000000000000000000000e00000000010000006105000000000000000000000000000000000000000000070000000000000000032b1a00000000000000000000000000000000000000000e0000000001000000610900000000000000000000000000000000000000000007000000000000000003031a00000000000000000000000000000000000000000e0000000008000000610a0000000000000000000000000000000000000000000c000002000200000001620f2daaac7a0f2483c0f443734254780000000000000c000002000200000000653dbf5b3d061d739773aec56881d5c30000000000000c000004000400000001040000004000000000000000000000000000000000000c000004000400000000000000000000000000000000000000000000000000000504000200000000000a000000000000000000000000000000000000000000000e000000000200000061040000000000000000000000000000000000000000000e0000000004000000610100000000000000000000000000000000000000000005040002000000000002000000000000000000000000000000000000000000000e0000000002000000610200000000000000000000000000000000000000000005020001000000000002000000000000000000000000000000000000000000000e0000000002000000610900000000000000000000000000000000000000000002000002001000000000400000000000000000000000000000000000000000000e0000100000000000600900000000000000000000000000000000000000000004100008000000000000000000000000000000000000000000000000000000000a000000000000000006440f4c0f0000000000000000000000000000000000000e0000000000000000e10900000000000000000000000000000000000000000007000000000000000000000000000000000000000000000000000000000000000c000002000200000001000000000000000000000000000000000000000000000c000002000200000000000000000000000000000000000000000000000000000520000200000000000200000000000000000000000000000000000000000000020000080008000000004000000000000000000000000000000000000000000004100008000000000000000000000000000000000000000000000000000000000a0000000000000000084c0f440f0000000000000000000000000000000000000e0000080000000000600a000000000000000000000000000000000000000000020800000001000000000000000000000000000000000000000000000000000007000000000000000003031a00000000000000000000000000000000000000000e000000001000000061090000000000000000000000000000000000000000000e0000000008000000610a000000000000000000000000000000000000000000041000080002000000000000000000000000000000000000000000000000000002010000002000000000000000000000000000000000000000000000000000000c0000040004000000013f0000000000000000000000000000000000000000000c0000040004000000000000000000000000000000000000000000000000000004020004000000000000000000000000000000000000000000000000000000000a000000000000000008570f460f00000000000000000000000000000000000002000008000100000000200000000000000000000000000000000000000000000e0000200000000000600800000000000000000000000000000000000000000007000000000000000003031a00000000000000000000000000000000000000000e000000001000000061090000000000000000000000000000000000000000000e0000000008000000610a0000000000000000000000000000000000000000000e0000000002000000610800000000000000000000000000000000000000000005020001000000000002000000000000000000000000000000000000000000000a000000000000000001490f490f0000000000000000000000000000000000000c000002000200000001000000000000000000000000000000000000000000000c000002000200000000000000000000000000000000717b484e0000000000000e000002000000000020000000000000000000000000000000000000000000000c000001000100000001410000000000000000000000000000000000000000000c000001000100000000000000000000000000000000000000000000000000000c000002000200000001040000000000000000000000000000000000000000000c00000200020000000000000000000000000000000000000000000000000000070000000000000000032b1a00000000000000000000000000000000000000000c000002000200000001240000000000000000000000000000000000000000000c000002000200000000000000000000000000000000000000000000000000000e000002000000000000000000000000000000000000000000000000000000000c000004000400000001000000000000000000000000000000000000000000000c000004000400000000000000000000000000000000000000000000000000000c000002000200000001200000000000000000000000000000000000000000000c000002000200000000000000000000000000000000000000000000000000000a000000000000000001720f720f000000000000000000000000000000000000020800000004000000000000000000000000000000000000000000000000000004100000000000000000000000000000000000000000000000000000000000000a00000000000000000a720ffa0f000000000000000000000000000000000000180000040008000000000500000000000000000000000000000000000000000008080002000800000000000000000000000000000000000000000000000000000e080000001000000021000000000000000000000000000000000000000000000e0800100000000000000100000000000000000000000000000000000000000002000004000800000000010000000000000000000000000000000000000000000c000010001000000001010000000000000000000000000000000000000000000c0000100010000000000000000000000000000000000000000000000000000004080004000000000000000000000000000000000000000000000000000000000a0000000000000000026f0f7b0f0000000000000000000000000000000000000c000010001000000001000000000000000000000000000000000000000000000c000010001000000000000000000000000000000000000000000000000000000a0000000000000000016f0f6f0f0000000000000000000000000000000000000c000002000200000001000000000000000000000000000000000000000000000c000002000200000000000000000000000000000000717b484e0000000000000e000002000000000020000000000000000000000000000000000000000000000c000001000100000001320000000000000000000000000000000000000000000c000001000100000000000000000000000000000000000000000000000000000c000002000200000001040000000000000000000000000000000000000000000c00000200020000000000000000000000000000000000000000000000000000070000000000000000032b1a00000000000000000000000000000000000000000c000002000200000001240000000000000000000000000000000000000000000c000002000200000000000000000000000000000000000000000000000000000e000002000000000000000000000000000000000000000000000000000000000c000004000400000001000000000000000000000000000000000000000000000c000004000400000000000000000000000000000000000000000000000000000c000002000200000001200000000000000000000000000000000000000000000c000002000200000000000000000000000000000000000000000000000000000a000000000000000001910f910f000000000000000000000000000000000000020800000004000000000000000000000000000000000000000000000000000004100000000000000000000000000000000000000000000000000000000000000a00000000000000000a910f0510000000000000000000000000000000000000180000040008000000000500000000000000000000000000000000000000000008080002000800000000000000000000000000000000000000000000000000000e080000001000000021000000000000000000000000000000000000000000000e0800100000000000000100000000000000000000000000000000000000000002000004000800000000010000000000000000000000000000000000000000000c000010001000000001010000000000000000000000000000000000000000000c0000100010000000000000000000000000000000000000000000000000000004080004000000000000000000000000000000000000000000000000000000000a0000000000000000028e0f9a0f0000000000000000000000000000000000000c000010001000000001000000000000000000000000000000000000000000000c000010001000000000000000000000000000000000000000000000000000000a0000000000000000018e0f8e0f0000000000000000000000000000000000000c000002000200000001000000000000000000000000000000000000000000000c000002000200000000000000000000000000000000717b484e0000000000000e000002000000000020000000000000000000000000000000000000000000000c000001000100000001410000000000000000000000000000000000000000000c000001000100000000000000000000000000000000000000000000000000000c000002000200000001040000000000000000000000000000000000000000000c00000200020000000000000000000000000000000000000000000000000000070000000000000000032b1a00000000000000000000000000000000000000000c000002000200000001240000000000000000000000000000000000000000000c000002000200000000000000000000000000000000000000000000000000000e000002000000000000000000000000000000000000000000000000000000000c000004000400000001000000000000000000000000000000000000000000000c000004000400000000000000000000000000000000000000000000000000000c000002000200000001200000000000000000000000000000000000000000000c000002000200000000000000000000000000000000000000000000000000000a000000000000000001b00fb00f000000000000000000000000000000000000020800000004000000000000000000000000000000000000000000000000000004100000000000000000000000000000000000000000000000000000000000000a00000000000000000ab00f1010000000000000000000000000000000000000180000040008000000000500000000000000000000000000000000000000000008080002000800000000000000000000000000000000000000000000000000000e080000001000000021000000000000000000000000000000000000000000000e0800100000000000000100000000000000000000000000000000000000000002000004000800000000010000000000000000000000000000000000000000000c000010001000000001010000000000000000000000000000000000000000000c0000100010000000000000000000000000000000000000000000000000000004080004000000000000000000000000000000000000000000000000000000000a000000000000000002ad0fb90f0000000000000000000000000000000000000c000010001000000001000000000000000000000000000000000000000000000c000010001000000000000000000000000000000000000000000000000000000a000000000000000001ad0fad0f0000000000000000000000000000000000000c000002000200000001000000000000000000000000000000000000000000000c000002000200000000000000000000000000000000717b484e0000000000000e000002000000000020000000000000000000000000000000000000000000000c000001000100000001320000000000000000000000000000000000000000000c000001000100000000000000000000000000000000000000000000000000000c000002000200000001040000000000000000000000000000000000000000000c00000200020000000000000000000000000000000000000000000000000000070000000000000000032b1a00000000000000000000000000000000000000000c000002000200000001240000000000000000000000000000000000000000000c000002000200000000000000000000000000000000000000000000000000000e000002000000000000000000000000000000000000000000000000000000000c000004000400000001000000000000000000000000000000000000000000000c000004000400000000000000000000000000000000000000000000000000000c000002000200000001200000000000000000000000000000000000000000000c000002000200000000000000000000000000000000000000000000000000000a000000000000000001cf0fcf0f000000000000000000000000000000000000020800000004000000000000000000000000000000000000000000000000000004100000000000000000000000000000000000000000000000000000000000000a00000000000000000acf0f1b10000000000000000000000000000000000000180000040008000000000500000000000000000000000000000000000000000008080002000800000000000000000000000000000000000000000000000000000e080000001000000021000000000000000000000000000000000000000000000e0800100000000000000100000000000000000000000000000000000000000002000004000800000000010000000000000000000000000000000000000000000c000010001000000001010000000000000000000000000000000000000000000c0000100010000000000000000000000000000000000000000000000000000004080004000000000000000000000000000000000000000000000000000000000a000000000000000002cc0fd80f0000000000000000000000000000000000000c000010001000000001000000000000000000000000000000000000000000000c000010001000000000000000000000000000000000000000000000000000000a000000000000000001cc0fcc0f0000000000000000000000000000000000000c000002000200000001000000000000000000000000000000000000000000000c000002000200000000000000000000000000000000717b484e0000000000000e000002000000000020000000000000000000000000000000000000000000000c000001000100000001110000000000000000000000000000000000000000000c000001000100000000000000000000000000000000000000000000000000000c000002000200000001040000000000000000000000000000000000000000000c00000200020000000000000000000000000000000000000000000000000000070000000000000000032b1a00000000000000000000000000000000000000000c000002000200000001240000000000000000000000000000000000000000000c000002000200000000000000000000000000000000000000000000000000000e000002000000000000000000000000000000000000000000000000000000000c000004000400000001000000000000000000000000000000000000000000000c000004000400000000000000000000000000000000000000000000000000000c000002000200000001200000000000000000000000000000000000000000000c000002000200000000000000000000000000000000000000000000000000000a000000000000000001ee0fee0f000000000000000000000000000000000000020800000004000000000000000000000000000000000000000000000000000004100000000000000000000000000000000000000000000000000000000000000a00000000000000000aee0f2610000000000000000000000000000000000000180000040008000000000500000000000000000000000000000000000000000008080002000800000000000000000000000000000000000000000000000000000e080000001000000021000000000000000000000000000000000000000000000e0800100000000000000100000000000000000000000000000000000000000002000004000800000000010000000000000000000000000000000000000000000c000010001000000001010000000000000000000000000000000000000000000c0000100010000000000000000000000000000000000000000000000000000004080004000000000000000000000000000000000000000000000000000000000a000000000000000002eb0ff70f0000000000000000000000000000000000000c000010001000000001000000000000000000000000000000000000000000000c000010001000000000000000000000000000000000000000000000000000000a000000000000000001eb0feb0f0000000000000000000000000000000000000c000002000200000001ffffffffffffffffffffffffffffffff0000000000000c000002000200000000ffffffffffffffffffffffff000000000000000000000e000000000400000001020000000000000000000000000000000000000000001a040002000200000002000000000000000000000000000000000000000000000c000004000400000001000000000000000000000000000000000000000000000c000004000400000000000000000000000000000000ffffffff0000000000000e000000000800000021010000000000000000000000000000000000000000001a080004000400000002000000000000000000000000000000000000000000001a040002000200000004000000000000000000000000000000000000000000000e000002000000000000020000000000000000000000000000000000000000000a000000000000000001301030100000000000000000000000000000000000000c000002000200000001ffffffffffffffffffffffffffffffff0000000000000c000002000200000000ffffffffffffffffffffffff000000000000000000000e000000000400000001020000000000000000000000000000000000000000001a040002000200000002000000000000000000000000000000000000000000000c000004000400000001000000000000000000000000000000000000000000000c000004000400000000000000000000000000000000ffffffff0000000000000e000000000800000021010000000000000000000000000000000000000000001a080004000400000002000000000000000000000000000000000000000000001a040002000200000004000000000000000000000000000000000000000000000e000002000000000000020000000000000000000000000000000000000000000a000000000000000001301030100000000000000000000000000000000000000c000002000200000001ffffffffffffffffffffffffffffffff0000000000000c000002000200000000ffffffffffffffffffffffff000000000000000000000e000000000400000001020000000000000000000000000000000000000000001a040002000200000002000000000000000000000000000000000000000000000c000004000400000001000000000000000000000000000000000000000000000c000004000400000000000000000000000000000000ffffffff0000000000000e000000000800000021010000000000000000000000000000000000000000001a080004000400000002000000000000000000000000000000000000000000001a040002000200000004000000000000000000000000000000000000000000000e000002000000000000020000000000000000000000000000000000000000000a000000000000000001301030100000000000000000000000000000000000000c000002000200000001ffffffffffffffffffffffffffffffff0000000000000c000002000200000000ffffffffffffffffffffffff000000000000000000000e000000000400000001020000000000000000000000000000000000000000001a040002000200000002000000000000000000000000000000000000000000000c000004000400000001000000000000000000000000000000000000000000000c000004000400000000000000000000000000000000ffffffff0000000000000e000000000800000021010000000000000000000000000000000000000000001a080004000400000002000000000000000000000000000000000000000000001a040002000200000004000000000000000000000000000000000000000000000e000002000000000000020000000000000000000000000000000000000000000a000000000000000001301030100000000000000000000000000000000000000c000002000200000001ffffffffffffffffffffffffffffffff0000000000000c000002000200000000ffffffffffffffffffffffff000000000000000000000e000000000400000001020000000000000000000000000000000000000000001a040002000200000002000000000000000000000000000000000000000000000c000004000400000001000000000000000000000000000000000000000000000c000004000400000000000000000000000000000000ffffffff0000000000000e000000000800000021010000000000000000000000000000000000000000001a080004000400000002000000000000000000000000000000000000000000001a040002000200000004000000000000000000000000000000000000000000000e000002000000000000020000000000000000000000000000000000000000000e0000000000000000e10900000000000000000000000000000000000000000007000000000000000004000000000000000000000000000000000000000000000c000001000100000001000000000000000000000000000000000000000000000c000001000100000000000000000000000000000000a079c3080000000000000e000000000200000021020000000000000000000000000000000000000000000e00000200000000006008000000000000000000000000000000000000000000070000000000000000032b1a00000000000000000000000000000000000000000e0000000002000000610800000000000000000000000000000000000000000002000002000200000000040000000000000000000000000000000000000000000c000001000100000001200000000000000000000000000000000000000000000c00000100010000000000000000000000000000000000000000000000000000070000000000000000032b1a00000000000000000000000000000000000000000e0000000002000000610800000000000000000000000000000000000000000002000002000200000000240000000000000000000000000000000000000000000c000001000100000001290000000000000000000000000000000000000000000c00000100010000000000000000000000000000000000000000000000000000070000000000000000032b1a00000000000000000000000000000000000000000e0000000002000000610800000000000000000000000000000000000000000002000002000200000000440000000000000000000000000000000000000000000c000001000100000001726f6e2072656e776f20746f6e2073690000000000000c0000010001000000002072656c6c6163203a35353131435245000000000000070000000000000000032b1a00000000000000000000000000000000000000000e0000000002000000610800000000000000000000000000000000000000000002000002000200000000640000000000000000000000000000000000000000000c000001000100000001000000000000000000000000000000000000000000000c000001000100000000000000000000006465766f7270706120000000000000070000000000000000032b1a00000000000000000000000000000000000000000c000002000200000001840000000000000000000000000000000000000000000c000002000200000000000000000000000000000000000000000000000000000e000002000000000000000000000000000000000000000000000000000000000c000002000200000001000000000000000000000000000000000000000000000c000002000200000000000000000000000000000000000000000000000000000e0000020000000000600a00000000000000000000000000000000000000000018000002000400000000050000000000000000000000000000000000000000000e000004000000000060090000000000000000000000000000000000000000000e00000000020000006108000000000000000000000000000000000000000000020200040001000000000000000000000000000000000000000000000000000007000000000000000003031a00000000000000000000000000000000000000000c000002000200000001200000000000000000000000000000000000000000000c000002000200000000000000000000000000000000000000000000000000000e0000000004000000610900000000000000000000000000000000000000000008040002000200000000000000000000000000000000000000000000000000000e020001000000000000010000000000000000000000000000000000000000000e0000000002000000610a00000000000000000000000000000000000000000002000002000200000000010000000000000000000000000000000000000000000c000004000400000001040000000000000000000000000000000000000000000c0000040004000000000000000000000000000000000000000000000000000004020004000000000000000000000000000000000000000000000000000000000a000000000000000002501061100000000000000000000000000000000000000e00000000020000006108000000000000000000000000000000000000000000020000020001000000008000000000000000000000000000000000000000000007000000000000000003031a00000000000000000000000000000000000000000c000002000200000001ffffffffffffffffffffffffffffffff0000000000000c000002000200000000ffffffffffffffffffffffff000000000000000000000e000000000400000001050000000000000000000000000000000000000000001a040002000200000002000000000000000000000000000000000000000000000c000004000400000001000000000000000000000000000000000000000000000c000004000400000000000000000000000000000000ffffffff0000000000001a010004000400000002000000000000000000000000000000000000000000001a040002000200000004000000000000000000000000000000000000000000000e000002000000000000050000000000000000000000000000000000000000000e0000000000000000e10900000000000000000000000000000000000000000007000000000000000004000000000000000000000000000000000000000000000e0000000000000000e0080000000000000000000000000000000000000000000e000008000000000060070000000000000000000000000000000000000000000e000002000000000060060000000000000000000000000000000000000000000c000002000200000001ffffffffffffffffffffffffffffffff0000000000000c000002000200000000ffffffff0000000000000000000000000000000000001a0100020002000000020000000000000000000000000000000000000000000014000000000800000000000000000000000000000000000000000000000000000e000002000000000060040000000000000000000000000000000000000000000e000008000000000060010000000000000000000000000000000000000000000e0000040000000000600800000000000000000000000000000000000000000004020008000000000000000000000000000000000000000000000000000000000a000000000000000004b5107b100000000000000000000000000000000000000e000000000200000061040000000000000000000000000000000000000000000e000002000000000020000000000000000000000000000000000000000000000c000002000200000001010000000000000000000000000000000000000000000c000002000200000000000000000000000000000000000000000000000000000e0000020000000000200100000000000000000000000000000000000000000010000000000000000000000000000000000000000000000000000000000000000c000002000200000001400000000000000000000000000000000000000000000c000002000200000000000000000000000000000000000000000000000000000e000002000000000040000000000000000000000000000000000000000000000c000002000200000001000000000000000000000000000000000000000000000c000002000200000000000000000000000000000000000000000000000000000c000004000400000001200000000000000000000000000000000000000000000c000004000400000000000000000000000000000000000000000000000000000c000008000800000001020000000000000000000000000000000000000000000c00000800080000000000000000000000000000000000000000000000000000180000020010000000000500000000000000000000000000000000000000000008100004001000000000000000000000000000000000000000000000000000000e100000002000000021000000000000000000000000000000000000000000000e10002000000000004001000000000000000000000000000000000000000000020000020002000000000100000000000000000000000000000000000000000004020008000000000000000000000000000000000000000000000000000000000a0000000000000000028a1091100000000000000000000000000000000000000c00000100010000000100000000ff03000000000000000000000000000000000c00000100010000000000000000000000000000000000000000000000000000070000000000000000034a1a00000000000000000000000000000000000000000c000002000200000001ffffffffffffffffffffffffffffffff0000000000000c000002000200000000ffffffff0000000000000000000000000000000000000e000000000400000061010000000000000000000000000000000000000000001a040002000200000002000000000000000000000000000000000000000000000e000000000400000041010000000000000000000000000000000000000000000e000002000000000020000000000000000000000000000000000000000000000e0000040000000000200100000000000000000000000000000000000000000010000000000000000000000000000000000000000000000000000000000000000c000002000200000001400000000000000000000000000000000000000000000c000002000200000000000000000000000000000000000000000000000000000e000002000000000040000000000000000000000000000000000000000000000c000002000200000001000000000000000000000000000000000000000000000c000002000200000000000000000000000000000000000000000000000000000c000004000400000001200000000000000000000000000000000000000000000c000004000400000000000000000000000000000000000000000000000000000c000008000800000001020000000000000000000000000000000000000000000c00000800080000000000000000000000000000000000000000000000000000180000020010000000000500000000000000000000000000000000000000000008100004001000000000000000000000000000000000000000000000000000000e100000002000000021000000000000000000000000000000000000000000000e10002000000000004001000000000000000000000000000000000000000000020000020002000000000100000000000000000000000000000000000000000004020008000000000000000000000000000000000000000000000000000000000a000000000000000002a510ac100000000000000000000000000000000000000c00000100010000000100000000ff03000000000000000000000000000000000c00000100010000000000000000000000000000000000000000000000000000070000000000000000034a1a00000000000000000000000000000000000000000e0000000002000000410100000000000000000000000000000000000000000005020000000200000001000000000000000000000000000000000000000000001a000002000200000002ff0000000000000000000000000000000000000000000e0000000004000000610800000000000000000000000000000000000000000004020000000000000000000000000000000000000000000000000000000000000a0000000000000000048212b510000000000000000000000000000000000000020400000001000000000000000000000000000000000000000000000000000007000000000000000003031a00000000000000000000000000000000000000000e000001000000000060090000000000000000000000000000000000000000000e0000000001000000610700000000000000000000000000000000000000000007000000000000000003031a00000000000000000000000000000000000000000c000002000200000001010000000000000000000000000000000000000000000c000002000200000000000000000000000000000000000000000000000000000e0000000004000000610900000000000000000000000000000000000000000004040001000000000000000000000000000000000000000000000000000000000a000000000000000004c110bf100000000000000000000000000000000000000c000002000200000001000000000000000000000000000000000000000000000c000002000200000000000000000000000000000000000000000000000000001a0000020001000000020100000000000000000000000000000000000000000007000000000000000003431300000000000000000000000000000000000000000a000000000000000002c410c5100000000000000000000000000000000000000a000000000000000001801280120000000000000000000000000000000000000c000002000200000001ffffffffffffffffffffffffffffffff0000000000000c000002000200000000ffffffff0000000000000000000000000000000000000e000000000400000061060000000000000000000000000000000000000000001a040002000400000002000000000000000000000000000000000000000000000c000002000200000001010000000000000000000000000000000000000000000c000002000200000000000000000000000000000000000000000000000000000e0000040000000000600200000000000000000000000000000000000000000004040000000000000000000000000000000000000000000000000000000000000a00000000000000000ad010ce100000000000000000000000000000000000000c000002000200000001000000000000000000000000000000000000000000000c000002000200000000000000000000000000000000000000000000000000001a0000020001000000020100000000000000000000000000000000000000000007000000000000000003bf1200000000000000000000000000000000000000000a000000000000000002d310d4100000000000000000000000000000000000000a000000000000000001801280120000000000000000000000000000000000000e00000000020000006108000000000000000000000000000000000000000000020200000001000000000000000000000000000000000000000000000000000007000000000000000003031a00000000000000000000000000000000000000000c000002000200000001000000000000000000000000000000000000000000000c0000020002000000000000000000000000000000000000000000000000000004010000000000000000000000000000000000000000000000000000000000000a0000000000000000049f11db100000000000000000000000000000000000000e00000200000000006005000000000000000000000000000000000000000000180000020002000000000500000000000000000000000000000000000000000002000002000400000000200000000000000000000000000000000000000000000e000000000200000061080000000000000000000000000000000000000000000e00000400000000006006000000000000000000000000000000000000000000020400020001000000000000000000000000000000000000000000000000000007000000000000000003031a00000000000000000000000000000000000000000e000001000000000060090000000000000000000000000000000000000000000e00000000020000006107000000000000000000000000000000000000000000020200000001000000000000000000000000000000000000000000000000000007000000000000000003031a00000000000000000000000000000000000000000e0000000002000000610500000000000000000000000000000000000000000004010002000000000000000000000000000000000000000000000000000000000a000000000000000008e9102d120000000000000000000000000000000000000e000000000200000061060000000000000000000000000000000000000000000e00000000040000006107000000000000000000000000000000000000000000020200040001000000000000000000000000000000000000000000000000000007000000000000000003031a00000000000000000000000000000000000000000e000000000200000061090000000000000000000000000000000000000000000e000002000000000020000000000000000000000000000000000000000000000c000002000200000001000000000000000000000000000000000000000000000c000002000200000000000000000000000000000000000000000000000000000e000002000000000020010000000000000000000000000000000000000000000e0000010000000000600600000000000000000000000000000000000000000010000000000000000000000000000000000000000000000000000000000000000c000004000400000001400000000000000000000000000000000000000000000c000004000400000000000000000000000000000000000000000000000000000e0000040000000000400000000000000000000000000000000000000000000018000002000400000000050000000000000000000000000000000000000000000c000008000800000001200000000000000000000000000000000000000000000c0000080008000000000000000000000000000000000000000000000000000008040008000400000000000000000000000000000000000000000000000000000e040000000800000021000000000000000000000000000000000000000000000e0400080000000000400100000000000000000000000000000000000000000002000002000200000000010000000000000000000000000000000000000000000c000004000400000001020000000000000000000000000000000000000000000c0000040004000000000000000000000000000000000000000000000000000004020004000000000000000000000000000000000000000000000000000000000a000000000000000002f71002110000000000000000000000000000000000000c00000100010000000100000000ff03000000000000000000000000000000000c00000100010000000000000000000000000000000000000000000000000000070000000000000000034a1a00000000000000000000000000000000000000000e000000000200000041010000000000000000000000000000000000000000000e000000000400000061040000000000000000000000000000000000000000000e000004000000000020000000000000000000000000000000000000000000000e0000020000000000200100000000000000000000000000000000000000000010000000000000000000000000000000000000000000000000000000000000000c000002000200000001400000000000000000000000000000000000000000000c000002000200000000000000000000000000000000000000000000000000000e000002000000000040000000000000000000000000000000000000000000000c000002000200000001000000000000000000000000000000000000000000000c0000020002000000000000000000000000000000000000000000000000000018000002000400000000050000000000000000000000000000000000000000000c000008000800000001200000000000000000000000000000000000000000000c0000080008000000000000000000000000000000000000000000000000000008040008000400000000000000000000000000000000000000000000000000000e040000000800000021000000000000000000000000000000000000000000000e0400080000000000400100000000000000000000000000000000000000000002000002000200000000010000000000000000000000000000000000000000000c000004000400000001020000000000000000000000000000000000000000000c0000040004000000000000000000000000000000000000000000000000000004020004000000000000000000000000000000000000000000000000000000000a0000000000000000020f111a110000000000000000000000000000000000000c00000100010000000100000000ff03000000000000000000000000000000000c00000100010000000000000000000000000000000000000000000000000000070000000000000000034a1a00000000000000000000000000000000000000000e0000000002000000410100000000000000000000000000000000000000000005020000000800000001000000000000000000000000000000000000000000000c000002000200000001010000000000000000000000000000000000000000000c000002000200000000000000000000000000000000000000000000000000000e000000000400000061060000000000000000000000000000000000000000000e0000080000000000600300000000000000000000000000000000000000000004080004000000000000000000000000000000000000000000000000000000000a00000000000000000c271125110000000000000000000000000000000000000c000002000200000001000000000000000000000000000000000000000000000c000002000200000000000000000000000000000000000000000000000000001a0000020001000000020100000000000000000000000000000000000000000007000000000000000003011300000000000000000000000000000000000000000a0000000000000000022a112b110000000000000000000000000000000000000a000000000000000001801280120000000000000000000000000000000000000e000000000200000061090000000000000000000000000000000000000000000e000002000000000020000000000000000000000000000000000000000000000c000002000200000001000000000000000000000000000000000000000000000c000002000200000000000000000000000000000000000000000000000000000e0000020000000000200100000000000000000000000000000000000000000010000000000000000000000000000000000000000000000000000000000000000c000004000400000001400000000000000000000000000000000000000000000c000004000400000000000000000000000000000000000000000000000000000e0000040000000000400000000000000000000000000000000000000000000018000002000400000000050000000000000000000000000000000000000000000c000008000800000001200000000000000000000000000000000000000000000c0000080008000000000000000000000000000000000000000000000000000008040008000400000000000000000000000000000000000000000000000000000e040000000800000021000000000000000000000000000000000000000000000e0400080000000000400100000000000000000000000000000000000000000002000002000200000000010000000000000000000000000000000000000000000c000004000400000001020000000000000000000000000000000000000000000c0000040004000000000000000000000000000000000000000000000000000004020004000000000000000000000000000000000000000000000000000000000a00000000000000000234113f110000000000000000000000000000000000000c00000100010000000100000000ff03000000000000000000000000000000000c00000100010000000000000000000000000000000000000000000000000000070000000000000000034a1a00000000000000000000000000000000000000000e000000000200000041010000000000000000000000000000000000000000000e000000000400000061040000000000000000000000000000000000000000000e000004000000000020000000000000000000000000000000000000000000000e0000020000000000200100000000000000000000000000000000000000000010000000000000000000000000000000000000000000000000000000000000000c000002000200000001400000000000000000000000000000000000000000000c000002000200000000000000000000000000000000000000000000000000000e000002000000000040000000000000000000000000000000000000000000000c000002000200000001000000000000000000000000000000000000000000000c0000020002000000000000000000000000000000000000000000000000000018000002000400000000050000000000000000000000000000000000000000000c000008000800000001200000000000000000000000000000000000000000000c0000080008000000000000000000000000000000000000000000000000000008040008000400000000000000000000000000000000000000000000000000000e040000000800000021000000000000000000000000000000000000000000000e0400080000000000400100000000000000000000000000000000000000000002000002000200000000010000000000000000000000000000000000000000000c000004000400000001020000000000000000000000000000000000000000000c0000040004000000000000000000000000000000000000000000000000000004020004000000000000000000000000000000000000000000000000000000000a0000000000000000024c1157110000000000000000000000000000000000000c00000100010000000100000000ff03000000000000000000000000000000000c00000100010000000000000000000000000000000000000000000000000000070000000000000000034a1a00000000000000000000000000000000000000000e000000000200000061060000000000000000000000000000000000000000000e0000000004000000610300000000000000000000000000000000000000000004040002000200000000000000000000000000000000000000000000000000000e0000000004000000410100000000000000000000000000000000000000000005040002000000000000000000000000000000000000000000000000000000000e000000000200000061090000000000000000000000000000000000000000000e000002000000000020000000000000000000000000000000000000000000000c000002000200000001000000000000000000000000000000000000000000000c000002000200000000000000000000000000000000000000000000000000000e0000020000000000200100000000000000000000000000000000000000000010000000000000000000000000000000000000000000000000000000000000000c000004000400000001400000000000000000000000000000000000000000000c000004000400000000000000000000000000000000000000000000000000000e0000040000000000400000000000000000000000000000000000000000000018000002000400000000050000000000000000000000000000000000000000000c000008000800000001200000000000000000000000000000000000000000000c0000080008000000000000000000000000000000000000000000000000000008040008000400000000000000000000000000000000000000000000000000000e040000000800000021000000000000000000000000000000000000000000000e0400080000000000400100000000000000000000000000000000000000000002000002000200000000010000000000000000000000000000000000000000000c000004000400000001020000000000000000000000000000000000000000000c0000040004000000000000000000000000000000000000000000000000000004020004000000000000000000000000000000000000000000000000000000000a000000000000000002681173110000000000000000000000000000000000000c00000100010000000100000000ff03000000000000000000000000000000000c00000100010000000000000000000000000000000000000000000000000000070000000000000000034a1a00000000000000000000000000000000000000000e000000000200000041010000000000000000000000000000000000000000000e000000000400000061020000000000000000000000000000000000000000000e000004000000000020000000000000000000000000000000000000000000000e0000020000000000200100000000000000000000000000000000000000000010000000000000000000000000000000000000000000000000000000000000000c000002000200000001400000000000000000000000000000000000000000000c000002000200000000000000000000000000000000000000000000000000000e000002000000000040000000000000000000000000000000000000000000000c000002000200000001000000000000000000000000000000000000000000000c0000020002000000000000000000000000000000000000000000000000000018000002000400000000050000000000000000000000000000000000000000000c000008000800000001200000000000000000000000000000000000000000000c0000080008000000000000000000000000000000000000000000000000000008040008000400000000000000000000000000000000000000000000000000000e040000000800000021000000000000000000000000000000000000000000000e0400080000000000400100000000000000000000000000000000000000000002000002000200000000010000000000000000000000000000000000000000000c000004000400000001020000000000000000000000000000000000000000000c0000040004000000000000000000000000000000000000000000000000000004020004000000000000000000000000000000000000000000000000000000000a00000000000000000280118b110000000000000000000000000000000000000c00000100010000000100000000ff03000000000000000000000000000000000c00000100010000000000000000000000000000000000000000000000000000070000000000000000034a1a00000000000000000000000000000000000000000c000002000200000001ffffffffffffffffffffffffffffffff0000000000000c000002000200000000ffffffffffffffffffffffffffffffff0000000000000e000000001000000061060000000000000000000000000000000000000000001a100002000800000008000000000000000000000000000000000000000000000e00000000020000004101000000000000000000000000000000000000000000050200000004000000010000000000000000000000000000000000000000000004040008000000000000000000000000000000000000000000000000000000000a0000000000000000084c129611000000000000000000000000000000000000020400100004000000000000000000000000000000000000000000000000000005020004000000000000000000000000000000000000000000000000000000000e00000000020000006108000000000000000000000000000000000000000000020200000001000000000000000000000000000000000000000000000000000007000000000000000003031a00000000000000000000000000000000000000000e00000000020000006105000000000000000000000000000000000000000000020000020002000000000100000000000000000000000000000000000000000004020001000000000000000000000000000000000000000000000000000000000a000000000000000002db109f110000000000000000000000000000000000000c000001000100000001400000000000000000000000000000000000000000000c000001000100000000000000000000000000000000000000000000000000000e000000000200000021020000000000000000000000000000000000000000000e00000200000000006006000000000000000000000000000000000000000000070000000000000000032b1a00000000000000000000000000000000000000000e0000000001000000610800000000000000000000000000000000000000000007000000000000000003031a00000000000000000000000000000000000000000e000001000000000060030000000000000000000000000000000000000000000e000000000200000061060000000000000000000000000000000000000000000200000200020000000040000000000000000000000000000000000000000000070000000000000000032b1a00000000000000000000000000000000000000000c000004000400000001000000000000000000000000000000000000000000000c000004000400000000000000000000000000000000000000000000000000000e0000000002000000610600000000000000000000000000000000000000000002000002000200000000600000000000000000000000000000000000000000000e000002000000000060090000000000000000000000000000000000000000000e0000000002000000610300000000000000000000000000000000000000000004020000000000000000000000000000000000000000000000000000000000000a000000000000000004c311b2110000000000000000000000000000000000000e000004000000000060050000000000000000000000000000000000000000000e0000000002000000610800000000000000000000000000000000000000000002000002000200000000200000000000000000000000000000000000000000000e00000200000000006008000000000000000000000000000000000000000000020200000001000000000000000000000000000000000000000000000000000007000000000000000003031a00000000000000000000000000000000000000000e000000000200000061090000000000000000000000000000000000000000000e00000200000000006009000000000000000000000000000000000000000000070000000000000000032b1a00000000000000000000000000000000000000000e000000000400000061050000000000000000000000000000000000000000000e0000000002000000610900000000000000000000000000000000000000000002000002000200000000200000000000000000000000000000000000000000000e0000020000000000600900000000000000000000000000000000000000000002000004000400000000010000000000000000000000000000000000000000000e0000000002000000610300000000000000000000000000000000000000000004040002000000000000000000000000000000000000000000000000000000000a000000000000000002b211c3110000000000000000000000000000000000000e000000000200000061060000000000000000000000000000000000000000000e000000000400000061090000000000000000000000000000000000000000000e00000400000000006009000000000000000000000000000000000000000000040400020001000000000000000000000000000000000000000000000000000002000002000200000000200000000000000000000000000000000000000000000e00000200000000006003000000000000000000000000000000000000000000070000000000000000032b1a00000000000000000000000000000000000000000e00000000020000006107000000000000000000000000000000000000000000020200000001000000000000000000000000000000000000000000000000000007000000000000000003031a00000000000000000000000000000000000000000c000002000200000001000000000000000000000000000000000000000000000c000002000200000000000000000000000000000000000000000000000000000e000002000000000060080000000000000000000000000000000000000000000e000001000000000060050000000000000000000000000000000000000000000e00000000020000006109000000000000000000000000000000000000000000070000000000000000032b1a00000000000000000000000000000000000000000e0000000002000000610900000000000000000000000000000000000000000002000002000200000000200000000000000000000000000000000000000000000e000002000000000060090000000000000000000000000000000000000000000e0000000002000000610500000000000000000000000000000000000000000004020000000000000000000000000000000000000000000000000000000000000a000000000000000004ea11d9110000000000000000000000000000000000000e0000000002000000610700000000000000000000000000000000000000000002000002000200000000200000000000000000000000000000000000000000000e00000200000000006007000000000000000000000000000000000000000000020200000001000000000000000000000000000000000000000000000000000007000000000000000003031a00000000000000000000000000000000000000000e000000000200000061090000000000000000000000000000000000000000000e00000200000000006009000000000000000000000000000000000000000000070000000000000000032b1a00000000000000000000000000000000000000000e0000000002000000610900000000000000000000000000000000000000000002000002000200000000200000000000000000000000000000000000000000000e000002000000000060090000000000000000000000000000000000000000000e0000000002000000610800000000000000000000000000000000000000000002000002000200000000010000000000000000000000000000000000000000000e000002000000000060080000000000000000000000000000000000000000000e0000000004000000610500000000000000000000000000000000000000000004020004000000000000000000000000000000000000000000000000000000000a000000000000000002d911ea110000000000000000000000000000000000000e000000000800000061060000000000000000000000000000000000000000000e00000000020000006109000000000000000000000000000000000000000000040200080004000000000000000000000000000000000000000000000000000018000004000200000000200000000000000000000000000000000000000000001a0000020010000000040400000000000000000000000000000000000000000004040000000000000000000000000000000000000000000000000000000000000a0000000000000000040412f11100000000000000000000000000000000000002080000000100000000000000000000000000000000000000000000000000000e000004000000000060090000000000000000000000000000000000000000000e0000100000000000600800000000000000000000000000000000000000000007000000000000000003031a00000000000000000000000000000000000000000c000002000200000001fbf7c826058c3b985d597ed0a58a513a0000000000000c000002000200000000238a69fd90af704bc6dbc0d406dc394a0000000000000e000000000400000061080000000000000000000000000000000000000000000504000200000000000a000000000000000000000000000000000000000000000e000000000200000061040000000000000000000000000000000000000000000e0000000004000000610100000000000000000000000000000000000000000005040002000000000002000000000000000000000000000000000000000000000e0000000002000000610200000000000000000000000000000000000000000005020001000000000002000000000000000000000000000000000000000000000c000002000200000001e0ffffffffffffffffffffffffffffff0000000000000c000002000200000000ffffffffffffffffffffffffffffffff0000000000000e0000000004000000610900000000000000000000000000000000000000000002040002000200000000000000000000000000000000000000000000000000000e000000000800000061030000000000000000000000000000000000000000000a0000000000000000010e120e120000000000000000000000000000000000000c000002000200000001fbf7c826058c3b985d597ed0a58a513a0000000000000c000002000200000000238a69fd90af704bc6dbc0d406dc394a0000000000000510000200000000000a000000000000000000000000000000000000000000000e000000000200000061040000000000000000000000000000000000000000000e0000000004000000610100000000000000000000000000000000000000000005040002000000000002000000000000000000000000000000000000000000000c000002000200000001000000000000000000000000000000000000000000000c000002000200000000000000000000000000000000000000000000000000000e00000000040000006102000000000000000000000000000000000000000000050400020000000000020000000000000000000000000000000000000000000002020008001000000000000000000000000000000000000000000000000000000e0000100000000000600900000000000000000000000000000000000000000004100008000000000000000000000000000000000000000000000000000000000a00000000000000000612121a120000000000000000000000000000000000000e0000000000000000e10800000000000000000000000000000000000000000007000000000000000000000000000000000000000000000000000000000000000c000002000200000001000000000000000000000000000000000000000000000c000002000200000000000000000000000000000000000000000000000000000520000200000000000200000000000000000000000000000000000000000000020000080008000000004000000000000000000000000000000000000000000004100008000000000000000000000000000000000000000000000000000000000a0000000000000000081a1212120000000000000000000000000000000000000e00000800000000006006000000000000000000000000000000000000000000020800000001000000000000000000000000000000000000000000000000000007000000000000000003031a00000000000000000000000000000000000000000e000000001000000061090000000000000000000000000000000000000000000e00000000080000006106000000000000000000000000000000000000000000041000080002000000000000000000000000000000000000000000000000000002010000002000000000000000000000000000000000000000000000000000000c0000040004000000013f0000000000000000000000000000000000000000000c0000040004000000000000000000000000000000000000000000000000000004020004000000000000000000000000000000000000000000000000000000000a0000000000000000082512141200000000000000000000000000000000000002000008000100000000200000000000000000000000000000000000000000000e0000200000000000600800000000000000000000000000000000000000000007000000000000000003031a00000000000000000000000000000000000000000e000000001000000061090000000000000000000000000000000000000000000e000000000800000061060000000000000000000000000000000000000000000e0000000002000000610800000000000000000000000000000000000000000005020001000000000002000000000000000000000000000000000000000000000a000000000000000001171217120000000000000000000000000000000000000c000002000200000001000000000000000000000000000000000000000000000c000002000200000000000000000000000000000000717b484e0000000000000e000002000000000020000000000000000000000000000000000000000000000c000001000100000001320000000000000000000000000000000000000000000c000001000100000000000000000000000000000000000000000000000000000c000002000200000001040000000000000000000000000000000000000000000c00000200020000000000000000000000000000000000000000000000000000070000000000000000032b1a00000000000000000000000000000000000000000c000002000200000001240000000000000000000000000000000000000000000c000002000200000000000000000000000000000000000000000000000000000e000002000000000000000000000000000000000000000000000000000000000c000004000400000001000000000000000000000000000000000000000000000c000004000400000000000000000000000000000000000000000000000000000c000002000200000001200000000000000000000000000000000000000000000c000002000200000000000000000000000000000000000000000000000000000a00000000000000000140124012000000000000000000000000000000000000020800000004000000000000000000000000000000000000000000000000000004100000000000000000000000000000000000000000000000000000000000000a00000000000000000a40126b12000000000000000000000000000000000000180000040008000000000500000000000000000000000000000000000000000008080002000800000000000000000000000000000000000000000000000000000e080000001000000021000000000000000000000000000000000000000000000e0800100000000000000100000000000000000000000000000000000000000002000004000800000000010000000000000000000000000000000000000000000c000010001000000001010000000000000000000000000000000000000000000c0000100010000000000000000000000000000000000000000000000000000004080004000000000000000000000000000000000000000000000000000000000a0000000000000000023d1249120000000000000000000000000000000000000c000010001000000001000000000000000000000000000000000000000000000c000010001000000000000000000000000000000000000000000000000000000a0000000000000000013d123d120000000000000000000000000000000000000c000002000200000001000000000000000000000000000000000000000000000c000002000200000000000000000000000000000000717b484e0000000000000e000002000000000020000000000000000000000000000000000000000000000c000001000100000001110000000000000000000000000000000000000000000c000001000100000000000000000000000000000000000000000000000000000c000002000200000001040000000000000000000000000000000000000000000c00000200020000000000000000000000000000000000000000000000000000070000000000000000032b1a00000000000000000000000000000000000000000c000002000200000001240000000000000000000000000000000000000000000c000002000200000000000000000000000000000000000000000000000000000e000002000000000000000000000000000000000000000000000000000000000c000004000400000001000000000000000000000000000000000000000000000c000004000400000000000000000000000000000000000000000000000000000c000002000200000001200000000000000000000000000000000000000000000c000002000200000000000000000000000000000000000000000000000000000a0000000000000000015f125f12000000000000000000000000000000000000020800000004000000000000000000000000000000000000000000000000000004100000000000000000000000000000000000000000000000000000000000000a00000000000000000a5f127612000000000000000000000000000000000000180000040008000000000500000000000000000000000000000000000000000008080002000800000000000000000000000000000000000000000000000000000e080000001000000021000000000000000000000000000000000000000000000e0800100000000000000100000000000000000000000000000000000000000002000004000800000000010000000000000000000000000000000000000000000c000010001000000001010000000000000000000000000000000000000000000c0000100010000000000000000000000000000000000000000000000000000004080004000000000000000000000000000000000000000000000000000000000a0000000000000000025c1268120000000000000000000000000000000000000c000010001000000001000000000000000000000000000000000000000000000c000010001000000000000000000000000000000000000000000000000000000a0000000000000000015c125c120000000000000000000000000000000000000c000002000200000001ffffffffffffffffffffffffffffffff0000000000000c000002000200000000ffffffffffffffffffffffff000000000000000000000e000000000400000001020000000000000000000000000000000000000000001a040002000200000002000000000000000000000000000000000000000000000c000004000400000001000000000000000000000000000000000000000000000c000004000400000000000000000000000000000000ffffffff0000000000000e000000000800000021010000000000000000000000000000000000000000001a080004000400000002000000000000000000000000000000000000000000001a040002000200000004000000000000000000000000000000000000000000000e000002000000000000020000000000000000000000000000000000000000000a000000000000000001801280120000000000000000000000000000000000000c000002000200000001ffffffffffffffffffffffffffffffff0000000000000c000002000200000000ffffffffffffffffffffffff000000000000000000000e000000000400000001020000000000000000000000000000000000000000001a040002000200000002000000000000000000000000000000000000000000000c000004000400000001000000000000000000000000000000000000000000000c000004000400000000000000000000000000000000ffffffff0000000000000e000000000800000021010000000000000000000000000000000000000000001a080004000400000002000000000000000000000000000000000000000000001a040002000200000004000000000000000000000000000000000000000000000e000002000000000000020000000000000000000000000000000000000000000e0000000000000000e10800000000000000000000000000000000000000000007000000000000000004000000000000000000000000000000000000000000000c000001000100000001000000000000000000000000000000000000000000000c000001000100000000000000000000000000000000a079c3080000000000000e000000000200000021020000000000000000000000000000000000000000000e00000200000000006007000000000000000000000000000000000000000000070000000000000000032b1a00000000000000000000000000000000000000000e0000000002000000610700000000000000000000000000000000000000000002000002000200000000040000000000000000000000000000000000000000000c000001000100000001200000000000000000000000000000000000000000000c00000100010000000000000000000000000000000000000000000000000000070000000000000000032b1a00000000000000000000000000000000000000000e0000000002000000610700000000000000000000000000000000000000000002000002000200000000240000000000000000000000000000000000000000000c000001000100000001320000000000000000000000000000000000000000000c00000100010000000000000000000000000000000000000000000000000000070000000000000000032b1a00000000000000000000000000000000000000000e0000000002000000610700000000000000000000000000000000000000000002000002000200000000440000000000000000000000000000000000000000000c00000100010000000120746f6e2073692072656c6c616320720000000000000c0000010001000000006566736e617274203a35353131435245000000000000070000000000000000032b1a00000000000000000000000000000000000000000e0000000002000000610700000000000000000000000000000000000000000002000002000200000000640000000000000000000000000000000000000000000c000001000100000001000000000000000000000000000064650000000000000c000001000100000000766f7270706120726f6e2072656e776f000000000000070000000000000000032b1a00000000000000000000000000000000000000000c000002000200000001840000000000000000000000000000000000000000000c000002000200000000000000000000000000000000000000000000000000000e000002000000000000000000000000000000000000000000000000000000000c000002000200000001000000000000000000000000000000000000000000000c000002000200000000000000000000000000000000000000000000000000000e0000020000000000600900000000000000000000000000000000000000000018000002000400000000050000000000000000000000000000000000000000000e000004000000000060080000000000000000000000000000000000000000000e00000000020000006107000000000000000000000000000000000000000000020200040001000000000000000000000000000000000000000000000000000007000000000000000003031a00000000000000000000000000000000000000000c000002000200000001200000000000000000000000000000000000000000000c000002000200000000000000000000000000000000000000000000000000000e0000000004000000610800000000000000000000000000000000000000000008040002000200000000000000000000000000000000000000000000000000000e020001000000000000010000000000000000000000000000000000000000000e0000000002000000610900000000000000000000000000000000000000000002000002000200000000010000000000000000000000000000000000000000000c000004000400000001040000000000000000000000000000000000000000000c0000040004000000000000000000000000000000000000000000000000000004020004000000000000000000000000000000000000000000000000000000000a000000000000000002a012b1120000000000000000000000000000000000000e00000000020000006107000000000000000000000000000000000000000000020000020001000000008000000000000000000000000000000000000000000007000000000000000003031a00000000000000000000000000000000000000000c000002000200000001ffffffffffffffffffffffffffffffff0000000000000c000002000200000000ffffffffffffffffffffffff000000000000000000000e000000000400000001050000000000000000000000000000000000000000001a040002000200000002000000000000000000000000000000000000000000000c000004000400000001000000000000000000000000000000000000000000000c000004000400000000000000000000000000000000ffffffff0000000000001a010004000400000002000000000000000000000000000000000000000000001a040002000200000004000000000000000000000000000000000000000000000e000002000000000000050000000000000000000000000000000000000000000e0000000000000000e10800000000000000000000000000000000000000000007000000000000000004000000000000000000000000000000000000000000000e0000000000000000e00200000000000000000000000000000000000000000004010000000000000000000000000000000000000000000000000000000000000a000000000000000004c412c2120000000000000000000000000000000000000e0000000000000000e10200000000000000000000000000000000000000000007000000000000000000000000000000000000000000000000000000000000000c000001000100000001000000000000000000000000000000000000000000000c000001000100000000000000000000000000000000a079c3080000000000000e000000000200000021020000000000000000000000000000000000000000000e00000200000000006001000000000000000000000000000000000000000000070000000000000000032b1a00000000000000000000000000000000000000000e0000000002000000610100000000000000000000000000000000000000000002000002000200000000040000000000000000000000000000000000000000000c000001000100000001200000000000000000000000000000000000000000000c00000100010000000000000000000000000000000000000000000000000000070000000000000000032b1a00000000000000000000000000000000000000000e0000000002000000610100000000000000000000000000000000000000000002000002000200000000240000000000000000000000000000000000000000000c000001000100000001250000000000000000000000000000000000000000000c00000100010000000000000000000000000000000000000000000000000000070000000000000000032b1a00000000000000000000000000000000000000000e0000000002000000610100000000000000000000000000000000000000000002000002000200000000440000000000000000000000000000000000000000000c0000010001000000016461206f72657a20656874206f7420720000000000000c0000010001000000006566736e617274203a35353131435245000000000000070000000000000000032b1a00000000000000000000000000000000000000000e0000000002000000610100000000000000000000000000000000000000000002000002000200000000640000000000000000000000000000000000000000000c000001000100000001000000000000000000000000000000000000000000000c00000100010000000000000000000000000000007373657264000000000000070000000000000000032b1a00000000000000000000000000000000000000000c000002000200000001840000000000000000000000000000000000000000000c000002000200000000000000000000000000000000000000000000000000000e000002000000000000000000000000000000000000000000000000000000000c000002000200000001000000000000000000000000000000000000000000000c000002000200000000000000000000000000000000000000000000000000000e0000020000000000600300000000000000000000000000000000000000000018000002000400000000050000000000000000000000000000000000000000000e000004000000000060020000000000000000000000000000000000000000000e00000000020000006101000000000000000000000000000000000000000000020200040001000000000000000000000000000000000000000000000000000007000000000000000003031a00000000000000000000000000000000000000000c000002000200000001200000000000000000000000000000000000000000000c000002000200000000000000000000000000000000000000000000000000000e0000000004000000610200000000000000000000000000000000000000000008040002000200000000000000000000000000000000000000000000000000000e020001000000000000010000000000000000000000000000000000000000000e0000000002000000610300000000000000000000000000000000000000000002000002000200000000010000000000000000000000000000000000000000000c000004000400000001040000000000000000000000000000000000000000000c0000040004000000000000000000000000000000000000000000000000000004020004000000000000000000000000000000000000000000000000000000000a000000000000000002e212f3120000000000000000000000000000000000000e00000000020000006101000000000000000000000000000000000000000000020000020001000000008000000000000000000000000000000000000000000007000000000000000003031a00000000000000000000000000000000000000000c000002000200000001ffffffffffffffffffffffffffffffff0000000000000c000002000200000000ffffffffffffffffffffffff000000000000000000000e000000000400000001050000000000000000000000000000000000000000001a040002000200000002000000000000000000000000000000000000000000000c000004000400000001000000000000000000000000000000000000000000000c000004000400000000000000000000000000000000ffffffff0000000000001a010004000400000002000000000000000000000000000000000000000000001a040002000200000004000000000000000000000000000000000000000000000e000002000000000000050000000000000000000000000000000000000000000e0000000000000000e10200000000000000000000000000000000000000000007000000000000000004000000000000000000000000000000000000000000000e0000000000000000e00200000000000000000000000000000000000000000004010000000000000000000000000000000000000000000000000000000000000a000000000000000004061304130000000000000000000000000000000000000e0000000000000000e10200000000000000000000000000000000000000000007000000000000000000000000000000000000000000000000000000000000000c000001000100000001000000000000000000000000000000000000000000000c000001000100000000000000000000000000000000a079c3080000000000000e000000000200000021020000000000000000000000000000000000000000000e00000200000000006001000000000000000000000000000000000000000000070000000000000000032b1a00000000000000000000000000000000000000000e0000000002000000610100000000000000000000000000000000000000000002000002000200000000040000000000000000000000000000000000000000000c000001000100000001200000000000000000000000000000000000000000000c00000100010000000000000000000000000000000000000000000000000000070000000000000000032b1a00000000000000000000000000000000000000000e0000000002000000610100000000000000000000000000000000000000000002000002000200000000240000000000000000000000000000000000000000000c0000010001000000012a0000000000000000000000000000000000000000000c00000100010000000000000000000000000000000000000000000000000000070000000000000000032b1a00000000000000000000000000000000000000000e0000000002000000610100000000000000000000000000000000000000000002000002000200000000440000000000000000000000000000000000000000000c0000010001000000016f662065636e616c616220746e6569630000000000000c00000100010000000069666675736e69203a35353131435245000000000000070000000000000000032b1a00000000000000000000000000000000000000000e0000000002000000610100000000000000000000000000000000000000000002000002000200000000640000000000000000000000000000000000000000000c000001000100000001000000000000000000000000000000000000000000000c000001000100000000000000000000726566736e6172742072000000000000070000000000000000032b1a00000000000000000000000000000000000000000c000002000200000001840000000000000000000000000000000000000000000c000002000200000000000000000000000000000000000000000000000000000e000002000000000000000000000000000000000000000000000000000000000c000002000200000001000000000000000000000000000000000000000000000c000002000200000000000000000000000000000000000000000000000000000e0000020000000000600300000000000000000000000000000000000000000018000002000400000000050000000000000000000000000000000000000000000e000004000000000060020000000000000000000000000000000000000000000e00000000020000006101000000000000000000000000000000000000000000020200040001000000000000000000000000000000000000000000000000000007000000000000000003031a00000000000000000000000000000000000000000c000002000200000001200000000000000000000000000000000000000000000c000002000200000000000000000000000000000000000000000000000000000e0000000004000000610200000000000000000000000000000000000000000008040002000200000000000000000000000000000000000000000000000000000e020001000000000000010000000000000000000000000000000000000000000e0000000002000000610300000000000000000000000000000000000000000002000002000200000000010000000000000000000000000000000000000000000c000004000400000001040000000000000000000000000000000000000000000c0000040004000000000000000000000000000000000000000000000000000004020004000000000000000000000000000000000000000000000000000000000a000000000000000002241335130000000000000000000000000000000000000e00000000020000006101000000000000000000000000000000000000000000020000020001000000008000000000000000000000000000000000000000000007000000000000000003031a00000000000000000000000000000000000000000c000002000200000001ffffffffffffffffffffffffffffffff0000000000000c000002000200000000ffffffffffffffffffffffff000000000000000000000e000000000400000001050000000000000000000000000000000000000000001a040002000200000002000000000000000000000000000000000000000000000c000004000400000001000000000000000000000000000000000000000000000c000004000400000000000000000000000000000000ffffffff0000000000001a010004000400000002000000000000000000000000000000000000000000001a040002000200000004000000000000000000000000000000000000000000000e000002000000000000050000000000000000000000000000000000000000000e0000000000000000e10200000000000000000000000000000000000000000007000000000000000004000000000000000000000000000000000000000000000e0000000000000000e00200000000000000000000000000000000000000000004010000000000000000000000000000000000000000000000000000000000000a000000000000000004481346130000000000000000000000000000000000000e0000000000000000e10200000000000000000000000000000000000000000007000000000000000000000000000000000000000000000000000000000000000c000001000100000001000000000000000000000000000000000000000000000c000001000100000000000000000000000000000000a079c3080000000000000e000000000200000021020000000000000000000000000000000000000000000e00000200000000006001000000000000000000000000000000000000000000070000000000000000032b1a00000000000000000000000000000000000000000e0000000002000000610100000000000000000000000000000000000000000002000002000200000000040000000000000000000000000000000000000000000c000001000100000001200000000000000000000000000000000000000000000c00000100010000000000000000000000000000000000000000000000000000070000000000000000032b1a00000000000000000000000000000000000000000e0000000002000000610100000000000000000000000000000000000000000002000002000200000000240000000000000000000000000000000000000000000c000001000100000001280000000000000000000000000000000000000000000c00000100010000000000000000000000000000000000000000000000000000070000000000000000032b1a00000000000000000000000000000000000000000e0000000002000000610100000000000000000000000000000000000000000002000002000200000000440000000000000000000000000000000000000000000c000001000100000001206874676e656c2073746e756f6d61200000000000000c000001000100000000646e6120736469203a35353131435245000000000000070000000000000000032b1a00000000000000000000000000000000000000000e0000000002000000610100000000000000000000000000000000000000000002000002000200000000640000000000000000000000000000000000000000000c000001000100000001000000000000000000000000000000000000000000000c0000010001000000000000000000000000686374616d73696d000000000000070000000000000000032b1a00000000000000000000000000000000000000000c000002000200000001840000000000000000000000000000000000000000000c000002000200000000000000000000000000000000000000000000000000000e000002000000000000000000000000000000000000000000000000000000000c000002000200000001000000000000000000000000000000000000000000000c000002000200000000000000000000000000000000000000000000000000000e0000020000000000600300000000000000000000000000000000000000000018000002000400000000050000000000000000000000000000000000000000000e000004000000000060020000000000000000000000000000000000000000000e00000000020000006101000000000000000000000000000000000000000000020200040001000000000000000000000000000000000000000000000000000007000000000000000003031a00000000000000000000000000000000000000000c000002000200000001200000000000000000000000000000000000000000000c000002000200000000000000000000000000000000000000000000000000000e0000000004000000610200000000000000000000000000000000000000000008040002000200000000000000000000000000000000000000000000000000000e020001000000000000010000000000000000000000000000000000000000000e0000000002000000610300000000000000000000000000000000000000000002000002000200000000010000000000000000000000000000000000000000000c000004000400000001040000000000000000000000000000000000000000000c0000040004000000000000000000000000000000000000000000000000000004020004000000000000000000000000000000000000000000000000000000000a000000000000000002661377130000000000000000000000000000000000000e00000000020000006101000000000000000000000000000000000000000000020000020001000000008000000000000000000000000000000000000000000007000000000000000003031a00000000000000000000000000000000000000000c000002000200000001ffffffffffffffffffffffffffffffff0000000000000c000002000200000000ffffffffffffffffffffffff000000000000000000000e000000000400000001050000000000000000000000000000000000000000001a040002000200000002000000000000000000000000000000000000000000000c000004000400000001000000000000000000000000000000000000000000000c000004000400000000000000000000000000000000ffffffff0000000000001a010004000400000002000000000000000000000000000000000000000000001a040002000200000004000000000000000000000000000000000000000000000e000002000000000000050000000000000000000000000000000000000000000e0000000000000000e10200000000000000000000000000000000000000000007000000000000000004000000000000000000000000000000000000000000000e0000000000000000e00800000000000000000000000000000000000000000002010000001000000000000000000000000000000000000000000000000000000c000002000200000001040000000000000000000000000000000000000000000c0000020002000000000000000000000000000000000000000000000000000005020000000400000001000000000000000000000000000000000000000000000c000008000800000001ffffffffffffffffffffffffffffffff0000000000000c000008000800000000ffffffffffffffffffffffffffffffff00000000000004040008000000000000000000000000000000000000000000000000000000000a0000000000000000044c158e1300000000000000000000000000000000000002000004000400000000010000000000000000000000000000000000000000000e0000040000000000600400000000000000000000000000000000000000000005020004000000000000000000000000000000000000000000000000000000000c000002000200000001000000000000000000000000000000000000000000000c000002000200000000000000000000000000000000000000000000000000000e000002000000000060090000000000000000000000000000000000000000000e000000000200000021020000000000000000000000000000000000000000000e0000020000000000600800000000000000000000000000000000000000000002100000000100000000000000000000000000000000000000000000000000000e0000100000000000600200000000000000000000000000000000000000000007000000000000000003031a00000000000000000000000000000000000000000e0000000002000000610200000000000000000000000000000000000000000002000002000200000000200000000000000000000000000000000000000000000e0000020000000000600700000000000000000000000000000000000000000002010000000200000000000000000000000000000000000000000000000000000e0000000004000000610800000000000000000000000000000000000000000002020004000400000000000000000000000000000000000000000000000000000e000004000000000060050000000000000000000000000000000000000000000e0000020000000000600600000000000000000000000000000000000000000004020000000000000000000000000000000000000000000000000000000000000a000000000000000004bc13a3130000000000000000000000000000000000000e000000000400000061090000000000000000000000000000000000000000000e000004000000000060090000000000000000000000000000000000000000000e00000000020000006107000000000000000000000000000000000000000000020400020001000000000000000000000000000000000000000000000000000007000000000000000003031a00000000000000000000000000000000000000000e000000000200000061080000000000000000000000000000000000000000000e000000000400000061090000000000000000000000000000000000000000000204000200020000000000000000000000000000000000000000000000000000070000000000000000032b1a00000000000000000000000000000000000000000e000000000200000061060000000000000000000000000000000000000000000e0000000004000000610900000000000000000000000000000000000000000002000004000400000000200000000000000000000000000000000000000000000e0000040000000000600900000000000000000000000000000000000000000004040002000000000000000000000000000000000000000000000000000000000a000000000000000002a313b2130000000000000000000000000000000000000e000000000400000061080000000000000000000000000000000000000000000e000000000400000061070000000000000000000000000000000000000000000e0000000004000000610900000000000000000000000000000000000000000004040002000000000000000000000000000000000000000000000000000000000a000000000000000006be13b7130000000000000000000000000000000000000c000001000100000001000000000000000000000000000000000000000000000c000001000100000000000000000000000000000000000000000000000000000e00000000020000006105000000000000000000000000000000000000000000070000000000000000032b1a00000000000000000000000000000000000000000a000000000000000001be13be130000000000000000000000000000000000000e000000000200000061080000000000000000000000000000000000000000000e000000000200000061070000000000000000000000000000000000000000000c000001000100000001050000000000000000000000000000000000000000000c000001000100000000000000000000000000000000000000000000000000000e00000000020000006105000000000000000000000000000000000000000000070000000000000000032b1a00000000000000000000000000000000000000000c000008000800000001000000000000000000000000000000000000000000000c000008000800000000000000000000000000000000000000000000000000000e0000000002000000610600000000000000000000000000000000000000000002000002000400000000200000000000000000000000000000000000000000001a0000040002000000021f0000000000000000000000000000000000000000000e0000020000000000600300000000000000000000000000000000000000000010000000000000000000000000000000000000000000000000000000000000000e000004000000000040000000000000000000000000000000000000000000000e0000040000000000600100000000000000000000000000000000000000000018000004000200000002050000000000000000000000000000000000000000000e000000000400000061080000000000000000000000000000000000000000000e0000020000000000600500000000000000000000000000000000000000000004020000000000000000000000000000000000000000000000000000000000000a000000000000000004e013d0130000000000000000000000000000000000000e0000080000000000600900000000000000000000000000000000000000000018000008000400000000050000000000000000000000000000000000000000000e000004000000000060060000000000000000000000000000000000000000000e00000000020000006108000000000000000000000000000000000000000000020200040001000000000000000000000000000000000000000000000000000007000000000000000003031a00000000000000000000000000000000000000000e000000000800000061090000000000000000000000000000000000000000000c000002000200000001200000000000000000000000000000000000000000000c000002000200000000000000000000000000000000000000000000000000000e0000000004000000610600000000000000000000000000000000000000000008040002000200000000000000000000000000000000000000000000000000000e0200010000000000400100000000000000000000000000000000000000000002000008000800000000010000000000000000000000000000000000000000000e0000000002000000610500000000000000000000000000000000000000000004080002000000000000000000000000000000000000000000000000000000000a000000000000000002d013e0130000000000000000000000000000000000000e000000000400000061080000000000000000000000000000000000000000000e0000000002000000610300000000000000000000000000000000000000000004020000000000000000000000000000000000000000000000000000000000000a000000000000000004fd13e4130000000000000000000000000000000000000c000002000200000001e0ffffffffffffffffffffffffffffff0000000000000c000002000200000000ffffffffffffffffffffffffffffffff0000000000000e000000000800000061010000000000000000000000000000000000000000001a080002000200000002000000000000000000000000000000000000000000000e00000200000000006009000000000000000000000000000000000000000000020400020001000000000000000000000000000000000000000000000000000007000000000000000003031a00000000000000000000000000000000000000000c000002000200000001200000000000000000000000000000000000000000000c000002000200000000000000000000000000000000000000000000000000000e0000000004000000610900000000000000000000000000000000000000000008040002000200000000000000000000000000000000000000000000000000000e0000000004000000610300000000000000000000000000000000000000000018000004000400000000030000000000000000000000000000000000000000000c000008000800000001ffffffffffffffffffffffffffffffff0000000000000c000008000800000000ffffffffffffffffffffffffffffffff00000000000018040008001000000002000000000000000000000000000000000000000000000e020000002000000041010000000000000000000000000000000000000000001a200010001000000002000000000000000000000000000000000000000000000c000020002000000001000100000000000000000000000000000000000000000c00002000200000000000000000000000000000000000000000000000000000042000040004000000000000000000000000000000000000000000000000000018040008000400000000000000000000000000000000000000000000000000001a010004000400000002000000000000000000000000000000000000000000001a040010000400000004000000000000000000000000000000000000000000000e020004000000000040010000000000000000000000000000000000000000000c00000100010000000100000000ff03000000000000000000000000000000000c00000100010000000000000000000000000000000000000000000000000000070000000000000000034a1a00000000000000000000000000000000000000000e000000000200000041010000000000000000000000000000000000000000000e0000000004000000610400000000000000000000000000000000000000000005020004000000000000000000000000000000000000000000000000000000000e000000000200000021020000000000000000000000000000000000000000000c000004000400000001dfffffffffffffffffffffffffffffff0000000000000c000004000400000000ffffffffffffffffffffffffffffffff00000000000004020004000000000000000000000000000000000000000000000000000000000a0000000000000000086b15081400000000000000000000000000000000000002000002000400000000200000000000000000000000000000000000000000000c000008000800000001ffffffffffffffff00000000000000000000000000000c0000080008000000000000000000000000000000000000000000000000000004040008000000000000000000000000000000000000000000000000000000000a0000000000000000086b150d140000000000000000000000000000000000000e000004000000000020020000000000000000000000000000000000000000000c000001000100000001000000000000000000000000000000000000000000000c00000100010000000000000000000000000000000000000000000000000000070000000000000000032b1a00000000000000000000000000000000000000000e0000000002000000210200000000000000000000000000000000000000000014000000000400000000050000000000000000000000000000000000000000000e000004000000000060010000000000000000000000000000000000000000000e0000020000000000600300000000000000000000000000000000000000000004040000000000000000000000000000000000000000000000000000000000000a0000000000000000048a1517140000000000000000000000000000000000000c000004000400000001bfffffffffffffffffffffffffffffff0000000000000c000004000400000000ffffffffffffffffffffffffffffffff00000000000004020004000000000000000000000000000000000000000000000000000000000a000000000000000008c5151b1400000000000000000000000000000000000002000002000800000000400000000000000000000000000000000000000000000c000004000400000001ffffffffffffffff00000000000000000000000000000c0000040004000000000000000000000000000000000000000000000000000004080004000000000000000000000000000000000000000000000000000000000a000000000000000008c51520140000000000000000000000000000000000000e000008000000000020020000000000000000000000000000000000000000000c000001000100000001010000000000000000000000000000000000000000000c00000100010000000000000000000000000000000000000000000000000000070000000000000000032b1a00000000000000000000000000000000000000000c000008000800000001000000000000000000000000000000000000000000000c000008000800000000000000000000000000000000000000000000000000000e0000000002000000610300000000000000000000000000000000000000000002000002000200000000200000000000000000000000000000000000000000000e000002000000000060060000000000000000000000000000000000000000000e000000000200000001000000000000000000000000000000000000000000001a000002000200000002ffffffff00000000000000000000000000000000000002000002000200000000200000000000000000000000000000000000000000000e000002000000000060050000000000000000000000000000000000000000000a00000000000000000131143114000000000000000000000000000000000000020200000008000000000000000000000000000000000000000000000000000004040000000000000000000000000000000000000000000000000000000000000a00000000000000000a311444140000000000000000000000000000000000000e0000080000000000600900000000000000000000000000000000000000000018000008000400000000050000000000000000000000000000000000000000000e000004000000000060080000000000000000000000000000000000000000000e00000000020000006105000000000000000000000000000000000000000000020200040001000000000000000000000000000000000000000000000000000007000000000000000003171a00000000000000000000000000000000000000000e000000000200000061060000000000000000000000000000000000000000000e000000000400000061080000000000000000000000000000000000000000000202000400020000000000000000000000000000000000000000000000000000070000000000000000032b1a00000000000000000000000000000000000000000e0000000008000000610900000000000000000000000000000000000000000002000008000200000000010000000000000000000000000000000000000000000c000004000400000001010000000000000000000000000000000000000000000c0000040004000000000000000000000000000000000000000000000000000004020008000000000000000000000000000000000000000000000000000000000a0000000000000000022e1441140000000000000000000000000000000000000c000004000400000001000000000000000000000000000000000000000000000c000004000400000000000000000000000000000000000000000000000000000a0000000000000000012e142e140000000000000000000000000000000000000e0000000001000000610300000000000000000000000000000000000000000007000000000000000003031a000000000000000000000000000000000000000004010000000000000000000000000000000000000000000000000000000000000a000000000000000004e41548140000000000000000000000000000000000000e000000000100000061040000000000000000000000000000000000000000000e00000000020000006106000000000000000000000000000000000000000000070000000000000000032b1a00000000000000000000000000000000000000000e000000000200000021020000000000000000000000000000000000000000000c000004000400000001bfffffffffffffffffffffffffffffff0000000000000c000004000400000000ffffffffffffffffffffffffffffffff00000000000004020004000000000000000000000000000000000000000000000000000000000a0000000000000000080316501400000000000000000000000000000000000002000002000800000000400000000000000000000000000000000000000000000c000004000400000001ffffffffffffffff00000000000000000000000000000c0000040004000000000000000000000000000000000000000000000000000004080004000000000000000000000000000000000000000000000000000000000a000000000000000008031655140000000000000000000000000000000000000e000008000000000020020000000000000000000000000000000000000000000c000001000100000001010000000000000000000000000000000000000000000c000001000100000000000000000000000000000000000000000000000000000e00000200000000006003000000000000000000000000000000000000000000070000000000000000032b1a00000000000000000000000000000000000000000c000008000800000001000000000000000000000000000000000000000000000c000008000800000000000000000000000000000000000000000000000000000e0000000002000000610300000000000000000000000000000000000000000002000002000200000000200000000000000000000000000000000000000000000e000002000000000060060000000000000000000000000000000000000000000e000000000200000001000000000000000000000000000000000000000000001a000002000200000002ffffffff00000000000000000000000000000000000002000002000200000000200000000000000000000000000000000000000000000e000002000000000060050000000000000000000000000000000000000000000a00000000000000000167146714000000000000000000000000000000000000020200000008000000000000000000000000000000000000000000000000000004040000000000000000000000000000000000000000000000000000000000000a00000000000000000a67147a140000000000000000000000000000000000000e0000080000000000600900000000000000000000000000000000000000000018000008000400000000050000000000000000000000000000000000000000000e000004000000000060080000000000000000000000000000000000000000000e00000000020000006105000000000000000000000000000000000000000000020200040001000000000000000000000000000000000000000000000000000007000000000000000003171a00000000000000000000000000000000000000000e000000000200000061060000000000000000000000000000000000000000000e000000000400000061080000000000000000000000000000000000000000000202000400020000000000000000000000000000000000000000000000000000070000000000000000032b1a00000000000000000000000000000000000000000e0000000008000000610900000000000000000000000000000000000000000002000008000200000000010000000000000000000000000000000000000000000c000004000400000001010000000000000000000000000000000000000000000c0000040004000000000000000000000000000000000000000000000000000004020008000000000000000000000000000000000000000000000000000000000a000000000000000002641477140000000000000000000000000000000000000c000004000400000001000000000000000000000000000000000000000000000c000004000400000000000000000000000000000000000000000000000000000a000000000000000001641464140000000000000000000000000000000000000e0000000001000000610300000000000000000000000000000000000000000007000000000000000003031a000000000000000000000000000000000000000004010000000000000000000000000000000000000000000000000000000000000a00000000000000000422167e140000000000000000000000000000000000000c000001000100000001e80300000000000000000000000000000000000000000c000001000100000000000000000000000000000000000000000000000000000e00000000020000006106000000000000000000000000000000000000000000070000000000000000032b1a00000000000000000000000000000000000000000e000000000200000061040000000000000000000000000000000000000000000e000002000000000020000000000000000000000000000000000000000000000c000002000200000001000000000000000000000000000000000000000000000c000002000200000000000000000000000000000000000000000000000000000e0000020000000000200100000000000000000000000000000000000000000010000000000000000000000000000000000000000000000000000000000000000c000004000400000001400000000000000000000000000000000000000000000c000004000400000000000000000000000000000000000000000000000000000e000004000000000040000000000000000000000000000000000000000000000c000004000400000001200000000000000000000000000000000000000000000c000004000400000000000000000000000000000000000000000000000000000c000008000800000001020000000000000000000000000000000000000000000c00000800080000000000000000000000000000000000000000000000000000180000020010000000000500000000000000000000000000000000000000000008100004001000000000000000000000000000000000000000000000000000000e100000002000000021000000000000000000000000000000000000000000000e10002000000000004001000000000000000000000000000000000000000000020000020002000000000100000000000000000000000000000000000000000004020008000000000000000000000000000000000000000000000000000000000a0000000000000000028f1496140000000000000000000000000000000000000c00000100010000000100000000ff03000000000000000000000000000000000c00000100010000000000000000000000000000000000000000000000000000070000000000000000034a1a00000000000000000000000000000000000000000c000002000200000001ffffffffffffffffffffffffffffffff0000000000000c000002000200000000ffffffff0000000000000000000000000000000000000e000000000400000061010000000000000000000000000000000000000000001a040002000200000002000000000000000000000000000000000000000000000e000000000400000041010000000000000000000000000000000000000000000e000002000000000020000000000000000000000000000000000000000000000e0000040000000000200100000000000000000000000000000000000000000010000000000000000000000000000000000000000000000000000000000000000c000002000200000001400000000000000000000000000000000000000000000c000002000200000000000000000000000000000000000000000000000000000e000002000000000040000000000000000000000000000000000000000000000c000002000200000001000000000000000000000000000000000000000000000c000002000200000000000000000000000000000000000000000000000000000c000004000400000001200000000000000000000000000000000000000000000c000004000400000000000000000000000000000000000000000000000000000c000008000800000001020000000000000000000000000000000000000000000c00000800080000000000000000000000000000000000000000000000000000180000020010000000000500000000000000000000000000000000000000000008100004001000000000000000000000000000000000000000000000000000000e100000002000000021000000000000000000000000000000000000000000000e10002000000000004001000000000000000000000000000000000000000000020000020002000000000100000000000000000000000000000000000000000004020008000000000000000000000000000000000000000000000000000000000a000000000000000002aa14b1140000000000000000000000000000000000000c00000100010000000100000000ff03000000000000000000000000000000000c00000100010000000000000000000000000000000000000000000000000000070000000000000000034a1a00000000000000000000000000000000000000000e0000000002000000410100000000000000000000000000000000000000000005020000000400000001000000000000000000000000000000000000000000000c00000800080000000117fcffffffffffffffffffffffffffff0000000000000c000008000800000000ffffffffffffffffffffffffffffffff00000000000004040008000000000000000000000000000000000000000000000000000000000a0000000000000000084116ba1400000000000000000000000000000000000002000004000400000000e803000000000000000000000000000000000000000005020004000000000000000000000000000000000000000000000000000000000e000000000200000021020000000000000000000000000000000000000000000e000002000000000060080000000000000000000000000000000000000000000e00000000010000006104000000000000000000000000000000000000000000070000000000000000032b1a00000000000000000000000000000000000000000e0000000002000000610800000000000000000000000000000000000000000002000002000200000000200000000000000000000000000000000000000000000e000002000000000060090000000000000000000000000000000000000000000c000001000100000001e80300000000000000000000000000000000000000000c00000100010000000000000000000000000000000000000000000000000000070000000000000000032b1a00000000000000000000000000000000000000000e0000000001000000610800000000000000000000000000000000000000000007000000000000000003031a00000000000000000000000000000000000000000e000000000800000061090000000000000000000000000000000000000000000c000002000200000001620f2daaac7a0f2483c0f443734254780000000000000c000002000200000000653dbf5b3d061d739773aec56881d5c30000000000000c000004000400000001040000004000000000000000000000000000000000000c000004000400000000000000000000000000000000000000000000000000000504000200000000000a000000000000000000000000000000000000000000000c000004000400000001000000000000000000000000000000000000000000000c00000400040000000000000000000000000000000000000000000000000000140000000002000000000000000000000000000000000000000000000000000005020004000000000002000000000000000000000000000000000000000000000e0000000002000000610100000000000000000000000000000000000000000005020001000000000002000000000000000000000000000000000000000000000e0000000002000000610800000000000000000000000000000000000000000002000002001000000000400000000000000000000000000000000000000000000e0000100000000000600800000000000000000000000000000000000000000004100008000000000000000000000000000000000000000000000000000000000a000000000000000006d91420150000000000000000000000000000000000000e000000000200000021020000000000000000000000000000000000000000000e000002000000000060080000000000000000000000000000000000000000000e00000000010000006104000000000000000000000000000000000000000000070000000000000000032b1a00000000000000000000000000000000000000000e0000000002000000610800000000000000000000000000000000000000000002000002000200000000200000000000000000000000000000000000000000000c000001000100000001400000000000000000000000000000000000000000000c00000100010000000000000000000000000000000000000000000000000000070000000000000000032b1a00000000000000000000000000000000000000000e0000000001000000610200000000000000000000000000000000000000000007000000000000000003031a00000000000000000000000000000000000000000e000001000000000060060000000000000000000000000000000000000000000e000000000200000061080000000000000000000000000000000000000000000200000200020000000040000000000000000000000000000000000000000000070000000000000000032b1a00000000000000000000000000000000000000000e0000000002000000610800000000000000000000000000000000000000000002000002000200000000600000000000000000000000000000000000000000000e000002000000000060050000000000000000000000000000000000000000000e000000000200000061070000000000000000000000000000000000000000000c000002000200000001000000000000000000000000000000000000000000000c000002000200000000000000000000000000000000000000000000000000000e0000000004000000610600000000000000000000000000000000000000000004040000000000000000000000000000000000000000000000000000000000000a0000000000000000040715f1140000000000000000000000000000000000000e000002000000000060090000000000000000000000000000000000000000000e00000000040000006107000000000000000000000000000000000000000000020200040001000000000000000000000000000000000000000000000000000007000000000000000003031a00000000000000000000000000000000000000000e000000000200000061090000000000000000000000000000000000000000000e000000000400000061050000000000000000000000000000000000000000000202000400020000000000000000000000000000000000000000000000000000070000000000000000032b1a00000000000000000000000000000000000000000e0000000002000000610900000000000000000000000000000000000000000002000002000200000000200000000000000000000000000000000000000000000e0000000004000000610600000000000000000000000000000000000000000004020004000000000000000000000000000000000000000000000000000000000a000000000000000002f114fe140000000000000000000000000000000000000e0000000004000000610600000000000000000000000000000000000000000004020004000000000000000000000000000000000000000000000000000000000a000000000000000006071501150000000000000000000000000000000000000e000000000200000061060000000000000000000000000000000000000000000e0000000004000000610500000000000000000000000000000000000000000002020004000200000000000000000000000000000000000000000000000000000c000001000100000001000000000000000000000000000000000000000000000c00000100010000000000000000000000000000000000000000000000000000070000000000000000032b1a00000000000000000000000000000000000000000e00000000020000006106000000000000000000000000000000000000000000020000020002000000001f0000000000000000000000000000000000000000000c000004000400000001e0ffffffffffffffffffffffffffffff0000000000000c000004000400000000ffffffffffffffffffffffffffffffff0000000000001a020004000200000002000000000000000000000000000000000000000000000e0000000004000000610500000000000000000000000000000000000000000002040002001000000000000000000000000000000000000000000000000000000e00000000080000006108000000000000000000000000000000000000000000041000080002000000000000000000000000000000000000000000000000000018000002000200000000200000000000000000000000000000000000000000001a000002000200000004010000000000000000000000000000000000000000000c000004000400000001292757c6f49c2a1a940f225c38e612720000000000000c0000040004000000000fb9c8544ac6241ce99840deaabbe0850000000000000502000400000000000a000000000000000000000000000000000000000000000e0000100000000000600900000000000000000000000000000000000000000004100008000000000000000000000000000000000000000000000000000000000a000000000000000006181539150000000000000000000000000000000000000e0000000000000000e10800000000000000000000000000000000000000000007000000000000000000000000000000000000000000000000000000000000000c000002000200000001000000000000000000000000000000000000000000000c000002000200000000000000000000000000000000000000000000000000000520000200000000000200000000000000000000000000000000000000000000020000080008000000004000000000000000000000000000000000000000000004100008000000000000000000000000000000000000000000000000000000000a0000000000000000082015d9140000000000000000000000000000000000000e00000800000000006009000000000000000000000000000000000000000000020800000001000000000000000000000000000000000000000000000000000007000000000000000003031a00000000000000000000000000000000000000000e000000001000000061080000000000000000000000000000000000000000000e00000000080000006109000000000000000000000000000000000000000000041000080002000000000000000000000000000000000000000000000000000002010000002000000000000000000000000000000000000000000000000000000c0000040004000000013f0000000000000000000000000000000000000000000c0000040004000000000000000000000000000000000000000000000000000004020004000000000000000000000000000000000000000000000000000000000a0000000000000000082b151a1500000000000000000000000000000000000002000008000100000000200000000000000000000000000000000000000000000e0000200000000000600600000000000000000000000000000000000000000007000000000000000003031a00000000000000000000000000000000000000000e000000001000000061080000000000000000000000000000000000000000000e000000000800000061090000000000000000000000000000000000000000000e0000000002000000610600000000000000000000000000000000000000000005020001000000000002000000000000000000000000000000000000000000000a0000000000000000011d151d150000000000000000000000000000000000000c000002000200000001000000000000000000000000000000000000000000000c000002000200000000000000000000000000000000000000000000000000000520000200000000000200000000000000000000000000000000000000000000020000080008000000004000000000000000000000000000000000000000000004100008000000000000000000000000000000000000000000000000000000000a000000000000000008391518150000000000000000000000000000000000000e00000800000000006008000000000000000000000000000000000000000000020800000001000000000000000000000000000000000000000000000000000007000000000000000003031a00000000000000000000000000000000000000000e000000001000000061090000000000000000000000000000000000000000000e00000000080000006108000000000000000000000000000000000000000000041000080002000000000000000000000000000000000000000000000000000002010000002000000000000000000000000000000000000000000000000000000c0000040004000000013f0000000000000000000000000000000000000000000c0000040004000000000000000000000000000000000000000000000000000004020004000000000000000000000000000000000000000000000000000000000a0000000000000000084415331500000000000000000000000000000000000002000008000100000000200000000000000000000000000000000000000000000e0000200000000000600700000000000000000000000000000000000000000007000000000000000003031a00000000000000000000000000000000000000000e000000001000000061090000000000000000000000000000000000000000000e000000000800000061080000000000000000000000000000000000000000000e0000000002000000610700000000000000000000000000000000000000000005020001000000000002000000000000000000000000000000000000000000000a000000000000000001361536150000000000000000000000000000000000000c000002000200000001000000000000000000000000000000000000000000000c000002000200000000000000000000000000000000717b484e0000000000000e000002000000000020000000000000000000000000000000000000000000000c000001000100000001110000000000000000000000000000000000000000000c000001000100000000000000000000000000000000000000000000000000000c000002000200000001040000000000000000000000000000000000000000000c00000200020000000000000000000000000000000000000000000000000000070000000000000000032b1a00000000000000000000000000000000000000000c000002000200000001240000000000000000000000000000000000000000000c000002000200000000000000000000000000000000000000000000000000000e000002000000000000000000000000000000000000000000000000000000000c000004000400000001000000000000000000000000000000000000000000000c000004000400000000000000000000000000000000000000000000000000000c000002000200000001200000000000000000000000000000000000000000000c000002000200000000000000000000000000000000000000000000000000000a0000000000000000015f155f15000000000000000000000000000000000000020800000004000000000000000000000000000000000000000000000000000004100000000000000000000000000000000000000000000000000000000000000a00000000000000000a5f156016000000000000000000000000000000000000180000040008000000000500000000000000000000000000000000000000000008080002000800000000000000000000000000000000000000000000000000000e080000001000000021000000000000000000000000000000000000000000000e0800100000000000000100000000000000000000000000000000000000000002000004000800000000010000000000000000000000000000000000000000000c000010001000000001010000000000000000000000000000000000000000000c0000100010000000000000000000000000000000000000000000000000000004080004000000000000000000000000000000000000000000000000000000000a0000000000000000025c1568150000000000000000000000000000000000000c000010001000000001000000000000000000000000000000000000000000000c000010001000000000000000000000000000000000000000000000000000000a0000000000000000015c155c150000000000000000000000000000000000000c000002000200000001000000000000000000000000000000000000000000000c000002000200000000000000000000000000000000717b484e0000000000000e000002000000000020000000000000000000000000000000000000000000000c000001000100000001410000000000000000000000000000000000000000000c000001000100000000000000000000000000000000000000000000000000000c000002000200000001040000000000000000000000000000000000000000000c00000200020000000000000000000000000000000000000000000000000000070000000000000000032b1a00000000000000000000000000000000000000000c000002000200000001240000000000000000000000000000000000000000000c000002000200000000000000000000000000000000000000000000000000000e000002000000000000000000000000000000000000000000000000000000000c000004000400000001000000000000000000000000000000000000000000000c000004000400000000000000000000000000000000000000000000000000000c000002000200000001200000000000000000000000000000000000000000000c000002000200000000000000000000000000000000000000000000000000000a0000000000000000017e157e15000000000000000000000000000000000000020800000004000000000000000000000000000000000000000000000000000004100000000000000000000000000000000000000000000000000000000000000a00000000000000000a7e156b16000000000000000000000000000000000000180000040008000000000500000000000000000000000000000000000000000008080002000800000000000000000000000000000000000000000000000000000e080000001000000021000000000000000000000000000000000000000000000e0800100000000000000100000000000000000000000000000000000000000002000004000800000000010000000000000000000000000000000000000000000c000010001000000001010000000000000000000000000000000000000000000c0000100010000000000000000000000000000000000000000000000000000004080004000000000000000000000000000000000000000000000000000000000a0000000000000000027b1587150000000000000000000000000000000000000c000010001000000001000000000000000000000000000000000000000000000c000010001000000000000000000000000000000000000000000000000000000a0000000000000000017b157b150000000000000000000000000000000000000c000001000100000001000000000000000000000000000000000000000000000c000001000100000000000000000000000000000000a079c308000000000000070000000000000000032b1a00000000000000000000000000000000000000000e0000000002000000610300000000000000000000000000000000000000000002000002000200000000040000000000000000000000000000000000000000000c000001000100000001200000000000000000000000000000000000000000000c00000100010000000000000000000000000000000000000000000000000000070000000000000000032b1a00000000000000000000000000000000000000000e0000000002000000610300000000000000000000000000000000000000000002000002000200000000240000000000000000000000000000000000000000000c000001000100000001210000000000000000000000000000000000000000000c00000100010000000000000000000000000000000000000000000000000000070000000000000000032b1a00000000000000000000000000000000000000000e0000000002000000610300000000000000000000000000000000000000000002000002000200000000440000000000000000000000000000000000000000000c000001000100000001736572646461206f72657a20656874200000000000000c0000010001000000006f7420746e696d203a35353131435245000000000000070000000000000000032b1a00000000000000000000000000000000000000000e0000000002000000610300000000000000000000000000000000000000000002000002000200000000640000000000000000000000000000000000000000000c000001000100000001000000000000000000000000000000000000000000000c00000100010000000000000000000000000000000000000073000000000000070000000000000000032b1a00000000000000000000000000000000000000000c000002000200000001840000000000000000000000000000000000000000000c000002000200000000000000000000000000000000000000000000000000000e000002000000000000000000000000000000000000000000000000000000000c000002000200000001000000000000000000000000000000000000000000000c000002000200000000000000000000000000000000000000000000000000000e0000020000000000600900000000000000000000000000000000000000000018000002000400000000050000000000000000000000000000000000000000000e000004000000000060080000000000000000000000000000000000000000000e00000000020000006103000000000000000000000000000000000000000000020200040001000000000000000000000000000000000000000000000000000007000000000000000003031a00000000000000000000000000000000000000000c000002000200000001200000000000000000000000000000000000000000000c000002000200000000000000000000000000000000000000000000000000000e0000000004000000610800000000000000000000000000000000000000000008040002000200000000000000000000000000000000000000000000000000000e020001000000000000010000000000000000000000000000000000000000000e0000000002000000610900000000000000000000000000000000000000000002000002000200000000010000000000000000000000000000000000000000000c000004000400000001040000000000000000000000000000000000000000000c0000040004000000000000000000000000000000000000000000000000000004020004000000000000000000000000000000000000000000000000000000000a000000000000000002a615b7150000000000000000000000000000000000000e00000000020000006103000000000000000000000000000000000000000000020000020001000000008000000000000000000000000000000000000000000007000000000000000003031a00000000000000000000000000000000000000000c000002000200000001ffffffffffffffffffffffffffffffff0000000000000c000002000200000000ffffffffffffffffffffffff000000000000000000000e000000000400000001050000000000000000000000000000000000000000001a040002000200000002000000000000000000000000000000000000000000000c000004000400000001000000000000000000000000000000000000000000000c000004000400000000000000000000000000000000ffffffff0000000000001a010004000400000002000000000000000000000000000000000000000000001a040002000200000004000000000000000000000000000000000000000000000e000002000000000000050000000000000000000000000000000000000000000e0000000000000000e10800000000000000000000000000000000000000000007000000000000000004000000000000000000000000000000000000000000000c000002000200000001000000000000000000000000000000000000000000000c000002000200000000000000000000000000000000717b484e0000000000000e000002000000000020000000000000000000000000000000000000000000000c000001000100000001410000000000000000000000000000000000000000000c000001000100000000000000000000000000000000000000000000000000000c000002000200000001040000000000000000000000000000000000000000000c00000200020000000000000000000000000000000000000000000000000000070000000000000000032b1a00000000000000000000000000000000000000000c000002000200000001240000000000000000000000000000000000000000000c000002000200000000000000000000000000000000000000000000000000000e000002000000000000000000000000000000000000000000000000000000000c000004000400000001000000000000000000000000000000000000000000000c000004000400000000000000000000000000000000000000000000000000000c000002000200000001200000000000000000000000000000000000000000000c000002000200000000000000000000000000000000000000000000000000000a000000000000000001d815d815000000000000000000000000000000000000020800000004000000000000000000000000000000000000000000000000000004100000000000000000000000000000000000000000000000000000000000000a00000000000000000ad8157616000000000000000000000000000000000000180000040008000000000500000000000000000000000000000000000000000008080002000800000000000000000000000000000000000000000000000000000e080000001000000021000000000000000000000000000000000000000000000e0800100000000000000100000000000000000000000000000000000000000002000004000800000000010000000000000000000000000000000000000000000c000010001000000001010000000000000000000000000000000000000000000c0000100010000000000000000000000000000000000000000000000000000004080004000000000000000000000000000000000000000000000000000000000a000000000000000002d515e1150000000000000000000000000000000000000c000010001000000001000000000000000000000000000000000000000000000c000010001000000000000000000000000000000000000000000000000000000a000000000000000001d515d5150000000000000000000000000000000000000c000002000200000001000000000000000000000000000000000000000000000c000002000200000000000000000000000000000000717b484e0000000000000e000002000000000020000000000000000000000000000000000000000000000c000001000100000001320000000000000000000000000000000000000000000c000001000100000000000000000000000000000000000000000000000000000c000002000200000001040000000000000000000000000000000000000000000c00000200020000000000000000000000000000000000000000000000000000070000000000000000032b1a00000000000000000000000000000000000000000c000002000200000001240000000000000000000000000000000000000000000c000002000200000000000000000000000000000000000000000000000000000e000002000000000000000000000000000000000000000000000000000000000c000004000400000001000000000000000000000000000000000000000000000c000004000400000000000000000000000000000000000000000000000000000c000002000200000001200000000000000000000000000000000000000000000c000002000200000000000000000000000000000000000000000000000000000a000000000000000001f715f715000000000000000000000000000000000000020800000004000000000000000000000000000000000000000000000000000004100000000000000000000000000000000000000000000000000000000000000a00000000000000000af7158116000000000000000000000000000000000000180000040008000000000500000000000000000000000000000000000000000008080002000800000000000000000000000000000000000000000000000000000e080000001000000021000000000000000000000000000000000000000000000e0800100000000000000100000000000000000000000000000000000000000002000004000800000000010000000000000000000000000000000000000000000c000010001000000001010000000000000000000000000000000000000000000c0000100010000000000000000000000000000000000000000000000000000004080004000000000000000000000000000000000000000000000000000000000a000000000000000002f41500160000000000000000000000000000000000000c000010001000000001000000000000000000000000000000000000000000000c000010001000000000000000000000000000000000000000000000000000000a000000000000000001f415f4150000000000000000000000000000000000000c000002000200000001000000000000000000000000000000000000000000000c000002000200000000000000000000000000000000717b484e0000000000000e000002000000000020000000000000000000000000000000000000000000000c000001000100000001410000000000000000000000000000000000000000000c000001000100000000000000000000000000000000000000000000000000000c000002000200000001040000000000000000000000000000000000000000000c00000200020000000000000000000000000000000000000000000000000000070000000000000000032b1a00000000000000000000000000000000000000000c000002000200000001240000000000000000000000000000000000000000000c000002000200000000000000000000000000000000000000000000000000000e000002000000000000000000000000000000000000000000000000000000000c000004000400000001000000000000000000000000000000000000000000000c000004000400000000000000000000000000000000000000000000000000000c000002000200000001200000000000000000000000000000000000000000000c000002000200000000000000000000000000000000000000000000000000000a00000000000000000116161616000000000000000000000000000000000000020800000004000000000000000000000000000000000000000000000000000004100000000000000000000000000000000000000000000000000000000000000a00000000000000000a16168c16000000000000000000000000000000000000180000040008000000000500000000000000000000000000000000000000000008080002000800000000000000000000000000000000000000000000000000000e080000001000000021000000000000000000000000000000000000000000000e0800100000000000000100000000000000000000000000000000000000000002000004000800000000010000000000000000000000000000000000000000000c000010001000000001010000000000000000000000000000000000000000000c0000100010000000000000000000000000000000000000000000000000000004080004000000000000000000000000000000000000000000000000000000000a00000000000000000213161f160000000000000000000000000000000000000c000010001000000001000000000000000000000000000000000000000000000c000010001000000000000000000000000000000000000000000000000000000a000000000000000001131613160000000000000000000000000000000000000c000002000200000001000000000000000000000000000000000000000000000c000002000200000000000000000000000000000000717b484e0000000000000e000002000000000020000000000000000000000000000000000000000000000c000001000100000001320000000000000000000000000000000000000000000c000001000100000000000000000000000000000000000000000000000000000c000002000200000001040000000000000000000000000000000000000000000c00000200020000000000000000000000000000000000000000000000000000070000000000000000032b1a00000000000000000000000000000000000000000c000002000200000001240000000000000000000000000000000000000000000c000002000200000000000000000000000000000000000000000000000000000e000002000000000000000000000000000000000000000000000000000000000c000004000400000001000000000000000000000000000000000000000000000c000004000400000000000000000000000000000000000000000000000000000c000002000200000001200000000000000000000000000000000000000000000c000002000200000000000000000000000000000000000000000000000000000a00000000000000000135163516000000000000000000000000000000000000020800000004000000000000000000000000000000000000000000000000000004100000000000000000000000000000000000000000000000000000000000000a00000000000000000a35169716000000000000000000000000000000000000180000040008000000000500000000000000000000000000000000000000000008080002000800000000000000000000000000000000000000000000000000000e080000001000000021000000000000000000000000000000000000000000000e0800100000000000000100000000000000000000000000000000000000000002000004000800000000010000000000000000000000000000000000000000000c000010001000000001010000000000000000000000000000000000000000000c0000100010000000000000000000000000000000000000000000000000000004080004000000000000000000000000000000000000000000000000000000000a00000000000000000232163e160000000000000000000000000000000000000c000010001000000001000000000000000000000000000000000000000000000c000010001000000000000000000000000000000000000000000000000000000a000000000000000001321632160000000000000000000000000000000000000c000002000200000001000000000000000000000000000000000000000000000c000002000200000000000000000000000000000000717b484e0000000000000e000002000000000020000000000000000000000000000000000000000000000c000001000100000001110000000000000000000000000000000000000000000c000001000100000000000000000000000000000000000000000000000000000c000002000200000001040000000000000000000000000000000000000000000c00000200020000000000000000000000000000000000000000000000000000070000000000000000032b1a00000000000000000000000000000000000000000c000002000200000001240000000000000000000000000000000000000000000c000002000200000000000000000000000000000000000000000000000000000e000002000000000000000000000000000000000000000000000000000000000c000004000400000001000000000000000000000000000000000000000000000c000004000400000000000000000000000000000000000000000000000000000c000002000200000001200000000000000000000000000000000000000000000c000002000200000000000000000000000000000000000000000000000000000a00000000000000000154165416000000000000000000000000000000000000020800000004000000000000000000000000000000000000000000000000000004100000000000000000000000000000000000000000000000000000000000000a00000000000000000a5416a216000000000000000000000000000000000000180000040008000000000500000000000000000000000000000000000000000008080002000800000000000000000000000000000000000000000000000000000e080000001000000021000000000000000000000000000000000000000000000e0800100000000000000100000000000000000000000000000000000000000002000004000800000000010000000000000000000000000000000000000000000c000010001000000001010000000000000000000000000000000000000000000c0000100010000000000000000000000000000000000000000000000000000004080004000000000000000000000000000000000000000000000000000000000a00000000000000000251165d160000000000000000000000000000000000000c000010001000000001000000000000000000000000000000000000000000000c000010001000000000000000000000000000000000000000000000000000000a000000000000000001511651160000000000000000000000000000000000000c000002000200000001ffffffffffffffffffffffffffffffff0000000000000c000002000200000000ffffffffffffffffffffffff000000000000000000000e000000000400000001020000000000000000000000000000000000000000001a040002000200000002000000000000000000000000000000000000000000000c000004000400000001000000000000000000000000000000000000000000000c000004000400000000000000000000000000000000ffffffff0000000000000e000000000800000021010000000000000000000000000000000000000000001a080004000400000002000000000000000000000000000000000000000000001a040002000200000004000000000000000000000000000000000000000000000e000002000000000000020000000000000000000000000000000000000000000a000000000000000001ac16ac160000000000000000000000000000000000000c000002000200000001ffffffffffffffffffffffffffffffff0000000000000c000002000200000000ffffffffffffffffffffffff000000000000000000000e000000000400000001020000000000000000000000000000000000000000001a040002000200000002000000000000000000000000000000000000000000000c000004000400000001000000000000000000000000000000000000000000000c000004000400000000000000000000000000000000ffffffff0000000000000e000000000800000021010000000000000000000000000000000000000000001a080004000400000002000000000000000000000000000000000000000000001a040002000200000004000000000000000000000000000000000000000000000e000002000000000000020000000000000000000000000000000000000000000a000000000000000001ac16ac160000000000000000000000000000000000000c000002000200000001ffffffffffffffffffffffffffffffff0000000000000c000002000200000000ffffffffffffffffffffffff000000000000000000000e000000000400000001020000000000000000000000000000000000000000001a040002000200000002000000000000000000000000000000000000000000000c000004000400000001000000000000000000000000000000000000000000000c000004000400000000000000000000000000000000ffffffff0000000000000e000000000800000021010000000000000000000000000000000000000000001a080004000400000002000000000000000000000000000000000000000000001a040002000200000004000000000000000000000000000000000000000000000e000002000000000000020000000000000000000000000000000000000000000a000000000000000001ac16ac160000000000000000000000000000000000000c000002000200000001ffffffffffffffffffffffffffffffff0000000000000c000002000200000000ffffffffffffffffffffffff000000000000000000000e000000000400000001020000000000000000000000000000000000000000001a040002000200000002000000000000000000000000000000000000000000000c000004000400000001000000000000000000000000000000000000000000000c000004000400000000000000000000000000000000ffffffff0000000000000e000000000800000021010000000000000000000000000000000000000000001a080004000400000002000000000000000000000000000000000000000000001a040002000200000004000000000000000000000000000000000000000000000e000002000000000000020000000000000000000000000000000000000000000a000000000000000001ac16ac160000000000000000000000000000000000000c000002000200000001ffffffffffffffffffffffffffffffff0000000000000c000002000200000000ffffffffffffffffffffffff000000000000000000000e000000000400000001020000000000000000000000000000000000000000001a040002000200000002000000000000000000000000000000000000000000000c000004000400000001000000000000000000000000000000000000000000000c000004000400000000000000000000000000000000ffffffff0000000000000e000000000800000021010000000000000000000000000000000000000000001a080004000400000002000000000000000000000000000000000000000000001a040002000200000004000000000000000000000000000000000000000000000e000002000000000000020000000000000000000000000000000000000000000a000000000000000001ac16ac160000000000000000000000000000000000000c000002000200000001ffffffffffffffffffffffffffffffff0000000000000c000002000200000000ffffffffffffffffffffffff000000000000000000000e000000000400000001020000000000000000000000000000000000000000001a040002000200000002000000000000000000000000000000000000000000000c000004000400000001000000000000000000000000000000000000000000000c000004000400000000000000000000000000000000ffffffff0000000000000e000000000800000021010000000000000000000000000000000000000000001a080004000400000002000000000000000000000000000000000000000000001a040002000200000004000000000000000000000000000000000000000000000e000002000000000000020000000000000000000000000000000000000000000a000000000000000001ac16ac160000000000000000000000000000000000000c000002000200000001ffffffffffffffffffffffffffffffff0000000000000c000002000200000000ffffffffffffffffffffffff000000000000000000000e000000000400000001020000000000000000000000000000000000000000001a040002000200000002000000000000000000000000000000000000000000000c000004000400000001000000000000000000000000000000000000000000000c000004000400000000000000000000000000000000ffffffff0000000000000e000000000800000021010000000000000000000000000000000000000000001a080004000400000002000000000000000000000000000000000000000000001a040002000200000004000000000000000000000000000000000000000000000e000002000000000000020000000000000000000000000000000000000000000e0000000000000000e10800000000000000000000000000000000000000000007000000000000000004000000000000000000000000000000000000000000000e0000000000000000e0080000000000000000000000000000000000000000000e000001000000000060030000000000000000000000000000000000000000000c000002000200000001000000000000000000000000000000000000000000000c000002000200000000000000000000000000000000000000000000000000000e000002000000000060090000000000000000000000000000000000000000000e000000000200000021020000000000000000000000000000000000000000000e0000020000000000600800000000000000000000000000000000000000000007000000000000000003031a00000000000000000000000000000000000000000e0000000002000000610300000000000000000000000000000000000000000002000002000200000000200000000000000000000000000000000000000000000e0000020000000000600700000000000000000000000000000000000000000002010000000200000000000000000000000000000000000000000000000000000e0000000004000000610800000000000000000000000000000000000000000002020004000400000000000000000000000000000000000000000000000000000e000004000000000060050000000000000000000000000000000000000000000e0000020000000000600600000000000000000000000000000000000000000004020000000000000000000000000000000000000000000000000000000000000a000000000000000004d916c0160000000000000000000000000000000000000e000000000400000061090000000000000000000000000000000000000000000e000004000000000060090000000000000000000000000000000000000000000e00000000020000006107000000000000000000000000000000000000000000020400020001000000000000000000000000000000000000000000000000000007000000000000000003031a00000000000000000000000000000000000000000e000000000200000061080000000000000000000000000000000000000000000e000000000400000061090000000000000000000000000000000000000000000204000200020000000000000000000000000000000000000000000000000000070000000000000000032b1a00000000000000000000000000000000000000000e000000000200000061060000000000000000000000000000000000000000000e0000000004000000610900000000000000000000000000000000000000000002000004000400000000200000000000000000000000000000000000000000000e0000040000000000600900000000000000000000000000000000000000000004040002000000000000000000000000000000000000000000000000000000000a000000000000000002c016cf160000000000000000000000000000000000000e000000000400000061080000000000000000000000000000000000000000000e000000000400000061070000000000000000000000000000000000000000000e0000000004000000610900000000000000000000000000000000000000000004040002000000000000000000000000000000000000000000000000000000000a000000000000000006db16d4160000000000000000000000000000000000000c000001000100000001000000000000000000000000000000000000000000000c000001000100000000000000000000000000000000000000000000000000000e00000000020000006105000000000000000000000000000000000000000000070000000000000000032b1a00000000000000000000000000000000000000000a000000000000000001db16db160000000000000000000000000000000000000e000000000200000061080000000000000000000000000000000000000000000e000000000200000061070000000000000000000000000000000000000000000c000001000100000001050000000000000000000000000000000000000000000c000001000100000000000000000000000000000000000000000000000000000e00000000020000006105000000000000000000000000000000000000000000070000000000000000032b1a00000000000000000000000000000000000000000c000008000800000001000000000000000000000000000000000000000000000c000008000800000000000000000000000000000000000000000000000000000e0000000002000000610600000000000000000000000000000000000000000002000002000400000000200000000000000000000000000000000000000000001a0000040002000000021f0000000000000000000000000000000000000000000e0000020000000000600400000000000000000000000000000000000000000010000000000000000000000000000000000000000000000000000000000000000e000004000000000040000000000000000000000000000000000000000000000e0000040000000000600200000000000000000000000000000000000000000018000004000200000002050000000000000000000000000000000000000000000e000000000400000061080000000000000000000000000000000000000000000e0000020000000000600500000000000000000000000000000000000000000004020000000000000000000000000000000000000000000000000000000000000a000000000000000004fd16ed160000000000000000000000000000000000000e0000080000000000600900000000000000000000000000000000000000000018000008000400000000050000000000000000000000000000000000000000000e000004000000000060060000000000000000000000000000000000000000000e00000000020000006108000000000000000000000000000000000000000000020200040001000000000000000000000000000000000000000000000000000007000000000000000003031a00000000000000000000000000000000000000000e000000000800000061090000000000000000000000000000000000000000000c000002000200000001200000000000000000000000000000000000000000000c000002000200000000000000000000000000000000000000000000000000000e0000000004000000610600000000000000000000000000000000000000000008040002000200000000000000000000000000000000000000000000000000000e0200010000000000400100000000000000000000000000000000000000000002000008000800000000010000000000000000000000000000000000000000000e0000000002000000610500000000000000000000000000000000000000000004080002000000000000000000000000000000000000000000000000000000000a000000000000000002ed16fd160000000000000000000000000000000000000e000000000400000061080000000000000000000000000000000000000000000e0000000002000000610400000000000000000000000000000000000000000004020000000000000000000000000000000000000000000000000000000000000a0000000000000000041a1701170000000000000000000000000000000000000c000002000200000001e0ffffffffffffffffffffffffffffff0000000000000c000002000200000000ffffffffffffffffffffffffffffffff0000000000000e000000000800000061020000000000000000000000000000000000000000001a080002000200000002000000000000000000000000000000000000000000000e00000200000000006009000000000000000000000000000000000000000000020400020001000000000000000000000000000000000000000000000000000007000000000000000003031a00000000000000000000000000000000000000000c000002000200000001200000000000000000000000000000000000000000000c000002000200000000000000000000000000000000000000000000000000000e0000000004000000610900000000000000000000000000000000000000000008040002000200000000000000000000000000000000000000000000000000000e0000000004000000610400000000000000000000000000000000000000000018000004000400000000030000000000000000000000000000000000000000000c000008000800000001ffffffffffffffffffffffffffffffff0000000000000c000008000800000000ffffffffffffffffffffffffffffffff00000000000018040008001000000002000000000000000000000000000000000000000000000e020000002000000041010000000000000000000000000000000000000000001a200010001000000002000000000000000000000000000000000000000000000c000020002000000001000100000000000000000000000000000000000000000c00002000200000000000000000000000000000000000000000000000000000042000040004000000000000000000000000000000000000000000000000000018040008000400000000000000000000000000000000000000000000000000001a010004000400000002000000000000000000000000000000000000000000001a040010000400000004000000000000000000000000000000000000000000000e020004000000000040010000000000000000000000000000000000000000000c00000100010000000100000000ff03000000000000000000000000000000000c00000100010000000000000000000000000000000000000000000000000000070000000000000000034a1a00000000000000000000000000000000000000000e000000000200000021020000000000000000000000000000000000000000000e0000000004000000410100000000000000000000000000000000000000000005040000000400000001000000000000000000000000000000000000000000000e000004000000000060040000000000000000000000000000000000000000000c000004000400000001dfffffffffffffffffffffffffffffff0000000000000c000004000400000000ffffffffffffffffffffffffffffffff00000000000004020004000000000000000000000000000000000000000000000000000000000a000000000000000008e618251700000000000000000000000000000000000002000002000400000000200000000000000000000000000000000000000000000c000008000800000001ffffffffffffffff00000000000000000000000000000c0000080008000000000000000000000000000000000000000000000000000004040008000000000000000000000000000000000000000000000000000000000a000000000000000008e6182a170000000000000000000000000000000000000e000004000000000020020000000000000000000000000000000000000000000c000001000100000001000000000000000000000000000000000000000000000c00000100010000000000000000000000000000000000000000000000000000070000000000000000032b1a000000000000000000000000000000000000000014000000000400000000000000000000000000000000000000000000000000000c000002000200000001010000000000000000000000000000000000000000000c000002000200000000000000000000000000000000000000000000000000000e0000040000000000600100000000000000000000000000000000000000000004040000000000000000000000000000000000000000000000000000000000000a00000000000000000a361734170000000000000000000000000000000000000c000002000200000001000000000000000000000000000000000000000000000c000002000200000000000000000000000000000000000000000000000000001a0000020001000000020100000000000000000000000000000000000000000007000000000000000003bf1200000000000000000000000000000000000000000a00000000000000000239173a170000000000000000000000000000000000000a000000000000000001e119e1190000000000000000000000000000000000000e000000000200000021020000000000000000000000000000000000000000000c000004000400000001bfffffffffffffffffffffffffffffff0000000000000c000004000400000000ffffffffffffffffffffffffffffffff00000000000004020004000000000000000000000000000000000000000000000000000000000a00000000000000000805193f1700000000000000000000000000000000000002000002000800000000400000000000000000000000000000000000000000000c000004000400000001ffffffffffffffff00000000000000000000000000000c0000040004000000000000000000000000000000000000000000000000000004080004000000000000000000000000000000000000000000000000000000000a000000000000000008051944170000000000000000000000000000000000000e000008000000000020020000000000000000000000000000000000000000000c000001000100000001010000000000000000000000000000000000000000000c000001000100000000000000000000000000000000000000000000000000000e00000200000000006002000000000000000000000000000000000000000000070000000000000000032b1a00000000000000000000000000000000000000000c000008000800000001000000000000000000000000000000000000000000000c000008000800000000000000000000000000000000000000000000000000000e0000000002000000610200000000000000000000000000000000000000000002000002000200000000200000000000000000000000000000000000000000000e000002000000000060060000000000000000000000000000000000000000000e000000000200000001000000000000000000000000000000000000000000001a000002000200000002ffffffff00000000000000000000000000000000000002000002000200000000200000000000000000000000000000000000000000000e000002000000000060050000000000000000000000000000000000000000000a00000000000000000156175617000000000000000000000000000000000000020200000008000000000000000000000000000000000000000000000000000004040000000000000000000000000000000000000000000000000000000000000a00000000000000000a561769170000000000000000000000000000000000000e0000080000000000600900000000000000000000000000000000000000000018000008000400000000050000000000000000000000000000000000000000000e000004000000000060080000000000000000000000000000000000000000000e00000000020000006105000000000000000000000000000000000000000000020200040001000000000000000000000000000000000000000000000000000007000000000000000003171a00000000000000000000000000000000000000000e000000000200000061060000000000000000000000000000000000000000000e000000000400000061080000000000000000000000000000000000000000000202000400020000000000000000000000000000000000000000000000000000070000000000000000032b1a00000000000000000000000000000000000000000e0000000008000000610900000000000000000000000000000000000000000002000008000200000000010000000000000000000000000000000000000000000c000004000400000001010000000000000000000000000000000000000000000c0000040004000000000000000000000000000000000000000000000000000004020008000000000000000000000000000000000000000000000000000000000a000000000000000002531766170000000000000000000000000000000000000c000004000400000001000000000000000000000000000000000000000000000c000004000400000000000000000000000000000000000000000000000000000a000000000000000001531753170000000000000000000000000000000000000e0000000001000000610200000000000000000000000000000000000000000007000000000000000003031a000000000000000000000000000000000000000004010000000000000000000000000000000000000000000000000000000000000a00000000000000000424196d170000000000000000000000000000000000000e000000000100000061040000000000000000000000000000000000000000000e00000000020000006106000000000000000000000000000000000000000000070000000000000000032b1a00000000000000000000000000000000000000000e000000000200000021020000000000000000000000000000000000000000000c000004000400000001bfffffffffffffffffffffffffffffff0000000000000c000004000400000000ffffffffffffffffffffffffffffffff00000000000004020004000000000000000000000000000000000000000000000000000000000a0000000000000000084319751700000000000000000000000000000000000002000002000800000000400000000000000000000000000000000000000000000c000004000400000001ffffffffffffffff00000000000000000000000000000c0000040004000000000000000000000000000000000000000000000000000004080004000000000000000000000000000000000000000000000000000000000a00000000000000000843197a170000000000000000000000000000000000000e000008000000000020020000000000000000000000000000000000000000000c000001000100000001010000000000000000000000000000000000000000000c000001000100000000000000000000000000000000000000000000000000000e00000200000000006002000000000000000000000000000000000000000000070000000000000000032b1a00000000000000000000000000000000000000000c000008000800000001000000000000000000000000000000000000000000000c000008000800000000000000000000000000000000000000000000000000000e0000000002000000610200000000000000000000000000000000000000000002000002000200000000200000000000000000000000000000000000000000000e000002000000000060060000000000000000000000000000000000000000000e000000000200000001000000000000000000000000000000000000000000001a000002000200000002ffffffff00000000000000000000000000000000000002000002000200000000200000000000000000000000000000000000000000000e000002000000000060050000000000000000000000000000000000000000000a0000000000000000018c178c17000000000000000000000000000000000000020200000008000000000000000000000000000000000000000000000000000004040000000000000000000000000000000000000000000000000000000000000a00000000000000000a8c179f170000000000000000000000000000000000000e0000080000000000600900000000000000000000000000000000000000000018000008000400000000050000000000000000000000000000000000000000000e000004000000000060080000000000000000000000000000000000000000000e00000000020000006105000000000000000000000000000000000000000000020200040001000000000000000000000000000000000000000000000000000007000000000000000003171a00000000000000000000000000000000000000000e000000000200000061060000000000000000000000000000000000000000000e000000000400000061080000000000000000000000000000000000000000000202000400020000000000000000000000000000000000000000000000000000070000000000000000032b1a00000000000000000000000000000000000000000e0000000008000000610900000000000000000000000000000000000000000002000008000200000000010000000000000000000000000000000000000000000c000004000400000001010000000000000000000000000000000000000000000c0000040004000000000000000000000000000000000000000000000000000004020008000000000000000000000000000000000000000000000000000000000a00000000000000000289179c170000000000000000000000000000000000000c000004000400000001000000000000000000000000000000000000000000000c000004000400000000000000000000000000000000000000000000000000000a000000000000000001891789170000000000000000000000000000000000000e0000000001000000610200000000000000000000000000000000000000000007000000000000000003031a000000000000000000000000000000000000000004010000000000000000000000000000000000000000000000000000000000000a0000000000000000046219a3170000000000000000000000000000000000000c000001000100000001010000000000000000000000000000000000000000000c000001000100000000000000000000000000000000000000000000000000000e00000000020000006106000000000000000000000000000000000000000000070000000000000000032b1a00000000000000000000000000000000000000000e000000000200000061040000000000000000000000000000000000000000000e000002000000000020000000000000000000000000000000000000000000000c000002000200000001000000000000000000000000000000000000000000000c000002000200000000000000000000000000000000000000000000000000000e0000020000000000200100000000000000000000000000000000000000000010000000000000000000000000000000000000000000000000000000000000000c000004000400000001400000000000000000000000000000000000000000000c000004000400000000000000000000000000000000000000000000000000000e000004000000000040000000000000000000000000000000000000000000000c000004000400000001200000000000000000000000000000000000000000000c000004000400000000000000000000000000000000000000000000000000000c000008000800000001020000000000000000000000000000000000000000000c00000800080000000000000000000000000000000000000000000000000000180000020010000000000500000000000000000000000000000000000000000008100004001000000000000000000000000000000000000000000000000000000e100000002000000021000000000000000000000000000000000000000000000e10002000000000004001000000000000000000000000000000000000000000020000020002000000000100000000000000000000000000000000000000000004020008000000000000000000000000000000000000000000000000000000000a000000000000000002b417bb170000000000000000000000000000000000000c00000100010000000100000000ff03000000000000000000000000000000000c00000100010000000000000000000000000000000000000000000000000000070000000000000000034a1a00000000000000000000000000000000000000000c000002000200000001ffffffffffffffffffffffffffffffff0000000000000c000002000200000000ffffffff00000000000000000000000000000000000014000000000400000000050000000000000000000000000000000000000000000e000004000000000060060000000000000000000000000000000000000000001a040002000400000002000000000000000000000000000000000000000000000e000000000200000041010000000000000000000000000000000000000000000e000004000000000060090000000000000000000000000000000000000000000e000004000000000020000000000000000000000000000000000000000000000e0000020000000000200100000000000000000000000000000000000000000010000000000000000000000000000000000000000000000000000000000000000c000002000200000001400000000000000000000000000000000000000000000c000002000200000000000000000000000000000000000000000000000000000e000002000000000040000000000000000000000000000000000000000000000c000002000200000001000000000000000000000000000000000000000000000c000002000200000000000000000000000000000000000000000000000000000c000004000400000001200000000000000000000000000000000000000000000c000004000400000000000000000000000000000000000000000000000000000c000008000800000001020000000000000000000000000000000000000000000c00000800080000000000000000000000000000000000000000000000000000180000020010000000000500000000000000000000000000000000000000000008100004001000000000000000000000000000000000000000000000000000000e100000002000000021000000000000000000000000000000000000000000000e10002000000000004001000000000000000000000000000000000000000000020000020002000000000100000000000000000000000000000000000000000004020008000000000000000000000000000000000000000000000000000000000a000000000000000002d117d8170000000000000000000000000000000000000c00000100010000000100000000ff03000000000000000000000000000000000c00000100010000000000000000000000000000000000000000000000000000070000000000000000034a1a00000000000000000000000000000000000000000e0000000002000000410100000000000000000000000000000000000000000005020000000400000001000000000000000000000000000000000000000000000c000002000200000001010000000000000000000000000000000000000000000c000002000200000000000000000000000000000000000000000000000000000e0000040000000000600800000000000000000000000000000000000000000004040000000000000000000000000000000000000000000000000000000000000a00000000000000000ae417e2170000000000000000000000000000000000000c000002000200000001000000000000000000000000000000000000000000000c000002000200000000000000000000000000000000000000000000000000001a0000020001000000020100000000000000000000000000000000000000000007000000000000000003011300000000000000000000000000000000000000000a000000000000000002e717e8170000000000000000000000000000000000000a000000000000000001e119e1190000000000000000000000000000000000000e000000000200000061040000000000000000000000000000000000000000000e000002000000000020000000000000000000000000000000000000000000000c000002000200000001000000000000000000000000000000000000000000000c000002000200000000000000000000000000000000000000000000000000000e0000020000000000200100000000000000000000000000000000000000000010000000000000000000000000000000000000000000000000000000000000000c000004000400000001400000000000000000000000000000000000000000000c000004000400000000000000000000000000000000000000000000000000000e000004000000000040000000000000000000000000000000000000000000000c000004000400000001200000000000000000000000000000000000000000000c000004000400000000000000000000000000000000000000000000000000000c000008000800000001020000000000000000000000000000000000000000000c00000800080000000000000000000000000000000000000000000000000000180000020010000000000500000000000000000000000000000000000000000008100004001000000000000000000000000000000000000000000000000000000e100000002000000021000000000000000000000000000000000000000000000e10002000000000004001000000000000000000000000000000000000000000020000020002000000000100000000000000000000000000000000000000000004020008000000000000000000000000000000000000000000000000000000000a000000000000000002f517fc170000000000000000000000000000000000000c00000100010000000100000000ff03000000000000000000000000000000000c00000100010000000000000000000000000000000000000000000000000000070000000000000000034a1a00000000000000000000000000000000000000000e000000000200000041010000000000000000000000000000000000000000000e000000000400000061090000000000000000000000000000000000000000000e000004000000000020000000000000000000000000000000000000000000000e0000020000000000200100000000000000000000000000000000000000000010000000000000000000000000000000000000000000000000000000000000000c000002000200000001400000000000000000000000000000000000000000000c000002000200000000000000000000000000000000000000000000000000000e000002000000000040000000000000000000000000000000000000000000000c000002000200000001000000000000000000000000000000000000000000000c000002000200000000000000000000000000000000000000000000000000000c000004000400000001200000000000000000000000000000000000000000000c000004000400000000000000000000000000000000000000000000000000000c000008000800000001020000000000000000000000000000000000000000000c00000800080000000000000000000000000000000000000000000000000000180000020010000000000500000000000000000000000000000000000000000008100004001000000000000000000000000000000000000000000000000000000e100000002000000021000000000000000000000000000000000000000000000e10002000000000004001000000000000000000000000000000000000000000020000020002000000000100000000000000000000000000000000000000000004020008000000000000000000000000000000000000000000000000000000000a0000000000000000020d1814180000000000000000000000000000000000000c00000100010000000100000000ff03000000000000000000000000000000000c00000100010000000000000000000000000000000000000000000000000000070000000000000000034a1a00000000000000000000000000000000000000000c000002000200000001ffffffffffffffffffffffffffffffff0000000000000c000002000200000000ffffffffffffffffffffffffffffffff0000000000000e0000000004000000610800000000000000000000000000000000000000000002040002000200000000000000000000000000000000000000000000000000000e0000000004000000410100000000000000000000000000000000000000000005040002000000000000000000000000000000000000000000000000000000000e000000000200000061040000000000000000000000000000000000000000000e000002000000000020000000000000000000000000000000000000000000000c000002000200000001000000000000000000000000000000000000000000000c000002000200000000000000000000000000000000000000000000000000000e0000020000000000200100000000000000000000000000000000000000000010000000000000000000000000000000000000000000000000000000000000000c000004000400000001400000000000000000000000000000000000000000000c000004000400000000000000000000000000000000000000000000000000000e000004000000000040000000000000000000000000000000000000000000000c000004000400000001200000000000000000000000000000000000000000000c000004000400000000000000000000000000000000000000000000000000000c000008000800000001020000000000000000000000000000000000000000000c00000800080000000000000000000000000000000000000000000000000000180000020010000000000500000000000000000000000000000000000000000008100004001000000000000000000000000000000000000000000000000000000e100000002000000021000000000000000000000000000000000000000000000e10002000000000004001000000000000000000000000000000000000000000020000020002000000000100000000000000000000000000000000000000000004020008000000000000000000000000000000000000000000000000000000000a0000000000000000022a1831180000000000000000000000000000000000000c00000100010000000100000000ff03000000000000000000000000000000000c00000100010000000000000000000000000000000000000000000000000000070000000000000000034a1a00000000000000000000000000000000000000000c000002000200000001ffffffffffffffffffffffffffffffff0000000000000c000002000200000000ffffffff0000000000000000000000000000000000000e000000000400000061010000000000000000000000000000000000000000001a040002000400000002000000000000000000000000000000000000000000000e000000000200000041010000000000000000000000000000000000000000000e000004000000000060050000000000000000000000000000000000000000000e000004000000000020000000000000000000000000000000000000000000000e0000020000000000200100000000000000000000000000000000000000000010000000000000000000000000000000000000000000000000000000000000000c000002000200000001400000000000000000000000000000000000000000000c000002000200000000000000000000000000000000000000000000000000000e000002000000000040000000000000000000000000000000000000000000000c000002000200000001000000000000000000000000000000000000000000000c000002000200000000000000000000000000000000000000000000000000000c000004000400000001200000000000000000000000000000000000000000000c000004000400000000000000000000000000000000000000000000000000000c000008000800000001020000000000000000000000000000000000000000000c00000800080000000000000000000000000000000000000000000000000000180000020010000000000500000000000000000000000000000000000000000008100004001000000000000000000000000000000000000000000000000000000e100000002000000021000000000000000000000000000000000000000000000e10002000000000004001000000000000000000000000000000000000000000020000020002000000000100000000000000000000000000000000000000000004020008000000000000000000000000000000000000000000000000000000000a00000000000000000246184d180000000000000000000000000000000000000c00000100010000000100000000ff03000000000000000000000000000000000c00000100010000000000000000000000000000000000000000000000000000070000000000000000034a1a00000000000000000000000000000000000000000e0000000002000000410100000000000000000000000000000000000000000005020000000400000001000000000000000000000000000000000000000000000c000008000800000001ffffffffffffffffffffffffffffffff0000000000000c000008000800000000ffffffffffffffffffffffffffffffff00000000000004040008000000000000000000000000000000000000000000000000000000000a00000000000000000481195618000000000000000000000000000000000000020000040004000000000100000000000000000000000000000000000000000005020004000000000000000000000000000000000000000000000000000000000e000000000200000021020000000000000000000000000000000000000000000e000002000000000060080000000000000000000000000000000000000000000e00000000010000006104000000000000000000000000000000000000000000070000000000000000032b1a00000000000000000000000000000000000000000e0000000002000000610800000000000000000000000000000000000000000002000002000200000000200000000000000000000000000000000000000000000e000002000000000060090000000000000000000000000000000000000000000c000001000100000001010000000000000000000000000000000000000000000c00000100010000000000000000000000000000000000000000000000000000070000000000000000032b1a00000000000000000000000000000000000000000e0000000001000000610800000000000000000000000000000000000000000007000000000000000003031a00000000000000000000000000000000000000000e000000000800000061090000000000000000000000000000000000000000000c000002000200000001620f2daaac7a0f2483c0f443734254780000000000000c000002000200000000653dbf5b3d061d739773aec56881d5c30000000000000c000004000400000001040000004000000000000000000000000000000000000c000004000400000000000000000000000000000000000000000000000000000504000200000000000a000000000000000000000000000000000000000000000e000000000200000061010000000000000000000000000000000000000000000e00000000040000006106000000000000000000000000000000000000000000050200040000000000020000000000000000000000000000000000000000000005020001000000000002000000000000000000000000000000000000000000000e0000000002000000610800000000000000000000000000000000000000000002000002001000000000400000000000000000000000000000000000000000000e0000100000000000600800000000000000000000000000000000000000000004100008000000000000000000000000000000000000000000000000000000000a0000000000000000067318ba180000000000000000000000000000000000000e000000000200000021020000000000000000000000000000000000000000000e000002000000000060080000000000000000000000000000000000000000000e00000000010000006105000000000000000000000000000000000000000000070000000000000000032b1a00000000000000000000000000000000000000000e0000000002000000610800000000000000000000000000000000000000000002000002000200000000200000000000000000000000000000000000000000000c000001000100000001400000000000000000000000000000000000000000000c00000100010000000000000000000000000000000000000000000000000000070000000000000000032b1a00000000000000000000000000000000000000000e0000000001000000610300000000000000000000000000000000000000000007000000000000000003031a00000000000000000000000000000000000000000e000001000000000060060000000000000000000000000000000000000000000e000000000200000061080000000000000000000000000000000000000000000200000200020000000040000000000000000000000000000000000000000000070000000000000000032b1a00000000000000000000000000000000000000000c000004000400000001000000000000000000000000000000000000000000000c000004000400000000000000000000000000000000000000000000000000000e0000000002000000610800000000000000000000000000000000000000000002000002000200000000600000000000000000000000000000000000000000000e000002000000000060050000000000000000000000000000000000000000000e000000000200000061070000000000000000000000000000000000000000000e0000000002000000610600000000000000000000000000000000000000000004020000000000000000000000000000000000000000000000000000000000000a000000000000000004a1188b180000000000000000000000000000000000000e000004000000000060090000000000000000000000000000000000000000000e00000000020000006107000000000000000000000000000000000000000000020400020001000000000000000000000000000000000000000000000000000007000000000000000003031a00000000000000000000000000000000000000000e000000000200000061050000000000000000000000000000000000000000000e000000000400000061090000000000000000000000000000000000000000000204000200020000000000000000000000000000000000000000000000000000070000000000000000032b1a00000000000000000000000000000000000000000e0000000004000000610900000000000000000000000000000000000000000002000004000400000000200000000000000000000000000000000000000000000e0000000002000000610600000000000000000000000000000000000000000004040002000000000000000000000000000000000000000000000000000000000a0000000000000000028b1898180000000000000000000000000000000000000e0000000002000000610600000000000000000000000000000000000000000004040002000000000000000000000000000000000000000000000000000000000a000000000000000006a1189b180000000000000000000000000000000000000e000000000200000061060000000000000000000000000000000000000000000e0000000004000000610500000000000000000000000000000000000000000002020004000200000000000000000000000000000000000000000000000000000c000001000100000001000000000000000000000000000000000000000000000c00000100010000000000000000000000000000000000000000000000000000070000000000000000032b1a00000000000000000000000000000000000000000e00000000020000006106000000000000000000000000000000000000000000020000020002000000001f0000000000000000000000000000000000000000000c000004000400000001e0ffffffffffffffffffffffffffffff0000000000000c000004000400000000ffffffffffffffffffffffffffffffff0000000000001a020004000200000002000000000000000000000000000000000000000000000e0000000004000000610500000000000000000000000000000000000000000002040002001000000000000000000000000000000000000000000000000000000e00000000080000006108000000000000000000000000000000000000000000041000080002000000000000000000000000000000000000000000000000000018000002000200000000200000000000000000000000000000000000000000001a000002000200000004010000000000000000000000000000000000000000000c00000400040000000142bcc802784a5542ae5f0000e0584c810000000000000c000004000400000000ef6c8b3993115da7bf06ae5e497f053d0000000000000502000400000000000a000000000000000000000000000000000000000000000e0000100000000000600900000000000000000000000000000000000000000004100008000000000000000000000000000000000000000000000000000000000a000000000000000006b218d3180000000000000000000000000000000000000e0000000000000000e10800000000000000000000000000000000000000000007000000000000000000000000000000000000000000000000000000000000000c000002000200000001000000000000000000000000000000000000000000000c000002000200000000000000000000000000000000000000000000000000000520000200000000000200000000000000000000000000000000000000000000020000080008000000004000000000000000000000000000000000000000000004100008000000000000000000000000000000000000000000000000000000000a000000000000000008ba1873180000000000000000000000000000000000000e00000800000000006009000000000000000000000000000000000000000000020800000001000000000000000000000000000000000000000000000000000007000000000000000003031a00000000000000000000000000000000000000000e000000001000000061080000000000000000000000000000000000000000000e00000000080000006109000000000000000000000000000000000000000000041000080002000000000000000000000000000000000000000000000000000002010000002000000000000000000000000000000000000000000000000000000c0000040004000000013f0000000000000000000000000000000000000000000c0000040004000000000000000000000000000000000000000000000000000004020004000000000000000000000000000000000000000000000000000000000a000000000000000008c518b41800000000000000000000000000000000000002000008000100000000200000000000000000000000000000000000000000000e0000200000000000600600000000000000000000000000000000000000000007000000000000000003031a00000000000000000000000000000000000000000e000000001000000061080000000000000000000000000000000000000000000e000000000800000061090000000000000000000000000000000000000000000e0000000002000000610600000000000000000000000000000000000000000005020001000000000002000000000000000000000000000000000000000000000a000000000000000001b718b7180000000000000000000000000000000000000c000002000200000001000000000000000000000000000000000000000000000c000002000200000000000000000000000000000000000000000000000000000520000200000000000200000000000000000000000000000000000000000000020000080008000000004000000000000000000000000000000000000000000004100008000000000000000000000000000000000000000000000000000000000a000000000000000008d318b2180000000000000000000000000000000000000e00000800000000006008000000000000000000000000000000000000000000020800000001000000000000000000000000000000000000000000000000000007000000000000000003031a00000000000000000000000000000000000000000e000000001000000061090000000000000000000000000000000000000000000e00000000080000006108000000000000000000000000000000000000000000041000080002000000000000000000000000000000000000000000000000000002010000002000000000000000000000000000000000000000000000000000000c0000040004000000013f0000000000000000000000000000000000000000000c0000040004000000000000000000000000000000000000000000000000000004020004000000000000000000000000000000000000000000000000000000000a000000000000000008de18cd1800000000000000000000000000000000000002000008000100000000200000000000000000000000000000000000000000000e0000200000000000600700000000000000000000000000000000000000000007000000000000000003031a00000000000000000000000000000000000000000e000000001000000061090000000000000000000000000000000000000000000e000000000800000061080000000000000000000000000000000000000000000e0000000002000000610700000000000000000000000000000000000000000005020001000000000002000000000000000000000000000000000000000000000a000000000000000001d018d0180000000000000000000000000000000000000c000002000200000001000000000000000000000000000000000000000000000c000002000200000000000000000000000000000000717b484e0000000000000e000002000000000020000000000000000000000000000000000000000000000c000001000100000001410000000000000000000000000000000000000000000c000001000100000000000000000000000000000000000000000000000000000c000002000200000001040000000000000000000000000000000000000000000c00000200020000000000000000000000000000000000000000000000000000070000000000000000032b1a00000000000000000000000000000000000000000c000002000200000001240000000000000000000000000000000000000000000c000002000200000000000000000000000000000000000000000000000000000e000002000000000000000000000000000000000000000000000000000000000c000004000400000001000000000000000000000000000000000000000000000c000004000400000000000000000000000000000000000000000000000000000c000002000200000001200000000000000000000000000000000000000000000c000002000200000000000000000000000000000000000000000000000000000a000000000000000001f918f918000000000000000000000000000000000000020800000004000000000000000000000000000000000000000000000000000004100000000000000000000000000000000000000000000000000000000000000a00000000000000000af918a019000000000000000000000000000000000000180000040008000000000500000000000000000000000000000000000000000008080002000800000000000000000000000000000000000000000000000000000e080000001000000021000000000000000000000000000000000000000000000e0800100000000000000100000000000000000000000000000000000000000002000004000800000000010000000000000000000000000000000000000000000c000010001000000001010000000000000000000000000000000000000000000c0000100010000000000000000000000000000000000000000000000000000004080004000000000000000000000000000000000000000000000000000000000a000000000000000002f61802190000000000000000000000000000000000000c000010001000000001000000000000000000000000000000000000000000000c000010001000000000000000000000000000000000000000000000000000000a000000000000000001f618f6180000000000000000000000000000000000000c000002000200000001000000000000000000000000000000000000000000000c000002000200000000000000000000000000000000717b484e0000000000000e000002000000000020000000000000000000000000000000000000000000000c000001000100000001410000000000000000000000000000000000000000000c000001000100000000000000000000000000000000000000000000000000000c000002000200000001040000000000000000000000000000000000000000000c00000200020000000000000000000000000000000000000000000000000000070000000000000000032b1a00000000000000000000000000000000000000000c000002000200000001240000000000000000000000000000000000000000000c000002000200000000000000000000000000000000000000000000000000000e000002000000000000000000000000000000000000000000000000000000000c000004000400000001000000000000000000000000000000000000000000000c000004000400000000000000000000000000000000000000000000000000000c000002000200000001200000000000000000000000000000000000000000000c000002000200000000000000000000000000000000000000000000000000000a00000000000000000118191819000000000000000000000000000000000000020800000004000000000000000000000000000000000000000000000000000004100000000000000000000000000000000000000000000000000000000000000a00000000000000000a1819ab19000000000000000000000000000000000000180000040008000000000500000000000000000000000000000000000000000008080002000800000000000000000000000000000000000000000000000000000e080000001000000021000000000000000000000000000000000000000000000e0800100000000000000100000000000000000000000000000000000000000002000004000800000000010000000000000000000000000000000000000000000c000010001000000001010000000000000000000000000000000000000000000c0000100010000000000000000000000000000000000000000000000000000004080004000000000000000000000000000000000000000000000000000000000a000000000000000002151921190000000000000000000000000000000000000c000010001000000001000000000000000000000000000000000000000000000c000010001000000000000000000000000000000000000000000000000000000a000000000000000001151915190000000000000000000000000000000000000c000002000200000001000000000000000000000000000000000000000000000c000002000200000000000000000000000000000000717b484e0000000000000e000002000000000020000000000000000000000000000000000000000000000c000001000100000001320000000000000000000000000000000000000000000c000001000100000000000000000000000000000000000000000000000000000c000002000200000001040000000000000000000000000000000000000000000c00000200020000000000000000000000000000000000000000000000000000070000000000000000032b1a00000000000000000000000000000000000000000c000002000200000001240000000000000000000000000000000000000000000c000002000200000000000000000000000000000000000000000000000000000e000002000000000000000000000000000000000000000000000000000000000c000004000400000001000000000000000000000000000000000000000000000c000004000400000000000000000000000000000000000000000000000000000c000002000200000001200000000000000000000000000000000000000000000c000002000200000000000000000000000000000000000000000000000000000a00000000000000000137193719000000000000000000000000000000000000020800000004000000000000000000000000000000000000000000000000000004100000000000000000000000000000000000000000000000000000000000000a00000000000000000a3719b619000000000000000000000000000000000000180000040008000000000500000000000000000000000000000000000000000008080002000800000000000000000000000000000000000000000000000000000e080000001000000021000000000000000000000000000000000000000000000e0800100000000000000100000000000000000000000000000000000000000002000004000800000000010000000000000000000000000000000000000000000c000010001000000001010000000000000000000000000000000000000000000c0000100010000000000000000000000000000000000000000000000000000004080004000000000000000000000000000000000000000000000000000000000a000000000000000002341940190000000000000000000000000000000000000c000010001000000001000000000000000000000000000000000000000000000c000010001000000000000000000000000000000000000000000000000000000a000000000000000001341934190000000000000000000000000000000000000c000002000200000001000000000000000000000000000000000000000000000c000002000200000000000000000000000000000000717b484e0000000000000e000002000000000020000000000000000000000000000000000000000000000c000001000100000001410000000000000000000000000000000000000000000c000001000100000000000000000000000000000000000000000000000000000c000002000200000001040000000000000000000000000000000000000000000c00000200020000000000000000000000000000000000000000000000000000070000000000000000032b1a00000000000000000000000000000000000000000c000002000200000001240000000000000000000000000000000000000000000c000002000200000000000000000000000000000000000000000000000000000e000002000000000000000000000000000000000000000000000000000000000c000004000400000001000000000000000000000000000000000000000000000c000004000400000000000000000000000000000000000000000000000000000c000002000200000001200000000000000000000000000000000000000000000c000002000200000000000000000000000000000000000000000000000000000a00000000000000000156195619000000000000000000000000000000000000020800000004000000000000000000000000000000000000000000000000000004100000000000000000000000000000000000000000000000000000000000000a00000000000000000a5619c119000000000000000000000000000000000000180000040008000000000500000000000000000000000000000000000000000008080002000800000000000000000000000000000000000000000000000000000e080000001000000021000000000000000000000000000000000000000000000e0800100000000000000100000000000000000000000000000000000000000002000004000800000000010000000000000000000000000000000000000000000c000010001000000001010000000000000000000000000000000000000000000c0000100010000000000000000000000000000000000000000000000000000004080004000000000000000000000000000000000000000000000000000000000a00000000000000000253195f190000000000000000000000000000000000000c000010001000000001000000000000000000000000000000000000000000000c000010001000000000000000000000000000000000000000000000000000000a000000000000000001531953190000000000000000000000000000000000000c000002000200000001000000000000000000000000000000000000000000000c000002000200000000000000000000000000000000717b484e0000000000000e000002000000000020000000000000000000000000000000000000000000000c000001000100000001320000000000000000000000000000000000000000000c000001000100000000000000000000000000000000000000000000000000000c000002000200000001040000000000000000000000000000000000000000000c00000200020000000000000000000000000000000000000000000000000000070000000000000000032b1a00000000000000000000000000000000000000000c000002000200000001240000000000000000000000000000000000000000000c000002000200000000000000000000000000000000000000000000000000000e000002000000000000000000000000000000000000000000000000000000000c000004000400000001000000000000000000000000000000000000000000000c000004000400000000000000000000000000000000000000000000000000000c000002000200000001200000000000000000000000000000000000000000000c000002000200000000000000000000000000000000000000000000000000000a00000000000000000175197519000000000000000000000000000000000000020800000004000000000000000000000000000000000000000000000000000004100000000000000000000000000000000000000000000000000000000000000a00000000000000000a7519cc19000000000000000000000000000000000000180000040008000000000500000000000000000000000000000000000000000008080002000800000000000000000000000000000000000000000000000000000e080000001000000021000000000000000000000000000000000000000000000e0800100000000000000100000000000000000000000000000000000000000002000004000800000000010000000000000000000000000000000000000000000c000010001000000001010000000000000000000000000000000000000000000c0000100010000000000000000000000000000000000000000000000000000004080004000000000000000000000000000000000000000000000000000000000a00000000000000000272197e190000000000000000000000000000000000000c000010001000000001000000000000000000000000000000000000000000000c000010001000000000000000000000000000000000000000000000000000000a000000000000000001721972190000000000000000000000000000000000000c000002000200000001000000000000000000000000000000000000000000000c000002000200000000000000000000000000000000717b484e0000000000000e000002000000000020000000000000000000000000000000000000000000000c000001000100000001110000000000000000000000000000000000000000000c000001000100000000000000000000000000000000000000000000000000000c000002000200000001040000000000000000000000000000000000000000000c00000200020000000000000000000000000000000000000000000000000000070000000000000000032b1a00000000000000000000000000000000000000000c000002000200000001240000000000000000000000000000000000000000000c000002000200000000000000000000000000000000000000000000000000000e000002000000000000000000000000000000000000000000000000000000000c000004000400000001000000000000000000000000000000000000000000000c000004000400000000000000000000000000000000000000000000000000000c000002000200000001200000000000000000000000000000000000000000000c000002000200000000000000000000000000000000000000000000000000000a00000000000000000194199419000000000000000000000000000000000000020800000004000000000000000000000000000000000000000000000000000004100000000000000000000000000000000000000000000000000000000000000a00000000000000000a9419d719000000000000000000000000000000000000180000040008000000000500000000000000000000000000000000000000000008080002000800000000000000000000000000000000000000000000000000000e080000001000000021000000000000000000000000000000000000000000000e0800100000000000000100000000000000000000000000000000000000000002000004000800000000010000000000000000000000000000000000000000000c000010001000000001010000000000000000000000000000000000000000000c0000100010000000000000000000000000000000000000000000000000000004080004000000000000000000000000000000000000000000000000000000000a00000000000000000291199d190000000000000000000000000000000000000c000010001000000001000000000000000000000000000000000000000000000c000010001000000000000000000000000000000000000000000000000000000a000000000000000001911991190000000000000000000000000000000000000c000002000200000001ffffffffffffffffffffffffffffffff0000000000000c000002000200000000ffffffffffffffffffffffff000000000000000000000e000000000400000001020000000000000000000000000000000000000000001a040002000200000002000000000000000000000000000000000000000000000c000004000400000001000000000000000000000000000000000000000000000c000004000400000000000000000000000000000000ffffffff0000000000000e000000000800000021010000000000000000000000000000000000000000001a080004000400000002000000000000000000000000000000000000000000001a040002000200000004000000000000000000000000000000000000000000000e000002000000000000020000000000000000000000000000000000000000000a000000000000000001e119e1190000000000000000000000000000000000000c000002000200000001ffffffffffffffffffffffffffffffff0000000000000c000002000200000000ffffffffffffffffffffffff000000000000000000000e000000000400000001020000000000000000000000000000000000000000001a040002000200000002000000000000000000000000000000000000000000000c000004000400000001000000000000000000000000000000000000000000000c000004000400000000000000000000000000000000ffffffff0000000000000e000000000800000021010000000000000000000000000000000000000000001a080004000400000002000000000000000000000000000000000000000000001a040002000200000004000000000000000000000000000000000000000000000e000002000000000000020000000000000000000000000000000000000000000a000000000000000001e119e1190000000000000000000000000000000000000c000002000200000001ffffffffffffffffffffffffffffffff0000000000000c000002000200000000ffffffffffffffffffffffff000000000000000000000e000000000400000001020000000000000000000000000000000000000000001a040002000200000002000000000000000000000000000000000000000000000c000004000400000001000000000000000000000000000000000000000000000c000004000400000000000000000000000000000000ffffffff0000000000000e000000000800000021010000000000000000000000000000000000000000001a080004000400000002000000000000000000000000000000000000000000001a040002000200000004000000000000000000000000000000000000000000000e000002000000000000020000000000000000000000000000000000000000000a000000000000000001e119e1190000000000000000000000000000000000000c000002000200000001ffffffffffffffffffffffffffffffff0000000000000c000002000200000000ffffffffffffffffffffffff000000000000000000000e000000000400000001020000000000000000000000000000000000000000001a040002000200000002000000000000000000000000000000000000000000000c000004000400000001000000000000000000000000000000000000000000000c000004000400000000000000000000000000000000ffffffff0000000000000e000000000800000021010000000000000000000000000000000000000000001a080004000400000002000000000000000000000000000000000000000000001a040002000200000004000000000000000000000000000000000000000000000e000002000000000000020000000000000000000000000000000000000000000a000000000000000001e119e1190000000000000000000000000000000000000c000002000200000001ffffffffffffffffffffffffffffffff0000000000000c000002000200000000ffffffffffffffffffffffff000000000000000000000e000000000400000001020000000000000000000000000000000000000000001a040002000200000002000000000000000000000000000000000000000000000c000004000400000001000000000000000000000000000000000000000000000c000004000400000000000000000000000000000000ffffffff0000000000000e000000000800000021010000000000000000000000000000000000000000001a080004000400000002000000000000000000000000000000000000000000001a040002000200000004000000000000000000000000000000000000000000000e000002000000000000020000000000000000000000000000000000000000000a000000000000000001e119e1190000000000000000000000000000000000000c000002000200000001ffffffffffffffffffffffffffffffff0000000000000c000002000200000000ffffffffffffffffffffffff000000000000000000000e000000000400000001020000000000000000000000000000000000000000001a040002000200000002000000000000000000000000000000000000000000000c000004000400000001000000000000000000000000000000000000000000000c000004000400000000000000000000000000000000ffffffff0000000000000e000000000800000021010000000000000000000000000000000000000000001a080004000400000002000000000000000000000000000000000000000000001a040002000200000004000000000000000000000000000000000000000000000e000002000000000000020000000000000000000000000000000000000000000e0000000000000000e10800000000000000000000000000000000000000000007000000000000000004000000000000000000000000000000000000000000000c000002000200000001000000000000000000000000000000000000000000000c000002000200000000000000000000000000000000ffffffff0000000000001a010002000200000002000000000000000000000000000000000000000000000c000004000400000001010000000000000000000000000000000000000000000c000004000400000000000000000000000000000000000000000000000000000c000008000800000001000000000000000000000000000000000000000000000c000008000800000000000000000000000000000000267ab6d900000000000004020008000000000000000000000000000000000000000000000000000000000a000000000000000004011aec190000000000000000000000000000000000000c000008000800000001000000000000000000000000000000000000000000000c0000080008000000000000000000000000000000001c34890e00000000000004020008000000000000000000000000000000000000000000000000000000000a000000000000000004011af0190000000000000000000000000000000000000c000010001000000001000000000000000000000000000000000000000000000c000010001000000000000000000000000000000000a7c9ff010000000000000c000004000400000001010000000000000000000000000000000000000000000c000004000400000000000000000000000000000000000000000000000000000c000008000800000001010000000000000000000000000000000000000000000c0000080008000000000000000000000000000000000000000000000000000004020010000000000000000000000000000000000000000000000000000000000a000000000000000004fa19f8190000000000000000000000000000000000000c000008000800000001000000000000000000000000000000000000000000000c000008000800000000000000000000000000000000000000000000000000000c000010001000000001000000000000000000000000000000000000000000000c000010001000000000000000000000000000000000e012234e00000000000004020010000000000000000000000000000000000000000000000000000000000a000000000000000004001afe190000000000000000000000000000000000000c000004000400000001000000000000000000000000000000000000000000000c000004000400000000000000000000000000000000000000000000000000001a040008000400000004000000000000000000000000000000000000000000001a0000040001000000020100000000000000000000000000000000000000000007000000000000000000000000000000000000000000000000000000000000000c000002000200000001e0ffffffffffffffffffffffffffffff0000000000000c000002000200000000ffffffffffffffffffffffffffffffff0000000000001a010002000200000002000000000000000000000000000000000000000000000c000004000400000001200000000000000000000000000000000000000000000c0000040004000000000000000000000000000000000000000000000000000008020004000400000000000000000000000000000000000000000000000000001a0000010002000000021f00000000000000000000000000000000000000000018000002000800000000030000000000000000000000000000000000000000000e0400000002000000210000000000000000000000000000000000000000000004080000000000000000000000000000000000000000000000000000000000000a000000000000000004151a0e1a0000000000000000000000000000000000000c000010001000000001000100000000000000000000000000000000000000000c0000100010000000000000000000000000000000000000000000000000000004100008001000000000000000000000000000000000000000000000000000000e04000000040000002101000000000000000000000000000000000000000000181000040004000000020000000000000000000000000000000000000000000018080002000200000000000000000000000000000000000000000000000000001a04000200020000000400000000000000000000000000000000000000000000020200000001000000000000000000000000000000000000000000000000000007000000000000000000000000000000000000000000000000000000000000000c000002000200000001e0ffffffffffffffffffffffffffffff0000000000000c000002000200000000ffffffffffffffffffffffffffffffff0000000000001a010002000200000002000000000000000000000000000000000000000000000c000004000400000001200000000000000000000000000000000000000000000c0000040004000000000000000000000000000000000000000000000000000008020004000400000000000000000000000000000000000000000000000000001a0000010002000000021f00000000000000000000000000000000000000000018000002000800000000030000000000000000000000000000000000000000000e0400000002000000010000000000000000000000000000000000000000000004080000000000000000000000000000000000000000000000000000000000000a000000000000000004291a221a0000000000000000000000000000000000000c000010001000000001000100000000000000000000000000000000000000000c0000100010000000000000000000000000000000000000000000000000000004100008001000000000000000000000000000000000000000000000000000000e04000000040000000101000000000000000000000000000000000000000000181000040004000000020000000000000000000000000000000000000000000018080002000200000000000000000000000000000000000000000000000000001a04000200020000000400000000000000000000000000000000000000000000020200000001000000000000000000000000000000000000000000000000000007000000000000000000000000000000000000000000000000000000000000000c000004000400000001e0ffffffffffffffffffffffffffffff0000000000000c000004000400000000ffffffffffffffffffffffffffffffff0000000000001a020004000400000002000000000000000000000000000000000000000000000c000008000800000001200000000000000000000000000000000000000000000c0000080008000000000000000000000000000000000000000000000000000008040008000400000000000000000000000000000000000000000000000000001a0000020002000000021f00000000000000000000000000000000000000000018000002000200000000030000000000000000000000000000000000000000000c000008000800000001000100000000000000000000000000000000000000000c0000080008000000000000000000000000000000000000000000000000000004080002001000000000000000000000000000000000000000000000000000000c000020002000000001ffffffffffffffffffffffffffffffff0000000000000c000020002000000000ffffffffffffffffffffffffffffffff000000000000020100000008000000000000000000000000000000000000000000000000000004020000000000000000000000000000000000000000000000000000000000000a000000000000000004401a3b1a00000000000000000000000000000000000018100020000800000000000000000000000000000000000000000000000000000e040000004000000021000000000000000000000000000000000000000000001a4000080008000000020000000000000000000000000000000000000000000018020001004000000002000000000000000000000000000000000000000000001a400008000800000004000000000000000000000000000000000000000000000e0400000040000000210100000000000000000000000000000000000000000004020000000000000000000000000000000000000000000000000000000000000a000000000000000004471a431a000000000000000000000000000000000000181000010010000000000000000000000000000000000000000000000000000018020020000200000002000000000000000000000000000000000000000000001a400002000200000002000000000000000000000000000000000000000000001a100002004000000004000000000000000000000000000000000000000000000e040040000000000020010000000000000000000000000000000000000000000e04000800000000002000000000000000000000000000000000000000000000070000000000000000000000000000000000000000000000000000000000000007010000000000000005000000000000000000000000000000000000000000000a0000000000000000024c1a4f1a0000000000000000000000000000000000000c000001000100000001000000000000000000000000000000000000000000000c0000010001000000000000000000000000000000000000000000000000000007000000000000000000000000000000000000000000000000000000000000000c000001000100000001010000000000000000000000000000000000000000000c000001000100000000000000000000000000000000000000000000000000000700000000000000000000000000000000000000000000000000000000000000"
        }
      },
      "factoryDependencies": {},
      "hash": "52885ffacbebef78aaffef85129bf00feb4c848953c3bb02f05a0986cd592830"
    }
  }
}